{
	"contracts/ConstantK.sol": {
		"CPAMM": {
			"abi": [
				{
					"inputs": [
						{
							"internalType": "address",
							"name": "_token0",
							"type": "address"
						},
						{
							"internalType": "address",
							"name": "_token1",
							"type": "address"
						},
						{
							"internalType": "address",
							"name": "_priceFeed",
							"type": "address"
						}
					],
					"stateMutability": "nonpayable",
					"type": "constructor"
				},
				{
					"inputs": [
						{
							"internalType": "address",
							"name": "spender",
							"type": "address"
						},
						{
							"internalType": "uint256",
							"name": "allowance",
							"type": "uint256"
						},
						{
							"internalType": "uint256",
							"name": "needed",
							"type": "uint256"
						}
					],
					"name": "ERC20InsufficientAllowance",
					"type": "error"
				},
				{
					"inputs": [
						{
							"internalType": "address",
							"name": "sender",
							"type": "address"
						},
						{
							"internalType": "uint256",
							"name": "balance",
							"type": "uint256"
						},
						{
							"internalType": "uint256",
							"name": "needed",
							"type": "uint256"
						}
					],
					"name": "ERC20InsufficientBalance",
					"type": "error"
				},
				{
					"inputs": [
						{
							"internalType": "address",
							"name": "approver",
							"type": "address"
						}
					],
					"name": "ERC20InvalidApprover",
					"type": "error"
				},
				{
					"inputs": [
						{
							"internalType": "address",
							"name": "receiver",
							"type": "address"
						}
					],
					"name": "ERC20InvalidReceiver",
					"type": "error"
				},
				{
					"inputs": [
						{
							"internalType": "address",
							"name": "sender",
							"type": "address"
						}
					],
					"name": "ERC20InvalidSender",
					"type": "error"
				},
				{
					"inputs": [
						{
							"internalType": "address",
							"name": "spender",
							"type": "address"
						}
					],
					"name": "ERC20InvalidSpender",
					"type": "error"
				},
				{
					"anonymous": false,
					"inputs": [
						{
							"indexed": true,
							"internalType": "address",
							"name": "owner",
							"type": "address"
						},
						{
							"indexed": true,
							"internalType": "address",
							"name": "spender",
							"type": "address"
						},
						{
							"indexed": false,
							"internalType": "uint256",
							"name": "value",
							"type": "uint256"
						}
					],
					"name": "Approval",
					"type": "event"
				},
				{
					"anonymous": false,
					"inputs": [
						{
							"indexed": true,
							"internalType": "address",
							"name": "from",
							"type": "address"
						},
						{
							"indexed": true,
							"internalType": "address",
							"name": "to",
							"type": "address"
						},
						{
							"indexed": false,
							"internalType": "uint256",
							"name": "value",
							"type": "uint256"
						}
					],
					"name": "Transfer",
					"type": "event"
				},
				{
					"inputs": [
						{
							"internalType": "uint256",
							"name": "_amount0",
							"type": "uint256"
						},
						{
							"internalType": "uint256",
							"name": "_amount1",
							"type": "uint256"
						}
					],
					"name": "addLiquidity",
					"outputs": [
						{
							"internalType": "uint256",
							"name": "shares",
							"type": "uint256"
						}
					],
					"stateMutability": "nonpayable",
					"type": "function"
				},
				{
					"inputs": [
						{
							"internalType": "address",
							"name": "owner",
							"type": "address"
						},
						{
							"internalType": "address",
							"name": "spender",
							"type": "address"
						}
					],
					"name": "allowance",
					"outputs": [
						{
							"internalType": "uint256",
							"name": "",
							"type": "uint256"
						}
					],
					"stateMutability": "view",
					"type": "function"
				},
				{
					"inputs": [
						{
							"internalType": "address",
							"name": "spender",
							"type": "address"
						},
						{
							"internalType": "uint256",
							"name": "value",
							"type": "uint256"
						}
					],
					"name": "approve",
					"outputs": [
						{
							"internalType": "bool",
							"name": "",
							"type": "bool"
						}
					],
					"stateMutability": "nonpayable",
					"type": "function"
				},
				{
					"inputs": [
						{
							"internalType": "address",
							"name": "account",
							"type": "address"
						}
					],
					"name": "balanceOf",
					"outputs": [
						{
							"internalType": "uint256",
							"name": "",
							"type": "uint256"
						}
					],
					"stateMutability": "view",
					"type": "function"
				},
				{
					"inputs": [],
					"name": "decimals",
					"outputs": [
						{
							"internalType": "uint8",
							"name": "",
							"type": "uint8"
						}
					],
					"stateMutability": "view",
					"type": "function"
				},
				{
					"inputs": [],
					"name": "fee",
					"outputs": [
						{
							"internalType": "uint256",
							"name": "",
							"type": "uint256"
						}
					],
					"stateMutability": "view",
					"type": "function"
				},
				{
					"inputs": [],
					"name": "getLatestBTCPrice",
					"outputs": [
						{
							"internalType": "uint256",
							"name": "",
							"type": "uint256"
						}
					],
					"stateMutability": "view",
					"type": "function"
				},
				{
					"inputs": [],
					"name": "name",
					"outputs": [
						{
							"internalType": "string",
							"name": "",
							"type": "string"
						}
					],
					"stateMutability": "view",
					"type": "function"
				},
				{
					"inputs": [],
					"name": "priceFeed",
					"outputs": [
						{
							"internalType": "contract AggregatorV3Interface",
							"name": "",
							"type": "address"
						}
					],
					"stateMutability": "view",
					"type": "function"
				},
				{
					"inputs": [
						{
							"internalType": "uint256",
							"name": "_shares",
							"type": "uint256"
						}
					],
					"name": "removeLiquidity",
					"outputs": [
						{
							"internalType": "uint256",
							"name": "amount0",
							"type": "uint256"
						},
						{
							"internalType": "uint256",
							"name": "amount1",
							"type": "uint256"
						}
					],
					"stateMutability": "nonpayable",
					"type": "function"
				},
				{
					"inputs": [],
					"name": "reserve0",
					"outputs": [
						{
							"internalType": "uint256",
							"name": "",
							"type": "uint256"
						}
					],
					"stateMutability": "view",
					"type": "function"
				},
				{
					"inputs": [],
					"name": "reserve1",
					"outputs": [
						{
							"internalType": "uint256",
							"name": "",
							"type": "uint256"
						}
					],
					"stateMutability": "view",
					"type": "function"
				},
				{
					"inputs": [
						{
							"internalType": "address",
							"name": "_tokenIn",
							"type": "address"
						},
						{
							"internalType": "uint256",
							"name": "_amountIn",
							"type": "uint256"
						}
					],
					"name": "swap",
					"outputs": [
						{
							"internalType": "uint256",
							"name": "amountOut",
							"type": "uint256"
						}
					],
					"stateMutability": "nonpayable",
					"type": "function"
				},
				{
					"inputs": [],
					"name": "symbol",
					"outputs": [
						{
							"internalType": "string",
							"name": "",
							"type": "string"
						}
					],
					"stateMutability": "view",
					"type": "function"
				},
				{
					"inputs": [],
					"name": "token0",
					"outputs": [
						{
							"internalType": "contract IERC20",
							"name": "",
							"type": "address"
						}
					],
					"stateMutability": "view",
					"type": "function"
				},
				{
					"inputs": [],
					"name": "token1",
					"outputs": [
						{
							"internalType": "contract IERC20",
							"name": "",
							"type": "address"
						}
					],
					"stateMutability": "view",
					"type": "function"
				},
				{
					"inputs": [],
					"name": "totalSupply",
					"outputs": [
						{
							"internalType": "uint256",
							"name": "",
							"type": "uint256"
						}
					],
					"stateMutability": "view",
					"type": "function"
				},
				{
					"inputs": [
						{
							"internalType": "address",
							"name": "to",
							"type": "address"
						},
						{
							"internalType": "uint256",
							"name": "value",
							"type": "uint256"
						}
					],
					"name": "transfer",
					"outputs": [
						{
							"internalType": "bool",
							"name": "",
							"type": "bool"
						}
					],
					"stateMutability": "nonpayable",
					"type": "function"
				},
				{
					"inputs": [
						{
							"internalType": "address",
							"name": "from",
							"type": "address"
						},
						{
							"internalType": "address",
							"name": "to",
							"type": "address"
						},
						{
							"internalType": "uint256",
							"name": "value",
							"type": "uint256"
						}
					],
					"name": "transferFrom",
					"outputs": [
						{
							"internalType": "bool",
							"name": "",
							"type": "bool"
						}
					],
					"stateMutability": "nonpayable",
					"type": "function"
				}
			],
			"devdoc": {
				"errors": {
					"ERC20InsufficientAllowance(address,uint256,uint256)": [
						{
							"details": "Indicates a failure with the `spender`’s `allowance`. Used in transfers.",
							"params": {
								"allowance": "Amount of tokens a `spender` is allowed to operate with.",
								"needed": "Minimum amount required to perform a transfer.",
								"spender": "Address that may be allowed to operate on tokens without being their owner."
							}
						}
					],
					"ERC20InsufficientBalance(address,uint256,uint256)": [
						{
							"details": "Indicates an error related to the current `balance` of a `sender`. Used in transfers.",
							"params": {
								"balance": "Current balance for the interacting account.",
								"needed": "Minimum amount required to perform a transfer.",
								"sender": "Address whose tokens are being transferred."
							}
						}
					],
					"ERC20InvalidApprover(address)": [
						{
							"details": "Indicates a failure with the `approver` of a token to be approved. Used in approvals.",
							"params": {
								"approver": "Address initiating an approval operation."
							}
						}
					],
					"ERC20InvalidReceiver(address)": [
						{
							"details": "Indicates a failure with the token `receiver`. Used in transfers.",
							"params": {
								"receiver": "Address to which tokens are being transferred."
							}
						}
					],
					"ERC20InvalidSender(address)": [
						{
							"details": "Indicates a failure with the token `sender`. Used in transfers.",
							"params": {
								"sender": "Address whose tokens are being transferred."
							}
						}
					],
					"ERC20InvalidSpender(address)": [
						{
							"details": "Indicates a failure with the `spender` to be approved. Used in approvals.",
							"params": {
								"spender": "Address that may be allowed to operate on tokens without being their owner."
							}
						}
					]
				},
				"events": {
					"Approval(address,address,uint256)": {
						"details": "Emitted when the allowance of a `spender` for an `owner` is set by a call to {approve}. `value` is the new allowance."
					},
					"Transfer(address,address,uint256)": {
						"details": "Emitted when `value` tokens are moved from one account (`from`) to another (`to`). Note that `value` may be zero."
					}
				},
				"kind": "dev",
				"methods": {
					"allowance(address,address)": {
						"details": "See {IERC20-allowance}."
					},
					"approve(address,uint256)": {
						"details": "See {IERC20-approve}. NOTE: If `value` is the maximum `uint256`, the allowance is not updated on `transferFrom`. This is semantically equivalent to an infinite approval. Requirements: - `spender` cannot be the zero address."
					},
					"balanceOf(address)": {
						"details": "See {IERC20-balanceOf}."
					},
					"decimals()": {
						"details": "Returns the number of decimals used to get its user representation. For example, if `decimals` equals `2`, a balance of `505` tokens should be displayed to a user as `5.05` (`505 / 10 ** 2`). Tokens usually opt for a value of 18, imitating the relationship between Ether and Wei. This is the default value returned by this function, unless it's overridden. NOTE: This information is only used for _display_ purposes: it in no way affects any of the arithmetic of the contract, including {IERC20-balanceOf} and {IERC20-transfer}."
					},
					"name()": {
						"details": "Returns the name of the token."
					},
					"symbol()": {
						"details": "Returns the symbol of the token, usually a shorter version of the name."
					},
					"totalSupply()": {
						"details": "See {IERC20-totalSupply}."
					},
					"transfer(address,uint256)": {
						"details": "See {IERC20-transfer}. Requirements: - `to` cannot be the zero address. - the caller must have a balance of at least `value`."
					},
					"transferFrom(address,address,uint256)": {
						"details": "See {IERC20-transferFrom}. Skips emitting an {Approval} event indicating an allowance update. This is not required by the ERC. See {xref-ERC20-_approve-address-address-uint256-bool-}[_approve]. NOTE: Does not update the allowance if the current allowance is the maximum `uint256`. Requirements: - `from` and `to` cannot be the zero address. - `from` must have a balance of at least `value`. - the caller must have allowance for ``from``'s tokens of at least `value`."
					}
				},
				"version": 1
			},
			"evm": {
				"assembly": "    /* \"contracts/ConstantK.sol\":255:4082  contract CPAMM is ERC20 {... */\n  mstore(0x40, 0xe0)\n    /* \"contracts/ConstantK.sol\":472:473  3 */\n  0x03\n    /* \"contracts/ConstantK.sol\":451:473  uint256 public fee = 3 */\n  0x05\n  sstore\n    /* \"contracts/ConstantK.sol\":574:829  constructor(address _token0, address _token1, address _priceFeed) ERC20 (\"VIS\", \"VietSwap\") {... */\n  callvalue\n  dup1\n  iszero\n  tag_1\n  jumpi\n  0x00\n  dup1\n  revert\ntag_1:\n  pop\n  mload(0x40)\n  sub(codesize, bytecodeSize)\n  dup1\n  bytecodeSize\n  dup4\n  codecopy\n  dup2\n  dup2\n  add\n  0x40\n  mstore\n  dup2\n  add\n  swap1\n  tag_2\n  swap2\n  swap1\n  tag_3\n  jump\t// in\ntag_2:\n    /* \"@openzeppelin/contracts/token/ERC20/ERC20.sol\":1582:1695  constructor(string memory name_, string memory symbol_) {... */\n  mload(0x40)\n  dup1\n  0x40\n  add\n  0x40\n  mstore\n  dup1\n  0x03\n  dup2\n  mstore\n  0x20\n  add\n  0x5649530000000000000000000000000000000000000000000000000000000000\n  dup2\n  mstore\n  pop\n  mload(0x40)\n  dup1\n  0x40\n  add\n  0x40\n  mstore\n  dup1\n  0x08\n  dup2\n  mstore\n  0x20\n  add\n  0x5669657453776170000000000000000000000000000000000000000000000000\n  dup2\n  mstore\n  pop\n    /* \"@openzeppelin/contracts/token/ERC20/ERC20.sol\":1656:1661  name_ */\n  dup2\n    /* \"@openzeppelin/contracts/token/ERC20/ERC20.sol\":1648:1653  _name */\n  0x03\n    /* \"@openzeppelin/contracts/token/ERC20/ERC20.sol\":1648:1661  _name = name_ */\n  swap1\n  dup2\n  tag_7\n  swap2\n  swap1\n  tag_8\n  jump\t// in\ntag_7:\n  pop\n    /* \"@openzeppelin/contracts/token/ERC20/ERC20.sol\":1681:1688  symbol_ */\n  dup1\n    /* \"@openzeppelin/contracts/token/ERC20/ERC20.sol\":1671:1678  _symbol */\n  0x04\n    /* \"@openzeppelin/contracts/token/ERC20/ERC20.sol\":1671:1688  _symbol = symbol_ */\n  swap1\n  dup2\n  tag_9\n  swap2\n  swap1\n  tag_8\n  jump\t// in\ntag_9:\n  pop\n    /* \"@openzeppelin/contracts/token/ERC20/ERC20.sol\":1582:1695  constructor(string memory name_, string memory symbol_) {... */\n  pop\n  pop\n    /* \"contracts/ConstantK.sol\":693:700  _token0 */\n  dup3\n    /* \"contracts/ConstantK.sol\":677:701  token0 = IERC20(_token0) */\n  0xffffffffffffffffffffffffffffffffffffffff\n  and\n  0x80\n  dup2\n  0xffffffffffffffffffffffffffffffffffffffff\n  and\n  dup2\n  mstore\n  pop\n  pop\n    /* \"contracts/ConstantK.sol\":728:735  _token1 */\n  dup2\n    /* \"contracts/ConstantK.sol\":712:736  token1 = IERC20(_token1) */\n  0xffffffffffffffffffffffffffffffffffffffff\n  and\n  0xa0\n  dup2\n  0xffffffffffffffffffffffffffffffffffffffff\n  and\n  dup2\n  mstore\n  pop\n  pop\n    /* \"contracts/ConstantK.sol\":781:791  _priceFeed */\n  dup1\n    /* \"contracts/ConstantK.sol\":747:792  priceFeed = AggregatorV3Interface(_priceFeed) */\n  0xffffffffffffffffffffffffffffffffffffffff\n  and\n  0xc0\n  dup2\n  0xffffffffffffffffffffffffffffffffffffffff\n  and\n  dup2\n  mstore\n  pop\n  pop\n    /* \"contracts/ConstantK.sol\":811:821  msg.sender */\n  caller\n    /* \"contracts/ConstantK.sol\":803:808  owner */\n  0x08\n  0x00\n    /* \"contracts/ConstantK.sol\":803:821  owner = msg.sender */\n  0x0100\n  exp\n  dup2\n  sload\n  dup2\n  0xffffffffffffffffffffffffffffffffffffffff\n  mul\n  not\n  and\n  swap1\n  dup4\n  0xffffffffffffffffffffffffffffffffffffffff\n  and\n  mul\n  or\n  swap1\n  sstore\n  pop\n    /* \"contracts/ConstantK.sol\":574:829  constructor(address _token0, address _token1, address _priceFeed) ERC20 (\"VIS\", \"VietSwap\") {... */\n  pop\n  pop\n  pop\n    /* \"contracts/ConstantK.sol\":255:4082  contract CPAMM is ERC20 {... */\n  jump(tag_11)\n    /* \"#utility.yul\":88:205   */\ntag_13:\n    /* \"#utility.yul\":197:198   */\n  0x00\n    /* \"#utility.yul\":194:195   */\n  dup1\n    /* \"#utility.yul\":187:199   */\n  revert\n    /* \"#utility.yul\":334:460   */\ntag_15:\n    /* \"#utility.yul\":371:378   */\n  0x00\n    /* \"#utility.yul\":411:453   */\n  0xffffffffffffffffffffffffffffffffffffffff\n    /* \"#utility.yul\":404:409   */\n  dup3\n    /* \"#utility.yul\":400:454   */\n  and\n    /* \"#utility.yul\":389:454   */\n  swap1\n  pop\n    /* \"#utility.yul\":334:460   */\n  swap2\n  swap1\n  pop\n  jump\t// out\n    /* \"#utility.yul\":466:562   */\ntag_16:\n    /* \"#utility.yul\":503:510   */\n  0x00\n    /* \"#utility.yul\":532:556   */\n  tag_45\n    /* \"#utility.yul\":550:555   */\n  dup3\n    /* \"#utility.yul\":532:556   */\n  tag_15\n  jump\t// in\ntag_45:\n    /* \"#utility.yul\":521:556   */\n  swap1\n  pop\n    /* \"#utility.yul\":466:562   */\n  swap2\n  swap1\n  pop\n  jump\t// out\n    /* \"#utility.yul\":568:690   */\ntag_17:\n    /* \"#utility.yul\":641:665   */\n  tag_47\n    /* \"#utility.yul\":659:664   */\n  dup2\n    /* \"#utility.yul\":641:665   */\n  tag_16\n  jump\t// in\ntag_47:\n    /* \"#utility.yul\":634:639   */\n  dup2\n    /* \"#utility.yul\":631:666   */\n  eq\n    /* \"#utility.yul\":621:684   */\n  tag_48\n  jumpi\n    /* \"#utility.yul\":680:681   */\n  0x00\n    /* \"#utility.yul\":677:678   */\n  dup1\n    /* \"#utility.yul\":670:682   */\n  revert\n    /* \"#utility.yul\":621:684   */\ntag_48:\n    /* \"#utility.yul\":568:690   */\n  pop\n  jump\t// out\n    /* \"#utility.yul\":696:839   */\ntag_18:\n    /* \"#utility.yul\":753:758   */\n  0x00\n    /* \"#utility.yul\":784:790   */\n  dup2\n    /* \"#utility.yul\":778:791   */\n  mload\n    /* \"#utility.yul\":769:791   */\n  swap1\n  pop\n    /* \"#utility.yul\":800:833   */\n  tag_50\n    /* \"#utility.yul\":827:832   */\n  dup2\n    /* \"#utility.yul\":800:833   */\n  tag_17\n  jump\t// in\ntag_50:\n    /* \"#utility.yul\":696:839   */\n  swap3\n  swap2\n  pop\n  pop\n  jump\t// out\n    /* \"#utility.yul\":845:1508   */\ntag_3:\n    /* \"#utility.yul\":933:939   */\n  0x00\n    /* \"#utility.yul\":941:947   */\n  dup1\n    /* \"#utility.yul\":949:955   */\n  0x00\n    /* \"#utility.yul\":998:1000   */\n  0x60\n    /* \"#utility.yul\":986:995   */\n  dup5\n    /* \"#utility.yul\":977:984   */\n  dup7\n    /* \"#utility.yul\":973:996   */\n  sub\n    /* \"#utility.yul\":969:1001   */\n  slt\n    /* \"#utility.yul\":966:1085   */\n  iszero\n  tag_52\n  jumpi\n    /* \"#utility.yul\":1004:1083   */\n  tag_53\n  tag_13\n  jump\t// in\ntag_53:\n    /* \"#utility.yul\":966:1085   */\ntag_52:\n    /* \"#utility.yul\":1124:1125   */\n  0x00\n    /* \"#utility.yul\":1149:1213   */\n  tag_54\n    /* \"#utility.yul\":1205:1212   */\n  dup7\n    /* \"#utility.yul\":1196:1202   */\n  dup3\n    /* \"#utility.yul\":1185:1194   */\n  dup8\n    /* \"#utility.yul\":1181:1203   */\n  add\n    /* \"#utility.yul\":1149:1213   */\n  tag_18\n  jump\t// in\ntag_54:\n    /* \"#utility.yul\":1139:1213   */\n  swap4\n  pop\n    /* \"#utility.yul\":1095:1223   */\n  pop\n    /* \"#utility.yul\":1262:1264   */\n  0x20\n    /* \"#utility.yul\":1288:1352   */\n  tag_55\n    /* \"#utility.yul\":1344:1351   */\n  dup7\n    /* \"#utility.yul\":1335:1341   */\n  dup3\n    /* \"#utility.yul\":1324:1333   */\n  dup8\n    /* \"#utility.yul\":1320:1342   */\n  add\n    /* \"#utility.yul\":1288:1352   */\n  tag_18\n  jump\t// in\ntag_55:\n    /* \"#utility.yul\":1278:1352   */\n  swap3\n  pop\n    /* \"#utility.yul\":1233:1362   */\n  pop\n    /* \"#utility.yul\":1401:1403   */\n  0x40\n    /* \"#utility.yul\":1427:1491   */\n  tag_56\n    /* \"#utility.yul\":1483:1490   */\n  dup7\n    /* \"#utility.yul\":1474:1480   */\n  dup3\n    /* \"#utility.yul\":1463:1472   */\n  dup8\n    /* \"#utility.yul\":1459:1481   */\n  add\n    /* \"#utility.yul\":1427:1491   */\n  tag_18\n  jump\t// in\ntag_56:\n    /* \"#utility.yul\":1417:1491   */\n  swap2\n  pop\n    /* \"#utility.yul\":1372:1501   */\n  pop\n    /* \"#utility.yul\":845:1508   */\n  swap3\n  pop\n  swap3\n  pop\n  swap3\n  jump\t// out\n    /* \"#utility.yul\":1514:1613   */\ntag_19:\n    /* \"#utility.yul\":1566:1572   */\n  0x00\n    /* \"#utility.yul\":1600:1605   */\n  dup2\n    /* \"#utility.yul\":1594:1606   */\n  mload\n    /* \"#utility.yul\":1584:1606   */\n  swap1\n  pop\n    /* \"#utility.yul\":1514:1613   */\n  swap2\n  swap1\n  pop\n  jump\t// out\n    /* \"#utility.yul\":1619:1799   */\ntag_20:\n    /* \"#utility.yul\":1667:1744   */\n  0x4e487b7100000000000000000000000000000000000000000000000000000000\n    /* \"#utility.yul\":1664:1665   */\n  0x00\n    /* \"#utility.yul\":1657:1745   */\n  mstore\n    /* \"#utility.yul\":1764:1768   */\n  0x41\n    /* \"#utility.yul\":1761:1762   */\n  0x04\n    /* \"#utility.yul\":1754:1769   */\n  mstore\n    /* \"#utility.yul\":1788:1792   */\n  0x24\n    /* \"#utility.yul\":1785:1786   */\n  0x00\n    /* \"#utility.yul\":1778:1793   */\n  revert\n    /* \"#utility.yul\":1805:1985   */\ntag_21:\n    /* \"#utility.yul\":1853:1930   */\n  0x4e487b7100000000000000000000000000000000000000000000000000000000\n    /* \"#utility.yul\":1850:1851   */\n  0x00\n    /* \"#utility.yul\":1843:1931   */\n  mstore\n    /* \"#utility.yul\":1950:1954   */\n  0x22\n    /* \"#utility.yul\":1947:1948   */\n  0x04\n    /* \"#utility.yul\":1940:1955   */\n  mstore\n    /* \"#utility.yul\":1974:1978   */\n  0x24\n    /* \"#utility.yul\":1971:1972   */\n  0x00\n    /* \"#utility.yul\":1964:1979   */\n  revert\n    /* \"#utility.yul\":1991:2311   */\ntag_22:\n    /* \"#utility.yul\":2035:2041   */\n  0x00\n    /* \"#utility.yul\":2072:2073   */\n  0x02\n    /* \"#utility.yul\":2066:2070   */\n  dup3\n    /* \"#utility.yul\":2062:2074   */\n  div\n    /* \"#utility.yul\":2052:2074   */\n  swap1\n  pop\n    /* \"#utility.yul\":2119:2120   */\n  0x01\n    /* \"#utility.yul\":2113:2117   */\n  dup3\n    /* \"#utility.yul\":2109:2121   */\n  and\n    /* \"#utility.yul\":2140:2158   */\n  dup1\n    /* \"#utility.yul\":2130:2211   */\n  tag_61\n  jumpi\n    /* \"#utility.yul\":2196:2200   */\n  0x7f\n    /* \"#utility.yul\":2188:2194   */\n  dup3\n    /* \"#utility.yul\":2184:2201   */\n  and\n    /* \"#utility.yul\":2174:2201   */\n  swap2\n  pop\n    /* \"#utility.yul\":2130:2211   */\ntag_61:\n    /* \"#utility.yul\":2258:2260   */\n  0x20\n    /* \"#utility.yul\":2250:2256   */\n  dup3\n    /* \"#utility.yul\":2247:2261   */\n  lt\n    /* \"#utility.yul\":2227:2245   */\n  dup2\n    /* \"#utility.yul\":2224:2262   */\n  sub\n    /* \"#utility.yul\":2221:2305   */\n  tag_62\n  jumpi\n    /* \"#utility.yul\":2277:2295   */\n  tag_63\n  tag_21\n  jump\t// in\ntag_63:\n    /* \"#utility.yul\":2221:2305   */\ntag_62:\n    /* \"#utility.yul\":2042:2311   */\n  pop\n    /* \"#utility.yul\":1991:2311   */\n  swap2\n  swap1\n  pop\n  jump\t// out\n    /* \"#utility.yul\":2317:2458   */\ntag_23:\n    /* \"#utility.yul\":2366:2370   */\n  0x00\n    /* \"#utility.yul\":2389:2392   */\n  dup2\n    /* \"#utility.yul\":2381:2392   */\n  swap1\n  pop\n    /* \"#utility.yul\":2412:2415   */\n  dup2\n    /* \"#utility.yul\":2409:2410   */\n  0x00\n    /* \"#utility.yul\":2402:2416   */\n  mstore\n    /* \"#utility.yul\":2446:2450   */\n  0x20\n    /* \"#utility.yul\":2443:2444   */\n  0x00\n    /* \"#utility.yul\":2433:2451   */\n  keccak256\n    /* \"#utility.yul\":2425:2451   */\n  swap1\n  pop\n    /* \"#utility.yul\":2317:2458   */\n  swap2\n  swap1\n  pop\n  jump\t// out\n    /* \"#utility.yul\":2464:2557   */\ntag_24:\n    /* \"#utility.yul\":2501:2507   */\n  0x00\n    /* \"#utility.yul\":2548:2550   */\n  0x20\n    /* \"#utility.yul\":2543:2545   */\n  0x1f\n    /* \"#utility.yul\":2536:2541   */\n  dup4\n    /* \"#utility.yul\":2532:2546   */\n  add\n    /* \"#utility.yul\":2528:2551   */\n  div\n    /* \"#utility.yul\":2518:2551   */\n  swap1\n  pop\n    /* \"#utility.yul\":2464:2557   */\n  swap2\n  swap1\n  pop\n  jump\t// out\n    /* \"#utility.yul\":2563:2670   */\ntag_25:\n    /* \"#utility.yul\":2607:2615   */\n  0x00\n    /* \"#utility.yul\":2657:2662   */\n  dup3\n    /* \"#utility.yul\":2651:2655   */\n  dup3\n    /* \"#utility.yul\":2647:2663   */\n  shl\n    /* \"#utility.yul\":2626:2663   */\n  swap1\n  pop\n    /* \"#utility.yul\":2563:2670   */\n  swap3\n  swap2\n  pop\n  pop\n  jump\t// out\n    /* \"#utility.yul\":2676:3069   */\ntag_26:\n    /* \"#utility.yul\":2745:2751   */\n  0x00\n    /* \"#utility.yul\":2795:2796   */\n  0x08\n    /* \"#utility.yul\":2783:2793   */\n  dup4\n    /* \"#utility.yul\":2779:2797   */\n  mul\n    /* \"#utility.yul\":2818:2915   */\n  tag_68\n    /* \"#utility.yul\":2848:2914   */\n  0xffffffffffffffffffffffffffffffffffffffffffffffffffffffffffffffff\n    /* \"#utility.yul\":2837:2846   */\n  dup3\n    /* \"#utility.yul\":2818:2915   */\n  tag_25\n  jump\t// in\ntag_68:\n    /* \"#utility.yul\":2936:2975   */\n  tag_69\n    /* \"#utility.yul\":2966:2974   */\n  dup7\n    /* \"#utility.yul\":2955:2964   */\n  dup4\n    /* \"#utility.yul\":2936:2975   */\n  tag_25\n  jump\t// in\ntag_69:\n    /* \"#utility.yul\":2924:2975   */\n  swap6\n  pop\n    /* \"#utility.yul\":3008:3012   */\n  dup1\n    /* \"#utility.yul\":3004:3013   */\n  not\n    /* \"#utility.yul\":2997:3002   */\n  dup5\n    /* \"#utility.yul\":2993:3014   */\n  and\n    /* \"#utility.yul\":2984:3014   */\n  swap4\n  pop\n    /* \"#utility.yul\":3057:3061   */\n  dup1\n    /* \"#utility.yul\":3047:3055   */\n  dup7\n    /* \"#utility.yul\":3043:3062   */\n  and\n    /* \"#utility.yul\":3036:3041   */\n  dup5\n    /* \"#utility.yul\":3033:3063   */\n  or\n    /* \"#utility.yul\":3023:3063   */\n  swap3\n  pop\n    /* \"#utility.yul\":2752:3069   */\n  pop\n  pop\n    /* \"#utility.yul\":2676:3069   */\n  swap4\n  swap3\n  pop\n  pop\n  pop\n  jump\t// out\n    /* \"#utility.yul\":3075:3152   */\ntag_27:\n    /* \"#utility.yul\":3112:3119   */\n  0x00\n    /* \"#utility.yul\":3141:3146   */\n  dup2\n    /* \"#utility.yul\":3130:3146   */\n  swap1\n  pop\n    /* \"#utility.yul\":3075:3152   */\n  swap2\n  swap1\n  pop\n  jump\t// out\n    /* \"#utility.yul\":3158:3218   */\ntag_28:\n    /* \"#utility.yul\":3186:3189   */\n  0x00\n    /* \"#utility.yul\":3207:3212   */\n  dup2\n    /* \"#utility.yul\":3200:3212   */\n  swap1\n  pop\n    /* \"#utility.yul\":3158:3218   */\n  swap2\n  swap1\n  pop\n  jump\t// out\n    /* \"#utility.yul\":3224:3366   */\ntag_29:\n    /* \"#utility.yul\":3274:3283   */\n  0x00\n    /* \"#utility.yul\":3307:3360   */\n  tag_73\n    /* \"#utility.yul\":3325:3359   */\n  tag_74\n    /* \"#utility.yul\":3334:3358   */\n  tag_75\n    /* \"#utility.yul\":3352:3357   */\n  dup5\n    /* \"#utility.yul\":3334:3358   */\n  tag_27\n  jump\t// in\ntag_75:\n    /* \"#utility.yul\":3325:3359   */\n  tag_28\n  jump\t// in\ntag_74:\n    /* \"#utility.yul\":3307:3360   */\n  tag_27\n  jump\t// in\ntag_73:\n    /* \"#utility.yul\":3294:3360   */\n  swap1\n  pop\n    /* \"#utility.yul\":3224:3366   */\n  swap2\n  swap1\n  pop\n  jump\t// out\n    /* \"#utility.yul\":3372:3447   */\ntag_30:\n    /* \"#utility.yul\":3415:3418   */\n  0x00\n    /* \"#utility.yul\":3436:3441   */\n  dup2\n    /* \"#utility.yul\":3429:3441   */\n  swap1\n  pop\n    /* \"#utility.yul\":3372:3447   */\n  swap2\n  swap1\n  pop\n  jump\t// out\n    /* \"#utility.yul\":3453:3722   */\ntag_31:\n    /* \"#utility.yul\":3563:3602   */\n  tag_78\n    /* \"#utility.yul\":3594:3601   */\n  dup4\n    /* \"#utility.yul\":3563:3602   */\n  tag_29\n  jump\t// in\ntag_78:\n    /* \"#utility.yul\":3624:3715   */\n  tag_79\n    /* \"#utility.yul\":3673:3714   */\n  tag_80\n    /* \"#utility.yul\":3697:3713   */\n  dup3\n    /* \"#utility.yul\":3673:3714   */\n  tag_30\n  jump\t// in\ntag_80:\n    /* \"#utility.yul\":3665:3671   */\n  dup5\n    /* \"#utility.yul\":3658:3662   */\n  dup5\n    /* \"#utility.yul\":3652:3663   */\n  sload\n    /* \"#utility.yul\":3624:3715   */\n  tag_26\n  jump\t// in\ntag_79:\n    /* \"#utility.yul\":3618:3622   */\n  dup3\n    /* \"#utility.yul\":3611:3716   */\n  sstore\n    /* \"#utility.yul\":3529:3722   */\n  pop\n    /* \"#utility.yul\":3453:3722   */\n  pop\n  pop\n  pop\n  jump\t// out\n    /* \"#utility.yul\":3728:3801   */\ntag_32:\n    /* \"#utility.yul\":3773:3776   */\n  0x00\n    /* \"#utility.yul\":3728:3801   */\n  swap1\n  jump\t// out\n    /* \"#utility.yul\":3807:3996   */\ntag_33:\n    /* \"#utility.yul\":3884:3916   */\n  tag_83\n  tag_32\n  jump\t// in\ntag_83:\n    /* \"#utility.yul\":3925:3990   */\n  tag_84\n    /* \"#utility.yul\":3983:3989   */\n  dup2\n    /* \"#utility.yul\":3975:3981   */\n  dup5\n    /* \"#utility.yul\":3969:3973   */\n  dup5\n    /* \"#utility.yul\":3925:3990   */\n  tag_31\n  jump\t// in\ntag_84:\n    /* \"#utility.yul\":3860:3996   */\n  pop\n    /* \"#utility.yul\":3807:3996   */\n  pop\n  pop\n  jump\t// out\n    /* \"#utility.yul\":4002:4188   */\ntag_34:\n    /* \"#utility.yul\":4062:4182   */\ntag_86:\n    /* \"#utility.yul\":4079:4082   */\n  dup2\n    /* \"#utility.yul\":4072:4077   */\n  dup2\n    /* \"#utility.yul\":4069:4083   */\n  lt\n    /* \"#utility.yul\":4062:4182   */\n  iszero\n  tag_88\n  jumpi\n    /* \"#utility.yul\":4133:4172   */\n  tag_89\n    /* \"#utility.yul\":4170:4171   */\n  0x00\n    /* \"#utility.yul\":4163:4168   */\n  dup3\n    /* \"#utility.yul\":4133:4172   */\n  tag_33\n  jump\t// in\ntag_89:\n    /* \"#utility.yul\":4106:4107   */\n  0x01\n    /* \"#utility.yul\":4099:4104   */\n  dup2\n    /* \"#utility.yul\":4095:4108   */\n  add\n    /* \"#utility.yul\":4086:4108   */\n  swap1\n  pop\n    /* \"#utility.yul\":4062:4182   */\n  jump(tag_86)\ntag_88:\n    /* \"#utility.yul\":4002:4188   */\n  pop\n  pop\n  jump\t// out\n    /* \"#utility.yul\":4194:4737   */\ntag_35:\n    /* \"#utility.yul\":4295:4297   */\n  0x1f\n    /* \"#utility.yul\":4290:4293   */\n  dup3\n    /* \"#utility.yul\":4287:4298   */\n  gt\n    /* \"#utility.yul\":4284:4730   */\n  iszero\n  tag_91\n  jumpi\n    /* \"#utility.yul\":4329:4367   */\n  tag_92\n    /* \"#utility.yul\":4361:4366   */\n  dup2\n    /* \"#utility.yul\":4329:4367   */\n  tag_23\n  jump\t// in\ntag_92:\n    /* \"#utility.yul\":4413:4442   */\n  tag_93\n    /* \"#utility.yul\":4431:4441   */\n  dup5\n    /* \"#utility.yul\":4413:4442   */\n  tag_24\n  jump\t// in\ntag_93:\n    /* \"#utility.yul\":4403:4411   */\n  dup2\n    /* \"#utility.yul\":4399:4443   */\n  add\n    /* \"#utility.yul\":4596:4598   */\n  0x20\n    /* \"#utility.yul\":4584:4594   */\n  dup6\n    /* \"#utility.yul\":4581:4599   */\n  lt\n    /* \"#utility.yul\":4578:4627   */\n  iszero\n  tag_94\n  jumpi\n    /* \"#utility.yul\":4617:4625   */\n  dup2\n    /* \"#utility.yul\":4602:4625   */\n  swap1\n  pop\n    /* \"#utility.yul\":4578:4627   */\ntag_94:\n    /* \"#utility.yul\":4640:4720   */\n  tag_95\n    /* \"#utility.yul\":4696:4718   */\n  tag_96\n    /* \"#utility.yul\":4714:4717   */\n  dup6\n    /* \"#utility.yul\":4696:4718   */\n  tag_24\n  jump\t// in\ntag_96:\n    /* \"#utility.yul\":4686:4694   */\n  dup4\n    /* \"#utility.yul\":4682:4719   */\n  add\n    /* \"#utility.yul\":4669:4680   */\n  dup3\n    /* \"#utility.yul\":4640:4720   */\n  tag_34\n  jump\t// in\ntag_95:\n    /* \"#utility.yul\":4299:4730   */\n  pop\n  pop\n    /* \"#utility.yul\":4284:4730   */\ntag_91:\n    /* \"#utility.yul\":4194:4737   */\n  pop\n  pop\n  pop\n  jump\t// out\n    /* \"#utility.yul\":4743:4860   */\ntag_36:\n    /* \"#utility.yul\":4797:4805   */\n  0x00\n    /* \"#utility.yul\":4847:4852   */\n  dup3\n    /* \"#utility.yul\":4841:4845   */\n  dup3\n    /* \"#utility.yul\":4837:4853   */\n  shr\n    /* \"#utility.yul\":4816:4853   */\n  swap1\n  pop\n    /* \"#utility.yul\":4743:4860   */\n  swap3\n  swap2\n  pop\n  pop\n  jump\t// out\n    /* \"#utility.yul\":4866:5035   */\ntag_37:\n    /* \"#utility.yul\":4910:4916   */\n  0x00\n    /* \"#utility.yul\":4943:4994   */\n  tag_99\n    /* \"#utility.yul\":4991:4992   */\n  0x00\n    /* \"#utility.yul\":4987:4993   */\n  not\n    /* \"#utility.yul\":4979:4984   */\n  dup5\n    /* \"#utility.yul\":4976:4977   */\n  0x08\n    /* \"#utility.yul\":4972:4985   */\n  mul\n    /* \"#utility.yul\":4943:4994   */\n  tag_36\n  jump\t// in\ntag_99:\n    /* \"#utility.yul\":4939:4995   */\n  not\n    /* \"#utility.yul\":5024:5028   */\n  dup1\n    /* \"#utility.yul\":5018:5022   */\n  dup4\n    /* \"#utility.yul\":5014:5029   */\n  and\n    /* \"#utility.yul\":5004:5029   */\n  swap2\n  pop\n    /* \"#utility.yul\":4917:5035   */\n  pop\n    /* \"#utility.yul\":4866:5035   */\n  swap3\n  swap2\n  pop\n  pop\n  jump\t// out\n    /* \"#utility.yul\":5040:5335   */\ntag_38:\n    /* \"#utility.yul\":5116:5120   */\n  0x00\n    /* \"#utility.yul\":5262:5291   */\n  tag_101\n    /* \"#utility.yul\":5287:5290   */\n  dup4\n    /* \"#utility.yul\":5281:5285   */\n  dup4\n    /* \"#utility.yul\":5262:5291   */\n  tag_37\n  jump\t// in\ntag_101:\n    /* \"#utility.yul\":5254:5291   */\n  swap2\n  pop\n    /* \"#utility.yul\":5324:5327   */\n  dup3\n    /* \"#utility.yul\":5321:5322   */\n  0x02\n    /* \"#utility.yul\":5317:5328   */\n  mul\n    /* \"#utility.yul\":5311:5315   */\n  dup3\n    /* \"#utility.yul\":5308:5329   */\n  or\n    /* \"#utility.yul\":5300:5329   */\n  swap1\n  pop\n    /* \"#utility.yul\":5040:5335   */\n  swap3\n  swap2\n  pop\n  pop\n  jump\t// out\n    /* \"#utility.yul\":5340:6735   */\ntag_8:\n    /* \"#utility.yul\":5457:5494   */\n  tag_103\n    /* \"#utility.yul\":5490:5493   */\n  dup3\n    /* \"#utility.yul\":5457:5494   */\n  tag_19\n  jump\t// in\ntag_103:\n    /* \"#utility.yul\":5559:5577   */\n  0xffffffffffffffff\n    /* \"#utility.yul\":5551:5557   */\n  dup2\n    /* \"#utility.yul\":5548:5578   */\n  gt\n    /* \"#utility.yul\":5545:5601   */\n  iszero\n  tag_104\n  jumpi\n    /* \"#utility.yul\":5581:5599   */\n  tag_105\n  tag_20\n  jump\t// in\ntag_105:\n    /* \"#utility.yul\":5545:5601   */\ntag_104:\n    /* \"#utility.yul\":5625:5663   */\n  tag_106\n    /* \"#utility.yul\":5657:5661   */\n  dup3\n    /* \"#utility.yul\":5651:5662   */\n  sload\n    /* \"#utility.yul\":5625:5663   */\n  tag_22\n  jump\t// in\ntag_106:\n    /* \"#utility.yul\":5710:5777   */\n  tag_107\n    /* \"#utility.yul\":5770:5776   */\n  dup3\n    /* \"#utility.yul\":5762:5768   */\n  dup3\n    /* \"#utility.yul\":5756:5760   */\n  dup6\n    /* \"#utility.yul\":5710:5777   */\n  tag_35\n  jump\t// in\ntag_107:\n    /* \"#utility.yul\":5804:5805   */\n  0x00\n    /* \"#utility.yul\":5828:5832   */\n  0x20\n    /* \"#utility.yul\":5815:5832   */\n  swap1\n  pop\n    /* \"#utility.yul\":5860:5862   */\n  0x1f\n    /* \"#utility.yul\":5852:5858   */\n  dup4\n    /* \"#utility.yul\":5849:5863   */\n  gt\n    /* \"#utility.yul\":5877:5878   */\n  0x01\n    /* \"#utility.yul\":5872:6490   */\n  dup2\n  eq\n  tag_109\n  jumpi\n    /* \"#utility.yul\":6534:6535   */\n  0x00\n    /* \"#utility.yul\":6551:6557   */\n  dup5\n    /* \"#utility.yul\":6548:6625   */\n  iszero\n  tag_110\n  jumpi\n    /* \"#utility.yul\":6600:6609   */\n  dup3\n    /* \"#utility.yul\":6595:6598   */\n  dup8\n    /* \"#utility.yul\":6591:6610   */\n  add\n    /* \"#utility.yul\":6585:6611   */\n  mload\n    /* \"#utility.yul\":6576:6611   */\n  swap1\n  pop\n    /* \"#utility.yul\":6548:6625   */\ntag_110:\n    /* \"#utility.yul\":6651:6718   */\n  tag_111\n    /* \"#utility.yul\":6711:6717   */\n  dup6\n    /* \"#utility.yul\":6704:6709   */\n  dup3\n    /* \"#utility.yul\":6651:6718   */\n  tag_38\n  jump\t// in\ntag_111:\n    /* \"#utility.yul\":6645:6649   */\n  dup7\n    /* \"#utility.yul\":6638:6719   */\n  sstore\n    /* \"#utility.yul\":6507:6729   */\n  pop\n    /* \"#utility.yul\":5842:6729   */\n  jump(tag_108)\n    /* \"#utility.yul\":5872:6490   */\ntag_109:\n    /* \"#utility.yul\":5924:5928   */\n  0x1f\n    /* \"#utility.yul\":5920:5929   */\n  not\n    /* \"#utility.yul\":5912:5918   */\n  dup5\n    /* \"#utility.yul\":5908:5930   */\n  and\n    /* \"#utility.yul\":5958:5995   */\n  tag_112\n    /* \"#utility.yul\":5990:5994   */\n  dup7\n    /* \"#utility.yul\":5958:5995   */\n  tag_23\n  jump\t// in\ntag_112:\n    /* \"#utility.yul\":6017:6018   */\n  0x00\n    /* \"#utility.yul\":6031:6239   */\ntag_113:\n    /* \"#utility.yul\":6045:6052   */\n  dup3\n    /* \"#utility.yul\":6042:6043   */\n  dup2\n    /* \"#utility.yul\":6039:6053   */\n  lt\n    /* \"#utility.yul\":6031:6239   */\n  iszero\n  tag_115\n  jumpi\n    /* \"#utility.yul\":6124:6133   */\n  dup5\n    /* \"#utility.yul\":6119:6122   */\n  dup10\n    /* \"#utility.yul\":6115:6134   */\n  add\n    /* \"#utility.yul\":6109:6135   */\n  mload\n    /* \"#utility.yul\":6101:6107   */\n  dup3\n    /* \"#utility.yul\":6094:6136   */\n  sstore\n    /* \"#utility.yul\":6175:6176   */\n  0x01\n    /* \"#utility.yul\":6167:6173   */\n  dup3\n    /* \"#utility.yul\":6163:6177   */\n  add\n    /* \"#utility.yul\":6153:6177   */\n  swap2\n  pop\n    /* \"#utility.yul\":6222:6224   */\n  0x20\n    /* \"#utility.yul\":6211:6220   */\n  dup6\n    /* \"#utility.yul\":6207:6225   */\n  add\n    /* \"#utility.yul\":6194:6225   */\n  swap5\n  pop\n    /* \"#utility.yul\":6068:6072   */\n  0x20\n    /* \"#utility.yul\":6065:6066   */\n  dup2\n    /* \"#utility.yul\":6061:6073   */\n  add\n    /* \"#utility.yul\":6056:6073   */\n  swap1\n  pop\n    /* \"#utility.yul\":6031:6239   */\n  jump(tag_113)\ntag_115:\n    /* \"#utility.yul\":6267:6273   */\n  dup7\n    /* \"#utility.yul\":6258:6265   */\n  dup4\n    /* \"#utility.yul\":6255:6274   */\n  lt\n    /* \"#utility.yul\":6252:6431   */\n  iszero\n  tag_116\n  jumpi\n    /* \"#utility.yul\":6325:6334   */\n  dup5\n    /* \"#utility.yul\":6320:6323   */\n  dup10\n    /* \"#utility.yul\":6316:6335   */\n  add\n    /* \"#utility.yul\":6310:6336   */\n  mload\n    /* \"#utility.yul\":6368:6416   */\n  tag_117\n    /* \"#utility.yul\":6410:6414   */\n  0x1f\n    /* \"#utility.yul\":6402:6408   */\n  dup10\n    /* \"#utility.yul\":6398:6415   */\n  and\n    /* \"#utility.yul\":6387:6396   */\n  dup3\n    /* \"#utility.yul\":6368:6416   */\n  tag_37\n  jump\t// in\ntag_117:\n    /* \"#utility.yul\":6360:6366   */\n  dup4\n    /* \"#utility.yul\":6353:6417   */\n  sstore\n    /* \"#utility.yul\":6275:6431   */\n  pop\n    /* \"#utility.yul\":6252:6431   */\ntag_116:\n    /* \"#utility.yul\":6477:6478   */\n  0x01\n    /* \"#utility.yul\":6473:6474   */\n  0x02\n    /* \"#utility.yul\":6465:6471   */\n  dup9\n    /* \"#utility.yul\":6461:6475   */\n  mul\n    /* \"#utility.yul\":6457:6479   */\n  add\n    /* \"#utility.yul\":6451:6455   */\n  dup9\n    /* \"#utility.yul\":6444:6480   */\n  sstore\n    /* \"#utility.yul\":5879:6490   */\n  pop\n  pop\n  pop\n    /* \"#utility.yul\":5842:6729   */\ntag_108:\n  pop\n    /* \"#utility.yul\":5432:6735   */\n  pop\n  pop\n  pop\n    /* \"#utility.yul\":5340:6735   */\n  pop\n  pop\n  jump\t// out\n    /* \"contracts/ConstantK.sol\":255:4082  contract CPAMM is ERC20 {... */\ntag_11:\n  mload(0x80)\n  mload(0xa0)\n  mload(0xc0)\n  codecopy(0x00, dataOffset(sub_0), dataSize(sub_0))\n  0x00\n  assignImmutable(\"0xf307c8083319643682cc8b4f2b5f4170d03059dbde8c4aa4901f67e8f65149e3\")\n  0x00\n  assignImmutable(\"0x2501380a21b274421b7683485831a81ec9d98da3f2ac3e39f456bea2b226ba76\")\n  0x00\n  assignImmutable(\"0x356838a9802f9300960370a61c1b93fed91a0635190b94cc9f275180c4d2038b\")\n  return(0x00, dataSize(sub_0))\nstop\n\nsub_0: assembly {\n        /* \"contracts/ConstantK.sol\":255:4082  contract CPAMM is ERC20 {... */\n      mstore(0x40, 0x80)\n      callvalue\n      dup1\n      iszero\n      tag_1\n      jumpi\n      0x00\n      dup1\n      revert\n    tag_1:\n      pop\n      jumpi(tag_2, lt(calldatasize, 0x04))\n      shr(0xe0, calldataload(0x00))\n      dup1\n      0x70a08231\n      gt\n      tag_22\n      jumpi\n      dup1\n      0xa9059cbb\n      gt\n      tag_23\n      jumpi\n      dup1\n      0xa9059cbb\n      eq\n      tag_17\n      jumpi\n      dup1\n      0xd004f0f7\n      eq\n      tag_18\n      jumpi\n      dup1\n      0xd21220a7\n      eq\n      tag_19\n      jumpi\n      dup1\n      0xdd62ed3e\n      eq\n      tag_20\n      jumpi\n      dup1\n      0xddca3f43\n      eq\n      tag_21\n      jumpi\n      jump(tag_2)\n    tag_23:\n      dup1\n      0x70a08231\n      eq\n      tag_12\n      jumpi\n      dup1\n      0x741bef1a\n      eq\n      tag_13\n      jumpi\n      dup1\n      0x95d89b41\n      eq\n      tag_14\n      jumpi\n      dup1\n      0x9c8f9f23\n      eq\n      tag_15\n      jumpi\n      dup1\n      0x9cd441da\n      eq\n      tag_16\n      jumpi\n      jump(tag_2)\n    tag_22:\n      dup1\n      0x1b712739\n      gt\n      tag_24\n      jumpi\n      dup1\n      0x1b712739\n      eq\n      tag_7\n      jumpi\n      dup1\n      0x23b872dd\n      eq\n      tag_8\n      jumpi\n      dup1\n      0x313ce567\n      eq\n      tag_9\n      jumpi\n      dup1\n      0x443cb4bc\n      eq\n      tag_10\n      jumpi\n      dup1\n      0x5a76f25e\n      eq\n      tag_11\n      jumpi\n      jump(tag_2)\n    tag_24:\n      dup1\n      0x06fdde03\n      eq\n      tag_3\n      jumpi\n      dup1\n      0x095ea7b3\n      eq\n      tag_4\n      jumpi\n      dup1\n      0x0dfe1681\n      eq\n      tag_5\n      jumpi\n      dup1\n      0x18160ddd\n      eq\n      tag_6\n      jumpi\n    tag_2:\n      0x00\n      dup1\n      revert\n        /* \"@openzeppelin/contracts/token/ERC20/ERC20.sol\":1760:1849  function name() public view virtual returns (string memory) {... */\n    tag_3:\n      tag_25\n      tag_26\n      jump\t// in\n    tag_25:\n      mload(0x40)\n      tag_27\n      swap2\n      swap1\n      tag_28\n      jump\t// in\n    tag_27:\n      mload(0x40)\n      dup1\n      swap2\n      sub\n      swap1\n      return\n        /* \"@openzeppelin/contracts/token/ERC20/ERC20.sol\":3979:4165  function approve(address spender, uint256 value) public virtual returns (bool) {... */\n    tag_4:\n      tag_29\n      0x04\n      dup1\n      calldatasize\n      sub\n      dup2\n      add\n      swap1\n      tag_30\n      swap2\n      swap1\n      tag_31\n      jump\t// in\n    tag_30:\n      tag_32\n      jump\t// in\n    tag_29:\n      mload(0x40)\n      tag_33\n      swap2\n      swap1\n      tag_34\n      jump\t// in\n    tag_33:\n      mload(0x40)\n      dup1\n      swap2\n      sub\n      swap1\n      return\n        /* \"contracts/ConstantK.sol\":286:316  IERC20 public immutable token0 */\n    tag_5:\n      tag_35\n      tag_36\n      jump\t// in\n    tag_35:\n      mload(0x40)\n      tag_37\n      swap2\n      swap1\n      tag_38\n      jump\t// in\n    tag_37:\n      mload(0x40)\n      dup1\n      swap2\n      sub\n      swap1\n      return\n        /* \"@openzeppelin/contracts/token/ERC20/ERC20.sol\":2830:2927  function totalSupply() public view virtual returns (uint256) {... */\n    tag_6:\n      tag_39\n      tag_40\n      jump\t// in\n    tag_39:\n      mload(0x40)\n      tag_41\n      swap2\n      swap1\n      tag_42\n      jump\t// in\n    tag_41:\n      mload(0x40)\n      dup1\n      swap2\n      sub\n      swap1\n      return\n        /* \"contracts/ConstantK.sol\":1406:1697  function getLatestBTCPrice() public view returns (uint256) {... */\n    tag_7:\n      tag_43\n      tag_44\n      jump\t// in\n    tag_43:\n      mload(0x40)\n      tag_45\n      swap2\n      swap1\n      tag_42\n      jump\t// in\n    tag_45:\n      mload(0x40)\n      dup1\n      swap2\n      sub\n      swap1\n      return\n        /* \"@openzeppelin/contracts/token/ERC20/ERC20.sol\":4757:5001  function transferFrom(address from, address to, uint256 value) public virtual returns (bool) {... */\n    tag_8:\n      tag_46\n      0x04\n      dup1\n      calldatasize\n      sub\n      dup2\n      add\n      swap1\n      tag_47\n      swap2\n      swap1\n      tag_48\n      jump\t// in\n    tag_47:\n      tag_49\n      jump\t// in\n    tag_46:\n      mload(0x40)\n      tag_50\n      swap2\n      swap1\n      tag_34\n      jump\t// in\n    tag_50:\n      mload(0x40)\n      dup1\n      swap2\n      sub\n      swap1\n      return\n        /* \"@openzeppelin/contracts/token/ERC20/ERC20.sol\":2688:2770  function decimals() public view virtual returns (uint8) {... */\n    tag_9:\n      tag_51\n      tag_52\n      jump\t// in\n    tag_51:\n      mload(0x40)\n      tag_53\n      swap2\n      swap1\n      tag_54\n      jump\t// in\n    tag_53:\n      mload(0x40)\n      dup1\n      swap2\n      sub\n      swap1\n      return\n        /* \"contracts/ConstantK.sol\":490:513  uint256 public reserve0 */\n    tag_10:\n      tag_55\n      tag_56\n      jump\t// in\n    tag_55:\n      mload(0x40)\n      tag_57\n      swap2\n      swap1\n      tag_42\n      jump\t// in\n    tag_57:\n      mload(0x40)\n      dup1\n      swap2\n      sub\n      swap1\n      return\n        /* \"contracts/ConstantK.sol\":520:543  uint256 public reserve1 */\n    tag_11:\n      tag_58\n      tag_59\n      jump\t// in\n    tag_58:\n      mload(0x40)\n      tag_60\n      swap2\n      swap1\n      tag_42\n      jump\t// in\n    tag_60:\n      mload(0x40)\n      dup1\n      swap2\n      sub\n      swap1\n      return\n        /* \"@openzeppelin/contracts/token/ERC20/ERC20.sol\":2985:3101  function balanceOf(address account) public view virtual returns (uint256) {... */\n    tag_12:\n      tag_61\n      0x04\n      dup1\n      calldatasize\n      sub\n      dup2\n      add\n      swap1\n      tag_62\n      swap2\n      swap1\n      tag_63\n      jump\t// in\n    tag_62:\n      tag_64\n      jump\t// in\n    tag_61:\n      mload(0x40)\n      tag_65\n      swap2\n      swap1\n      tag_42\n      jump\t// in\n    tag_65:\n      mload(0x40)\n      dup1\n      swap2\n      sub\n      swap1\n      return\n        /* \"contracts/ConstantK.sol\":376:424  AggregatorV3Interface public immutable priceFeed */\n    tag_13:\n      tag_66\n      tag_67\n      jump\t// in\n    tag_66:\n      mload(0x40)\n      tag_68\n      swap2\n      swap1\n      tag_69\n      jump\t// in\n    tag_68:\n      mload(0x40)\n      dup1\n      swap2\n      sub\n      swap1\n      return\n        /* \"@openzeppelin/contracts/token/ERC20/ERC20.sol\":1962:2055  function symbol() public view virtual returns (string memory) {... */\n    tag_14:\n      tag_70\n      tag_71\n      jump\t// in\n    tag_70:\n      mload(0x40)\n      tag_72\n      swap2\n      swap1\n      tag_28\n      jump\t// in\n    tag_72:\n      mload(0x40)\n      dup1\n      swap2\n      sub\n      swap1\n      return\n        /* \"contracts/ConstantK.sol\":3602:4079  function removeLiquidity(uint256 _shares) external returns (uint256 amount0, uint256 amount1) {... */\n    tag_15:\n      tag_73\n      0x04\n      dup1\n      calldatasize\n      sub\n      dup2\n      add\n      swap1\n      tag_74\n      swap2\n      swap1\n      tag_75\n      jump\t// in\n    tag_74:\n      tag_76\n      jump\t// in\n    tag_73:\n      mload(0x40)\n      tag_77\n      swap3\n      swap2\n      swap1\n      tag_78\n      jump\t// in\n    tag_77:\n      mload(0x40)\n      dup1\n      swap2\n      sub\n      swap1\n      return\n        /* \"contracts/ConstantK.sol\":2752:3594  function addLiquidity(uint256 _amount0, uint256 _amount1) external returns (uint256 shares) {... */\n    tag_16:\n      tag_79\n      0x04\n      dup1\n      calldatasize\n      sub\n      dup2\n      add\n      swap1\n      tag_80\n      swap2\n      swap1\n      tag_81\n      jump\t// in\n    tag_80:\n      tag_82\n      jump\t// in\n    tag_79:\n      mload(0x40)\n      tag_83\n      swap2\n      swap1\n      tag_42\n      jump\t// in\n    tag_83:\n      mload(0x40)\n      dup1\n      swap2\n      sub\n      swap1\n      return\n        /* \"@openzeppelin/contracts/token/ERC20/ERC20.sol\":3296:3474  function transfer(address to, uint256 value) public virtual returns (bool) {... */\n    tag_17:\n      tag_84\n      0x04\n      dup1\n      calldatasize\n      sub\n      dup2\n      add\n      swap1\n      tag_85\n      swap2\n      swap1\n      tag_31\n      jump\t// in\n    tag_85:\n      tag_86\n      jump\t// in\n    tag_84:\n      mload(0x40)\n      tag_87\n      swap2\n      swap1\n      tag_34\n      jump\t// in\n    tag_87:\n      mload(0x40)\n      dup1\n      swap2\n      sub\n      swap1\n      return\n        /* \"contracts/ConstantK.sol\":1705:2744  function swap(address _tokenIn, uint256 _amountIn) external returns (uint256 amountOut) {... */\n    tag_18:\n      tag_88\n      0x04\n      dup1\n      calldatasize\n      sub\n      dup2\n      add\n      swap1\n      tag_89\n      swap2\n      swap1\n      tag_31\n      jump\t// in\n    tag_89:\n      tag_90\n      jump\t// in\n    tag_88:\n      mload(0x40)\n      tag_91\n      swap2\n      swap1\n      tag_42\n      jump\t// in\n    tag_91:\n      mload(0x40)\n      dup1\n      swap2\n      sub\n      swap1\n      return\n        /* \"contracts/ConstantK.sol\":331:361  IERC20 public immutable token1 */\n    tag_19:\n      tag_92\n      tag_93\n      jump\t// in\n    tag_92:\n      mload(0x40)\n      tag_94\n      swap2\n      swap1\n      tag_38\n      jump\t// in\n    tag_94:\n      mload(0x40)\n      dup1\n      swap2\n      sub\n      swap1\n      return\n        /* \"@openzeppelin/contracts/token/ERC20/ERC20.sol\":3532:3672  function allowance(address owner, address spender) public view virtual returns (uint256) {... */\n    tag_20:\n      tag_95\n      0x04\n      dup1\n      calldatasize\n      sub\n      dup2\n      add\n      swap1\n      tag_96\n      swap2\n      swap1\n      tag_97\n      jump\t// in\n    tag_96:\n      tag_98\n      jump\t// in\n    tag_95:\n      mload(0x40)\n      tag_99\n      swap2\n      swap1\n      tag_42\n      jump\t// in\n    tag_99:\n      mload(0x40)\n      dup1\n      swap2\n      sub\n      swap1\n      return\n        /* \"contracts/ConstantK.sol\":451:473  uint256 public fee = 3 */\n    tag_21:\n      tag_100\n      tag_101\n      jump\t// in\n    tag_100:\n      mload(0x40)\n      tag_102\n      swap2\n      swap1\n      tag_42\n      jump\t// in\n    tag_102:\n      mload(0x40)\n      dup1\n      swap2\n      sub\n      swap1\n      return\n        /* \"@openzeppelin/contracts/token/ERC20/ERC20.sol\":1760:1849  function name() public view virtual returns (string memory) {... */\n    tag_26:\n        /* \"@openzeppelin/contracts/token/ERC20/ERC20.sol\":1805:1818  string memory */\n      0x60\n        /* \"@openzeppelin/contracts/token/ERC20/ERC20.sol\":1837:1842  _name */\n      0x03\n        /* \"@openzeppelin/contracts/token/ERC20/ERC20.sol\":1830:1842  return _name */\n      dup1\n      sload\n      tag_104\n      swap1\n      tag_105\n      jump\t// in\n    tag_104:\n      dup1\n      0x1f\n      add\n      0x20\n      dup1\n      swap2\n      div\n      mul\n      0x20\n      add\n      mload(0x40)\n      swap1\n      dup2\n      add\n      0x40\n      mstore\n      dup1\n      swap3\n      swap2\n      swap1\n      dup2\n      dup2\n      mstore\n      0x20\n      add\n      dup3\n      dup1\n      sload\n      tag_106\n      swap1\n      tag_105\n      jump\t// in\n    tag_106:\n      dup1\n      iszero\n      tag_107\n      jumpi\n      dup1\n      0x1f\n      lt\n      tag_108\n      jumpi\n      0x0100\n      dup1\n      dup4\n      sload\n      div\n      mul\n      dup4\n      mstore\n      swap2\n      0x20\n      add\n      swap2\n      jump(tag_107)\n    tag_108:\n      dup3\n      add\n      swap2\n      swap1\n      0x00\n      mstore\n      keccak256(0x00, 0x20)\n      swap1\n    tag_109:\n      dup2\n      sload\n      dup2\n      mstore\n      swap1\n      0x01\n      add\n      swap1\n      0x20\n      add\n      dup1\n      dup4\n      gt\n      tag_109\n      jumpi\n      dup3\n      swap1\n      sub\n      0x1f\n      and\n      dup3\n      add\n      swap2\n    tag_107:\n      pop\n      pop\n      pop\n      pop\n      pop\n      swap1\n      pop\n        /* \"@openzeppelin/contracts/token/ERC20/ERC20.sol\":1760:1849  function name() public view virtual returns (string memory) {... */\n      swap1\n      jump\t// out\n        /* \"@openzeppelin/contracts/token/ERC20/ERC20.sol\":3979:4165  function approve(address spender, uint256 value) public virtual returns (bool) {... */\n    tag_32:\n        /* \"@openzeppelin/contracts/token/ERC20/ERC20.sol\":4052:4056  bool */\n      0x00\n        /* \"@openzeppelin/contracts/token/ERC20/ERC20.sol\":4068:4081  address owner */\n      dup1\n        /* \"@openzeppelin/contracts/token/ERC20/ERC20.sol\":4084:4096  _msgSender() */\n      tag_111\n        /* \"@openzeppelin/contracts/token/ERC20/ERC20.sol\":4084:4094  _msgSender */\n      tag_112\n        /* \"@openzeppelin/contracts/token/ERC20/ERC20.sol\":4084:4096  _msgSender() */\n      jump\t// in\n    tag_111:\n        /* \"@openzeppelin/contracts/token/ERC20/ERC20.sol\":4068:4096  address owner = _msgSender() */\n      swap1\n      pop\n        /* \"@openzeppelin/contracts/token/ERC20/ERC20.sol\":4106:4137  _approve(owner, spender, value) */\n      tag_113\n        /* \"@openzeppelin/contracts/token/ERC20/ERC20.sol\":4115:4120  owner */\n      dup2\n        /* \"@openzeppelin/contracts/token/ERC20/ERC20.sol\":4122:4129  spender */\n      dup6\n        /* \"@openzeppelin/contracts/token/ERC20/ERC20.sol\":4131:4136  value */\n      dup6\n        /* \"@openzeppelin/contracts/token/ERC20/ERC20.sol\":4106:4114  _approve */\n      tag_114\n        /* \"@openzeppelin/contracts/token/ERC20/ERC20.sol\":4106:4137  _approve(owner, spender, value) */\n      jump\t// in\n    tag_113:\n        /* \"@openzeppelin/contracts/token/ERC20/ERC20.sol\":4154:4158  true */\n      0x01\n        /* \"@openzeppelin/contracts/token/ERC20/ERC20.sol\":4147:4158  return true */\n      swap2\n      pop\n      pop\n        /* \"@openzeppelin/contracts/token/ERC20/ERC20.sol\":3979:4165  function approve(address spender, uint256 value) public virtual returns (bool) {... */\n      swap3\n      swap2\n      pop\n      pop\n      jump\t// out\n        /* \"contracts/ConstantK.sol\":286:316  IERC20 public immutable token0 */\n    tag_36:\n      immutable(\"0x356838a9802f9300960370a61c1b93fed91a0635190b94cc9f275180c4d2038b\")\n      dup2\n      jump\t// out\n        /* \"@openzeppelin/contracts/token/ERC20/ERC20.sol\":2830:2927  function totalSupply() public view virtual returns (uint256) {... */\n    tag_40:\n        /* \"@openzeppelin/contracts/token/ERC20/ERC20.sol\":2882:2889  uint256 */\n      0x00\n        /* \"@openzeppelin/contracts/token/ERC20/ERC20.sol\":2908:2920  _totalSupply */\n      sload(0x02)\n        /* \"@openzeppelin/contracts/token/ERC20/ERC20.sol\":2901:2920  return _totalSupply */\n      swap1\n      pop\n        /* \"@openzeppelin/contracts/token/ERC20/ERC20.sol\":2830:2927  function totalSupply() public view virtual returns (uint256) {... */\n      swap1\n      jump\t// out\n        /* \"contracts/ConstantK.sol\":1406:1697  function getLatestBTCPrice() public view returns (uint256) {... */\n    tag_44:\n        /* \"contracts/ConstantK.sol\":1456:1463  uint256 */\n      0x00\n        /* \"contracts/ConstantK.sol\":1507:1519  int256 price */\n      dup1\n        /* \"contracts/ConstantK.sol\":1578:1587  priceFeed */\n      immutable(\"0xf307c8083319643682cc8b4f2b5f4170d03059dbde8c4aa4901f67e8f65149e3\")\n        /* \"contracts/ConstantK.sol\":1578:1603  priceFeed.latestRoundData */\n      0xffffffffffffffffffffffffffffffffffffffff\n      and\n      0xfeaf968c\n        /* \"contracts/ConstantK.sol\":1578:1605  priceFeed.latestRoundData() */\n      mload(0x40)\n      dup2\n      0xffffffff\n      and\n      0xe0\n      shl\n      dup2\n      mstore\n      0x04\n      add\n      0xa0\n      mload(0x40)\n      dup1\n      dup4\n      sub\n      dup2\n      dup7\n      gas\n      staticcall\n      iszero\n      dup1\n      iszero\n      tag_118\n      jumpi\n      returndatasize\n      0x00\n      dup1\n      returndatacopy\n      revert(0x00, returndatasize)\n    tag_118:\n      pop\n      pop\n      pop\n      pop\n      mload(0x40)\n      returndatasize\n      not(0x1f)\n      0x1f\n      dup3\n      add\n      and\n      dup3\n      add\n      dup1\n      0x40\n      mstore\n      pop\n      dup2\n      add\n      swap1\n      tag_119\n      swap2\n      swap1\n      tag_120\n      jump\t// in\n    tag_119:\n        /* \"contracts/ConstantK.sol\":1476:1605  (... */\n      pop\n      pop\n      pop\n      swap2\n      pop\n      pop\n        /* \"contracts/ConstantK.sol\":1632:1633  0 */\n      0x00\n        /* \"contracts/ConstantK.sol\":1624:1629  price */\n      dup2\n        /* \"contracts/ConstantK.sol\":1624:1633  price > 0 */\n      sgt\n        /* \"contracts/ConstantK.sol\":1616:1651  require(price > 0, \"Invalid price\") */\n      tag_121\n      jumpi\n      mload(0x40)\n      0x08c379a000000000000000000000000000000000000000000000000000000000\n      dup2\n      mstore\n      0x04\n      add\n      tag_122\n      swap1\n      tag_123\n      jump\t// in\n    tag_122:\n      mload(0x40)\n      dup1\n      swap2\n      sub\n      swap1\n      revert\n    tag_121:\n        /* \"contracts/ConstantK.sol\":1684:1687  1e8 */\n      0x05f5e100\n        /* \"contracts/ConstantK.sol\":1677:1682  price */\n      dup2\n        /* \"contracts/ConstantK.sol\":1677:1687  price/ 1e8 */\n      tag_124\n      swap2\n      swap1\n      tag_125\n      jump\t// in\n    tag_124:\n        /* \"contracts/ConstantK.sol\":1662:1688  return uint256(price/ 1e8) */\n      swap2\n      pop\n      pop\n        /* \"contracts/ConstantK.sol\":1406:1697  function getLatestBTCPrice() public view returns (uint256) {... */\n      swap1\n      jump\t// out\n        /* \"@openzeppelin/contracts/token/ERC20/ERC20.sol\":4757:5001  function transferFrom(address from, address to, uint256 value) public virtual returns (bool) {... */\n    tag_49:\n        /* \"@openzeppelin/contracts/token/ERC20/ERC20.sol\":4844:4848  bool */\n      0x00\n        /* \"@openzeppelin/contracts/token/ERC20/ERC20.sol\":4860:4875  address spender */\n      dup1\n        /* \"@openzeppelin/contracts/token/ERC20/ERC20.sol\":4878:4890  _msgSender() */\n      tag_127\n        /* \"@openzeppelin/contracts/token/ERC20/ERC20.sol\":4878:4888  _msgSender */\n      tag_112\n        /* \"@openzeppelin/contracts/token/ERC20/ERC20.sol\":4878:4890  _msgSender() */\n      jump\t// in\n    tag_127:\n        /* \"@openzeppelin/contracts/token/ERC20/ERC20.sol\":4860:4890  address spender = _msgSender() */\n      swap1\n      pop\n        /* \"@openzeppelin/contracts/token/ERC20/ERC20.sol\":4900:4937  _spendAllowance(from, spender, value) */\n      tag_128\n        /* \"@openzeppelin/contracts/token/ERC20/ERC20.sol\":4916:4920  from */\n      dup6\n        /* \"@openzeppelin/contracts/token/ERC20/ERC20.sol\":4922:4929  spender */\n      dup3\n        /* \"@openzeppelin/contracts/token/ERC20/ERC20.sol\":4931:4936  value */\n      dup6\n        /* \"@openzeppelin/contracts/token/ERC20/ERC20.sol\":4900:4915  _spendAllowance */\n      tag_129\n        /* \"@openzeppelin/contracts/token/ERC20/ERC20.sol\":4900:4937  _spendAllowance(from, spender, value) */\n      jump\t// in\n    tag_128:\n        /* \"@openzeppelin/contracts/token/ERC20/ERC20.sol\":4947:4973  _transfer(from, to, value) */\n      tag_130\n        /* \"@openzeppelin/contracts/token/ERC20/ERC20.sol\":4957:4961  from */\n      dup6\n        /* \"@openzeppelin/contracts/token/ERC20/ERC20.sol\":4963:4965  to */\n      dup6\n        /* \"@openzeppelin/contracts/token/ERC20/ERC20.sol\":4967:4972  value */\n      dup6\n        /* \"@openzeppelin/contracts/token/ERC20/ERC20.sol\":4947:4956  _transfer */\n      tag_131\n        /* \"@openzeppelin/contracts/token/ERC20/ERC20.sol\":4947:4973  _transfer(from, to, value) */\n      jump\t// in\n    tag_130:\n        /* \"@openzeppelin/contracts/token/ERC20/ERC20.sol\":4990:4994  true */\n      0x01\n        /* \"@openzeppelin/contracts/token/ERC20/ERC20.sol\":4983:4994  return true */\n      swap2\n      pop\n      pop\n        /* \"@openzeppelin/contracts/token/ERC20/ERC20.sol\":4757:5001  function transferFrom(address from, address to, uint256 value) public virtual returns (bool) {... */\n      swap4\n      swap3\n      pop\n      pop\n      pop\n      jump\t// out\n        /* \"@openzeppelin/contracts/token/ERC20/ERC20.sol\":2688:2770  function decimals() public view virtual returns (uint8) {... */\n    tag_52:\n        /* \"@openzeppelin/contracts/token/ERC20/ERC20.sol\":2737:2742  uint8 */\n      0x00\n        /* \"@openzeppelin/contracts/token/ERC20/ERC20.sol\":2761:2763  18 */\n      0x12\n        /* \"@openzeppelin/contracts/token/ERC20/ERC20.sol\":2754:2763  return 18 */\n      swap1\n      pop\n        /* \"@openzeppelin/contracts/token/ERC20/ERC20.sol\":2688:2770  function decimals() public view virtual returns (uint8) {... */\n      swap1\n      jump\t// out\n        /* \"contracts/ConstantK.sol\":490:513  uint256 public reserve0 */\n    tag_56:\n      sload(0x06)\n      dup2\n      jump\t// out\n        /* \"contracts/ConstantK.sol\":520:543  uint256 public reserve1 */\n    tag_59:\n      sload(0x07)\n      dup2\n      jump\t// out\n        /* \"@openzeppelin/contracts/token/ERC20/ERC20.sol\":2985:3101  function balanceOf(address account) public view virtual returns (uint256) {... */\n    tag_64:\n        /* \"@openzeppelin/contracts/token/ERC20/ERC20.sol\":3050:3057  uint256 */\n      0x00\n        /* \"@openzeppelin/contracts/token/ERC20/ERC20.sol\":3076:3085  _balances */\n      dup1\n        /* \"@openzeppelin/contracts/token/ERC20/ERC20.sol\":3076:3094  _balances[account] */\n      0x00\n        /* \"@openzeppelin/contracts/token/ERC20/ERC20.sol\":3086:3093  account */\n      dup4\n        /* \"@openzeppelin/contracts/token/ERC20/ERC20.sol\":3076:3094  _balances[account] */\n      0xffffffffffffffffffffffffffffffffffffffff\n      and\n      0xffffffffffffffffffffffffffffffffffffffff\n      and\n      dup2\n      mstore\n      0x20\n      add\n      swap1\n      dup2\n      mstore\n      0x20\n      add\n      0x00\n      keccak256\n      sload\n        /* \"@openzeppelin/contracts/token/ERC20/ERC20.sol\":3069:3094  return _balances[account] */\n      swap1\n      pop\n        /* \"@openzeppelin/contracts/token/ERC20/ERC20.sol\":2985:3101  function balanceOf(address account) public view virtual returns (uint256) {... */\n      swap2\n      swap1\n      pop\n      jump\t// out\n        /* \"contracts/ConstantK.sol\":376:424  AggregatorV3Interface public immutable priceFeed */\n    tag_67:\n      immutable(\"0xf307c8083319643682cc8b4f2b5f4170d03059dbde8c4aa4901f67e8f65149e3\")\n      dup2\n      jump\t// out\n        /* \"@openzeppelin/contracts/token/ERC20/ERC20.sol\":1962:2055  function symbol() public view virtual returns (string memory) {... */\n    tag_71:\n        /* \"@openzeppelin/contracts/token/ERC20/ERC20.sol\":2009:2022  string memory */\n      0x60\n        /* \"@openzeppelin/contracts/token/ERC20/ERC20.sol\":2041:2048  _symbol */\n      0x04\n        /* \"@openzeppelin/contracts/token/ERC20/ERC20.sol\":2034:2048  return _symbol */\n      dup1\n      sload\n      tag_135\n      swap1\n      tag_105\n      jump\t// in\n    tag_135:\n      dup1\n      0x1f\n      add\n      0x20\n      dup1\n      swap2\n      div\n      mul\n      0x20\n      add\n      mload(0x40)\n      swap1\n      dup2\n      add\n      0x40\n      mstore\n      dup1\n      swap3\n      swap2\n      swap1\n      dup2\n      dup2\n      mstore\n      0x20\n      add\n      dup3\n      dup1\n      sload\n      tag_136\n      swap1\n      tag_105\n      jump\t// in\n    tag_136:\n      dup1\n      iszero\n      tag_137\n      jumpi\n      dup1\n      0x1f\n      lt\n      tag_138\n      jumpi\n      0x0100\n      dup1\n      dup4\n      sload\n      div\n      mul\n      dup4\n      mstore\n      swap2\n      0x20\n      add\n      swap2\n      jump(tag_137)\n    tag_138:\n      dup3\n      add\n      swap2\n      swap1\n      0x00\n      mstore\n      keccak256(0x00, 0x20)\n      swap1\n    tag_139:\n      dup2\n      sload\n      dup2\n      mstore\n      swap1\n      0x01\n      add\n      swap1\n      0x20\n      add\n      dup1\n      dup4\n      gt\n      tag_139\n      jumpi\n      dup3\n      swap1\n      sub\n      0x1f\n      and\n      dup3\n      add\n      swap2\n    tag_137:\n      pop\n      pop\n      pop\n      pop\n      pop\n      swap1\n      pop\n        /* \"@openzeppelin/contracts/token/ERC20/ERC20.sol\":1962:2055  function symbol() public view virtual returns (string memory) {... */\n      swap1\n      jump\t// out\n        /* \"contracts/ConstantK.sol\":3602:4079  function removeLiquidity(uint256 _shares) external returns (uint256 amount0, uint256 amount1) {... */\n    tag_76:\n        /* \"contracts/ConstantK.sol\":3662:3677  uint256 amount0 */\n      0x00\n        /* \"contracts/ConstantK.sol\":3679:3694  uint256 amount1 */\n      dup1\n        /* \"contracts/ConstantK.sol\":3740:3753  totalSupply() */\n      tag_141\n        /* \"contracts/ConstantK.sol\":3740:3751  totalSupply */\n      tag_40\n        /* \"contracts/ConstantK.sol\":3740:3753  totalSupply() */\n      jump\t// in\n    tag_141:\n        /* \"contracts/ConstantK.sol\":3728:3736  reserve0 */\n      sload(0x06)\n        /* \"contracts/ConstantK.sol\":3718:3725  _shares */\n      dup5\n        /* \"contracts/ConstantK.sol\":3718:3736  _shares * reserve0 */\n      tag_142\n      swap2\n      swap1\n      tag_143\n      jump\t// in\n    tag_142:\n        /* \"contracts/ConstantK.sol\":3717:3753  (_shares * reserve0) / totalSupply() */\n      tag_144\n      swap2\n      swap1\n      tag_145\n      jump\t// in\n    tag_144:\n        /* \"contracts/ConstantK.sol\":3707:3753  amount0 = (_shares * reserve0) / totalSupply() */\n      swap2\n      pop\n        /* \"contracts/ConstantK.sol\":3797:3810  totalSupply() */\n      tag_146\n        /* \"contracts/ConstantK.sol\":3797:3808  totalSupply */\n      tag_40\n        /* \"contracts/ConstantK.sol\":3797:3810  totalSupply() */\n      jump\t// in\n    tag_146:\n        /* \"contracts/ConstantK.sol\":3785:3793  reserve1 */\n      sload(0x07)\n        /* \"contracts/ConstantK.sol\":3775:3782  _shares */\n      dup5\n        /* \"contracts/ConstantK.sol\":3775:3793  _shares * reserve1 */\n      tag_147\n      swap2\n      swap1\n      tag_143\n      jump\t// in\n    tag_147:\n        /* \"contracts/ConstantK.sol\":3774:3810  (_shares * reserve1) / totalSupply() */\n      tag_148\n      swap2\n      swap1\n      tag_145\n      jump\t// in\n    tag_148:\n        /* \"contracts/ConstantK.sol\":3764:3810  amount1 = (_shares * reserve1) / totalSupply() */\n      swap1\n      pop\n        /* \"contracts/ConstantK.sol\":3839:3840  0 */\n      0x00\n        /* \"contracts/ConstantK.sol\":3829:3836  amount0 */\n      dup3\n        /* \"contracts/ConstantK.sol\":3829:3840  amount0 > 0 */\n      gt\n        /* \"contracts/ConstantK.sol\":3829:3855  amount0 > 0 && amount1 > 0 */\n      dup1\n      iszero\n      tag_149\n      jumpi\n      pop\n        /* \"contracts/ConstantK.sol\":3854:3855  0 */\n      0x00\n        /* \"contracts/ConstantK.sol\":3844:3851  amount1 */\n      dup2\n        /* \"contracts/ConstantK.sol\":3844:3855  amount1 > 0 */\n      gt\n        /* \"contracts/ConstantK.sol\":3829:3855  amount0 > 0 && amount1 > 0 */\n    tag_149:\n        /* \"contracts/ConstantK.sol\":3821:3871  require(amount0 > 0 && amount1 > 0, \"ZERO AMOUNT\") */\n      tag_150\n      jumpi\n      mload(0x40)\n      0x08c379a000000000000000000000000000000000000000000000000000000000\n      dup2\n      mstore\n      0x04\n      add\n      tag_151\n      swap1\n      tag_152\n      jump\t// in\n    tag_151:\n      mload(0x40)\n      dup1\n      swap2\n      sub\n      swap1\n      revert\n    tag_150:\n        /* \"contracts/ConstantK.sol\":3882:3919  _burn(msg.sender, _shares * 10 ** 18) */\n      tag_153\n        /* \"contracts/ConstantK.sol\":3888:3898  msg.sender */\n      caller\n        /* \"contracts/ConstantK.sol\":3910:3918  10 ** 18 */\n      0x0de0b6b3a7640000\n        /* \"contracts/ConstantK.sol\":3900:3907  _shares */\n      dup6\n        /* \"contracts/ConstantK.sol\":3900:3918  _shares * 10 ** 18 */\n      tag_154\n      swap2\n      swap1\n      tag_143\n      jump\t// in\n    tag_154:\n        /* \"contracts/ConstantK.sol\":3882:3887  _burn */\n      tag_155\n        /* \"contracts/ConstantK.sol\":3882:3919  _burn(msg.sender, _shares * 10 ** 18) */\n      jump\t// in\n    tag_153:\n        /* \"contracts/ConstantK.sol\":3930:3977  _update(reserve0 - amount0, reserve1 - amount1) */\n      tag_156\n        /* \"contracts/ConstantK.sol\":3949:3956  amount0 */\n      dup3\n        /* \"contracts/ConstantK.sol\":3938:3946  reserve0 */\n      sload(0x06)\n        /* \"contracts/ConstantK.sol\":3938:3956  reserve0 - amount0 */\n      tag_157\n      swap2\n      swap1\n      tag_158\n      jump\t// in\n    tag_157:\n        /* \"contracts/ConstantK.sol\":3969:3976  amount1 */\n      dup3\n        /* \"contracts/ConstantK.sol\":3958:3966  reserve1 */\n      sload(0x07)\n        /* \"contracts/ConstantK.sol\":3958:3976  reserve1 - amount1 */\n      tag_159\n      swap2\n      swap1\n      tag_158\n      jump\t// in\n    tag_159:\n        /* \"contracts/ConstantK.sol\":3930:3937  _update */\n      tag_160\n        /* \"contracts/ConstantK.sol\":3930:3977  _update(reserve0 - amount0, reserve1 - amount1) */\n      jump\t// in\n    tag_156:\n        /* \"contracts/ConstantK.sol\":3988:3994  token0 */\n      immutable(\"0x356838a9802f9300960370a61c1b93fed91a0635190b94cc9f275180c4d2038b\")\n        /* \"contracts/ConstantK.sol\":3988:4003  token0.transfer */\n      0xffffffffffffffffffffffffffffffffffffffff\n      and\n      0xa9059cbb\n        /* \"contracts/ConstantK.sol\":4004:4014  msg.sender */\n      caller\n        /* \"contracts/ConstantK.sol\":4016:4023  amount0 */\n      dup5\n        /* \"contracts/ConstantK.sol\":3988:4024  token0.transfer(msg.sender, amount0) */\n      mload(0x40)\n      dup4\n      0xffffffff\n      and\n      0xe0\n      shl\n      dup2\n      mstore\n      0x04\n      add\n      tag_161\n      swap3\n      swap2\n      swap1\n      tag_162\n      jump\t// in\n    tag_161:\n      0x20\n      mload(0x40)\n      dup1\n      dup4\n      sub\n      dup2\n      0x00\n      dup8\n      gas\n      call\n      iszero\n      dup1\n      iszero\n      tag_164\n      jumpi\n      returndatasize\n      0x00\n      dup1\n      returndatacopy\n      revert(0x00, returndatasize)\n    tag_164:\n      pop\n      pop\n      pop\n      pop\n      mload(0x40)\n      returndatasize\n      not(0x1f)\n      0x1f\n      dup3\n      add\n      and\n      dup3\n      add\n      dup1\n      0x40\n      mstore\n      pop\n      dup2\n      add\n      swap1\n      tag_165\n      swap2\n      swap1\n      tag_166\n      jump\t// in\n    tag_165:\n      pop\n        /* \"contracts/ConstantK.sol\":4035:4041  token1 */\n      immutable(\"0x2501380a21b274421b7683485831a81ec9d98da3f2ac3e39f456bea2b226ba76\")\n        /* \"contracts/ConstantK.sol\":4035:4050  token1.transfer */\n      0xffffffffffffffffffffffffffffffffffffffff\n      and\n      0xa9059cbb\n        /* \"contracts/ConstantK.sol\":4051:4061  msg.sender */\n      caller\n        /* \"contracts/ConstantK.sol\":4063:4070  amount1 */\n      dup4\n        /* \"contracts/ConstantK.sol\":4035:4071  token1.transfer(msg.sender, amount1) */\n      mload(0x40)\n      dup4\n      0xffffffff\n      and\n      0xe0\n      shl\n      dup2\n      mstore\n      0x04\n      add\n      tag_167\n      swap3\n      swap2\n      swap1\n      tag_162\n      jump\t// in\n    tag_167:\n      0x20\n      mload(0x40)\n      dup1\n      dup4\n      sub\n      dup2\n      0x00\n      dup8\n      gas\n      call\n      iszero\n      dup1\n      iszero\n      tag_169\n      jumpi\n      returndatasize\n      0x00\n      dup1\n      returndatacopy\n      revert(0x00, returndatasize)\n    tag_169:\n      pop\n      pop\n      pop\n      pop\n      mload(0x40)\n      returndatasize\n      not(0x1f)\n      0x1f\n      dup3\n      add\n      and\n      dup3\n      add\n      dup1\n      0x40\n      mstore\n      pop\n      dup2\n      add\n      swap1\n      tag_170\n      swap2\n      swap1\n      tag_166\n      jump\t// in\n    tag_170:\n      pop\n        /* \"contracts/ConstantK.sol\":3602:4079  function removeLiquidity(uint256 _shares) external returns (uint256 amount0, uint256 amount1) {... */\n      swap2\n      pop\n      swap2\n      jump\t// out\n        /* \"contracts/ConstantK.sol\":2752:3594  function addLiquidity(uint256 _amount0, uint256 _amount1) external returns (uint256 shares) {... */\n    tag_82:\n        /* \"contracts/ConstantK.sol\":2828:2842  uint256 shares */\n      0x00\n        /* \"contracts/ConstantK.sol\":2855:2871  uint256 btcPrice */\n      dup1\n        /* \"contracts/ConstantK.sol\":2874:2893  getLatestBTCPrice() */\n      tag_172\n        /* \"contracts/ConstantK.sol\":2874:2891  getLatestBTCPrice */\n      tag_44\n        /* \"contracts/ConstantK.sol\":2874:2893  getLatestBTCPrice() */\n      jump\t// in\n    tag_172:\n        /* \"contracts/ConstantK.sol\":2855:2893  uint256 btcPrice = getLatestBTCPrice() */\n      swap1\n      pop\n        /* \"contracts/ConstantK.sol\":2907:2927  uint256 expectedVNST */\n      0x00\n        /* \"contracts/ConstantK.sol\":2942:2950  btcPrice */\n      dup2\n        /* \"contracts/ConstantK.sol\":2931:2939  _amount1 */\n      dup5\n        /* \"contracts/ConstantK.sol\":2931:2950  _amount1 * btcPrice */\n      tag_173\n      swap2\n      swap1\n      tag_143\n      jump\t// in\n    tag_173:\n        /* \"contracts/ConstantK.sol\":2907:2952  uint256 expectedVNST = (_amount1 * btcPrice ) */\n      swap1\n      pop\n        /* \"contracts/ConstantK.sol\":2983:2995  expectedVNST */\n      dup1\n        /* \"contracts/ConstantK.sol\":2971:2979  _amount0 */\n      dup6\n        /* \"contracts/ConstantK.sol\":2971:2995  _amount0 == expectedVNST */\n      eq\n        /* \"contracts/ConstantK.sol\":2963:3025  require(_amount0 == expectedVNST, \"VNST must match BTC price\") */\n      tag_174\n      jumpi\n      mload(0x40)\n      0x08c379a000000000000000000000000000000000000000000000000000000000\n      dup2\n      mstore\n      0x04\n      add\n      tag_175\n      swap1\n      tag_176\n      jump\t// in\n    tag_175:\n      mload(0x40)\n      dup1\n      swap2\n      sub\n      swap1\n      revert\n    tag_174:\n        /* \"contracts/ConstantK.sol\":3038:3044  token0 */\n      immutable(\"0x356838a9802f9300960370a61c1b93fed91a0635190b94cc9f275180c4d2038b\")\n        /* \"contracts/ConstantK.sol\":3038:3057  token0.transferFrom */\n      0xffffffffffffffffffffffffffffffffffffffff\n      and\n      0x23b872dd\n        /* \"contracts/ConstantK.sol\":3058:3068  msg.sender */\n      caller\n        /* \"contracts/ConstantK.sol\":3078:3082  this */\n      address\n        /* \"contracts/ConstantK.sol\":3085:3093  _amount0 */\n      dup9\n        /* \"contracts/ConstantK.sol\":3038:3094  token0.transferFrom(msg.sender, address(this), _amount0) */\n      mload(0x40)\n      dup5\n      0xffffffff\n      and\n      0xe0\n      shl\n      dup2\n      mstore\n      0x04\n      add\n      tag_177\n      swap4\n      swap3\n      swap2\n      swap1\n      tag_178\n      jump\t// in\n    tag_177:\n      0x20\n      mload(0x40)\n      dup1\n      dup4\n      sub\n      dup2\n      0x00\n      dup8\n      gas\n      call\n      iszero\n      dup1\n      iszero\n      tag_180\n      jumpi\n      returndatasize\n      0x00\n      dup1\n      returndatacopy\n      revert(0x00, returndatasize)\n    tag_180:\n      pop\n      pop\n      pop\n      pop\n      mload(0x40)\n      returndatasize\n      not(0x1f)\n      0x1f\n      dup3\n      add\n      and\n      dup3\n      add\n      dup1\n      0x40\n      mstore\n      pop\n      dup2\n      add\n      swap1\n      tag_181\n      swap2\n      swap1\n      tag_166\n      jump\t// in\n    tag_181:\n      pop\n        /* \"contracts/ConstantK.sol\":3105:3111  token1 */\n      immutable(\"0x2501380a21b274421b7683485831a81ec9d98da3f2ac3e39f456bea2b226ba76\")\n        /* \"contracts/ConstantK.sol\":3105:3124  token1.transferFrom */\n      0xffffffffffffffffffffffffffffffffffffffff\n      and\n      0x23b872dd\n        /* \"contracts/ConstantK.sol\":3125:3135  msg.sender */\n      caller\n        /* \"contracts/ConstantK.sol\":3145:3149  this */\n      address\n        /* \"contracts/ConstantK.sol\":3152:3160  _amount1 */\n      dup8\n        /* \"contracts/ConstantK.sol\":3105:3161  token1.transferFrom(msg.sender, address(this), _amount1) */\n      mload(0x40)\n      dup5\n      0xffffffff\n      and\n      0xe0\n      shl\n      dup2\n      mstore\n      0x04\n      add\n      tag_182\n      swap4\n      swap3\n      swap2\n      swap1\n      tag_178\n      jump\t// in\n    tag_182:\n      0x20\n      mload(0x40)\n      dup1\n      dup4\n      sub\n      dup2\n      0x00\n      dup8\n      gas\n      call\n      iszero\n      dup1\n      iszero\n      tag_184\n      jumpi\n      returndatasize\n      0x00\n      dup1\n      returndatacopy\n      revert(0x00, returndatasize)\n    tag_184:\n      pop\n      pop\n      pop\n      pop\n      mload(0x40)\n      returndatasize\n      not(0x1f)\n      0x1f\n      dup3\n      add\n      and\n      dup3\n      add\n      dup1\n      0x40\n      mstore\n      pop\n      dup2\n      add\n      swap1\n      tag_185\n      swap2\n      swap1\n      tag_166\n      jump\t// in\n    tag_185:\n      pop\n        /* \"contracts/ConstantK.sol\":3195:3196  0 */\n      0x00\n        /* \"contracts/ConstantK.sol\":3178:3191  totalSupply() */\n      tag_186\n        /* \"contracts/ConstantK.sol\":3178:3189  totalSupply */\n      tag_40\n        /* \"contracts/ConstantK.sol\":3178:3191  totalSupply() */\n      jump\t// in\n    tag_186:\n        /* \"contracts/ConstantK.sol\":3178:3196  totalSupply() == 0 */\n      sub\n        /* \"contracts/ConstantK.sol\":3174:3433  if (totalSupply() == 0) {... */\n      tag_187\n      jumpi\n        /* \"contracts/ConstantK.sol\":3222:3248  _sqrt(_amount0 * _amount1) */\n      tag_188\n        /* \"contracts/ConstantK.sol\":3239:3247  _amount1 */\n      dup5\n        /* \"contracts/ConstantK.sol\":3228:3236  _amount0 */\n      dup7\n        /* \"contracts/ConstantK.sol\":3228:3247  _amount0 * _amount1 */\n      tag_189\n      swap2\n      swap1\n      tag_143\n      jump\t// in\n    tag_189:\n        /* \"contracts/ConstantK.sol\":3222:3227  _sqrt */\n      tag_190\n        /* \"contracts/ConstantK.sol\":3222:3248  _sqrt(_amount0 * _amount1) */\n      jump\t// in\n    tag_188:\n        /* \"contracts/ConstantK.sol\":3213:3248  shares = _sqrt(_amount0 * _amount1) */\n      swap3\n      pop\n        /* \"contracts/ConstantK.sol\":3174:3433  if (totalSupply() == 0) {... */\n      jump(tag_191)\n    tag_187:\n        /* \"contracts/ConstantK.sol\":3290:3421  _min(... */\n      tag_192\n        /* \"contracts/ConstantK.sol\":3342:3350  reserve0 */\n      sload(0x06)\n        /* \"contracts/ConstantK.sol\":3325:3338  totalSupply() */\n      tag_193\n        /* \"contracts/ConstantK.sol\":3325:3336  totalSupply */\n      tag_40\n        /* \"contracts/ConstantK.sol\":3325:3338  totalSupply() */\n      jump\t// in\n    tag_193:\n        /* \"contracts/ConstantK.sol\":3314:3322  _amount0 */\n      dup8\n        /* \"contracts/ConstantK.sol\":3314:3338  _amount0 * totalSupply() */\n      tag_194\n      swap2\n      swap1\n      tag_143\n      jump\t// in\n    tag_194:\n        /* \"contracts/ConstantK.sol\":3313:3350  (_amount0 * totalSupply()) / reserve0 */\n      tag_195\n      swap2\n      swap1\n      tag_145\n      jump\t// in\n    tag_195:\n        /* \"contracts/ConstantK.sol\":3398:3406  reserve1 */\n      sload(0x07)\n        /* \"contracts/ConstantK.sol\":3381:3394  totalSupply() */\n      tag_196\n        /* \"contracts/ConstantK.sol\":3381:3392  totalSupply */\n      tag_40\n        /* \"contracts/ConstantK.sol\":3381:3394  totalSupply() */\n      jump\t// in\n    tag_196:\n        /* \"contracts/ConstantK.sol\":3370:3378  _amount1 */\n      dup8\n        /* \"contracts/ConstantK.sol\":3370:3394  _amount1 * totalSupply() */\n      tag_197\n      swap2\n      swap1\n      tag_143\n      jump\t// in\n    tag_197:\n        /* \"contracts/ConstantK.sol\":3369:3406  (_amount1 * totalSupply()) / reserve1 */\n      tag_198\n      swap2\n      swap1\n      tag_145\n      jump\t// in\n    tag_198:\n        /* \"contracts/ConstantK.sol\":3290:3294  _min */\n      tag_199\n        /* \"contracts/ConstantK.sol\":3290:3421  _min(... */\n      jump\t// in\n    tag_192:\n        /* \"contracts/ConstantK.sol\":3281:3421  shares = _min(... */\n      swap3\n      pop\n        /* \"contracts/ConstantK.sol\":3174:3433  if (totalSupply() == 0) {... */\n    tag_191:\n        /* \"contracts/ConstantK.sol\":3462:3463  0 */\n      0x00\n        /* \"contracts/ConstantK.sol\":3453:3459  shares */\n      dup4\n        /* \"contracts/ConstantK.sol\":3453:3463  shares > 0 */\n      gt\n        /* \"contracts/ConstantK.sol\":3445:3479  require(shares > 0, \"ZERO_SHARES\") */\n      tag_200\n      jumpi\n      mload(0x40)\n      0x08c379a000000000000000000000000000000000000000000000000000000000\n      dup2\n      mstore\n      0x04\n      add\n      tag_201\n      swap1\n      tag_202\n      jump\t// in\n    tag_201:\n      mload(0x40)\n      dup1\n      swap2\n      sub\n      swap1\n      revert\n    tag_200:\n        /* \"contracts/ConstantK.sol\":3490:3526  _mint(msg.sender, shares * 10 ** 18) */\n      tag_203\n        /* \"contracts/ConstantK.sol\":3496:3506  msg.sender */\n      caller\n        /* \"contracts/ConstantK.sol\":3517:3525  10 ** 18 */\n      0x0de0b6b3a7640000\n        /* \"contracts/ConstantK.sol\":3508:3514  shares */\n      dup6\n        /* \"contracts/ConstantK.sol\":3508:3525  shares * 10 ** 18 */\n      tag_204\n      swap2\n      swap1\n      tag_143\n      jump\t// in\n    tag_204:\n        /* \"contracts/ConstantK.sol\":3490:3495  _mint */\n      tag_205\n        /* \"contracts/ConstantK.sol\":3490:3526  _mint(msg.sender, shares * 10 ** 18) */\n      jump\t// in\n    tag_203:\n        /* \"contracts/ConstantK.sol\":3537:3586  _update(reserve0 + _amount0, reserve1 + _amount1) */\n      tag_206\n        /* \"contracts/ConstantK.sol\":3556:3564  _amount0 */\n      dup6\n        /* \"contracts/ConstantK.sol\":3545:3553  reserve0 */\n      sload(0x06)\n        /* \"contracts/ConstantK.sol\":3545:3564  reserve0 + _amount0 */\n      tag_207\n      swap2\n      swap1\n      tag_208\n      jump\t// in\n    tag_207:\n        /* \"contracts/ConstantK.sol\":3577:3585  _amount1 */\n      dup6\n        /* \"contracts/ConstantK.sol\":3566:3574  reserve1 */\n      sload(0x07)\n        /* \"contracts/ConstantK.sol\":3566:3585  reserve1 + _amount1 */\n      tag_209\n      swap2\n      swap1\n      tag_208\n      jump\t// in\n    tag_209:\n        /* \"contracts/ConstantK.sol\":3537:3544  _update */\n      tag_160\n        /* \"contracts/ConstantK.sol\":3537:3586  _update(reserve0 + _amount0, reserve1 + _amount1) */\n      jump\t// in\n    tag_206:\n        /* \"contracts/ConstantK.sol\":2844:3594  {... */\n      pop\n      pop\n        /* \"contracts/ConstantK.sol\":2752:3594  function addLiquidity(uint256 _amount0, uint256 _amount1) external returns (uint256 shares) {... */\n      swap3\n      swap2\n      pop\n      pop\n      jump\t// out\n        /* \"@openzeppelin/contracts/token/ERC20/ERC20.sol\":3296:3474  function transfer(address to, uint256 value) public virtual returns (bool) {... */\n    tag_86:\n        /* \"@openzeppelin/contracts/token/ERC20/ERC20.sol\":3365:3369  bool */\n      0x00\n        /* \"@openzeppelin/contracts/token/ERC20/ERC20.sol\":3381:3394  address owner */\n      dup1\n        /* \"@openzeppelin/contracts/token/ERC20/ERC20.sol\":3397:3409  _msgSender() */\n      tag_211\n        /* \"@openzeppelin/contracts/token/ERC20/ERC20.sol\":3397:3407  _msgSender */\n      tag_112\n        /* \"@openzeppelin/contracts/token/ERC20/ERC20.sol\":3397:3409  _msgSender() */\n      jump\t// in\n    tag_211:\n        /* \"@openzeppelin/contracts/token/ERC20/ERC20.sol\":3381:3409  address owner = _msgSender() */\n      swap1\n      pop\n        /* \"@openzeppelin/contracts/token/ERC20/ERC20.sol\":3419:3446  _transfer(owner, to, value) */\n      tag_212\n        /* \"@openzeppelin/contracts/token/ERC20/ERC20.sol\":3429:3434  owner */\n      dup2\n        /* \"@openzeppelin/contracts/token/ERC20/ERC20.sol\":3436:3438  to */\n      dup6\n        /* \"@openzeppelin/contracts/token/ERC20/ERC20.sol\":3440:3445  value */\n      dup6\n        /* \"@openzeppelin/contracts/token/ERC20/ERC20.sol\":3419:3428  _transfer */\n      tag_131\n        /* \"@openzeppelin/contracts/token/ERC20/ERC20.sol\":3419:3446  _transfer(owner, to, value) */\n      jump\t// in\n    tag_212:\n        /* \"@openzeppelin/contracts/token/ERC20/ERC20.sol\":3463:3467  true */\n      0x01\n        /* \"@openzeppelin/contracts/token/ERC20/ERC20.sol\":3456:3467  return true */\n      swap2\n      pop\n      pop\n        /* \"@openzeppelin/contracts/token/ERC20/ERC20.sol\":3296:3474  function transfer(address to, uint256 value) public virtual returns (bool) {... */\n      swap3\n      swap2\n      pop\n      pop\n      jump\t// out\n        /* \"contracts/ConstantK.sol\":1705:2744  function swap(address _tokenIn, uint256 _amountIn) external returns (uint256 amountOut) {... */\n    tag_90:\n        /* \"contracts/ConstantK.sol\":1774:1791  uint256 amountOut */\n      0x00\n        /* \"contracts/ConstantK.sol\":1832:1833  0 */\n      dup1\n        /* \"contracts/ConstantK.sol\":1812:1834  _tokenIn != address(0) */\n      0xffffffffffffffffffffffffffffffffffffffff\n      and\n        /* \"contracts/ConstantK.sol\":1812:1820  _tokenIn */\n      dup4\n        /* \"contracts/ConstantK.sol\":1812:1834  _tokenIn != address(0) */\n      0xffffffffffffffffffffffffffffffffffffffff\n      and\n      sub\n        /* \"contracts/ConstantK.sol\":1804:1851  require(_tokenIn != address(0), \"ZERO ADDRESS\") */\n      tag_214\n      jumpi\n      mload(0x40)\n      0x08c379a000000000000000000000000000000000000000000000000000000000\n      dup2\n      mstore\n      0x04\n      add\n      tag_215\n      swap1\n      tag_216\n      jump\t// in\n    tag_215:\n      mload(0x40)\n      dup1\n      swap2\n      sub\n      swap1\n      revert\n    tag_214:\n        /* \"contracts/ConstantK.sol\":1882:1883  0 */\n      0x00\n        /* \"contracts/ConstantK.sol\":1870:1879  _amountIn */\n      dup3\n        /* \"contracts/ConstantK.sol\":1870:1883  _amountIn > 0 */\n      gt\n        /* \"contracts/ConstantK.sol\":1862:1899  require(_amountIn > 0, \"ZERO AMOUNT\") */\n      tag_217\n      jumpi\n      mload(0x40)\n      0x08c379a000000000000000000000000000000000000000000000000000000000\n      dup2\n      mstore\n      0x04\n      add\n      tag_218\n      swap1\n      tag_152\n      jump\t// in\n    tag_218:\n      mload(0x40)\n      dup1\n      swap2\n      sub\n      swap1\n      revert\n    tag_217:\n        /* \"contracts/ConstantK.sol\":1938:1944  token0 */\n      immutable(\"0x356838a9802f9300960370a61c1b93fed91a0635190b94cc9f275180c4d2038b\")\n        /* \"contracts/ConstantK.sol\":1918:1945  _tokenIn == address(token0) */\n      0xffffffffffffffffffffffffffffffffffffffff\n      and\n        /* \"contracts/ConstantK.sol\":1918:1926  _tokenIn */\n      dup4\n        /* \"contracts/ConstantK.sol\":1918:1945  _tokenIn == address(token0) */\n      0xffffffffffffffffffffffffffffffffffffffff\n      and\n      eq\n        /* \"contracts/ConstantK.sol\":1918:1976  _tokenIn == address(token0) || _tokenIn == address(token1) */\n      dup1\n      tag_219\n      jumpi\n      pop\n        /* \"contracts/ConstantK.sol\":1969:1975  token1 */\n      immutable(\"0x2501380a21b274421b7683485831a81ec9d98da3f2ac3e39f456bea2b226ba76\")\n        /* \"contracts/ConstantK.sol\":1949:1976  _tokenIn == address(token1) */\n      0xffffffffffffffffffffffffffffffffffffffff\n      and\n        /* \"contracts/ConstantK.sol\":1949:1957  _tokenIn */\n      dup4\n        /* \"contracts/ConstantK.sol\":1949:1976  _tokenIn == address(token1) */\n      0xffffffffffffffffffffffffffffffffffffffff\n      and\n      eq\n        /* \"contracts/ConstantK.sol\":1918:1976  _tokenIn == address(token0) || _tokenIn == address(token1) */\n    tag_219:\n        /* \"contracts/ConstantK.sol\":1910:1977  require(_tokenIn == address(token0) || _tokenIn == address(token1)) */\n      tag_220\n      jumpi\n      0x00\n      dup1\n      revert\n    tag_220:\n        /* \"contracts/ConstantK.sol\":1991:2005  IERC20 tokenIn */\n      0x00\n        /* \"contracts/ConstantK.sol\":2007:2022  IERC20 tokenOut */\n      dup1\n        /* \"contracts/ConstantK.sol\":2024:2041  uint256 reserveIn */\n      0x00\n        /* \"contracts/ConstantK.sol\":2043:2061  uint256 reserveOut */\n      dup1\n        /* \"contracts/ConstantK.sol\":2099:2105  token0 */\n      immutable(\"0x356838a9802f9300960370a61c1b93fed91a0635190b94cc9f275180c4d2038b\")\n        /* \"contracts/ConstantK.sol\":2079:2106  _tokenIn == address(token0) */\n      0xffffffffffffffffffffffffffffffffffffffff\n      and\n        /* \"contracts/ConstantK.sol\":2079:2087  _tokenIn */\n      dup8\n        /* \"contracts/ConstantK.sol\":2079:2106  _tokenIn == address(token0) */\n      0xffffffffffffffffffffffffffffffffffffffff\n      and\n      eq\n        /* \"contracts/ConstantK.sol\":2078:2185  (_tokenIn == address(token0)) ? (token0, token1, reserve0, reserve1) : (token1, token0, reserve1, reserve0) */\n      tag_221\n      jumpi\n        /* \"contracts/ConstantK.sol\":2150:2156  token1 */\n      immutable(\"0x2501380a21b274421b7683485831a81ec9d98da3f2ac3e39f456bea2b226ba76\")\n        /* \"contracts/ConstantK.sol\":2158:2164  token0 */\n      immutable(\"0x356838a9802f9300960370a61c1b93fed91a0635190b94cc9f275180c4d2038b\")\n        /* \"contracts/ConstantK.sol\":2166:2174  reserve1 */\n      sload(0x07)\n        /* \"contracts/ConstantK.sol\":2176:2184  reserve0 */\n      sload(0x06)\n        /* \"contracts/ConstantK.sol\":2078:2185  (_tokenIn == address(token0)) ? (token0, token1, reserve0, reserve1) : (token1, token0, reserve1, reserve0) */\n      jump(tag_222)\n    tag_221:\n        /* \"contracts/ConstantK.sol\":2111:2117  token0 */\n      immutable(\"0x356838a9802f9300960370a61c1b93fed91a0635190b94cc9f275180c4d2038b\")\n        /* \"contracts/ConstantK.sol\":2119:2125  token1 */\n      immutable(\"0x2501380a21b274421b7683485831a81ec9d98da3f2ac3e39f456bea2b226ba76\")\n        /* \"contracts/ConstantK.sol\":2127:2135  reserve0 */\n      sload(0x06)\n        /* \"contracts/ConstantK.sol\":2137:2145  reserve1 */\n      sload(0x07)\n        /* \"contracts/ConstantK.sol\":2078:2185  (_tokenIn == address(token0)) ? (token0, token1, reserve0, reserve1) : (token1, token0, reserve1, reserve0) */\n    tag_222:\n        /* \"contracts/ConstantK.sol\":1990:2185  (IERC20 tokenIn, IERC20 tokenOut, uint256 reserveIn, uint256 reserveOut) =... */\n      swap4\n      pop\n      swap4\n      pop\n      swap4\n      pop\n      swap4\n      pop\n        /* \"contracts/ConstantK.sol\":2198:2205  tokenIn */\n      dup4\n        /* \"contracts/ConstantK.sol\":2198:2218  tokenIn.transferFrom */\n      0xffffffffffffffffffffffffffffffffffffffff\n      and\n      0x23b872dd\n        /* \"contracts/ConstantK.sol\":2219:2229  msg.sender */\n      caller\n        /* \"contracts/ConstantK.sol\":2239:2243  this */\n      address\n        /* \"contracts/ConstantK.sol\":2246:2255  _amountIn */\n      dup10\n        /* \"contracts/ConstantK.sol\":2198:2256  tokenIn.transferFrom(msg.sender, address(this), _amountIn) */\n      mload(0x40)\n      dup5\n      0xffffffff\n      and\n      0xe0\n      shl\n      dup2\n      mstore\n      0x04\n      add\n      tag_223\n      swap4\n      swap3\n      swap2\n      swap1\n      tag_178\n      jump\t// in\n    tag_223:\n      0x20\n      mload(0x40)\n      dup1\n      dup4\n      sub\n      dup2\n      0x00\n      dup8\n      gas\n      call\n      iszero\n      dup1\n      iszero\n      tag_225\n      jumpi\n      returndatasize\n      0x00\n      dup1\n      returndatacopy\n      revert(0x00, returndatasize)\n    tag_225:\n      pop\n      pop\n      pop\n      pop\n      mload(0x40)\n      returndatasize\n      not(0x1f)\n      0x1f\n      dup3\n      add\n      and\n      dup3\n      add\n      dup1\n      0x40\n      mstore\n      pop\n      dup2\n      add\n      swap1\n      tag_226\n      swap2\n      swap1\n      tag_166\n      jump\t// in\n    tag_226:\n      pop\n        /* \"contracts/ConstantK.sol\":2269:2285  uint256 amountIn */\n      0x00\n        /* \"contracts/ConstantK.sol\":2317:2321  1000 */\n      0x03e8\n        /* \"contracts/ConstantK.sol\":2309:2312  fee */\n      sload(0x05)\n        /* \"contracts/ConstantK.sol\":2302:2306  1000 */\n      0x03e8\n        /* \"contracts/ConstantK.sol\":2302:2312  1000 - fee */\n      tag_227\n      swap2\n      swap1\n      tag_158\n      jump\t// in\n    tag_227:\n        /* \"contracts/ConstantK.sol\":2289:2298  _amountIn */\n      dup9\n        /* \"contracts/ConstantK.sol\":2289:2313  _amountIn * (1000 - fee) */\n      tag_228\n      swap2\n      swap1\n      tag_143\n      jump\t// in\n    tag_228:\n        /* \"contracts/ConstantK.sol\":2288:2321  (_amountIn * (1000 - fee)) / 1000 */\n      tag_229\n      swap2\n      swap1\n      tag_145\n      jump\t// in\n    tag_229:\n        /* \"contracts/ConstantK.sol\":2269:2321  uint256 amountIn = (_amountIn * (1000 - fee)) / 1000 */\n      swap1\n      pop\n        /* \"contracts/ConstantK.sol\":2383:2391  amountIn */\n      dup1\n        /* \"contracts/ConstantK.sol\":2370:2380  reserveOut */\n      dup3\n        /* \"contracts/ConstantK.sol\":2370:2391  reserveOut + amountIn */\n      tag_230\n      swap2\n      swap1\n      tag_208\n      jump\t// in\n    tag_230:\n        /* \"contracts/ConstantK.sol\":2357:2365  amountIn */\n      dup2\n        /* \"contracts/ConstantK.sol\":2345:2354  reserveIn */\n      dup5\n        /* \"contracts/ConstantK.sol\":2345:2365  reserveIn * amountIn */\n      tag_231\n      swap2\n      swap1\n      tag_143\n      jump\t// in\n    tag_231:\n        /* \"contracts/ConstantK.sol\":2344:2392  (reserveIn * amountIn) / (reserveOut + amountIn) */\n      tag_232\n      swap2\n      swap1\n      tag_145\n      jump\t// in\n    tag_232:\n        /* \"contracts/ConstantK.sol\":2332:2392  amountOut = (reserveIn * amountIn) / (reserveOut + amountIn) */\n      swap6\n      pop\n        /* \"contracts/ConstantK.sol\":2405:2412  tokenIn */\n      dup5\n        /* \"contracts/ConstantK.sol\":2405:2421  tokenIn.transfer */\n      0xffffffffffffffffffffffffffffffffffffffff\n      and\n      0xa9059cbb\n        /* \"contracts/ConstantK.sol\":2422:2427  owner */\n      0x08\n      0x00\n      swap1\n      sload\n      swap1\n      0x0100\n      exp\n      swap1\n      div\n      0xffffffffffffffffffffffffffffffffffffffff\n      and\n        /* \"contracts/ConstantK.sol\":2441:2449  amountIn */\n      dup4\n        /* \"contracts/ConstantK.sol\":2429:2438  _amountIn */\n      dup11\n        /* \"contracts/ConstantK.sol\":2429:2449  _amountIn - amountIn */\n      tag_233\n      swap2\n      swap1\n      tag_158\n      jump\t// in\n    tag_233:\n        /* \"contracts/ConstantK.sol\":2405:2450  tokenIn.transfer(owner, _amountIn - amountIn) */\n      mload(0x40)\n      dup4\n      0xffffffff\n      and\n      0xe0\n      shl\n      dup2\n      mstore\n      0x04\n      add\n      tag_234\n      swap3\n      swap2\n      swap1\n      tag_162\n      jump\t// in\n    tag_234:\n      0x20\n      mload(0x40)\n      dup1\n      dup4\n      sub\n      dup2\n      0x00\n      dup8\n      gas\n      call\n      iszero\n      dup1\n      iszero\n      tag_236\n      jumpi\n      returndatasize\n      0x00\n      dup1\n      returndatacopy\n      revert(0x00, returndatasize)\n    tag_236:\n      pop\n      pop\n      pop\n      pop\n      mload(0x40)\n      returndatasize\n      not(0x1f)\n      0x1f\n      dup3\n      add\n      and\n      dup3\n      add\n      dup1\n      0x40\n      mstore\n      pop\n      dup2\n      add\n      swap1\n      tag_237\n      swap2\n      swap1\n      tag_166\n      jump\t// in\n    tag_237:\n      pop\n        /* \"contracts/ConstantK.sol\":2461:2469  tokenOut */\n      dup4\n        /* \"contracts/ConstantK.sol\":2461:2478  tokenOut.transfer */\n      0xffffffffffffffffffffffffffffffffffffffff\n      and\n      0xa9059cbb\n        /* \"contracts/ConstantK.sol\":2479:2489  msg.sender */\n      caller\n        /* \"contracts/ConstantK.sol\":2491:2500  amountOut */\n      dup9\n        /* \"contracts/ConstantK.sol\":2461:2501  tokenOut.transfer(msg.sender, amountOut) */\n      mload(0x40)\n      dup4\n      0xffffffff\n      and\n      0xe0\n      shl\n      dup2\n      mstore\n      0x04\n      add\n      tag_238\n      swap3\n      swap2\n      swap1\n      tag_162\n      jump\t// in\n    tag_238:\n      0x20\n      mload(0x40)\n      dup1\n      dup4\n      sub\n      dup2\n      0x00\n      dup8\n      gas\n      call\n      iszero\n      dup1\n      iszero\n      tag_240\n      jumpi\n      returndatasize\n      0x00\n      dup1\n      returndatacopy\n      revert(0x00, returndatasize)\n    tag_240:\n      pop\n      pop\n      pop\n      pop\n      mload(0x40)\n      returndatasize\n      not(0x1f)\n      0x1f\n      dup3\n      add\n      and\n      dup3\n      add\n      dup1\n      0x40\n      mstore\n      pop\n      dup2\n      add\n      swap1\n      tag_241\n      swap2\n      swap1\n      tag_166\n      jump\t// in\n    tag_241:\n      pop\n        /* \"contracts/ConstantK.sol\":2515:2532  uint256 _reserve0 */\n      0x00\n        /* \"contracts/ConstantK.sol\":2534:2551  uint256 _reserve1 */\n      dup1\n        /* \"contracts/ConstantK.sol\":2589:2595  token0 */\n      immutable(\"0x356838a9802f9300960370a61c1b93fed91a0635190b94cc9f275180c4d2038b\")\n        /* \"contracts/ConstantK.sol\":2569:2596  _tokenIn == address(token0) */\n      0xffffffffffffffffffffffffffffffffffffffff\n      and\n        /* \"contracts/ConstantK.sol\":2569:2577  _tokenIn */\n      dup11\n        /* \"contracts/ConstantK.sol\":2569:2596  _tokenIn == address(token0) */\n      0xffffffffffffffffffffffffffffffffffffffff\n      and\n      eq\n        /* \"contracts/ConstantK.sol\":2568:2696  (_tokenIn == address(token0)) ? (reserveIn + _amountIn, reserveOut - amountOut) : (reserveOut - amountOut, reserveIn + amountIn) */\n      tag_242\n      jumpi\n        /* \"contracts/ConstantK.sol\":2664:2673  amountOut */\n      dup8\n        /* \"contracts/ConstantK.sol\":2651:2661  reserveOut */\n      dup5\n        /* \"contracts/ConstantK.sol\":2651:2673  reserveOut - amountOut */\n      tag_243\n      swap2\n      swap1\n      tag_158\n      jump\t// in\n    tag_243:\n        /* \"contracts/ConstantK.sol\":2687:2695  amountIn */\n      dup4\n        /* \"contracts/ConstantK.sol\":2675:2684  reserveIn */\n      dup7\n        /* \"contracts/ConstantK.sol\":2675:2695  reserveIn + amountIn */\n      tag_244\n      swap2\n      swap1\n      tag_208\n      jump\t// in\n    tag_244:\n        /* \"contracts/ConstantK.sol\":2568:2696  (_tokenIn == address(token0)) ? (reserveIn + _amountIn, reserveOut - amountOut) : (reserveOut - amountOut, reserveIn + amountIn) */\n      jump(tag_245)\n    tag_242:\n        /* \"contracts/ConstantK.sol\":2613:2622  _amountIn */\n      dup9\n        /* \"contracts/ConstantK.sol\":2601:2610  reserveIn */\n      dup6\n        /* \"contracts/ConstantK.sol\":2601:2622  reserveIn + _amountIn */\n      tag_246\n      swap2\n      swap1\n      tag_208\n      jump\t// in\n    tag_246:\n        /* \"contracts/ConstantK.sol\":2637:2646  amountOut */\n      dup9\n        /* \"contracts/ConstantK.sol\":2624:2634  reserveOut */\n      dup6\n        /* \"contracts/ConstantK.sol\":2624:2646  reserveOut - amountOut */\n      tag_247\n      swap2\n      swap1\n      tag_158\n      jump\t// in\n    tag_247:\n        /* \"contracts/ConstantK.sol\":2568:2696  (_tokenIn == address(token0)) ? (reserveIn + _amountIn, reserveOut - amountOut) : (reserveOut - amountOut, reserveIn + amountIn) */\n    tag_245:\n        /* \"contracts/ConstantK.sol\":2514:2696  (uint256 _reserve0, uint256 _reserve1) =... */\n      swap2\n      pop\n      swap2\n      pop\n        /* \"contracts/ConstantK.sol\":2707:2736  _update(_reserve0, _reserve1) */\n      tag_248\n        /* \"contracts/ConstantK.sol\":2715:2724  _reserve0 */\n      dup3\n        /* \"contracts/ConstantK.sol\":2726:2735  _reserve1 */\n      dup3\n        /* \"contracts/ConstantK.sol\":2707:2714  _update */\n      tag_160\n        /* \"contracts/ConstantK.sol\":2707:2736  _update(_reserve0, _reserve1) */\n      jump\t// in\n    tag_248:\n        /* \"contracts/ConstantK.sol\":1793:2744  {... */\n      pop\n      pop\n      pop\n      pop\n      pop\n      pop\n      pop\n        /* \"contracts/ConstantK.sol\":1705:2744  function swap(address _tokenIn, uint256 _amountIn) external returns (uint256 amountOut) {... */\n      swap3\n      swap2\n      pop\n      pop\n      jump\t// out\n        /* \"contracts/ConstantK.sol\":331:361  IERC20 public immutable token1 */\n    tag_93:\n      immutable(\"0x2501380a21b274421b7683485831a81ec9d98da3f2ac3e39f456bea2b226ba76\")\n      dup2\n      jump\t// out\n        /* \"@openzeppelin/contracts/token/ERC20/ERC20.sol\":3532:3672  function allowance(address owner, address spender) public view virtual returns (uint256) {... */\n    tag_98:\n        /* \"@openzeppelin/contracts/token/ERC20/ERC20.sol\":3612:3619  uint256 */\n      0x00\n        /* \"@openzeppelin/contracts/token/ERC20/ERC20.sol\":3638:3649  _allowances */\n      0x01\n        /* \"@openzeppelin/contracts/token/ERC20/ERC20.sol\":3638:3656  _allowances[owner] */\n      0x00\n        /* \"@openzeppelin/contracts/token/ERC20/ERC20.sol\":3650:3655  owner */\n      dup5\n        /* \"@openzeppelin/contracts/token/ERC20/ERC20.sol\":3638:3656  _allowances[owner] */\n      0xffffffffffffffffffffffffffffffffffffffff\n      and\n      0xffffffffffffffffffffffffffffffffffffffff\n      and\n      dup2\n      mstore\n      0x20\n      add\n      swap1\n      dup2\n      mstore\n      0x20\n      add\n      0x00\n      keccak256\n        /* \"@openzeppelin/contracts/token/ERC20/ERC20.sol\":3638:3665  _allowances[owner][spender] */\n      0x00\n        /* \"@openzeppelin/contracts/token/ERC20/ERC20.sol\":3657:3664  spender */\n      dup4\n        /* \"@openzeppelin/contracts/token/ERC20/ERC20.sol\":3638:3665  _allowances[owner][spender] */\n      0xffffffffffffffffffffffffffffffffffffffff\n      and\n      0xffffffffffffffffffffffffffffffffffffffff\n      and\n      dup2\n      mstore\n      0x20\n      add\n      swap1\n      dup2\n      mstore\n      0x20\n      add\n      0x00\n      keccak256\n      sload\n        /* \"@openzeppelin/contracts/token/ERC20/ERC20.sol\":3631:3665  return _allowances[owner][spender] */\n      swap1\n      pop\n        /* \"@openzeppelin/contracts/token/ERC20/ERC20.sol\":3532:3672  function allowance(address owner, address spender) public view virtual returns (uint256) {... */\n      swap3\n      swap2\n      pop\n      pop\n      jump\t// out\n        /* \"contracts/ConstantK.sol\":451:473  uint256 public fee = 3 */\n    tag_101:\n      sload(0x05)\n      dup2\n      jump\t// out\n        /* \"@openzeppelin/contracts/utils/Context.sol\":656:752  function _msgSender() internal view virtual returns (address) {... */\n    tag_112:\n        /* \"@openzeppelin/contracts/utils/Context.sol\":709:716  address */\n      0x00\n        /* \"@openzeppelin/contracts/utils/Context.sol\":735:745  msg.sender */\n      caller\n        /* \"@openzeppelin/contracts/utils/Context.sol\":728:745  return msg.sender */\n      swap1\n      pop\n        /* \"@openzeppelin/contracts/utils/Context.sol\":656:752  function _msgSender() internal view virtual returns (address) {... */\n      swap1\n      jump\t// out\n        /* \"@openzeppelin/contracts/token/ERC20/ERC20.sol\":8707:8835  function _approve(address owner, address spender, uint256 value) internal {... */\n    tag_114:\n        /* \"@openzeppelin/contracts/token/ERC20/ERC20.sol\":8791:8828  _approve(owner, spender, value, true) */\n      tag_252\n        /* \"@openzeppelin/contracts/token/ERC20/ERC20.sol\":8800:8805  owner */\n      dup4\n        /* \"@openzeppelin/contracts/token/ERC20/ERC20.sol\":8807:8814  spender */\n      dup4\n        /* \"@openzeppelin/contracts/token/ERC20/ERC20.sol\":8816:8821  value */\n      dup4\n        /* \"@openzeppelin/contracts/token/ERC20/ERC20.sol\":8823:8827  true */\n      0x01\n        /* \"@openzeppelin/contracts/token/ERC20/ERC20.sol\":8791:8799  _approve */\n      tag_253\n        /* \"@openzeppelin/contracts/token/ERC20/ERC20.sol\":8791:8828  _approve(owner, spender, value, true) */\n      jump\t// in\n    tag_252:\n        /* \"@openzeppelin/contracts/token/ERC20/ERC20.sol\":8707:8835  function _approve(address owner, address spender, uint256 value) internal {... */\n      pop\n      pop\n      pop\n      jump\t// out\n        /* \"@openzeppelin/contracts/token/ERC20/ERC20.sol\":10396:10872  function _spendAllowance(address owner, address spender, uint256 value) internal virtual {... */\n    tag_129:\n        /* \"@openzeppelin/contracts/token/ERC20/ERC20.sol\":10495:10519  uint256 currentAllowance */\n      0x00\n        /* \"@openzeppelin/contracts/token/ERC20/ERC20.sol\":10522:10547  allowance(owner, spender) */\n      tag_255\n        /* \"@openzeppelin/contracts/token/ERC20/ERC20.sol\":10532:10537  owner */\n      dup5\n        /* \"@openzeppelin/contracts/token/ERC20/ERC20.sol\":10539:10546  spender */\n      dup5\n        /* \"@openzeppelin/contracts/token/ERC20/ERC20.sol\":10522:10531  allowance */\n      tag_98\n        /* \"@openzeppelin/contracts/token/ERC20/ERC20.sol\":10522:10547  allowance(owner, spender) */\n      jump\t// in\n    tag_255:\n        /* \"@openzeppelin/contracts/token/ERC20/ERC20.sol\":10495:10547  uint256 currentAllowance = allowance(owner, spender) */\n      swap1\n      pop\n        /* \"@openzeppelin/contracts/token/ERC20/ERC20.sol\":10580:10597  type(uint256).max */\n      0xffffffffffffffffffffffffffffffffffffffffffffffffffffffffffffffff\n        /* \"@openzeppelin/contracts/token/ERC20/ERC20.sol\":10561:10577  currentAllowance */\n      dup2\n        /* \"@openzeppelin/contracts/token/ERC20/ERC20.sol\":10561:10597  currentAllowance < type(uint256).max */\n      lt\n        /* \"@openzeppelin/contracts/token/ERC20/ERC20.sol\":10557:10866  if (currentAllowance < type(uint256).max) {... */\n      iszero\n      tag_256\n      jumpi\n        /* \"@openzeppelin/contracts/token/ERC20/ERC20.sol\":10636:10641  value */\n      dup2\n        /* \"@openzeppelin/contracts/token/ERC20/ERC20.sol\":10617:10633  currentAllowance */\n      dup2\n        /* \"@openzeppelin/contracts/token/ERC20/ERC20.sol\":10617:10641  currentAllowance < value */\n      lt\n        /* \"@openzeppelin/contracts/token/ERC20/ERC20.sol\":10613:10743  if (currentAllowance < value) {... */\n      iszero\n      tag_257\n      jumpi\n        /* \"@openzeppelin/contracts/token/ERC20/ERC20.sol\":10695:10702  spender */\n      dup3\n        /* \"@openzeppelin/contracts/token/ERC20/ERC20.sol\":10704:10720  currentAllowance */\n      dup2\n        /* \"@openzeppelin/contracts/token/ERC20/ERC20.sol\":10722:10727  value */\n      dup4\n        /* \"@openzeppelin/contracts/token/ERC20/ERC20.sol\":10668:10728  ERC20InsufficientAllowance(spender, currentAllowance, value) */\n      mload(0x40)\n      0xfb8f41b200000000000000000000000000000000000000000000000000000000\n      dup2\n      mstore\n      0x04\n      add\n      tag_258\n      swap4\n      swap3\n      swap2\n      swap1\n      tag_259\n      jump\t// in\n    tag_258:\n      mload(0x40)\n      dup1\n      swap2\n      sub\n      swap1\n      revert\n        /* \"@openzeppelin/contracts/token/ERC20/ERC20.sol\":10613:10743  if (currentAllowance < value) {... */\n    tag_257:\n        /* \"@openzeppelin/contracts/token/ERC20/ERC20.sol\":10784:10841  _approve(owner, spender, currentAllowance - value, false) */\n      tag_260\n        /* \"@openzeppelin/contracts/token/ERC20/ERC20.sol\":10793:10798  owner */\n      dup5\n        /* \"@openzeppelin/contracts/token/ERC20/ERC20.sol\":10800:10807  spender */\n      dup5\n        /* \"@openzeppelin/contracts/token/ERC20/ERC20.sol\":10828:10833  value */\n      dup5\n        /* \"@openzeppelin/contracts/token/ERC20/ERC20.sol\":10809:10825  currentAllowance */\n      dup5\n        /* \"@openzeppelin/contracts/token/ERC20/ERC20.sol\":10809:10833  currentAllowance - value */\n      sub\n        /* \"@openzeppelin/contracts/token/ERC20/ERC20.sol\":10835:10840  false */\n      0x00\n        /* \"@openzeppelin/contracts/token/ERC20/ERC20.sol\":10784:10792  _approve */\n      tag_253\n        /* \"@openzeppelin/contracts/token/ERC20/ERC20.sol\":10784:10841  _approve(owner, spender, currentAllowance - value, false) */\n      jump\t// in\n    tag_260:\n        /* \"@openzeppelin/contracts/token/ERC20/ERC20.sol\":10557:10866  if (currentAllowance < type(uint256).max) {... */\n    tag_256:\n        /* \"@openzeppelin/contracts/token/ERC20/ERC20.sol\":10485:10872  {... */\n      pop\n        /* \"@openzeppelin/contracts/token/ERC20/ERC20.sol\":10396:10872  function _spendAllowance(address owner, address spender, uint256 value) internal virtual {... */\n      pop\n      pop\n      pop\n      jump\t// out\n        /* \"@openzeppelin/contracts/token/ERC20/ERC20.sol\":5374:5674  function _transfer(address from, address to, uint256 value) internal {... */\n    tag_131:\n        /* \"@openzeppelin/contracts/token/ERC20/ERC20.sol\":5473:5474  0 */\n      0x00\n        /* \"@openzeppelin/contracts/token/ERC20/ERC20.sol\":5457:5475  from == address(0) */\n      0xffffffffffffffffffffffffffffffffffffffff\n      and\n        /* \"@openzeppelin/contracts/token/ERC20/ERC20.sol\":5457:5461  from */\n      dup4\n        /* \"@openzeppelin/contracts/token/ERC20/ERC20.sol\":5457:5475  from == address(0) */\n      0xffffffffffffffffffffffffffffffffffffffff\n      and\n      sub\n        /* \"@openzeppelin/contracts/token/ERC20/ERC20.sol\":5453:5539  if (from == address(0)) {... */\n      tag_262\n      jumpi\n        /* \"@openzeppelin/contracts/token/ERC20/ERC20.sol\":5525:5526  0 */\n      0x00\n        /* \"@openzeppelin/contracts/token/ERC20/ERC20.sol\":5498:5528  ERC20InvalidSender(address(0)) */\n      mload(0x40)\n      0x96c6fd1e00000000000000000000000000000000000000000000000000000000\n      dup2\n      mstore\n      0x04\n      add\n      tag_263\n      swap2\n      swap1\n      tag_264\n      jump\t// in\n    tag_263:\n      mload(0x40)\n      dup1\n      swap2\n      sub\n      swap1\n      revert\n        /* \"@openzeppelin/contracts/token/ERC20/ERC20.sol\":5453:5539  if (from == address(0)) {... */\n    tag_262:\n        /* \"@openzeppelin/contracts/token/ERC20/ERC20.sol\":5566:5567  0 */\n      0x00\n        /* \"@openzeppelin/contracts/token/ERC20/ERC20.sol\":5552:5568  to == address(0) */\n      0xffffffffffffffffffffffffffffffffffffffff\n      and\n        /* \"@openzeppelin/contracts/token/ERC20/ERC20.sol\":5552:5554  to */\n      dup3\n        /* \"@openzeppelin/contracts/token/ERC20/ERC20.sol\":5552:5568  to == address(0) */\n      0xffffffffffffffffffffffffffffffffffffffff\n      and\n      sub\n        /* \"@openzeppelin/contracts/token/ERC20/ERC20.sol\":5548:5634  if (to == address(0)) {... */\n      tag_265\n      jumpi\n        /* \"@openzeppelin/contracts/token/ERC20/ERC20.sol\":5620:5621  0 */\n      0x00\n        /* \"@openzeppelin/contracts/token/ERC20/ERC20.sol\":5591:5623  ERC20InvalidReceiver(address(0)) */\n      mload(0x40)\n      0xec442f0500000000000000000000000000000000000000000000000000000000\n      dup2\n      mstore\n      0x04\n      add\n      tag_266\n      swap2\n      swap1\n      tag_264\n      jump\t// in\n    tag_266:\n      mload(0x40)\n      dup1\n      swap2\n      sub\n      swap1\n      revert\n        /* \"@openzeppelin/contracts/token/ERC20/ERC20.sol\":5548:5634  if (to == address(0)) {... */\n    tag_265:\n        /* \"@openzeppelin/contracts/token/ERC20/ERC20.sol\":5643:5667  _update(from, to, value) */\n      tag_267\n        /* \"@openzeppelin/contracts/token/ERC20/ERC20.sol\":5651:5655  from */\n      dup4\n        /* \"@openzeppelin/contracts/token/ERC20/ERC20.sol\":5657:5659  to */\n      dup4\n        /* \"@openzeppelin/contracts/token/ERC20/ERC20.sol\":5661:5666  value */\n      dup4\n        /* \"@openzeppelin/contracts/token/ERC20/ERC20.sol\":5643:5650  _update */\n      tag_268\n        /* \"@openzeppelin/contracts/token/ERC20/ERC20.sol\":5643:5667  _update(from, to, value) */\n      jump\t// in\n    tag_267:\n        /* \"@openzeppelin/contracts/token/ERC20/ERC20.sol\":5374:5674  function _transfer(address from, address to, uint256 value) internal {... */\n      pop\n      pop\n      pop\n      jump\t// out\n        /* \"@openzeppelin/contracts/token/ERC20/ERC20.sol\":7965:8171  function _burn(address account, uint256 value) internal {... */\n    tag_155:\n        /* \"@openzeppelin/contracts/token/ERC20/ERC20.sol\":8054:8055  0 */\n      0x00\n        /* \"@openzeppelin/contracts/token/ERC20/ERC20.sol\":8035:8056  account == address(0) */\n      0xffffffffffffffffffffffffffffffffffffffff\n      and\n        /* \"@openzeppelin/contracts/token/ERC20/ERC20.sol\":8035:8042  account */\n      dup3\n        /* \"@openzeppelin/contracts/token/ERC20/ERC20.sol\":8035:8056  account == address(0) */\n      0xffffffffffffffffffffffffffffffffffffffff\n      and\n      sub\n        /* \"@openzeppelin/contracts/token/ERC20/ERC20.sol\":8031:8120  if (account == address(0)) {... */\n      tag_270\n      jumpi\n        /* \"@openzeppelin/contracts/token/ERC20/ERC20.sol\":8106:8107  0 */\n      0x00\n        /* \"@openzeppelin/contracts/token/ERC20/ERC20.sol\":8079:8109  ERC20InvalidSender(address(0)) */\n      mload(0x40)\n      0x96c6fd1e00000000000000000000000000000000000000000000000000000000\n      dup2\n      mstore\n      0x04\n      add\n      tag_271\n      swap2\n      swap1\n      tag_264\n      jump\t// in\n    tag_271:\n      mload(0x40)\n      dup1\n      swap2\n      sub\n      swap1\n      revert\n        /* \"@openzeppelin/contracts/token/ERC20/ERC20.sol\":8031:8120  if (account == address(0)) {... */\n    tag_270:\n        /* \"@openzeppelin/contracts/token/ERC20/ERC20.sol\":8129:8164  _update(account, address(0), value) */\n      tag_272\n        /* \"@openzeppelin/contracts/token/ERC20/ERC20.sol\":8137:8144  account */\n      dup3\n        /* \"@openzeppelin/contracts/token/ERC20/ERC20.sol\":8154:8155  0 */\n      0x00\n        /* \"@openzeppelin/contracts/token/ERC20/ERC20.sol\":8158:8163  value */\n      dup4\n        /* \"@openzeppelin/contracts/token/ERC20/ERC20.sol\":8129:8136  _update */\n      tag_268\n        /* \"@openzeppelin/contracts/token/ERC20/ERC20.sol\":8129:8164  _update(account, address(0), value) */\n      jump\t// in\n    tag_272:\n        /* \"@openzeppelin/contracts/token/ERC20/ERC20.sol\":7965:8171  function _burn(address account, uint256 value) internal {... */\n      pop\n      pop\n      jump\t// out\n        /* \"contracts/ConstantK.sol\":837:970  function _update(uint256 _reserve0, uint256 _reserve1) private {... */\n    tag_160:\n        /* \"contracts/ConstantK.sol\":922:931  _reserve0 */\n      dup2\n        /* \"contracts/ConstantK.sol\":911:919  reserve0 */\n      0x06\n        /* \"contracts/ConstantK.sol\":911:931  reserve0 = _reserve0 */\n      dup2\n      swap1\n      sstore\n      pop\n        /* \"contracts/ConstantK.sol\":953:962  _reserve1 */\n      dup1\n        /* \"contracts/ConstantK.sol\":942:950  reserve1 */\n      0x07\n        /* \"contracts/ConstantK.sol\":942:962  reserve1 = _reserve1 */\n      dup2\n      swap1\n      sstore\n      pop\n        /* \"contracts/ConstantK.sol\":837:970  function _update(uint256 _reserve0, uint256 _reserve1) private {... */\n      pop\n      pop\n      jump\t// out\n        /* \"contracts/ConstantK.sol\":978:1281  function _sqrt(uint y) private pure returns (uint z) {... */\n    tag_190:\n        /* \"contracts/ConstantK.sol\":1023:1029  uint z */\n      0x00\n        /* \"contracts/ConstantK.sol\":1050:1051  3 */\n      0x03\n        /* \"contracts/ConstantK.sol\":1046:1047  y */\n      dup3\n        /* \"contracts/ConstantK.sol\":1046:1051  y > 3 */\n      gt\n        /* \"contracts/ConstantK.sol\":1042:1274  if (y > 3) {... */\n      iszero\n      tag_275\n      jumpi\n        /* \"contracts/ConstantK.sol\":1072:1073  y */\n      dup2\n        /* \"contracts/ConstantK.sol\":1068:1073  z = y */\n      swap1\n      pop\n        /* \"contracts/ConstantK.sol\":1088:1094  uint x */\n      0x00\n        /* \"contracts/ConstantK.sol\":1105:1106  1 */\n      0x01\n        /* \"contracts/ConstantK.sol\":1101:1102  2 */\n      0x02\n        /* \"contracts/ConstantK.sol\":1097:1098  y */\n      dup5\n        /* \"contracts/ConstantK.sol\":1097:1102  y / 2 */\n      tag_276\n      swap2\n      swap1\n      tag_145\n      jump\t// in\n    tag_276:\n        /* \"contracts/ConstantK.sol\":1097:1106  y / 2 + 1 */\n      tag_277\n      swap2\n      swap1\n      tag_208\n      jump\t// in\n    tag_277:\n        /* \"contracts/ConstantK.sol\":1088:1106  uint x = y / 2 + 1 */\n      swap1\n      pop\n        /* \"contracts/ConstantK.sol\":1121:1213  while (x < z) {... */\n    tag_278:\n        /* \"contracts/ConstantK.sol\":1132:1133  z */\n      dup2\n        /* \"contracts/ConstantK.sol\":1128:1129  x */\n      dup2\n        /* \"contracts/ConstantK.sol\":1128:1133  x < z */\n      lt\n        /* \"contracts/ConstantK.sol\":1121:1213  while (x < z) {... */\n      iszero\n      tag_279\n      jumpi\n        /* \"contracts/ConstantK.sol\":1158:1159  x */\n      dup1\n        /* \"contracts/ConstantK.sol\":1154:1159  z = x */\n      swap2\n      pop\n        /* \"contracts/ConstantK.sol\":1196:1197  2 */\n      0x02\n        /* \"contracts/ConstantK.sol\":1191:1192  x */\n      dup2\n        /* \"contracts/ConstantK.sol\":1187:1188  x */\n      dup3\n        /* \"contracts/ConstantK.sol\":1183:1184  y */\n      dup6\n        /* \"contracts/ConstantK.sol\":1183:1188  y / x */\n      tag_280\n      swap2\n      swap1\n      tag_145\n      jump\t// in\n    tag_280:\n        /* \"contracts/ConstantK.sol\":1183:1192  y / x + x */\n      tag_281\n      swap2\n      swap1\n      tag_208\n      jump\t// in\n    tag_281:\n        /* \"contracts/ConstantK.sol\":1182:1197  (y / x + x) / 2 */\n      tag_282\n      swap2\n      swap1\n      tag_145\n      jump\t// in\n    tag_282:\n        /* \"contracts/ConstantK.sol\":1178:1197  x = (y / x + x) / 2 */\n      swap1\n      pop\n        /* \"contracts/ConstantK.sol\":1121:1213  while (x < z) {... */\n      jump(tag_278)\n    tag_279:\n        /* \"contracts/ConstantK.sol\":1053:1224  {... */\n      pop\n        /* \"contracts/ConstantK.sol\":1042:1274  if (y > 3) {... */\n      jump(tag_283)\n    tag_275:\n        /* \"contracts/ConstantK.sol\":1239:1240  0 */\n      0x00\n        /* \"contracts/ConstantK.sol\":1234:1235  y */\n      dup3\n        /* \"contracts/ConstantK.sol\":1234:1240  y != 0 */\n      eq\n        /* \"contracts/ConstantK.sol\":1230:1274  if (y != 0) {... */\n      tag_284\n      jumpi\n        /* \"contracts/ConstantK.sol\":1261:1262  1 */\n      0x01\n        /* \"contracts/ConstantK.sol\":1257:1262  z = 1 */\n      swap1\n      pop\n        /* \"contracts/ConstantK.sol\":1230:1274  if (y != 0) {... */\n    tag_284:\n        /* \"contracts/ConstantK.sol\":1042:1274  if (y > 3) {... */\n    tag_283:\n        /* \"contracts/ConstantK.sol\":978:1281  function _sqrt(uint y) private pure returns (uint z) {... */\n      swap2\n      swap1\n      pop\n      jump\t// out\n        /* \"contracts/ConstantK.sol\":1289:1398  function _min(uint256 x, uint256 y) private pure returns (uint256 z) {... */\n    tag_199:\n        /* \"contracts/ConstantK.sol\":1347:1356  uint256 z */\n      0x00\n        /* \"contracts/ConstantK.sol\":1381:1382  y */\n      dup2\n        /* \"contracts/ConstantK.sol\":1376:1377  x */\n      dup4\n        /* \"contracts/ConstantK.sol\":1376:1382  x <= y */\n      gt\n      iszero\n        /* \"contracts/ConstantK.sol\":1376:1390  x <= y ? x : y */\n      tag_286\n      jumpi\n        /* \"contracts/ConstantK.sol\":1389:1390  y */\n      dup2\n        /* \"contracts/ConstantK.sol\":1376:1390  x <= y ? x : y */\n      jump(tag_287)\n    tag_286:\n        /* \"contracts/ConstantK.sol\":1385:1386  x */\n      dup3\n        /* \"contracts/ConstantK.sol\":1376:1390  x <= y ? x : y */\n    tag_287:\n        /* \"contracts/ConstantK.sol\":1369:1390  return x <= y ? x : y */\n      swap1\n      pop\n        /* \"contracts/ConstantK.sol\":1289:1398  function _min(uint256 x, uint256 y) private pure returns (uint256 z) {... */\n      swap3\n      swap2\n      pop\n      pop\n      jump\t// out\n        /* \"@openzeppelin/contracts/token/ERC20/ERC20.sol\":7439:7647  function _mint(address account, uint256 value) internal {... */\n    tag_205:\n        /* \"@openzeppelin/contracts/token/ERC20/ERC20.sol\":7528:7529  0 */\n      0x00\n        /* \"@openzeppelin/contracts/token/ERC20/ERC20.sol\":7509:7530  account == address(0) */\n      0xffffffffffffffffffffffffffffffffffffffff\n      and\n        /* \"@openzeppelin/contracts/token/ERC20/ERC20.sol\":7509:7516  account */\n      dup3\n        /* \"@openzeppelin/contracts/token/ERC20/ERC20.sol\":7509:7530  account == address(0) */\n      0xffffffffffffffffffffffffffffffffffffffff\n      and\n      sub\n        /* \"@openzeppelin/contracts/token/ERC20/ERC20.sol\":7505:7596  if (account == address(0)) {... */\n      tag_289\n      jumpi\n        /* \"@openzeppelin/contracts/token/ERC20/ERC20.sol\":7582:7583  0 */\n      0x00\n        /* \"@openzeppelin/contracts/token/ERC20/ERC20.sol\":7553:7585  ERC20InvalidReceiver(address(0)) */\n      mload(0x40)\n      0xec442f0500000000000000000000000000000000000000000000000000000000\n      dup2\n      mstore\n      0x04\n      add\n      tag_290\n      swap2\n      swap1\n      tag_264\n      jump\t// in\n    tag_290:\n      mload(0x40)\n      dup1\n      swap2\n      sub\n      swap1\n      revert\n        /* \"@openzeppelin/contracts/token/ERC20/ERC20.sol\":7505:7596  if (account == address(0)) {... */\n    tag_289:\n        /* \"@openzeppelin/contracts/token/ERC20/ERC20.sol\":7605:7640  _update(address(0), account, value) */\n      tag_291\n        /* \"@openzeppelin/contracts/token/ERC20/ERC20.sol\":7621:7622  0 */\n      0x00\n        /* \"@openzeppelin/contracts/token/ERC20/ERC20.sol\":7625:7632  account */\n      dup4\n        /* \"@openzeppelin/contracts/token/ERC20/ERC20.sol\":7634:7639  value */\n      dup4\n        /* \"@openzeppelin/contracts/token/ERC20/ERC20.sol\":7605:7612  _update */\n      tag_268\n        /* \"@openzeppelin/contracts/token/ERC20/ERC20.sol\":7605:7640  _update(address(0), account, value) */\n      jump\t// in\n    tag_291:\n        /* \"@openzeppelin/contracts/token/ERC20/ERC20.sol\":7439:7647  function _mint(address account, uint256 value) internal {... */\n      pop\n      pop\n      jump\t// out\n        /* \"@openzeppelin/contracts/token/ERC20/ERC20.sol\":9682:10114  function _approve(address owner, address spender, uint256 value, bool emitEvent) internal virtual {... */\n    tag_253:\n        /* \"@openzeppelin/contracts/token/ERC20/ERC20.sol\":9811:9812  0 */\n      0x00\n        /* \"@openzeppelin/contracts/token/ERC20/ERC20.sol\":9794:9813  owner == address(0) */\n      0xffffffffffffffffffffffffffffffffffffffff\n      and\n        /* \"@openzeppelin/contracts/token/ERC20/ERC20.sol\":9794:9799  owner */\n      dup5\n        /* \"@openzeppelin/contracts/token/ERC20/ERC20.sol\":9794:9813  owner == address(0) */\n      0xffffffffffffffffffffffffffffffffffffffff\n      and\n      sub\n        /* \"@openzeppelin/contracts/token/ERC20/ERC20.sol\":9790:9879  if (owner == address(0)) {... */\n      tag_293\n      jumpi\n        /* \"@openzeppelin/contracts/token/ERC20/ERC20.sol\":9865:9866  0 */\n      0x00\n        /* \"@openzeppelin/contracts/token/ERC20/ERC20.sol\":9836:9868  ERC20InvalidApprover(address(0)) */\n      mload(0x40)\n      0xe602df0500000000000000000000000000000000000000000000000000000000\n      dup2\n      mstore\n      0x04\n      add\n      tag_294\n      swap2\n      swap1\n      tag_264\n      jump\t// in\n    tag_294:\n      mload(0x40)\n      dup1\n      swap2\n      sub\n      swap1\n      revert\n        /* \"@openzeppelin/contracts/token/ERC20/ERC20.sol\":9790:9879  if (owner == address(0)) {... */\n    tag_293:\n        /* \"@openzeppelin/contracts/token/ERC20/ERC20.sol\":9911:9912  0 */\n      0x00\n        /* \"@openzeppelin/contracts/token/ERC20/ERC20.sol\":9892:9913  spender == address(0) */\n      0xffffffffffffffffffffffffffffffffffffffff\n      and\n        /* \"@openzeppelin/contracts/token/ERC20/ERC20.sol\":9892:9899  spender */\n      dup4\n        /* \"@openzeppelin/contracts/token/ERC20/ERC20.sol\":9892:9913  spender == address(0) */\n      0xffffffffffffffffffffffffffffffffffffffff\n      and\n      sub\n        /* \"@openzeppelin/contracts/token/ERC20/ERC20.sol\":9888:9978  if (spender == address(0)) {... */\n      tag_295\n      jumpi\n        /* \"@openzeppelin/contracts/token/ERC20/ERC20.sol\":9964:9965  0 */\n      0x00\n        /* \"@openzeppelin/contracts/token/ERC20/ERC20.sol\":9936:9967  ERC20InvalidSpender(address(0)) */\n      mload(0x40)\n      0x94280d6200000000000000000000000000000000000000000000000000000000\n      dup2\n      mstore\n      0x04\n      add\n      tag_296\n      swap2\n      swap1\n      tag_264\n      jump\t// in\n    tag_296:\n      mload(0x40)\n      dup1\n      swap2\n      sub\n      swap1\n      revert\n        /* \"@openzeppelin/contracts/token/ERC20/ERC20.sol\":9888:9978  if (spender == address(0)) {... */\n    tag_295:\n        /* \"@openzeppelin/contracts/token/ERC20/ERC20.sol\":10017:10022  value */\n      dup2\n        /* \"@openzeppelin/contracts/token/ERC20/ERC20.sol\":9987:9998  _allowances */\n      0x01\n        /* \"@openzeppelin/contracts/token/ERC20/ERC20.sol\":9987:10005  _allowances[owner] */\n      0x00\n        /* \"@openzeppelin/contracts/token/ERC20/ERC20.sol\":9999:10004  owner */\n      dup7\n        /* \"@openzeppelin/contracts/token/ERC20/ERC20.sol\":9987:10005  _allowances[owner] */\n      0xffffffffffffffffffffffffffffffffffffffff\n      and\n      0xffffffffffffffffffffffffffffffffffffffff\n      and\n      dup2\n      mstore\n      0x20\n      add\n      swap1\n      dup2\n      mstore\n      0x20\n      add\n      0x00\n      keccak256\n        /* \"@openzeppelin/contracts/token/ERC20/ERC20.sol\":9987:10014  _allowances[owner][spender] */\n      0x00\n        /* \"@openzeppelin/contracts/token/ERC20/ERC20.sol\":10006:10013  spender */\n      dup6\n        /* \"@openzeppelin/contracts/token/ERC20/ERC20.sol\":9987:10014  _allowances[owner][spender] */\n      0xffffffffffffffffffffffffffffffffffffffff\n      and\n      0xffffffffffffffffffffffffffffffffffffffff\n      and\n      dup2\n      mstore\n      0x20\n      add\n      swap1\n      dup2\n      mstore\n      0x20\n      add\n      0x00\n      keccak256\n        /* \"@openzeppelin/contracts/token/ERC20/ERC20.sol\":9987:10022  _allowances[owner][spender] = value */\n      dup2\n      swap1\n      sstore\n      pop\n        /* \"@openzeppelin/contracts/token/ERC20/ERC20.sol\":10036:10045  emitEvent */\n      dup1\n        /* \"@openzeppelin/contracts/token/ERC20/ERC20.sol\":10032:10108  if (emitEvent) {... */\n      iszero\n      tag_297\n      jumpi\n        /* \"@openzeppelin/contracts/token/ERC20/ERC20.sol\":10082:10089  spender */\n      dup3\n        /* \"@openzeppelin/contracts/token/ERC20/ERC20.sol\":10066:10097  Approval(owner, spender, value) */\n      0xffffffffffffffffffffffffffffffffffffffff\n      and\n        /* \"@openzeppelin/contracts/token/ERC20/ERC20.sol\":10075:10080  owner */\n      dup5\n        /* \"@openzeppelin/contracts/token/ERC20/ERC20.sol\":10066:10097  Approval(owner, spender, value) */\n      0xffffffffffffffffffffffffffffffffffffffff\n      and\n      0x8c5be1e5ebec7d5bd14f71427d1e84f3dd0314c0f7b2291e5b200ac8c7c3b925\n        /* \"@openzeppelin/contracts/token/ERC20/ERC20.sol\":10091:10096  value */\n      dup5\n        /* \"@openzeppelin/contracts/token/ERC20/ERC20.sol\":10066:10097  Approval(owner, spender, value) */\n      mload(0x40)\n      tag_298\n      swap2\n      swap1\n      tag_42\n      jump\t// in\n    tag_298:\n      mload(0x40)\n      dup1\n      swap2\n      sub\n      swap1\n      log3\n        /* \"@openzeppelin/contracts/token/ERC20/ERC20.sol\":10032:10108  if (emitEvent) {... */\n    tag_297:\n        /* \"@openzeppelin/contracts/token/ERC20/ERC20.sol\":9682:10114  function _approve(address owner, address spender, uint256 value, bool emitEvent) internal virtual {... */\n      pop\n      pop\n      pop\n      pop\n      jump\t// out\n        /* \"@openzeppelin/contracts/token/ERC20/ERC20.sol\":5989:7096  function _update(address from, address to, uint256 value) internal virtual {... */\n    tag_268:\n        /* \"@openzeppelin/contracts/token/ERC20/ERC20.sol\":6094:6095  0 */\n      0x00\n        /* \"@openzeppelin/contracts/token/ERC20/ERC20.sol\":6078:6096  from == address(0) */\n      0xffffffffffffffffffffffffffffffffffffffff\n      and\n        /* \"@openzeppelin/contracts/token/ERC20/ERC20.sol\":6078:6082  from */\n      dup4\n        /* \"@openzeppelin/contracts/token/ERC20/ERC20.sol\":6078:6096  from == address(0) */\n      0xffffffffffffffffffffffffffffffffffffffff\n      and\n      sub\n        /* \"@openzeppelin/contracts/token/ERC20/ERC20.sol\":6074:6614  if (from == address(0)) {... */\n      tag_300\n      jumpi\n        /* \"@openzeppelin/contracts/token/ERC20/ERC20.sol\":6230:6235  value */\n      dup1\n        /* \"@openzeppelin/contracts/token/ERC20/ERC20.sol\":6214:6226  _totalSupply */\n      0x02\n      0x00\n        /* \"@openzeppelin/contracts/token/ERC20/ERC20.sol\":6214:6235  _totalSupply += value */\n      dup3\n      dup3\n      sload\n      tag_301\n      swap2\n      swap1\n      tag_208\n      jump\t// in\n    tag_301:\n      swap3\n      pop\n      pop\n      dup2\n      swap1\n      sstore\n      pop\n        /* \"@openzeppelin/contracts/token/ERC20/ERC20.sol\":6074:6614  if (from == address(0)) {... */\n      jump(tag_302)\n    tag_300:\n        /* \"@openzeppelin/contracts/token/ERC20/ERC20.sol\":6266:6285  uint256 fromBalance */\n      0x00\n        /* \"@openzeppelin/contracts/token/ERC20/ERC20.sol\":6288:6297  _balances */\n      dup1\n        /* \"@openzeppelin/contracts/token/ERC20/ERC20.sol\":6288:6303  _balances[from] */\n      0x00\n        /* \"@openzeppelin/contracts/token/ERC20/ERC20.sol\":6298:6302  from */\n      dup6\n        /* \"@openzeppelin/contracts/token/ERC20/ERC20.sol\":6288:6303  _balances[from] */\n      0xffffffffffffffffffffffffffffffffffffffff\n      and\n      0xffffffffffffffffffffffffffffffffffffffff\n      and\n      dup2\n      mstore\n      0x20\n      add\n      swap1\n      dup2\n      mstore\n      0x20\n      add\n      0x00\n      keccak256\n      sload\n        /* \"@openzeppelin/contracts/token/ERC20/ERC20.sol\":6266:6303  uint256 fromBalance = _balances[from] */\n      swap1\n      pop\n        /* \"@openzeppelin/contracts/token/ERC20/ERC20.sol\":6335:6340  value */\n      dup2\n        /* \"@openzeppelin/contracts/token/ERC20/ERC20.sol\":6321:6332  fromBalance */\n      dup2\n        /* \"@openzeppelin/contracts/token/ERC20/ERC20.sol\":6321:6340  fromBalance < value */\n      lt\n        /* \"@openzeppelin/contracts/token/ERC20/ERC20.sol\":6317:6432  if (fromBalance < value) {... */\n      iszero\n      tag_303\n      jumpi\n        /* \"@openzeppelin/contracts/token/ERC20/ERC20.sol\":6392:6396  from */\n      dup4\n        /* \"@openzeppelin/contracts/token/ERC20/ERC20.sol\":6398:6409  fromBalance */\n      dup2\n        /* \"@openzeppelin/contracts/token/ERC20/ERC20.sol\":6411:6416  value */\n      dup4\n        /* \"@openzeppelin/contracts/token/ERC20/ERC20.sol\":6367:6417  ERC20InsufficientBalance(from, fromBalance, value) */\n      mload(0x40)\n      0xe450d38c00000000000000000000000000000000000000000000000000000000\n      dup2\n      mstore\n      0x04\n      add\n      tag_304\n      swap4\n      swap3\n      swap2\n      swap1\n      tag_259\n      jump\t// in\n    tag_304:\n      mload(0x40)\n      dup1\n      swap2\n      sub\n      swap1\n      revert\n        /* \"@openzeppelin/contracts/token/ERC20/ERC20.sol\":6317:6432  if (fromBalance < value) {... */\n    tag_303:\n        /* \"@openzeppelin/contracts/token/ERC20/ERC20.sol\":6584:6589  value */\n      dup2\n        /* \"@openzeppelin/contracts/token/ERC20/ERC20.sol\":6570:6581  fromBalance */\n      dup2\n        /* \"@openzeppelin/contracts/token/ERC20/ERC20.sol\":6570:6589  fromBalance - value */\n      sub\n        /* \"@openzeppelin/contracts/token/ERC20/ERC20.sol\":6552:6561  _balances */\n      0x00\n        /* \"@openzeppelin/contracts/token/ERC20/ERC20.sol\":6552:6567  _balances[from] */\n      dup1\n        /* \"@openzeppelin/contracts/token/ERC20/ERC20.sol\":6562:6566  from */\n      dup7\n        /* \"@openzeppelin/contracts/token/ERC20/ERC20.sol\":6552:6567  _balances[from] */\n      0xffffffffffffffffffffffffffffffffffffffff\n      and\n      0xffffffffffffffffffffffffffffffffffffffff\n      and\n      dup2\n      mstore\n      0x20\n      add\n      swap1\n      dup2\n      mstore\n      0x20\n      add\n      0x00\n      keccak256\n        /* \"@openzeppelin/contracts/token/ERC20/ERC20.sol\":6552:6589  _balances[from] = fromBalance - value */\n      dup2\n      swap1\n      sstore\n      pop\n        /* \"@openzeppelin/contracts/token/ERC20/ERC20.sol\":6252:6614  {... */\n      pop\n        /* \"@openzeppelin/contracts/token/ERC20/ERC20.sol\":6074:6614  if (from == address(0)) {... */\n    tag_302:\n        /* \"@openzeppelin/contracts/token/ERC20/ERC20.sol\":6642:6643  0 */\n      0x00\n        /* \"@openzeppelin/contracts/token/ERC20/ERC20.sol\":6628:6644  to == address(0) */\n      0xffffffffffffffffffffffffffffffffffffffff\n      and\n        /* \"@openzeppelin/contracts/token/ERC20/ERC20.sol\":6628:6630  to */\n      dup3\n        /* \"@openzeppelin/contracts/token/ERC20/ERC20.sol\":6628:6644  to == address(0) */\n      0xffffffffffffffffffffffffffffffffffffffff\n      and\n      sub\n        /* \"@openzeppelin/contracts/token/ERC20/ERC20.sol\":6624:7049  if (to == address(0)) {... */\n      tag_305\n      jumpi\n        /* \"@openzeppelin/contracts/token/ERC20/ERC20.sol\":6807:6812  value */\n      dup1\n        /* \"@openzeppelin/contracts/token/ERC20/ERC20.sol\":6791:6803  _totalSupply */\n      0x02\n      0x00\n        /* \"@openzeppelin/contracts/token/ERC20/ERC20.sol\":6791:6812  _totalSupply -= value */\n      dup3\n      dup3\n      sload\n      sub\n      swap3\n      pop\n      pop\n      dup2\n      swap1\n      sstore\n      pop\n        /* \"@openzeppelin/contracts/token/ERC20/ERC20.sol\":6624:7049  if (to == address(0)) {... */\n      jump(tag_306)\n    tag_305:\n        /* \"@openzeppelin/contracts/token/ERC20/ERC20.sol\":7019:7024  value */\n      dup1\n        /* \"@openzeppelin/contracts/token/ERC20/ERC20.sol\":7002:7011  _balances */\n      0x00\n        /* \"@openzeppelin/contracts/token/ERC20/ERC20.sol\":7002:7015  _balances[to] */\n      dup1\n        /* \"@openzeppelin/contracts/token/ERC20/ERC20.sol\":7012:7014  to */\n      dup5\n        /* \"@openzeppelin/contracts/token/ERC20/ERC20.sol\":7002:7015  _balances[to] */\n      0xffffffffffffffffffffffffffffffffffffffff\n      and\n      0xffffffffffffffffffffffffffffffffffffffff\n      and\n      dup2\n      mstore\n      0x20\n      add\n      swap1\n      dup2\n      mstore\n      0x20\n      add\n      0x00\n      keccak256\n      0x00\n        /* \"@openzeppelin/contracts/token/ERC20/ERC20.sol\":7002:7024  _balances[to] += value */\n      dup3\n      dup3\n      sload\n      add\n      swap3\n      pop\n      pop\n      dup2\n      swap1\n      sstore\n      pop\n        /* \"@openzeppelin/contracts/token/ERC20/ERC20.sol\":6624:7049  if (to == address(0)) {... */\n    tag_306:\n        /* \"@openzeppelin/contracts/token/ERC20/ERC20.sol\":7079:7081  to */\n      dup2\n        /* \"@openzeppelin/contracts/token/ERC20/ERC20.sol\":7064:7089  Transfer(from, to, value) */\n      0xffffffffffffffffffffffffffffffffffffffff\n      and\n        /* \"@openzeppelin/contracts/token/ERC20/ERC20.sol\":7073:7077  from */\n      dup4\n        /* \"@openzeppelin/contracts/token/ERC20/ERC20.sol\":7064:7089  Transfer(from, to, value) */\n      0xffffffffffffffffffffffffffffffffffffffff\n      and\n      0xddf252ad1be2c89b69c2b068fc378daa952ba7f163c4a11628f55a4df523b3ef\n        /* \"@openzeppelin/contracts/token/ERC20/ERC20.sol\":7083:7088  value */\n      dup4\n        /* \"@openzeppelin/contracts/token/ERC20/ERC20.sol\":7064:7089  Transfer(from, to, value) */\n      mload(0x40)\n      tag_307\n      swap2\n      swap1\n      tag_42\n      jump\t// in\n    tag_307:\n      mload(0x40)\n      dup1\n      swap2\n      sub\n      swap1\n      log3\n        /* \"@openzeppelin/contracts/token/ERC20/ERC20.sol\":5989:7096  function _update(address from, address to, uint256 value) internal virtual {... */\n      pop\n      pop\n      pop\n      jump\t// out\n        /* \"#utility.yul\":7:106   */\n    tag_308:\n        /* \"#utility.yul\":59:65   */\n      0x00\n        /* \"#utility.yul\":93:98   */\n      dup2\n        /* \"#utility.yul\":87:99   */\n      mload\n        /* \"#utility.yul\":77:99   */\n      swap1\n      pop\n        /* \"#utility.yul\":7:106   */\n      swap2\n      swap1\n      pop\n      jump\t// out\n        /* \"#utility.yul\":112:281   */\n    tag_309:\n        /* \"#utility.yul\":196:207   */\n      0x00\n        /* \"#utility.yul\":230:236   */\n      dup3\n        /* \"#utility.yul\":225:228   */\n      dup3\n        /* \"#utility.yul\":218:237   */\n      mstore\n        /* \"#utility.yul\":270:274   */\n      0x20\n        /* \"#utility.yul\":265:268   */\n      dup3\n        /* \"#utility.yul\":261:275   */\n      add\n        /* \"#utility.yul\":246:275   */\n      swap1\n      pop\n        /* \"#utility.yul\":112:281   */\n      swap3\n      swap2\n      pop\n      pop\n      jump\t// out\n        /* \"#utility.yul\":287:426   */\n    tag_310:\n        /* \"#utility.yul\":376:382   */\n      dup3\n        /* \"#utility.yul\":371:374   */\n      dup2\n        /* \"#utility.yul\":366:369   */\n      dup4\n        /* \"#utility.yul\":360:383   */\n      mcopy\n        /* \"#utility.yul\":417:418   */\n      0x00\n        /* \"#utility.yul\":408:414   */\n      dup4\n        /* \"#utility.yul\":403:406   */\n      dup4\n        /* \"#utility.yul\":399:415   */\n      add\n        /* \"#utility.yul\":392:419   */\n      mstore\n        /* \"#utility.yul\":287:426   */\n      pop\n      pop\n      pop\n      jump\t// out\n        /* \"#utility.yul\":432:534   */\n    tag_311:\n        /* \"#utility.yul\":473:479   */\n      0x00\n        /* \"#utility.yul\":524:526   */\n      0x1f\n        /* \"#utility.yul\":520:527   */\n      not\n        /* \"#utility.yul\":515:517   */\n      0x1f\n        /* \"#utility.yul\":508:513   */\n      dup4\n        /* \"#utility.yul\":504:518   */\n      add\n        /* \"#utility.yul\":500:528   */\n      and\n        /* \"#utility.yul\":490:528   */\n      swap1\n      pop\n        /* \"#utility.yul\":432:534   */\n      swap2\n      swap1\n      pop\n      jump\t// out\n        /* \"#utility.yul\":540:917   */\n    tag_312:\n        /* \"#utility.yul\":628:631   */\n      0x00\n        /* \"#utility.yul\":656:695   */\n      tag_364\n        /* \"#utility.yul\":689:694   */\n      dup3\n        /* \"#utility.yul\":656:695   */\n      tag_308\n      jump\t// in\n    tag_364:\n        /* \"#utility.yul\":711:782   */\n      tag_365\n        /* \"#utility.yul\":775:781   */\n      dup2\n        /* \"#utility.yul\":770:773   */\n      dup6\n        /* \"#utility.yul\":711:782   */\n      tag_309\n      jump\t// in\n    tag_365:\n        /* \"#utility.yul\":704:782   */\n      swap4\n      pop\n        /* \"#utility.yul\":791:856   */\n      tag_366\n        /* \"#utility.yul\":849:855   */\n      dup2\n        /* \"#utility.yul\":844:847   */\n      dup6\n        /* \"#utility.yul\":837:841   */\n      0x20\n        /* \"#utility.yul\":830:835   */\n      dup7\n        /* \"#utility.yul\":826:842   */\n      add\n        /* \"#utility.yul\":791:856   */\n      tag_310\n      jump\t// in\n    tag_366:\n        /* \"#utility.yul\":881:910   */\n      tag_367\n        /* \"#utility.yul\":903:909   */\n      dup2\n        /* \"#utility.yul\":881:910   */\n      tag_311\n      jump\t// in\n    tag_367:\n        /* \"#utility.yul\":876:879   */\n      dup5\n        /* \"#utility.yul\":872:911   */\n      add\n        /* \"#utility.yul\":865:911   */\n      swap2\n      pop\n        /* \"#utility.yul\":632:917   */\n      pop\n        /* \"#utility.yul\":540:917   */\n      swap3\n      swap2\n      pop\n      pop\n      jump\t// out\n        /* \"#utility.yul\":923:1236   */\n    tag_28:\n        /* \"#utility.yul\":1036:1040   */\n      0x00\n        /* \"#utility.yul\":1074:1076   */\n      0x20\n        /* \"#utility.yul\":1063:1072   */\n      dup3\n        /* \"#utility.yul\":1059:1077   */\n      add\n        /* \"#utility.yul\":1051:1077   */\n      swap1\n      pop\n        /* \"#utility.yul\":1123:1132   */\n      dup2\n        /* \"#utility.yul\":1117:1121   */\n      dup2\n        /* \"#utility.yul\":1113:1133   */\n      sub\n        /* \"#utility.yul\":1109:1110   */\n      0x00\n        /* \"#utility.yul\":1098:1107   */\n      dup4\n        /* \"#utility.yul\":1094:1111   */\n      add\n        /* \"#utility.yul\":1087:1134   */\n      mstore\n        /* \"#utility.yul\":1151:1229   */\n      tag_369\n        /* \"#utility.yul\":1224:1228   */\n      dup2\n        /* \"#utility.yul\":1215:1221   */\n      dup5\n        /* \"#utility.yul\":1151:1229   */\n      tag_312\n      jump\t// in\n    tag_369:\n        /* \"#utility.yul\":1143:1229   */\n      swap1\n      pop\n        /* \"#utility.yul\":923:1236   */\n      swap3\n      swap2\n      pop\n      pop\n      jump\t// out\n        /* \"#utility.yul\":1323:1440   */\n    tag_314:\n        /* \"#utility.yul\":1432:1433   */\n      0x00\n        /* \"#utility.yul\":1429:1430   */\n      dup1\n        /* \"#utility.yul\":1422:1434   */\n      revert\n        /* \"#utility.yul\":1569:1695   */\n    tag_316:\n        /* \"#utility.yul\":1606:1613   */\n      0x00\n        /* \"#utility.yul\":1646:1688   */\n      0xffffffffffffffffffffffffffffffffffffffff\n        /* \"#utility.yul\":1639:1644   */\n      dup3\n        /* \"#utility.yul\":1635:1689   */\n      and\n        /* \"#utility.yul\":1624:1689   */\n      swap1\n      pop\n        /* \"#utility.yul\":1569:1695   */\n      swap2\n      swap1\n      pop\n      jump\t// out\n        /* \"#utility.yul\":1701:1797   */\n    tag_317:\n        /* \"#utility.yul\":1738:1745   */\n      0x00\n        /* \"#utility.yul\":1767:1791   */\n      tag_375\n        /* \"#utility.yul\":1785:1790   */\n      dup3\n        /* \"#utility.yul\":1767:1791   */\n      tag_316\n      jump\t// in\n    tag_375:\n        /* \"#utility.yul\":1756:1791   */\n      swap1\n      pop\n        /* \"#utility.yul\":1701:1797   */\n      swap2\n      swap1\n      pop\n      jump\t// out\n        /* \"#utility.yul\":1803:1925   */\n    tag_318:\n        /* \"#utility.yul\":1876:1900   */\n      tag_377\n        /* \"#utility.yul\":1894:1899   */\n      dup2\n        /* \"#utility.yul\":1876:1900   */\n      tag_317\n      jump\t// in\n    tag_377:\n        /* \"#utility.yul\":1869:1874   */\n      dup2\n        /* \"#utility.yul\":1866:1901   */\n      eq\n        /* \"#utility.yul\":1856:1919   */\n      tag_378\n      jumpi\n        /* \"#utility.yul\":1915:1916   */\n      0x00\n        /* \"#utility.yul\":1912:1913   */\n      dup1\n        /* \"#utility.yul\":1905:1917   */\n      revert\n        /* \"#utility.yul\":1856:1919   */\n    tag_378:\n        /* \"#utility.yul\":1803:1925   */\n      pop\n      jump\t// out\n        /* \"#utility.yul\":1931:2070   */\n    tag_319:\n        /* \"#utility.yul\":1977:1982   */\n      0x00\n        /* \"#utility.yul\":2015:2021   */\n      dup2\n        /* \"#utility.yul\":2002:2022   */\n      calldataload\n        /* \"#utility.yul\":1993:2022   */\n      swap1\n      pop\n        /* \"#utility.yul\":2031:2064   */\n      tag_380\n        /* \"#utility.yul\":2058:2063   */\n      dup2\n        /* \"#utility.yul\":2031:2064   */\n      tag_318\n      jump\t// in\n    tag_380:\n        /* \"#utility.yul\":1931:2070   */\n      swap3\n      swap2\n      pop\n      pop\n      jump\t// out\n        /* \"#utility.yul\":2076:2153   */\n    tag_320:\n        /* \"#utility.yul\":2113:2120   */\n      0x00\n        /* \"#utility.yul\":2142:2147   */\n      dup2\n        /* \"#utility.yul\":2131:2147   */\n      swap1\n      pop\n        /* \"#utility.yul\":2076:2153   */\n      swap2\n      swap1\n      pop\n      jump\t// out\n        /* \"#utility.yul\":2159:2281   */\n    tag_321:\n        /* \"#utility.yul\":2232:2256   */\n      tag_383\n        /* \"#utility.yul\":2250:2255   */\n      dup2\n        /* \"#utility.yul\":2232:2256   */\n      tag_320\n      jump\t// in\n    tag_383:\n        /* \"#utility.yul\":2225:2230   */\n      dup2\n        /* \"#utility.yul\":2222:2257   */\n      eq\n        /* \"#utility.yul\":2212:2275   */\n      tag_384\n      jumpi\n        /* \"#utility.yul\":2271:2272   */\n      0x00\n        /* \"#utility.yul\":2268:2269   */\n      dup1\n        /* \"#utility.yul\":2261:2273   */\n      revert\n        /* \"#utility.yul\":2212:2275   */\n    tag_384:\n        /* \"#utility.yul\":2159:2281   */\n      pop\n      jump\t// out\n        /* \"#utility.yul\":2287:2426   */\n    tag_322:\n        /* \"#utility.yul\":2333:2338   */\n      0x00\n        /* \"#utility.yul\":2371:2377   */\n      dup2\n        /* \"#utility.yul\":2358:2378   */\n      calldataload\n        /* \"#utility.yul\":2349:2378   */\n      swap1\n      pop\n        /* \"#utility.yul\":2387:2420   */\n      tag_386\n        /* \"#utility.yul\":2414:2419   */\n      dup2\n        /* \"#utility.yul\":2387:2420   */\n      tag_321\n      jump\t// in\n    tag_386:\n        /* \"#utility.yul\":2287:2426   */\n      swap3\n      swap2\n      pop\n      pop\n      jump\t// out\n        /* \"#utility.yul\":2432:2906   */\n    tag_31:\n        /* \"#utility.yul\":2500:2506   */\n      0x00\n        /* \"#utility.yul\":2508:2514   */\n      dup1\n        /* \"#utility.yul\":2557:2559   */\n      0x40\n        /* \"#utility.yul\":2545:2554   */\n      dup4\n        /* \"#utility.yul\":2536:2543   */\n      dup6\n        /* \"#utility.yul\":2532:2555   */\n      sub\n        /* \"#utility.yul\":2528:2560   */\n      slt\n        /* \"#utility.yul\":2525:2644   */\n      iszero\n      tag_388\n      jumpi\n        /* \"#utility.yul\":2563:2642   */\n      tag_389\n      tag_314\n      jump\t// in\n    tag_389:\n        /* \"#utility.yul\":2525:2644   */\n    tag_388:\n        /* \"#utility.yul\":2683:2684   */\n      0x00\n        /* \"#utility.yul\":2708:2761   */\n      tag_390\n        /* \"#utility.yul\":2753:2760   */\n      dup6\n        /* \"#utility.yul\":2744:2750   */\n      dup3\n        /* \"#utility.yul\":2733:2742   */\n      dup7\n        /* \"#utility.yul\":2729:2751   */\n      add\n        /* \"#utility.yul\":2708:2761   */\n      tag_319\n      jump\t// in\n    tag_390:\n        /* \"#utility.yul\":2698:2761   */\n      swap3\n      pop\n        /* \"#utility.yul\":2654:2771   */\n      pop\n        /* \"#utility.yul\":2810:2812   */\n      0x20\n        /* \"#utility.yul\":2836:2889   */\n      tag_391\n        /* \"#utility.yul\":2881:2888   */\n      dup6\n        /* \"#utility.yul\":2872:2878   */\n      dup3\n        /* \"#utility.yul\":2861:2870   */\n      dup7\n        /* \"#utility.yul\":2857:2879   */\n      add\n        /* \"#utility.yul\":2836:2889   */\n      tag_322\n      jump\t// in\n    tag_391:\n        /* \"#utility.yul\":2826:2889   */\n      swap2\n      pop\n        /* \"#utility.yul\":2781:2899   */\n      pop\n        /* \"#utility.yul\":2432:2906   */\n      swap3\n      pop\n      swap3\n      swap1\n      pop\n      jump\t// out\n        /* \"#utility.yul\":2912:3002   */\n    tag_323:\n        /* \"#utility.yul\":2946:2953   */\n      0x00\n        /* \"#utility.yul\":2989:2994   */\n      dup2\n        /* \"#utility.yul\":2982:2995   */\n      iszero\n        /* \"#utility.yul\":2975:2996   */\n      iszero\n        /* \"#utility.yul\":2964:2996   */\n      swap1\n      pop\n        /* \"#utility.yul\":2912:3002   */\n      swap2\n      swap1\n      pop\n      jump\t// out\n        /* \"#utility.yul\":3008:3117   */\n    tag_324:\n        /* \"#utility.yul\":3089:3110   */\n      tag_394\n        /* \"#utility.yul\":3104:3109   */\n      dup2\n        /* \"#utility.yul\":3089:3110   */\n      tag_323\n      jump\t// in\n    tag_394:\n        /* \"#utility.yul\":3084:3087   */\n      dup3\n        /* \"#utility.yul\":3077:3111   */\n      mstore\n        /* \"#utility.yul\":3008:3117   */\n      pop\n      pop\n      jump\t// out\n        /* \"#utility.yul\":3123:3333   */\n    tag_34:\n        /* \"#utility.yul\":3210:3214   */\n      0x00\n        /* \"#utility.yul\":3248:3250   */\n      0x20\n        /* \"#utility.yul\":3237:3246   */\n      dup3\n        /* \"#utility.yul\":3233:3251   */\n      add\n        /* \"#utility.yul\":3225:3251   */\n      swap1\n      pop\n        /* \"#utility.yul\":3261:3326   */\n      tag_396\n        /* \"#utility.yul\":3323:3324   */\n      0x00\n        /* \"#utility.yul\":3312:3321   */\n      dup4\n        /* \"#utility.yul\":3308:3325   */\n      add\n        /* \"#utility.yul\":3299:3305   */\n      dup5\n        /* \"#utility.yul\":3261:3326   */\n      tag_324\n      jump\t// in\n    tag_396:\n        /* \"#utility.yul\":3123:3333   */\n      swap3\n      swap2\n      pop\n      pop\n      jump\t// out\n        /* \"#utility.yul\":3339:3399   */\n    tag_325:\n        /* \"#utility.yul\":3367:3370   */\n      0x00\n        /* \"#utility.yul\":3388:3393   */\n      dup2\n        /* \"#utility.yul\":3381:3393   */\n      swap1\n      pop\n        /* \"#utility.yul\":3339:3399   */\n      swap2\n      swap1\n      pop\n      jump\t// out\n        /* \"#utility.yul\":3405:3547   */\n    tag_326:\n        /* \"#utility.yul\":3455:3464   */\n      0x00\n        /* \"#utility.yul\":3488:3541   */\n      tag_399\n        /* \"#utility.yul\":3506:3540   */\n      tag_400\n        /* \"#utility.yul\":3515:3539   */\n      tag_401\n        /* \"#utility.yul\":3533:3538   */\n      dup5\n        /* \"#utility.yul\":3515:3539   */\n      tag_316\n      jump\t// in\n    tag_401:\n        /* \"#utility.yul\":3506:3540   */\n      tag_325\n      jump\t// in\n    tag_400:\n        /* \"#utility.yul\":3488:3541   */\n      tag_316\n      jump\t// in\n    tag_399:\n        /* \"#utility.yul\":3475:3541   */\n      swap1\n      pop\n        /* \"#utility.yul\":3405:3547   */\n      swap2\n      swap1\n      pop\n      jump\t// out\n        /* \"#utility.yul\":3553:3679   */\n    tag_327:\n        /* \"#utility.yul\":3603:3612   */\n      0x00\n        /* \"#utility.yul\":3636:3673   */\n      tag_403\n        /* \"#utility.yul\":3667:3672   */\n      dup3\n        /* \"#utility.yul\":3636:3673   */\n      tag_326\n      jump\t// in\n    tag_403:\n        /* \"#utility.yul\":3623:3673   */\n      swap1\n      pop\n        /* \"#utility.yul\":3553:3679   */\n      swap2\n      swap1\n      pop\n      jump\t// out\n        /* \"#utility.yul\":3685:3825   */\n    tag_328:\n        /* \"#utility.yul\":3749:3758   */\n      0x00\n        /* \"#utility.yul\":3782:3819   */\n      tag_405\n        /* \"#utility.yul\":3813:3818   */\n      dup3\n        /* \"#utility.yul\":3782:3819   */\n      tag_327\n      jump\t// in\n    tag_405:\n        /* \"#utility.yul\":3769:3819   */\n      swap1\n      pop\n        /* \"#utility.yul\":3685:3825   */\n      swap2\n      swap1\n      pop\n      jump\t// out\n        /* \"#utility.yul\":3831:3990   */\n    tag_329:\n        /* \"#utility.yul\":3932:3983   */\n      tag_407\n        /* \"#utility.yul\":3977:3982   */\n      dup2\n        /* \"#utility.yul\":3932:3983   */\n      tag_328\n      jump\t// in\n    tag_407:\n        /* \"#utility.yul\":3927:3930   */\n      dup3\n        /* \"#utility.yul\":3920:3984   */\n      mstore\n        /* \"#utility.yul\":3831:3990   */\n      pop\n      pop\n      jump\t// out\n        /* \"#utility.yul\":3996:4246   */\n    tag_38:\n        /* \"#utility.yul\":4103:4107   */\n      0x00\n        /* \"#utility.yul\":4141:4143   */\n      0x20\n        /* \"#utility.yul\":4130:4139   */\n      dup3\n        /* \"#utility.yul\":4126:4144   */\n      add\n        /* \"#utility.yul\":4118:4144   */\n      swap1\n      pop\n        /* \"#utility.yul\":4154:4239   */\n      tag_409\n        /* \"#utility.yul\":4236:4237   */\n      0x00\n        /* \"#utility.yul\":4225:4234   */\n      dup4\n        /* \"#utility.yul\":4221:4238   */\n      add\n        /* \"#utility.yul\":4212:4218   */\n      dup5\n        /* \"#utility.yul\":4154:4239   */\n      tag_329\n      jump\t// in\n    tag_409:\n        /* \"#utility.yul\":3996:4246   */\n      swap3\n      swap2\n      pop\n      pop\n      jump\t// out\n        /* \"#utility.yul\":4252:4370   */\n    tag_330:\n        /* \"#utility.yul\":4339:4363   */\n      tag_411\n        /* \"#utility.yul\":4357:4362   */\n      dup2\n        /* \"#utility.yul\":4339:4363   */\n      tag_320\n      jump\t// in\n    tag_411:\n        /* \"#utility.yul\":4334:4337   */\n      dup3\n        /* \"#utility.yul\":4327:4364   */\n      mstore\n        /* \"#utility.yul\":4252:4370   */\n      pop\n      pop\n      jump\t// out\n        /* \"#utility.yul\":4376:4598   */\n    tag_42:\n        /* \"#utility.yul\":4469:4473   */\n      0x00\n        /* \"#utility.yul\":4507:4509   */\n      0x20\n        /* \"#utility.yul\":4496:4505   */\n      dup3\n        /* \"#utility.yul\":4492:4510   */\n      add\n        /* \"#utility.yul\":4484:4510   */\n      swap1\n      pop\n        /* \"#utility.yul\":4520:4591   */\n      tag_413\n        /* \"#utility.yul\":4588:4589   */\n      0x00\n        /* \"#utility.yul\":4577:4586   */\n      dup4\n        /* \"#utility.yul\":4573:4590   */\n      add\n        /* \"#utility.yul\":4564:4570   */\n      dup5\n        /* \"#utility.yul\":4520:4591   */\n      tag_330\n      jump\t// in\n    tag_413:\n        /* \"#utility.yul\":4376:4598   */\n      swap3\n      swap2\n      pop\n      pop\n      jump\t// out\n        /* \"#utility.yul\":4604:5223   */\n    tag_48:\n        /* \"#utility.yul\":4681:4687   */\n      0x00\n        /* \"#utility.yul\":4689:4695   */\n      dup1\n        /* \"#utility.yul\":4697:4703   */\n      0x00\n        /* \"#utility.yul\":4746:4748   */\n      0x60\n        /* \"#utility.yul\":4734:4743   */\n      dup5\n        /* \"#utility.yul\":4725:4732   */\n      dup7\n        /* \"#utility.yul\":4721:4744   */\n      sub\n        /* \"#utility.yul\":4717:4749   */\n      slt\n        /* \"#utility.yul\":4714:4833   */\n      iszero\n      tag_415\n      jumpi\n        /* \"#utility.yul\":4752:4831   */\n      tag_416\n      tag_314\n      jump\t// in\n    tag_416:\n        /* \"#utility.yul\":4714:4833   */\n    tag_415:\n        /* \"#utility.yul\":4872:4873   */\n      0x00\n        /* \"#utility.yul\":4897:4950   */\n      tag_417\n        /* \"#utility.yul\":4942:4949   */\n      dup7\n        /* \"#utility.yul\":4933:4939   */\n      dup3\n        /* \"#utility.yul\":4922:4931   */\n      dup8\n        /* \"#utility.yul\":4918:4940   */\n      add\n        /* \"#utility.yul\":4897:4950   */\n      tag_319\n      jump\t// in\n    tag_417:\n        /* \"#utility.yul\":4887:4950   */\n      swap4\n      pop\n        /* \"#utility.yul\":4843:4960   */\n      pop\n        /* \"#utility.yul\":4999:5001   */\n      0x20\n        /* \"#utility.yul\":5025:5078   */\n      tag_418\n        /* \"#utility.yul\":5070:5077   */\n      dup7\n        /* \"#utility.yul\":5061:5067   */\n      dup3\n        /* \"#utility.yul\":5050:5059   */\n      dup8\n        /* \"#utility.yul\":5046:5068   */\n      add\n        /* \"#utility.yul\":5025:5078   */\n      tag_319\n      jump\t// in\n    tag_418:\n        /* \"#utility.yul\":5015:5078   */\n      swap3\n      pop\n        /* \"#utility.yul\":4970:5088   */\n      pop\n        /* \"#utility.yul\":5127:5129   */\n      0x40\n        /* \"#utility.yul\":5153:5206   */\n      tag_419\n        /* \"#utility.yul\":5198:5205   */\n      dup7\n        /* \"#utility.yul\":5189:5195   */\n      dup3\n        /* \"#utility.yul\":5178:5187   */\n      dup8\n        /* \"#utility.yul\":5174:5196   */\n      add\n        /* \"#utility.yul\":5153:5206   */\n      tag_322\n      jump\t// in\n    tag_419:\n        /* \"#utility.yul\":5143:5206   */\n      swap2\n      pop\n        /* \"#utility.yul\":5098:5216   */\n      pop\n        /* \"#utility.yul\":4604:5223   */\n      swap3\n      pop\n      swap3\n      pop\n      swap3\n      jump\t// out\n        /* \"#utility.yul\":5229:5315   */\n    tag_331:\n        /* \"#utility.yul\":5264:5271   */\n      0x00\n        /* \"#utility.yul\":5304:5308   */\n      0xff\n        /* \"#utility.yul\":5297:5302   */\n      dup3\n        /* \"#utility.yul\":5293:5309   */\n      and\n        /* \"#utility.yul\":5282:5309   */\n      swap1\n      pop\n        /* \"#utility.yul\":5229:5315   */\n      swap2\n      swap1\n      pop\n      jump\t// out\n        /* \"#utility.yul\":5321:5433   */\n    tag_332:\n        /* \"#utility.yul\":5404:5426   */\n      tag_422\n        /* \"#utility.yul\":5420:5425   */\n      dup2\n        /* \"#utility.yul\":5404:5426   */\n      tag_331\n      jump\t// in\n    tag_422:\n        /* \"#utility.yul\":5399:5402   */\n      dup3\n        /* \"#utility.yul\":5392:5427   */\n      mstore\n        /* \"#utility.yul\":5321:5433   */\n      pop\n      pop\n      jump\t// out\n        /* \"#utility.yul\":5439:5653   */\n    tag_54:\n        /* \"#utility.yul\":5528:5532   */\n      0x00\n        /* \"#utility.yul\":5566:5568   */\n      0x20\n        /* \"#utility.yul\":5555:5564   */\n      dup3\n        /* \"#utility.yul\":5551:5569   */\n      add\n        /* \"#utility.yul\":5543:5569   */\n      swap1\n      pop\n        /* \"#utility.yul\":5579:5646   */\n      tag_424\n        /* \"#utility.yul\":5643:5644   */\n      0x00\n        /* \"#utility.yul\":5632:5641   */\n      dup4\n        /* \"#utility.yul\":5628:5645   */\n      add\n        /* \"#utility.yul\":5619:5625   */\n      dup5\n        /* \"#utility.yul\":5579:5646   */\n      tag_332\n      jump\t// in\n    tag_424:\n        /* \"#utility.yul\":5439:5653   */\n      swap3\n      swap2\n      pop\n      pop\n      jump\t// out\n        /* \"#utility.yul\":5659:5988   */\n    tag_63:\n        /* \"#utility.yul\":5718:5724   */\n      0x00\n        /* \"#utility.yul\":5767:5769   */\n      0x20\n        /* \"#utility.yul\":5755:5764   */\n      dup3\n        /* \"#utility.yul\":5746:5753   */\n      dup5\n        /* \"#utility.yul\":5742:5765   */\n      sub\n        /* \"#utility.yul\":5738:5770   */\n      slt\n        /* \"#utility.yul\":5735:5854   */\n      iszero\n      tag_426\n      jumpi\n        /* \"#utility.yul\":5773:5852   */\n      tag_427\n      tag_314\n      jump\t// in\n    tag_427:\n        /* \"#utility.yul\":5735:5854   */\n    tag_426:\n        /* \"#utility.yul\":5893:5894   */\n      0x00\n        /* \"#utility.yul\":5918:5971   */\n      tag_428\n        /* \"#utility.yul\":5963:5970   */\n      dup5\n        /* \"#utility.yul\":5954:5960   */\n      dup3\n        /* \"#utility.yul\":5943:5952   */\n      dup6\n        /* \"#utility.yul\":5939:5961   */\n      add\n        /* \"#utility.yul\":5918:5971   */\n      tag_319\n      jump\t// in\n    tag_428:\n        /* \"#utility.yul\":5908:5971   */\n      swap2\n      pop\n        /* \"#utility.yul\":5864:5981   */\n      pop\n        /* \"#utility.yul\":5659:5988   */\n      swap3\n      swap2\n      pop\n      pop\n      jump\t// out\n        /* \"#utility.yul\":5994:6148   */\n    tag_333:\n        /* \"#utility.yul\":6072:6081   */\n      0x00\n        /* \"#utility.yul\":6105:6142   */\n      tag_430\n        /* \"#utility.yul\":6136:6141   */\n      dup3\n        /* \"#utility.yul\":6105:6142   */\n      tag_327\n      jump\t// in\n    tag_430:\n        /* \"#utility.yul\":6092:6142   */\n      swap1\n      pop\n        /* \"#utility.yul\":5994:6148   */\n      swap2\n      swap1\n      pop\n      jump\t// out\n        /* \"#utility.yul\":6154:6341   */\n    tag_334:\n        /* \"#utility.yul\":6269:6334   */\n      tag_432\n        /* \"#utility.yul\":6328:6333   */\n      dup2\n        /* \"#utility.yul\":6269:6334   */\n      tag_333\n      jump\t// in\n    tag_432:\n        /* \"#utility.yul\":6264:6267   */\n      dup3\n        /* \"#utility.yul\":6257:6335   */\n      mstore\n        /* \"#utility.yul\":6154:6341   */\n      pop\n      pop\n      jump\t// out\n        /* \"#utility.yul\":6347:6625   */\n    tag_69:\n        /* \"#utility.yul\":6468:6472   */\n      0x00\n        /* \"#utility.yul\":6506:6508   */\n      0x20\n        /* \"#utility.yul\":6495:6504   */\n      dup3\n        /* \"#utility.yul\":6491:6509   */\n      add\n        /* \"#utility.yul\":6483:6509   */\n      swap1\n      pop\n        /* \"#utility.yul\":6519:6618   */\n      tag_434\n        /* \"#utility.yul\":6615:6616   */\n      0x00\n        /* \"#utility.yul\":6604:6613   */\n      dup4\n        /* \"#utility.yul\":6600:6617   */\n      add\n        /* \"#utility.yul\":6591:6597   */\n      dup5\n        /* \"#utility.yul\":6519:6618   */\n      tag_334\n      jump\t// in\n    tag_434:\n        /* \"#utility.yul\":6347:6625   */\n      swap3\n      swap2\n      pop\n      pop\n      jump\t// out\n        /* \"#utility.yul\":6631:6960   */\n    tag_75:\n        /* \"#utility.yul\":6690:6696   */\n      0x00\n        /* \"#utility.yul\":6739:6741   */\n      0x20\n        /* \"#utility.yul\":6727:6736   */\n      dup3\n        /* \"#utility.yul\":6718:6725   */\n      dup5\n        /* \"#utility.yul\":6714:6737   */\n      sub\n        /* \"#utility.yul\":6710:6742   */\n      slt\n        /* \"#utility.yul\":6707:6826   */\n      iszero\n      tag_436\n      jumpi\n        /* \"#utility.yul\":6745:6824   */\n      tag_437\n      tag_314\n      jump\t// in\n    tag_437:\n        /* \"#utility.yul\":6707:6826   */\n    tag_436:\n        /* \"#utility.yul\":6865:6866   */\n      0x00\n        /* \"#utility.yul\":6890:6943   */\n      tag_438\n        /* \"#utility.yul\":6935:6942   */\n      dup5\n        /* \"#utility.yul\":6926:6932   */\n      dup3\n        /* \"#utility.yul\":6915:6924   */\n      dup6\n        /* \"#utility.yul\":6911:6933   */\n      add\n        /* \"#utility.yul\":6890:6943   */\n      tag_322\n      jump\t// in\n    tag_438:\n        /* \"#utility.yul\":6880:6943   */\n      swap2\n      pop\n        /* \"#utility.yul\":6836:6953   */\n      pop\n        /* \"#utility.yul\":6631:6960   */\n      swap3\n      swap2\n      pop\n      pop\n      jump\t// out\n        /* \"#utility.yul\":6966:7298   */\n    tag_78:\n        /* \"#utility.yul\":7087:7091   */\n      0x00\n        /* \"#utility.yul\":7125:7127   */\n      0x40\n        /* \"#utility.yul\":7114:7123   */\n      dup3\n        /* \"#utility.yul\":7110:7128   */\n      add\n        /* \"#utility.yul\":7102:7128   */\n      swap1\n      pop\n        /* \"#utility.yul\":7138:7209   */\n      tag_440\n        /* \"#utility.yul\":7206:7207   */\n      0x00\n        /* \"#utility.yul\":7195:7204   */\n      dup4\n        /* \"#utility.yul\":7191:7208   */\n      add\n        /* \"#utility.yul\":7182:7188   */\n      dup6\n        /* \"#utility.yul\":7138:7209   */\n      tag_330\n      jump\t// in\n    tag_440:\n        /* \"#utility.yul\":7219:7291   */\n      tag_441\n        /* \"#utility.yul\":7287:7289   */\n      0x20\n        /* \"#utility.yul\":7276:7285   */\n      dup4\n        /* \"#utility.yul\":7272:7290   */\n      add\n        /* \"#utility.yul\":7263:7269   */\n      dup5\n        /* \"#utility.yul\":7219:7291   */\n      tag_330\n      jump\t// in\n    tag_441:\n        /* \"#utility.yul\":6966:7298   */\n      swap4\n      swap3\n      pop\n      pop\n      pop\n      jump\t// out\n        /* \"#utility.yul\":7304:7778   */\n    tag_81:\n        /* \"#utility.yul\":7372:7378   */\n      0x00\n        /* \"#utility.yul\":7380:7386   */\n      dup1\n        /* \"#utility.yul\":7429:7431   */\n      0x40\n        /* \"#utility.yul\":7417:7426   */\n      dup4\n        /* \"#utility.yul\":7408:7415   */\n      dup6\n        /* \"#utility.yul\":7404:7427   */\n      sub\n        /* \"#utility.yul\":7400:7432   */\n      slt\n        /* \"#utility.yul\":7397:7516   */\n      iszero\n      tag_443\n      jumpi\n        /* \"#utility.yul\":7435:7514   */\n      tag_444\n      tag_314\n      jump\t// in\n    tag_444:\n        /* \"#utility.yul\":7397:7516   */\n    tag_443:\n        /* \"#utility.yul\":7555:7556   */\n      0x00\n        /* \"#utility.yul\":7580:7633   */\n      tag_445\n        /* \"#utility.yul\":7625:7632   */\n      dup6\n        /* \"#utility.yul\":7616:7622   */\n      dup3\n        /* \"#utility.yul\":7605:7614   */\n      dup7\n        /* \"#utility.yul\":7601:7623   */\n      add\n        /* \"#utility.yul\":7580:7633   */\n      tag_322\n      jump\t// in\n    tag_445:\n        /* \"#utility.yul\":7570:7633   */\n      swap3\n      pop\n        /* \"#utility.yul\":7526:7643   */\n      pop\n        /* \"#utility.yul\":7682:7684   */\n      0x20\n        /* \"#utility.yul\":7708:7761   */\n      tag_446\n        /* \"#utility.yul\":7753:7760   */\n      dup6\n        /* \"#utility.yul\":7744:7750   */\n      dup3\n        /* \"#utility.yul\":7733:7742   */\n      dup7\n        /* \"#utility.yul\":7729:7751   */\n      add\n        /* \"#utility.yul\":7708:7761   */\n      tag_322\n      jump\t// in\n    tag_446:\n        /* \"#utility.yul\":7698:7761   */\n      swap2\n      pop\n        /* \"#utility.yul\":7653:7771   */\n      pop\n        /* \"#utility.yul\":7304:7778   */\n      swap3\n      pop\n      swap3\n      swap1\n      pop\n      jump\t// out\n        /* \"#utility.yul\":7784:8258   */\n    tag_97:\n        /* \"#utility.yul\":7852:7858   */\n      0x00\n        /* \"#utility.yul\":7860:7866   */\n      dup1\n        /* \"#utility.yul\":7909:7911   */\n      0x40\n        /* \"#utility.yul\":7897:7906   */\n      dup4\n        /* \"#utility.yul\":7888:7895   */\n      dup6\n        /* \"#utility.yul\":7884:7907   */\n      sub\n        /* \"#utility.yul\":7880:7912   */\n      slt\n        /* \"#utility.yul\":7877:7996   */\n      iszero\n      tag_448\n      jumpi\n        /* \"#utility.yul\":7915:7994   */\n      tag_449\n      tag_314\n      jump\t// in\n    tag_449:\n        /* \"#utility.yul\":7877:7996   */\n    tag_448:\n        /* \"#utility.yul\":8035:8036   */\n      0x00\n        /* \"#utility.yul\":8060:8113   */\n      tag_450\n        /* \"#utility.yul\":8105:8112   */\n      dup6\n        /* \"#utility.yul\":8096:8102   */\n      dup3\n        /* \"#utility.yul\":8085:8094   */\n      dup7\n        /* \"#utility.yul\":8081:8103   */\n      add\n        /* \"#utility.yul\":8060:8113   */\n      tag_319\n      jump\t// in\n    tag_450:\n        /* \"#utility.yul\":8050:8113   */\n      swap3\n      pop\n        /* \"#utility.yul\":8006:8123   */\n      pop\n        /* \"#utility.yul\":8162:8164   */\n      0x20\n        /* \"#utility.yul\":8188:8241   */\n      tag_451\n        /* \"#utility.yul\":8233:8240   */\n      dup6\n        /* \"#utility.yul\":8224:8230   */\n      dup3\n        /* \"#utility.yul\":8213:8222   */\n      dup7\n        /* \"#utility.yul\":8209:8231   */\n      add\n        /* \"#utility.yul\":8188:8241   */\n      tag_319\n      jump\t// in\n    tag_451:\n        /* \"#utility.yul\":8178:8241   */\n      swap2\n      pop\n        /* \"#utility.yul\":8133:8251   */\n      pop\n        /* \"#utility.yul\":7784:8258   */\n      swap3\n      pop\n      swap3\n      swap1\n      pop\n      jump\t// out\n        /* \"#utility.yul\":8264:8444   */\n    tag_335:\n        /* \"#utility.yul\":8312:8389   */\n      0x4e487b7100000000000000000000000000000000000000000000000000000000\n        /* \"#utility.yul\":8309:8310   */\n      0x00\n        /* \"#utility.yul\":8302:8390   */\n      mstore\n        /* \"#utility.yul\":8409:8413   */\n      0x22\n        /* \"#utility.yul\":8406:8407   */\n      0x04\n        /* \"#utility.yul\":8399:8414   */\n      mstore\n        /* \"#utility.yul\":8433:8437   */\n      0x24\n        /* \"#utility.yul\":8430:8431   */\n      0x00\n        /* \"#utility.yul\":8423:8438   */\n      revert\n        /* \"#utility.yul\":8450:8770   */\n    tag_105:\n        /* \"#utility.yul\":8494:8500   */\n      0x00\n        /* \"#utility.yul\":8531:8532   */\n      0x02\n        /* \"#utility.yul\":8525:8529   */\n      dup3\n        /* \"#utility.yul\":8521:8533   */\n      div\n        /* \"#utility.yul\":8511:8533   */\n      swap1\n      pop\n        /* \"#utility.yul\":8578:8579   */\n      0x01\n        /* \"#utility.yul\":8572:8576   */\n      dup3\n        /* \"#utility.yul\":8568:8580   */\n      and\n        /* \"#utility.yul\":8599:8617   */\n      dup1\n        /* \"#utility.yul\":8589:8670   */\n      tag_454\n      jumpi\n        /* \"#utility.yul\":8655:8659   */\n      0x7f\n        /* \"#utility.yul\":8647:8653   */\n      dup3\n        /* \"#utility.yul\":8643:8660   */\n      and\n        /* \"#utility.yul\":8633:8660   */\n      swap2\n      pop\n        /* \"#utility.yul\":8589:8670   */\n    tag_454:\n        /* \"#utility.yul\":8717:8719   */\n      0x20\n        /* \"#utility.yul\":8709:8715   */\n      dup3\n        /* \"#utility.yul\":8706:8720   */\n      lt\n        /* \"#utility.yul\":8686:8704   */\n      dup2\n        /* \"#utility.yul\":8683:8721   */\n      sub\n        /* \"#utility.yul\":8680:8764   */\n      tag_455\n      jumpi\n        /* \"#utility.yul\":8736:8754   */\n      tag_456\n      tag_335\n      jump\t// in\n    tag_456:\n        /* \"#utility.yul\":8680:8764   */\n    tag_455:\n        /* \"#utility.yul\":8501:8770   */\n      pop\n        /* \"#utility.yul\":8450:8770   */\n      swap2\n      swap1\n      pop\n      jump\t// out\n        /* \"#utility.yul\":8776:8881   */\n    tag_336:\n        /* \"#utility.yul\":8812:8819   */\n      0x00\n        /* \"#utility.yul\":8852:8874   */\n      0xffffffffffffffffffff\n        /* \"#utility.yul\":8845:8850   */\n      dup3\n        /* \"#utility.yul\":8841:8875   */\n      and\n        /* \"#utility.yul\":8830:8875   */\n      swap1\n      pop\n        /* \"#utility.yul\":8776:8881   */\n      swap2\n      swap1\n      pop\n      jump\t// out\n        /* \"#utility.yul\":8887:9007   */\n    tag_337:\n        /* \"#utility.yul\":8959:8982   */\n      tag_459\n        /* \"#utility.yul\":8976:8981   */\n      dup2\n        /* \"#utility.yul\":8959:8982   */\n      tag_336\n      jump\t// in\n    tag_459:\n        /* \"#utility.yul\":8952:8957   */\n      dup2\n        /* \"#utility.yul\":8949:8983   */\n      eq\n        /* \"#utility.yul\":8939:9001   */\n      tag_460\n      jumpi\n        /* \"#utility.yul\":8997:8998   */\n      0x00\n        /* \"#utility.yul\":8994:8995   */\n      dup1\n        /* \"#utility.yul\":8987:8999   */\n      revert\n        /* \"#utility.yul\":8939:9001   */\n    tag_460:\n        /* \"#utility.yul\":8887:9007   */\n      pop\n      jump\t// out\n        /* \"#utility.yul\":9013:9154   */\n    tag_338:\n        /* \"#utility.yul\":9069:9074   */\n      0x00\n        /* \"#utility.yul\":9100:9106   */\n      dup2\n        /* \"#utility.yul\":9094:9107   */\n      mload\n        /* \"#utility.yul\":9085:9107   */\n      swap1\n      pop\n        /* \"#utility.yul\":9116:9148   */\n      tag_462\n        /* \"#utility.yul\":9142:9147   */\n      dup2\n        /* \"#utility.yul\":9116:9148   */\n      tag_337\n      jump\t// in\n    tag_462:\n        /* \"#utility.yul\":9013:9154   */\n      swap3\n      swap2\n      pop\n      pop\n      jump\t// out\n        /* \"#utility.yul\":9160:9236   */\n    tag_339:\n        /* \"#utility.yul\":9196:9203   */\n      0x00\n        /* \"#utility.yul\":9225:9230   */\n      dup2\n        /* \"#utility.yul\":9214:9230   */\n      swap1\n      pop\n        /* \"#utility.yul\":9160:9236   */\n      swap2\n      swap1\n      pop\n      jump\t// out\n        /* \"#utility.yul\":9242:9362   */\n    tag_340:\n        /* \"#utility.yul\":9314:9337   */\n      tag_465\n        /* \"#utility.yul\":9331:9336   */\n      dup2\n        /* \"#utility.yul\":9314:9337   */\n      tag_339\n      jump\t// in\n    tag_465:\n        /* \"#utility.yul\":9307:9312   */\n      dup2\n        /* \"#utility.yul\":9304:9338   */\n      eq\n        /* \"#utility.yul\":9294:9356   */\n      tag_466\n      jumpi\n        /* \"#utility.yul\":9352:9353   */\n      0x00\n        /* \"#utility.yul\":9349:9350   */\n      dup1\n        /* \"#utility.yul\":9342:9354   */\n      revert\n        /* \"#utility.yul\":9294:9356   */\n    tag_466:\n        /* \"#utility.yul\":9242:9362   */\n      pop\n      jump\t// out\n        /* \"#utility.yul\":9368:9509   */\n    tag_341:\n        /* \"#utility.yul\":9424:9429   */\n      0x00\n        /* \"#utility.yul\":9455:9461   */\n      dup2\n        /* \"#utility.yul\":9449:9462   */\n      mload\n        /* \"#utility.yul\":9440:9462   */\n      swap1\n      pop\n        /* \"#utility.yul\":9471:9503   */\n      tag_468\n        /* \"#utility.yul\":9497:9502   */\n      dup2\n        /* \"#utility.yul\":9471:9503   */\n      tag_340\n      jump\t// in\n    tag_468:\n        /* \"#utility.yul\":9368:9509   */\n      swap3\n      swap2\n      pop\n      pop\n      jump\t// out\n        /* \"#utility.yul\":9515:9658   */\n    tag_342:\n        /* \"#utility.yul\":9572:9577   */\n      0x00\n        /* \"#utility.yul\":9603:9609   */\n      dup2\n        /* \"#utility.yul\":9597:9610   */\n      mload\n        /* \"#utility.yul\":9588:9610   */\n      swap1\n      pop\n        /* \"#utility.yul\":9619:9652   */\n      tag_470\n        /* \"#utility.yul\":9646:9651   */\n      dup2\n        /* \"#utility.yul\":9619:9652   */\n      tag_321\n      jump\t// in\n    tag_470:\n        /* \"#utility.yul\":9515:9658   */\n      swap3\n      swap2\n      pop\n      pop\n      jump\t// out\n        /* \"#utility.yul\":9664:10635   */\n    tag_120:\n        /* \"#utility.yul\":9767:9773   */\n      0x00\n        /* \"#utility.yul\":9775:9781   */\n      dup1\n        /* \"#utility.yul\":9783:9789   */\n      0x00\n        /* \"#utility.yul\":9791:9797   */\n      dup1\n        /* \"#utility.yul\":9799:9805   */\n      0x00\n        /* \"#utility.yul\":9848:9851   */\n      0xa0\n        /* \"#utility.yul\":9836:9845   */\n      dup7\n        /* \"#utility.yul\":9827:9834   */\n      dup9\n        /* \"#utility.yul\":9823:9846   */\n      sub\n        /* \"#utility.yul\":9819:9852   */\n      slt\n        /* \"#utility.yul\":9816:9936   */\n      iszero\n      tag_472\n      jumpi\n        /* \"#utility.yul\":9855:9934   */\n      tag_473\n      tag_314\n      jump\t// in\n    tag_473:\n        /* \"#utility.yul\":9816:9936   */\n    tag_472:\n        /* \"#utility.yul\":9975:9976   */\n      0x00\n        /* \"#utility.yul\":10000:10063   */\n      tag_474\n        /* \"#utility.yul\":10055:10062   */\n      dup9\n        /* \"#utility.yul\":10046:10052   */\n      dup3\n        /* \"#utility.yul\":10035:10044   */\n      dup10\n        /* \"#utility.yul\":10031:10053   */\n      add\n        /* \"#utility.yul\":10000:10063   */\n      tag_338\n      jump\t// in\n    tag_474:\n        /* \"#utility.yul\":9990:10063   */\n      swap6\n      pop\n        /* \"#utility.yul\":9946:10073   */\n      pop\n        /* \"#utility.yul\":10112:10114   */\n      0x20\n        /* \"#utility.yul\":10138:10201   */\n      tag_475\n        /* \"#utility.yul\":10193:10200   */\n      dup9\n        /* \"#utility.yul\":10184:10190   */\n      dup3\n        /* \"#utility.yul\":10173:10182   */\n      dup10\n        /* \"#utility.yul\":10169:10191   */\n      add\n        /* \"#utility.yul\":10138:10201   */\n      tag_341\n      jump\t// in\n    tag_475:\n        /* \"#utility.yul\":10128:10201   */\n      swap5\n      pop\n        /* \"#utility.yul\":10083:10211   */\n      pop\n        /* \"#utility.yul\":10250:10252   */\n      0x40\n        /* \"#utility.yul\":10276:10340   */\n      tag_476\n        /* \"#utility.yul\":10332:10339   */\n      dup9\n        /* \"#utility.yul\":10323:10329   */\n      dup3\n        /* \"#utility.yul\":10312:10321   */\n      dup10\n        /* \"#utility.yul\":10308:10330   */\n      add\n        /* \"#utility.yul\":10276:10340   */\n      tag_342\n      jump\t// in\n    tag_476:\n        /* \"#utility.yul\":10266:10340   */\n      swap4\n      pop\n        /* \"#utility.yul\":10221:10350   */\n      pop\n        /* \"#utility.yul\":10389:10391   */\n      0x60\n        /* \"#utility.yul\":10415:10479   */\n      tag_477\n        /* \"#utility.yul\":10471:10478   */\n      dup9\n        /* \"#utility.yul\":10462:10468   */\n      dup3\n        /* \"#utility.yul\":10451:10460   */\n      dup10\n        /* \"#utility.yul\":10447:10469   */\n      add\n        /* \"#utility.yul\":10415:10479   */\n      tag_342\n      jump\t// in\n    tag_477:\n        /* \"#utility.yul\":10405:10479   */\n      swap3\n      pop\n        /* \"#utility.yul\":10360:10489   */\n      pop\n        /* \"#utility.yul\":10528:10531   */\n      0x80\n        /* \"#utility.yul\":10555:10618   */\n      tag_478\n        /* \"#utility.yul\":10610:10617   */\n      dup9\n        /* \"#utility.yul\":10601:10607   */\n      dup3\n        /* \"#utility.yul\":10590:10599   */\n      dup10\n        /* \"#utility.yul\":10586:10608   */\n      add\n        /* \"#utility.yul\":10555:10618   */\n      tag_338\n      jump\t// in\n    tag_478:\n        /* \"#utility.yul\":10545:10618   */\n      swap2\n      pop\n        /* \"#utility.yul\":10499:10628   */\n      pop\n        /* \"#utility.yul\":9664:10635   */\n      swap3\n      swap6\n      pop\n      swap3\n      swap6\n      swap1\n      swap4\n      pop\n      jump\t// out\n        /* \"#utility.yul\":10641:10804   */\n    tag_343:\n        /* \"#utility.yul\":10781:10796   */\n      0x496e76616c696420707269636500000000000000000000000000000000000000\n        /* \"#utility.yul\":10777:10778   */\n      0x00\n        /* \"#utility.yul\":10769:10775   */\n      dup3\n        /* \"#utility.yul\":10765:10779   */\n      add\n        /* \"#utility.yul\":10758:10797   */\n      mstore\n        /* \"#utility.yul\":10641:10804   */\n      pop\n      jump\t// out\n        /* \"#utility.yul\":10810:11176   */\n    tag_344:\n        /* \"#utility.yul\":10952:10955   */\n      0x00\n        /* \"#utility.yul\":10973:11040   */\n      tag_481\n        /* \"#utility.yul\":11037:11039   */\n      0x0d\n        /* \"#utility.yul\":11032:11035   */\n      dup4\n        /* \"#utility.yul\":10973:11040   */\n      tag_309\n      jump\t// in\n    tag_481:\n        /* \"#utility.yul\":10966:11040   */\n      swap2\n      pop\n        /* \"#utility.yul\":11049:11142   */\n      tag_482\n        /* \"#utility.yul\":11138:11141   */\n      dup3\n        /* \"#utility.yul\":11049:11142   */\n      tag_343\n      jump\t// in\n    tag_482:\n        /* \"#utility.yul\":11167:11169   */\n      0x20\n        /* \"#utility.yul\":11162:11165   */\n      dup3\n        /* \"#utility.yul\":11158:11170   */\n      add\n        /* \"#utility.yul\":11151:11170   */\n      swap1\n      pop\n        /* \"#utility.yul\":10810:11176   */\n      swap2\n      swap1\n      pop\n      jump\t// out\n        /* \"#utility.yul\":11182:11601   */\n    tag_123:\n        /* \"#utility.yul\":11348:11352   */\n      0x00\n        /* \"#utility.yul\":11386:11388   */\n      0x20\n        /* \"#utility.yul\":11375:11384   */\n      dup3\n        /* \"#utility.yul\":11371:11389   */\n      add\n        /* \"#utility.yul\":11363:11389   */\n      swap1\n      pop\n        /* \"#utility.yul\":11435:11444   */\n      dup2\n        /* \"#utility.yul\":11429:11433   */\n      dup2\n        /* \"#utility.yul\":11425:11445   */\n      sub\n        /* \"#utility.yul\":11421:11422   */\n      0x00\n        /* \"#utility.yul\":11410:11419   */\n      dup4\n        /* \"#utility.yul\":11406:11423   */\n      add\n        /* \"#utility.yul\":11399:11446   */\n      mstore\n        /* \"#utility.yul\":11463:11594   */\n      tag_484\n        /* \"#utility.yul\":11589:11593   */\n      dup2\n        /* \"#utility.yul\":11463:11594   */\n      tag_344\n      jump\t// in\n    tag_484:\n        /* \"#utility.yul\":11455:11594   */\n      swap1\n      pop\n        /* \"#utility.yul\":11182:11601   */\n      swap2\n      swap1\n      pop\n      jump\t// out\n        /* \"#utility.yul\":11607:11787   */\n    tag_345:\n        /* \"#utility.yul\":11655:11732   */\n      0x4e487b7100000000000000000000000000000000000000000000000000000000\n        /* \"#utility.yul\":11652:11653   */\n      0x00\n        /* \"#utility.yul\":11645:11733   */\n      mstore\n        /* \"#utility.yul\":11752:11756   */\n      0x12\n        /* \"#utility.yul\":11749:11750   */\n      0x04\n        /* \"#utility.yul\":11742:11757   */\n      mstore\n        /* \"#utility.yul\":11776:11780   */\n      0x24\n        /* \"#utility.yul\":11773:11774   */\n      0x00\n        /* \"#utility.yul\":11766:11781   */\n      revert\n        /* \"#utility.yul\":11793:11973   */\n    tag_346:\n        /* \"#utility.yul\":11841:11918   */\n      0x4e487b7100000000000000000000000000000000000000000000000000000000\n        /* \"#utility.yul\":11838:11839   */\n      0x00\n        /* \"#utility.yul\":11831:11919   */\n      mstore\n        /* \"#utility.yul\":11938:11942   */\n      0x11\n        /* \"#utility.yul\":11935:11936   */\n      0x04\n        /* \"#utility.yul\":11928:11943   */\n      mstore\n        /* \"#utility.yul\":11962:11966   */\n      0x24\n        /* \"#utility.yul\":11959:11960   */\n      0x00\n        /* \"#utility.yul\":11952:11967   */\n      revert\n        /* \"#utility.yul\":11979:12364   */\n    tag_125:\n        /* \"#utility.yul\":12018:12019   */\n      0x00\n        /* \"#utility.yul\":12035:12054   */\n      tag_488\n        /* \"#utility.yul\":12052:12053   */\n      dup3\n        /* \"#utility.yul\":12035:12054   */\n      tag_339\n      jump\t// in\n    tag_488:\n        /* \"#utility.yul\":12030:12054   */\n      swap2\n      pop\n        /* \"#utility.yul\":12068:12087   */\n      tag_489\n        /* \"#utility.yul\":12085:12086   */\n      dup4\n        /* \"#utility.yul\":12068:12087   */\n      tag_339\n      jump\t// in\n    tag_489:\n        /* \"#utility.yul\":12063:12087   */\n      swap3\n      pop\n        /* \"#utility.yul\":12106:12107   */\n      dup3\n        /* \"#utility.yul\":12096:12131   */\n      tag_490\n      jumpi\n        /* \"#utility.yul\":12111:12129   */\n      tag_491\n      tag_345\n      jump\t// in\n    tag_491:\n        /* \"#utility.yul\":12096:12131   */\n    tag_490:\n        /* \"#utility.yul\":12297:12298   */\n      0x01\n        /* \"#utility.yul\":12294:12295   */\n      0x00\n        /* \"#utility.yul\":12290:12299   */\n      sub\n        /* \"#utility.yul\":12287:12288   */\n      dup4\n        /* \"#utility.yul\":12284:12300   */\n      eq\n        /* \"#utility.yul\":12203:12269   */\n      0x8000000000000000000000000000000000000000000000000000000000000000\n        /* \"#utility.yul\":12200:12201   */\n      dup4\n        /* \"#utility.yul\":12197:12270   */\n      eq\n        /* \"#utility.yul\":12180:12310   */\n      and\n        /* \"#utility.yul\":12177:12333   */\n      iszero\n      tag_492\n      jumpi\n        /* \"#utility.yul\":12313:12331   */\n      tag_493\n      tag_346\n      jump\t// in\n    tag_493:\n        /* \"#utility.yul\":12177:12333   */\n    tag_492:\n        /* \"#utility.yul\":12356:12357   */\n      dup3\n        /* \"#utility.yul\":12353:12354   */\n      dup3\n        /* \"#utility.yul\":12348:12358   */\n      sdiv\n        /* \"#utility.yul\":12343:12358   */\n      swap1\n      pop\n        /* \"#utility.yul\":11979:12364   */\n      swap3\n      swap2\n      pop\n      pop\n      jump\t// out\n        /* \"#utility.yul\":12370:12780   */\n    tag_143:\n        /* \"#utility.yul\":12410:12417   */\n      0x00\n        /* \"#utility.yul\":12433:12453   */\n      tag_495\n        /* \"#utility.yul\":12451:12452   */\n      dup3\n        /* \"#utility.yul\":12433:12453   */\n      tag_320\n      jump\t// in\n    tag_495:\n        /* \"#utility.yul\":12428:12453   */\n      swap2\n      pop\n        /* \"#utility.yul\":12467:12487   */\n      tag_496\n        /* \"#utility.yul\":12485:12486   */\n      dup4\n        /* \"#utility.yul\":12467:12487   */\n      tag_320\n      jump\t// in\n    tag_496:\n        /* \"#utility.yul\":12462:12487   */\n      swap3\n      pop\n        /* \"#utility.yul\":12522:12523   */\n      dup3\n        /* \"#utility.yul\":12519:12520   */\n      dup3\n        /* \"#utility.yul\":12515:12524   */\n      mul\n        /* \"#utility.yul\":12544:12574   */\n      tag_497\n        /* \"#utility.yul\":12562:12573   */\n      dup2\n        /* \"#utility.yul\":12544:12574   */\n      tag_320\n      jump\t// in\n    tag_497:\n        /* \"#utility.yul\":12533:12574   */\n      swap2\n      pop\n        /* \"#utility.yul\":12723:12724   */\n      dup3\n        /* \"#utility.yul\":12714:12721   */\n      dup3\n        /* \"#utility.yul\":12710:12725   */\n      div\n        /* \"#utility.yul\":12707:12708   */\n      dup5\n        /* \"#utility.yul\":12704:12726   */\n      eq\n        /* \"#utility.yul\":12684:12685   */\n      dup4\n        /* \"#utility.yul\":12677:12686   */\n      iszero\n        /* \"#utility.yul\":12657:12740   */\n      or\n        /* \"#utility.yul\":12634:12773   */\n      tag_498\n      jumpi\n        /* \"#utility.yul\":12753:12771   */\n      tag_499\n      tag_346\n      jump\t// in\n    tag_499:\n        /* \"#utility.yul\":12634:12773   */\n    tag_498:\n        /* \"#utility.yul\":12418:12780   */\n      pop\n        /* \"#utility.yul\":12370:12780   */\n      swap3\n      swap2\n      pop\n      pop\n      jump\t// out\n        /* \"#utility.yul\":12786:12971   */\n    tag_145:\n        /* \"#utility.yul\":12826:12827   */\n      0x00\n        /* \"#utility.yul\":12843:12863   */\n      tag_501\n        /* \"#utility.yul\":12861:12862   */\n      dup3\n        /* \"#utility.yul\":12843:12863   */\n      tag_320\n      jump\t// in\n    tag_501:\n        /* \"#utility.yul\":12838:12863   */\n      swap2\n      pop\n        /* \"#utility.yul\":12877:12897   */\n      tag_502\n        /* \"#utility.yul\":12895:12896   */\n      dup4\n        /* \"#utility.yul\":12877:12897   */\n      tag_320\n      jump\t// in\n    tag_502:\n        /* \"#utility.yul\":12872:12897   */\n      swap3\n      pop\n        /* \"#utility.yul\":12916:12917   */\n      dup3\n        /* \"#utility.yul\":12906:12941   */\n      tag_503\n      jumpi\n        /* \"#utility.yul\":12921:12939   */\n      tag_504\n      tag_345\n      jump\t// in\n    tag_504:\n        /* \"#utility.yul\":12906:12941   */\n    tag_503:\n        /* \"#utility.yul\":12963:12964   */\n      dup3\n        /* \"#utility.yul\":12960:12961   */\n      dup3\n        /* \"#utility.yul\":12956:12965   */\n      div\n        /* \"#utility.yul\":12951:12965   */\n      swap1\n      pop\n        /* \"#utility.yul\":12786:12971   */\n      swap3\n      swap2\n      pop\n      pop\n      jump\t// out\n        /* \"#utility.yul\":12977:13138   */\n    tag_347:\n        /* \"#utility.yul\":13117:13130   */\n      0x5a45524f20414d4f554e54000000000000000000000000000000000000000000\n        /* \"#utility.yul\":13113:13114   */\n      0x00\n        /* \"#utility.yul\":13105:13111   */\n      dup3\n        /* \"#utility.yul\":13101:13115   */\n      add\n        /* \"#utility.yul\":13094:13131   */\n      mstore\n        /* \"#utility.yul\":12977:13138   */\n      pop\n      jump\t// out\n        /* \"#utility.yul\":13144:13510   */\n    tag_348:\n        /* \"#utility.yul\":13286:13289   */\n      0x00\n        /* \"#utility.yul\":13307:13374   */\n      tag_507\n        /* \"#utility.yul\":13371:13373   */\n      0x0b\n        /* \"#utility.yul\":13366:13369   */\n      dup4\n        /* \"#utility.yul\":13307:13374   */\n      tag_309\n      jump\t// in\n    tag_507:\n        /* \"#utility.yul\":13300:13374   */\n      swap2\n      pop\n        /* \"#utility.yul\":13383:13476   */\n      tag_508\n        /* \"#utility.yul\":13472:13475   */\n      dup3\n        /* \"#utility.yul\":13383:13476   */\n      tag_347\n      jump\t// in\n    tag_508:\n        /* \"#utility.yul\":13501:13503   */\n      0x20\n        /* \"#utility.yul\":13496:13499   */\n      dup3\n        /* \"#utility.yul\":13492:13504   */\n      add\n        /* \"#utility.yul\":13485:13504   */\n      swap1\n      pop\n        /* \"#utility.yul\":13144:13510   */\n      swap2\n      swap1\n      pop\n      jump\t// out\n        /* \"#utility.yul\":13516:13935   */\n    tag_152:\n        /* \"#utility.yul\":13682:13686   */\n      0x00\n        /* \"#utility.yul\":13720:13722   */\n      0x20\n        /* \"#utility.yul\":13709:13718   */\n      dup3\n        /* \"#utility.yul\":13705:13723   */\n      add\n        /* \"#utility.yul\":13697:13723   */\n      swap1\n      pop\n        /* \"#utility.yul\":13769:13778   */\n      dup2\n        /* \"#utility.yul\":13763:13767   */\n      dup2\n        /* \"#utility.yul\":13759:13779   */\n      sub\n        /* \"#utility.yul\":13755:13756   */\n      0x00\n        /* \"#utility.yul\":13744:13753   */\n      dup4\n        /* \"#utility.yul\":13740:13757   */\n      add\n        /* \"#utility.yul\":13733:13780   */\n      mstore\n        /* \"#utility.yul\":13797:13928   */\n      tag_510\n        /* \"#utility.yul\":13923:13927   */\n      dup2\n        /* \"#utility.yul\":13797:13928   */\n      tag_348\n      jump\t// in\n    tag_510:\n        /* \"#utility.yul\":13789:13928   */\n      swap1\n      pop\n        /* \"#utility.yul\":13516:13935   */\n      swap2\n      swap1\n      pop\n      jump\t// out\n        /* \"#utility.yul\":13941:14135   */\n    tag_158:\n        /* \"#utility.yul\":13981:13985   */\n      0x00\n        /* \"#utility.yul\":14001:14021   */\n      tag_512\n        /* \"#utility.yul\":14019:14020   */\n      dup3\n        /* \"#utility.yul\":14001:14021   */\n      tag_320\n      jump\t// in\n    tag_512:\n        /* \"#utility.yul\":13996:14021   */\n      swap2\n      pop\n        /* \"#utility.yul\":14035:14055   */\n      tag_513\n        /* \"#utility.yul\":14053:14054   */\n      dup4\n        /* \"#utility.yul\":14035:14055   */\n      tag_320\n      jump\t// in\n    tag_513:\n        /* \"#utility.yul\":14030:14055   */\n      swap3\n      pop\n        /* \"#utility.yul\":14079:14080   */\n      dup3\n        /* \"#utility.yul\":14076:14077   */\n      dup3\n        /* \"#utility.yul\":14072:14081   */\n      sub\n        /* \"#utility.yul\":14064:14081   */\n      swap1\n      pop\n        /* \"#utility.yul\":14103:14104   */\n      dup2\n        /* \"#utility.yul\":14097:14101   */\n      dup2\n        /* \"#utility.yul\":14094:14105   */\n      gt\n        /* \"#utility.yul\":14091:14128   */\n      iszero\n      tag_514\n      jumpi\n        /* \"#utility.yul\":14108:14126   */\n      tag_515\n      tag_346\n      jump\t// in\n    tag_515:\n        /* \"#utility.yul\":14091:14128   */\n    tag_514:\n        /* \"#utility.yul\":13941:14135   */\n      swap3\n      swap2\n      pop\n      pop\n      jump\t// out\n        /* \"#utility.yul\":14141:14259   */\n    tag_349:\n        /* \"#utility.yul\":14228:14252   */\n      tag_517\n        /* \"#utility.yul\":14246:14251   */\n      dup2\n        /* \"#utility.yul\":14228:14252   */\n      tag_317\n      jump\t// in\n    tag_517:\n        /* \"#utility.yul\":14223:14226   */\n      dup3\n        /* \"#utility.yul\":14216:14253   */\n      mstore\n        /* \"#utility.yul\":14141:14259   */\n      pop\n      pop\n      jump\t// out\n        /* \"#utility.yul\":14265:14597   */\n    tag_162:\n        /* \"#utility.yul\":14386:14390   */\n      0x00\n        /* \"#utility.yul\":14424:14426   */\n      0x40\n        /* \"#utility.yul\":14413:14422   */\n      dup3\n        /* \"#utility.yul\":14409:14427   */\n      add\n        /* \"#utility.yul\":14401:14427   */\n      swap1\n      pop\n        /* \"#utility.yul\":14437:14508   */\n      tag_519\n        /* \"#utility.yul\":14505:14506   */\n      0x00\n        /* \"#utility.yul\":14494:14503   */\n      dup4\n        /* \"#utility.yul\":14490:14507   */\n      add\n        /* \"#utility.yul\":14481:14487   */\n      dup6\n        /* \"#utility.yul\":14437:14508   */\n      tag_349\n      jump\t// in\n    tag_519:\n        /* \"#utility.yul\":14518:14590   */\n      tag_520\n        /* \"#utility.yul\":14586:14588   */\n      0x20\n        /* \"#utility.yul\":14575:14584   */\n      dup4\n        /* \"#utility.yul\":14571:14589   */\n      add\n        /* \"#utility.yul\":14562:14568   */\n      dup5\n        /* \"#utility.yul\":14518:14590   */\n      tag_330\n      jump\t// in\n    tag_520:\n        /* \"#utility.yul\":14265:14597   */\n      swap4\n      swap3\n      pop\n      pop\n      pop\n      jump\t// out\n        /* \"#utility.yul\":14603:14719   */\n    tag_350:\n        /* \"#utility.yul\":14673:14694   */\n      tag_522\n        /* \"#utility.yul\":14688:14693   */\n      dup2\n        /* \"#utility.yul\":14673:14694   */\n      tag_323\n      jump\t// in\n    tag_522:\n        /* \"#utility.yul\":14666:14671   */\n      dup2\n        /* \"#utility.yul\":14663:14695   */\n      eq\n        /* \"#utility.yul\":14653:14713   */\n      tag_523\n      jumpi\n        /* \"#utility.yul\":14709:14710   */\n      0x00\n        /* \"#utility.yul\":14706:14707   */\n      dup1\n        /* \"#utility.yul\":14699:14711   */\n      revert\n        /* \"#utility.yul\":14653:14713   */\n    tag_523:\n        /* \"#utility.yul\":14603:14719   */\n      pop\n      jump\t// out\n        /* \"#utility.yul\":14725:14862   */\n    tag_351:\n        /* \"#utility.yul\":14779:14784   */\n      0x00\n        /* \"#utility.yul\":14810:14816   */\n      dup2\n        /* \"#utility.yul\":14804:14817   */\n      mload\n        /* \"#utility.yul\":14795:14817   */\n      swap1\n      pop\n        /* \"#utility.yul\":14826:14856   */\n      tag_525\n        /* \"#utility.yul\":14850:14855   */\n      dup2\n        /* \"#utility.yul\":14826:14856   */\n      tag_350\n      jump\t// in\n    tag_525:\n        /* \"#utility.yul\":14725:14862   */\n      swap3\n      swap2\n      pop\n      pop\n      jump\t// out\n        /* \"#utility.yul\":14868:15213   */\n    tag_166:\n        /* \"#utility.yul\":14935:14941   */\n      0x00\n        /* \"#utility.yul\":14984:14986   */\n      0x20\n        /* \"#utility.yul\":14972:14981   */\n      dup3\n        /* \"#utility.yul\":14963:14970   */\n      dup5\n        /* \"#utility.yul\":14959:14982   */\n      sub\n        /* \"#utility.yul\":14955:14987   */\n      slt\n        /* \"#utility.yul\":14952:15071   */\n      iszero\n      tag_527\n      jumpi\n        /* \"#utility.yul\":14990:15069   */\n      tag_528\n      tag_314\n      jump\t// in\n    tag_528:\n        /* \"#utility.yul\":14952:15071   */\n    tag_527:\n        /* \"#utility.yul\":15110:15111   */\n      0x00\n        /* \"#utility.yul\":15135:15196   */\n      tag_529\n        /* \"#utility.yul\":15188:15195   */\n      dup5\n        /* \"#utility.yul\":15179:15185   */\n      dup3\n        /* \"#utility.yul\":15168:15177   */\n      dup6\n        /* \"#utility.yul\":15164:15186   */\n      add\n        /* \"#utility.yul\":15135:15196   */\n      tag_351\n      jump\t// in\n    tag_529:\n        /* \"#utility.yul\":15125:15196   */\n      swap2\n      pop\n        /* \"#utility.yul\":15081:15206   */\n      pop\n        /* \"#utility.yul\":14868:15213   */\n      swap3\n      swap2\n      pop\n      pop\n      jump\t// out\n        /* \"#utility.yul\":15219:15394   */\n    tag_352:\n        /* \"#utility.yul\":15359:15386   */\n      0x564e5354206d757374206d617463682042544320707269636500000000000000\n        /* \"#utility.yul\":15355:15356   */\n      0x00\n        /* \"#utility.yul\":15347:15353   */\n      dup3\n        /* \"#utility.yul\":15343:15357   */\n      add\n        /* \"#utility.yul\":15336:15387   */\n      mstore\n        /* \"#utility.yul\":15219:15394   */\n      pop\n      jump\t// out\n        /* \"#utility.yul\":15400:15766   */\n    tag_353:\n        /* \"#utility.yul\":15542:15545   */\n      0x00\n        /* \"#utility.yul\":15563:15630   */\n      tag_532\n        /* \"#utility.yul\":15627:15629   */\n      0x19\n        /* \"#utility.yul\":15622:15625   */\n      dup4\n        /* \"#utility.yul\":15563:15630   */\n      tag_309\n      jump\t// in\n    tag_532:\n        /* \"#utility.yul\":15556:15630   */\n      swap2\n      pop\n        /* \"#utility.yul\":15639:15732   */\n      tag_533\n        /* \"#utility.yul\":15728:15731   */\n      dup3\n        /* \"#utility.yul\":15639:15732   */\n      tag_352\n      jump\t// in\n    tag_533:\n        /* \"#utility.yul\":15757:15759   */\n      0x20\n        /* \"#utility.yul\":15752:15755   */\n      dup3\n        /* \"#utility.yul\":15748:15760   */\n      add\n        /* \"#utility.yul\":15741:15760   */\n      swap1\n      pop\n        /* \"#utility.yul\":15400:15766   */\n      swap2\n      swap1\n      pop\n      jump\t// out\n        /* \"#utility.yul\":15772:16191   */\n    tag_176:\n        /* \"#utility.yul\":15938:15942   */\n      0x00\n        /* \"#utility.yul\":15976:15978   */\n      0x20\n        /* \"#utility.yul\":15965:15974   */\n      dup3\n        /* \"#utility.yul\":15961:15979   */\n      add\n        /* \"#utility.yul\":15953:15979   */\n      swap1\n      pop\n        /* \"#utility.yul\":16025:16034   */\n      dup2\n        /* \"#utility.yul\":16019:16023   */\n      dup2\n        /* \"#utility.yul\":16015:16035   */\n      sub\n        /* \"#utility.yul\":16011:16012   */\n      0x00\n        /* \"#utility.yul\":16000:16009   */\n      dup4\n        /* \"#utility.yul\":15996:16013   */\n      add\n        /* \"#utility.yul\":15989:16036   */\n      mstore\n        /* \"#utility.yul\":16053:16184   */\n      tag_535\n        /* \"#utility.yul\":16179:16183   */\n      dup2\n        /* \"#utility.yul\":16053:16184   */\n      tag_353\n      jump\t// in\n    tag_535:\n        /* \"#utility.yul\":16045:16184   */\n      swap1\n      pop\n        /* \"#utility.yul\":15772:16191   */\n      swap2\n      swap1\n      pop\n      jump\t// out\n        /* \"#utility.yul\":16197:16639   */\n    tag_178:\n        /* \"#utility.yul\":16346:16350   */\n      0x00\n        /* \"#utility.yul\":16384:16386   */\n      0x60\n        /* \"#utility.yul\":16373:16382   */\n      dup3\n        /* \"#utility.yul\":16369:16387   */\n      add\n        /* \"#utility.yul\":16361:16387   */\n      swap1\n      pop\n        /* \"#utility.yul\":16397:16468   */\n      tag_537\n        /* \"#utility.yul\":16465:16466   */\n      0x00\n        /* \"#utility.yul\":16454:16463   */\n      dup4\n        /* \"#utility.yul\":16450:16467   */\n      add\n        /* \"#utility.yul\":16441:16447   */\n      dup7\n        /* \"#utility.yul\":16397:16468   */\n      tag_349\n      jump\t// in\n    tag_537:\n        /* \"#utility.yul\":16478:16550   */\n      tag_538\n        /* \"#utility.yul\":16546:16548   */\n      0x20\n        /* \"#utility.yul\":16535:16544   */\n      dup4\n        /* \"#utility.yul\":16531:16549   */\n      add\n        /* \"#utility.yul\":16522:16528   */\n      dup6\n        /* \"#utility.yul\":16478:16550   */\n      tag_349\n      jump\t// in\n    tag_538:\n        /* \"#utility.yul\":16560:16632   */\n      tag_539\n        /* \"#utility.yul\":16628:16630   */\n      0x40\n        /* \"#utility.yul\":16617:16626   */\n      dup4\n        /* \"#utility.yul\":16613:16631   */\n      add\n        /* \"#utility.yul\":16604:16610   */\n      dup5\n        /* \"#utility.yul\":16560:16632   */\n      tag_330\n      jump\t// in\n    tag_539:\n        /* \"#utility.yul\":16197:16639   */\n      swap5\n      swap4\n      pop\n      pop\n      pop\n      pop\n      jump\t// out\n        /* \"#utility.yul\":16645:16806   */\n    tag_354:\n        /* \"#utility.yul\":16785:16798   */\n      0x5a45524f5f534841524553000000000000000000000000000000000000000000\n        /* \"#utility.yul\":16781:16782   */\n      0x00\n        /* \"#utility.yul\":16773:16779   */\n      dup3\n        /* \"#utility.yul\":16769:16783   */\n      add\n        /* \"#utility.yul\":16762:16799   */\n      mstore\n        /* \"#utility.yul\":16645:16806   */\n      pop\n      jump\t// out\n        /* \"#utility.yul\":16812:17178   */\n    tag_355:\n        /* \"#utility.yul\":16954:16957   */\n      0x00\n        /* \"#utility.yul\":16975:17042   */\n      tag_542\n        /* \"#utility.yul\":17039:17041   */\n      0x0b\n        /* \"#utility.yul\":17034:17037   */\n      dup4\n        /* \"#utility.yul\":16975:17042   */\n      tag_309\n      jump\t// in\n    tag_542:\n        /* \"#utility.yul\":16968:17042   */\n      swap2\n      pop\n        /* \"#utility.yul\":17051:17144   */\n      tag_543\n        /* \"#utility.yul\":17140:17143   */\n      dup3\n        /* \"#utility.yul\":17051:17144   */\n      tag_354\n      jump\t// in\n    tag_543:\n        /* \"#utility.yul\":17169:17171   */\n      0x20\n        /* \"#utility.yul\":17164:17167   */\n      dup3\n        /* \"#utility.yul\":17160:17172   */\n      add\n        /* \"#utility.yul\":17153:17172   */\n      swap1\n      pop\n        /* \"#utility.yul\":16812:17178   */\n      swap2\n      swap1\n      pop\n      jump\t// out\n        /* \"#utility.yul\":17184:17603   */\n    tag_202:\n        /* \"#utility.yul\":17350:17354   */\n      0x00\n        /* \"#utility.yul\":17388:17390   */\n      0x20\n        /* \"#utility.yul\":17377:17386   */\n      dup3\n        /* \"#utility.yul\":17373:17391   */\n      add\n        /* \"#utility.yul\":17365:17391   */\n      swap1\n      pop\n        /* \"#utility.yul\":17437:17446   */\n      dup2\n        /* \"#utility.yul\":17431:17435   */\n      dup2\n        /* \"#utility.yul\":17427:17447   */\n      sub\n        /* \"#utility.yul\":17423:17424   */\n      0x00\n        /* \"#utility.yul\":17412:17421   */\n      dup4\n        /* \"#utility.yul\":17408:17425   */\n      add\n        /* \"#utility.yul\":17401:17448   */\n      mstore\n        /* \"#utility.yul\":17465:17596   */\n      tag_545\n        /* \"#utility.yul\":17591:17595   */\n      dup2\n        /* \"#utility.yul\":17465:17596   */\n      tag_355\n      jump\t// in\n    tag_545:\n        /* \"#utility.yul\":17457:17596   */\n      swap1\n      pop\n        /* \"#utility.yul\":17184:17603   */\n      swap2\n      swap1\n      pop\n      jump\t// out\n        /* \"#utility.yul\":17609:17800   */\n    tag_208:\n        /* \"#utility.yul\":17649:17652   */\n      0x00\n        /* \"#utility.yul\":17668:17688   */\n      tag_547\n        /* \"#utility.yul\":17686:17687   */\n      dup3\n        /* \"#utility.yul\":17668:17688   */\n      tag_320\n      jump\t// in\n    tag_547:\n        /* \"#utility.yul\":17663:17688   */\n      swap2\n      pop\n        /* \"#utility.yul\":17702:17722   */\n      tag_548\n        /* \"#utility.yul\":17720:17721   */\n      dup4\n        /* \"#utility.yul\":17702:17722   */\n      tag_320\n      jump\t// in\n    tag_548:\n        /* \"#utility.yul\":17697:17722   */\n      swap3\n      pop\n        /* \"#utility.yul\":17745:17746   */\n      dup3\n        /* \"#utility.yul\":17742:17743   */\n      dup3\n        /* \"#utility.yul\":17738:17747   */\n      add\n        /* \"#utility.yul\":17731:17747   */\n      swap1\n      pop\n        /* \"#utility.yul\":17766:17769   */\n      dup1\n        /* \"#utility.yul\":17763:17764   */\n      dup3\n        /* \"#utility.yul\":17760:17770   */\n      gt\n        /* \"#utility.yul\":17757:17793   */\n      iszero\n      tag_549\n      jumpi\n        /* \"#utility.yul\":17773:17791   */\n      tag_550\n      tag_346\n      jump\t// in\n    tag_550:\n        /* \"#utility.yul\":17757:17793   */\n    tag_549:\n        /* \"#utility.yul\":17609:17800   */\n      swap3\n      swap2\n      pop\n      pop\n      jump\t// out\n        /* \"#utility.yul\":17806:17968   */\n    tag_356:\n        /* \"#utility.yul\":17946:17960   */\n      0x5a45524f20414444524553530000000000000000000000000000000000000000\n        /* \"#utility.yul\":17942:17943   */\n      0x00\n        /* \"#utility.yul\":17934:17940   */\n      dup3\n        /* \"#utility.yul\":17930:17944   */\n      add\n        /* \"#utility.yul\":17923:17961   */\n      mstore\n        /* \"#utility.yul\":17806:17968   */\n      pop\n      jump\t// out\n        /* \"#utility.yul\":17974:18340   */\n    tag_357:\n        /* \"#utility.yul\":18116:18119   */\n      0x00\n        /* \"#utility.yul\":18137:18204   */\n      tag_553\n        /* \"#utility.yul\":18201:18203   */\n      0x0c\n        /* \"#utility.yul\":18196:18199   */\n      dup4\n        /* \"#utility.yul\":18137:18204   */\n      tag_309\n      jump\t// in\n    tag_553:\n        /* \"#utility.yul\":18130:18204   */\n      swap2\n      pop\n        /* \"#utility.yul\":18213:18306   */\n      tag_554\n        /* \"#utility.yul\":18302:18305   */\n      dup3\n        /* \"#utility.yul\":18213:18306   */\n      tag_356\n      jump\t// in\n    tag_554:\n        /* \"#utility.yul\":18331:18333   */\n      0x20\n        /* \"#utility.yul\":18326:18329   */\n      dup3\n        /* \"#utility.yul\":18322:18334   */\n      add\n        /* \"#utility.yul\":18315:18334   */\n      swap1\n      pop\n        /* \"#utility.yul\":17974:18340   */\n      swap2\n      swap1\n      pop\n      jump\t// out\n        /* \"#utility.yul\":18346:18765   */\n    tag_216:\n        /* \"#utility.yul\":18512:18516   */\n      0x00\n        /* \"#utility.yul\":18550:18552   */\n      0x20\n        /* \"#utility.yul\":18539:18548   */\n      dup3\n        /* \"#utility.yul\":18535:18553   */\n      add\n        /* \"#utility.yul\":18527:18553   */\n      swap1\n      pop\n        /* \"#utility.yul\":18599:18608   */\n      dup2\n        /* \"#utility.yul\":18593:18597   */\n      dup2\n        /* \"#utility.yul\":18589:18609   */\n      sub\n        /* \"#utility.yul\":18585:18586   */\n      0x00\n        /* \"#utility.yul\":18574:18583   */\n      dup4\n        /* \"#utility.yul\":18570:18587   */\n      add\n        /* \"#utility.yul\":18563:18610   */\n      mstore\n        /* \"#utility.yul\":18627:18758   */\n      tag_556\n        /* \"#utility.yul\":18753:18757   */\n      dup2\n        /* \"#utility.yul\":18627:18758   */\n      tag_357\n      jump\t// in\n    tag_556:\n        /* \"#utility.yul\":18619:18758   */\n      swap1\n      pop\n        /* \"#utility.yul\":18346:18765   */\n      swap2\n      swap1\n      pop\n      jump\t// out\n        /* \"#utility.yul\":18771:19213   */\n    tag_259:\n        /* \"#utility.yul\":18920:18924   */\n      0x00\n        /* \"#utility.yul\":18958:18960   */\n      0x60\n        /* \"#utility.yul\":18947:18956   */\n      dup3\n        /* \"#utility.yul\":18943:18961   */\n      add\n        /* \"#utility.yul\":18935:18961   */\n      swap1\n      pop\n        /* \"#utility.yul\":18971:19042   */\n      tag_558\n        /* \"#utility.yul\":19039:19040   */\n      0x00\n        /* \"#utility.yul\":19028:19037   */\n      dup4\n        /* \"#utility.yul\":19024:19041   */\n      add\n        /* \"#utility.yul\":19015:19021   */\n      dup7\n        /* \"#utility.yul\":18971:19042   */\n      tag_349\n      jump\t// in\n    tag_558:\n        /* \"#utility.yul\":19052:19124   */\n      tag_559\n        /* \"#utility.yul\":19120:19122   */\n      0x20\n        /* \"#utility.yul\":19109:19118   */\n      dup4\n        /* \"#utility.yul\":19105:19123   */\n      add\n        /* \"#utility.yul\":19096:19102   */\n      dup6\n        /* \"#utility.yul\":19052:19124   */\n      tag_330\n      jump\t// in\n    tag_559:\n        /* \"#utility.yul\":19134:19206   */\n      tag_560\n        /* \"#utility.yul\":19202:19204   */\n      0x40\n        /* \"#utility.yul\":19191:19200   */\n      dup4\n        /* \"#utility.yul\":19187:19205   */\n      add\n        /* \"#utility.yul\":19178:19184   */\n      dup5\n        /* \"#utility.yul\":19134:19206   */\n      tag_330\n      jump\t// in\n    tag_560:\n        /* \"#utility.yul\":18771:19213   */\n      swap5\n      swap4\n      pop\n      pop\n      pop\n      pop\n      jump\t// out\n        /* \"#utility.yul\":19219:19441   */\n    tag_264:\n        /* \"#utility.yul\":19312:19316   */\n      0x00\n        /* \"#utility.yul\":19350:19352   */\n      0x20\n        /* \"#utility.yul\":19339:19348   */\n      dup3\n        /* \"#utility.yul\":19335:19353   */\n      add\n        /* \"#utility.yul\":19327:19353   */\n      swap1\n      pop\n        /* \"#utility.yul\":19363:19434   */\n      tag_562\n        /* \"#utility.yul\":19431:19432   */\n      0x00\n        /* \"#utility.yul\":19420:19429   */\n      dup4\n        /* \"#utility.yul\":19416:19433   */\n      add\n        /* \"#utility.yul\":19407:19413   */\n      dup5\n        /* \"#utility.yul\":19363:19434   */\n      tag_349\n      jump\t// in\n    tag_562:\n        /* \"#utility.yul\":19219:19441   */\n      swap3\n      swap2\n      pop\n      pop\n      jump\t// out\n\n    auxdata: 0xa264697066735822122001ba2baeb0ac6f3c71d1f741cf1a475e8bbe155b7359e076be4b164fb7b784e664736f6c634300081a0033\n}\n",
				"bytecode": {
					"linkReferences": {},
					"object": "60e06040526003600555348015610014575f80fd5b5060405161288138038061288183398181016040528101906100369190610206565b6040518060400160405280600381526020017f56495300000000000000000000000000000000000000000000000000000000008152506040518060400160405280600881526020017f566965745377617000000000000000000000000000000000000000000000000081525081600390816100b19190610490565b5080600490816100c19190610490565b5050508273ffffffffffffffffffffffffffffffffffffffff1660808173ffffffffffffffffffffffffffffffffffffffff16815250508173ffffffffffffffffffffffffffffffffffffffff1660a08173ffffffffffffffffffffffffffffffffffffffff16815250508073ffffffffffffffffffffffffffffffffffffffff1660c08173ffffffffffffffffffffffffffffffffffffffff16815250503360085f6101000a81548173ffffffffffffffffffffffffffffffffffffffff021916908373ffffffffffffffffffffffffffffffffffffffff16021790555050505061055f565b5f80fd5b5f73ffffffffffffffffffffffffffffffffffffffff82169050919050565b5f6101d5826101ac565b9050919050565b6101e5816101cb565b81146101ef575f80fd5b50565b5f81519050610200816101dc565b92915050565b5f805f6060848603121561021d5761021c6101a8565b5b5f61022a868287016101f2565b935050602061023b868287016101f2565b925050604061024c868287016101f2565b9150509250925092565b5f81519050919050565b7f4e487b71000000000000000000000000000000000000000000000000000000005f52604160045260245ffd5b7f4e487b71000000000000000000000000000000000000000000000000000000005f52602260045260245ffd5b5f60028204905060018216806102d157607f821691505b6020821081036102e4576102e361028d565b5b50919050565b5f819050815f5260205f209050919050565b5f6020601f8301049050919050565b5f82821b905092915050565b5f600883026103467fffffffffffffffffffffffffffffffffffffffffffffffffffffffffffffffff8261030b565b610350868361030b565b95508019841693508086168417925050509392505050565b5f819050919050565b5f819050919050565b5f61039461038f61038a84610368565b610371565b610368565b9050919050565b5f819050919050565b6103ad8361037a565b6103c16103b98261039b565b848454610317565b825550505050565b5f90565b6103d56103c9565b6103e08184846103a4565b505050565b5b81811015610403576103f85f826103cd565b6001810190506103e6565b5050565b601f82111561044857610419816102ea565b610422846102fc565b81016020851015610431578190505b61044561043d856102fc565b8301826103e5565b50505b505050565b5f82821c905092915050565b5f6104685f198460080261044d565b1980831691505092915050565b5f6104808383610459565b9150826002028217905092915050565b61049982610256565b67ffffffffffffffff8111156104b2576104b1610260565b5b6104bc82546102ba565b6104c7828285610407565b5f60209050601f8311600181146104f8575f84156104e6578287015190505b6104f08582610475565b865550610557565b601f198416610506866102ea565b5f5b8281101561052d57848901518255600182019150602085019450602081019050610508565b8683101561054a5784890151610546601f891682610459565b8355505b6001600288020188555050505b505050505050565b60805160a05160c05161229d6105e45f395f81816104d1015261064301525f818161086701528181610a0301528181610cc801528181610d7701528181610de501526110ac01525f81816104a2015281816107cb0152818161096501528181610c7301528181610d2401528181610d9801528181610dc40152611008015261229d5ff3fe608060405234801561000f575f80fd5b506004361061011f575f3560e01c806370a08231116100ab578063a9059cbb1161006f578063a9059cbb14610322578063d004f0f714610352578063d21220a714610382578063dd62ed3e146103a0578063ddca3f43146103d05761011f565b806370a0823114610255578063741bef1a1461028557806395d89b41146102a35780639c8f9f23146102c15780639cd441da146102f25761011f565b80631b712739116100f25780631b712739146101ad57806323b872dd146101cb578063313ce567146101fb578063443cb4bc146102195780635a76f25e146102375761011f565b806306fdde0314610123578063095ea7b3146101415780630dfe16811461017157806318160ddd1461018f575b5f80fd5b61012b6103ee565b60405161013891906118ea565b60405180910390f35b61015b6004803603810190610156919061199b565b61047e565b60405161016891906119f3565b60405180910390f35b6101796104a0565b6040516101869190611a67565b60405180910390f35b6101976104c4565b6040516101a49190611a8f565b60405180910390f35b6101b56104cd565b6040516101c29190611a8f565b60405180910390f35b6101e560048036038101906101e09190611aa8565b6105ba565b6040516101f291906119f3565b60405180910390f35b6102036105e8565b6040516102109190611b13565b60405180910390f35b6102216105f0565b60405161022e9190611a8f565b60405180910390f35b61023f6105f6565b60405161024c9190611a8f565b60405180910390f35b61026f600480360381019061026a9190611b2c565b6105fc565b60405161027c9190611a8f565b60405180910390f35b61028d610641565b60405161029a9190611b77565b60405180910390f35b6102ab610665565b6040516102b891906118ea565b60405180910390f35b6102db60048036038101906102d69190611b90565b6106f5565b6040516102e9929190611bbb565b60405180910390f35b61030c60048036038101906103079190611be2565b610906565b6040516103199190611a8f565b60405180910390f35b61033c6004803603810190610337919061199b565b610b9e565b60405161034991906119f3565b60405180910390f35b61036c6004803603810190610367919061199b565b610bc0565b6040516103799190611a8f565b60405180910390f35b61038a6110aa565b6040516103979190611a67565b60405180910390f35b6103ba60048036038101906103b59190611c20565b6110ce565b6040516103c79190611a8f565b60405180910390f35b6103d8611150565b6040516103e59190611a8f565b60405180910390f35b6060600380546103fd90611c8b565b80601f016020809104026020016040519081016040528092919081815260200182805461042990611c8b565b80156104745780601f1061044b57610100808354040283529160200191610474565b820191905f5260205f20905b81548152906001019060200180831161045757829003601f168201915b5050505050905090565b5f80610488611156565b905061049581858561115d565b600191505092915050565b7f000000000000000000000000000000000000000000000000000000000000000081565b5f600254905090565b5f807f000000000000000000000000000000000000000000000000000000000000000073ffffffffffffffffffffffffffffffffffffffff1663feaf968c6040518163ffffffff1660e01b815260040160a060405180830381865afa158015610538573d5f803e3d5ffd5b505050506040513d601f19601f8201168201806040525081019061055c9190611d41565b5050509150505f81136105a4576040517f08c379a000000000000000000000000000000000000000000000000000000000815260040161059b90611e02565b60405180910390fd5b6305f5e100816105b49190611e7a565b91505090565b5f806105c4611156565b90506105d185828561116f565b6105dc858585611202565b60019150509392505050565b5f6012905090565b60065481565b60075481565b5f805f8373ffffffffffffffffffffffffffffffffffffffff1673ffffffffffffffffffffffffffffffffffffffff1681526020019081526020015f20549050919050565b7f000000000000000000000000000000000000000000000000000000000000000081565b60606004805461067490611c8b565b80601f01602080910402602001604051908101604052809291908181526020018280546106a090611c8b565b80156106eb5780601f106106c2576101008083540402835291602001916106eb565b820191905f5260205f20905b8154815290600101906020018083116106ce57829003601f168201915b5050505050905090565b5f806106ff6104c4565b6006548461070d9190611ee2565b6107179190611f23565b91506107216104c4565b6007548461072f9190611ee2565b6107399190611f23565b90505f8211801561074957505f81115b610788576040517f08c379a000000000000000000000000000000000000000000000000000000000815260040161077f90611f9d565b60405180910390fd5b6107a533670de0b6b3a7640000856107a09190611ee2565b6112f2565b6107c9826006546107b69190611fbb565b826007546107c49190611fbb565b611371565b7f000000000000000000000000000000000000000000000000000000000000000073ffffffffffffffffffffffffffffffffffffffff1663a9059cbb33846040518363ffffffff1660e01b8152600401610824929190611ffd565b6020604051808303815f875af1158015610840573d5f803e3d5ffd5b505050506040513d601f19601f82011682018060405250810190610864919061204e565b507f000000000000000000000000000000000000000000000000000000000000000073ffffffffffffffffffffffffffffffffffffffff1663a9059cbb33836040518363ffffffff1660e01b81526004016108c0929190611ffd565b6020604051808303815f875af11580156108dc573d5f803e3d5ffd5b505050506040513d601f19601f82011682018060405250810190610900919061204e565b50915091565b5f806109106104cd565b90505f818461091f9190611ee2565b9050808514610963576040517f08c379a000000000000000000000000000000000000000000000000000000000815260040161095a906120c3565b60405180910390fd5b7f000000000000000000000000000000000000000000000000000000000000000073ffffffffffffffffffffffffffffffffffffffff166323b872dd3330886040518463ffffffff1660e01b81526004016109c0939291906120e1565b6020604051808303815f875af11580156109dc573d5f803e3d5ffd5b505050506040513d601f19601f82011682018060405250810190610a00919061204e565b507f000000000000000000000000000000000000000000000000000000000000000073ffffffffffffffffffffffffffffffffffffffff166323b872dd3330876040518463ffffffff1660e01b8152600401610a5e939291906120e1565b6020604051808303815f875af1158015610a7a573d5f803e3d5ffd5b505050506040513d601f19601f82011682018060405250810190610a9e919061204e565b505f610aa86104c4565b03610ac857610ac18486610abc9190611ee2565b611383565b9250610b13565b610b10600654610ad66104c4565b87610ae19190611ee2565b610aeb9190611f23565b600754610af66104c4565b87610b019190611ee2565b610b0b9190611f23565b6113fa565b92505b5f8311610b55576040517f08c379a0000000000000000000000000000000000000000000000000000000008152600401610b4c90612160565b60405180910390fd5b610b7233670de0b6b3a764000085610b6d9190611ee2565b611413565b610b9685600654610b83919061217e565b85600754610b91919061217e565b611371565b505092915050565b5f80610ba8611156565b9050610bb5818585611202565b600191505092915050565b5f8073ffffffffffffffffffffffffffffffffffffffff168373ffffffffffffffffffffffffffffffffffffffff1603610c2f576040517f08c379a0000000000000000000000000000000000000000000000000000000008152600401610c26906121fb565b60405180910390fd5b5f8211610c71576040517f08c379a0000000000000000000000000000000000000000000000000000000008152600401610c6890611f9d565b60405180910390fd5b7f000000000000000000000000000000000000000000000000000000000000000073ffffffffffffffffffffffffffffffffffffffff168373ffffffffffffffffffffffffffffffffffffffff161480610d1657507f000000000000000000000000000000000000000000000000000000000000000073ffffffffffffffffffffffffffffffffffffffff168373ffffffffffffffffffffffffffffffffffffffff16145b610d1e575f80fd5b5f805f807f000000000000000000000000000000000000000000000000000000000000000073ffffffffffffffffffffffffffffffffffffffff168773ffffffffffffffffffffffffffffffffffffffff1614610dc2577f00000000000000000000000000000000000000000000000000000000000000007f0000000000000000000000000000000000000000000000000000000000000000600754600654610e0b565b7f00000000000000000000000000000000000000000000000000000000000000007f00000000000000000000000000000000000000000000000000000000000000006006546007545b93509350935093508373ffffffffffffffffffffffffffffffffffffffff166323b872dd3330896040518463ffffffff1660e01b8152600401610e50939291906120e1565b6020604051808303815f875af1158015610e6c573d5f803e3d5ffd5b505050506040513d601f19601f82011682018060405250810190610e90919061204e565b505f6103e86005546103e8610ea59190611fbb565b88610eb09190611ee2565b610eba9190611f23565b90508082610ec8919061217e565b8184610ed49190611ee2565b610ede9190611f23565b95508473ffffffffffffffffffffffffffffffffffffffff1663a9059cbb60085f9054906101000a900473ffffffffffffffffffffffffffffffffffffffff16838a610f2a9190611fbb565b6040518363ffffffff1660e01b8152600401610f47929190611ffd565b6020604051808303815f875af1158015610f63573d5f803e3d5ffd5b505050506040513d601f19601f82011682018060405250810190610f87919061204e565b508373ffffffffffffffffffffffffffffffffffffffff1663a9059cbb33886040518363ffffffff1660e01b8152600401610fc3929190611ffd565b6020604051808303815f875af1158015610fdf573d5f803e3d5ffd5b505050506040513d601f19601f82011682018060405250810190611003919061204e565b505f807f000000000000000000000000000000000000000000000000000000000000000073ffffffffffffffffffffffffffffffffffffffff168a73ffffffffffffffffffffffffffffffffffffffff16146110765787846110659190611fbb565b8386611071919061217e565b61108f565b8885611082919061217e565b888561108e9190611fbb565b5b9150915061109d8282611371565b5050505050505092915050565b7f000000000000000000000000000000000000000000000000000000000000000081565b5f60015f8473ffffffffffffffffffffffffffffffffffffffff1673ffffffffffffffffffffffffffffffffffffffff1681526020019081526020015f205f8373ffffffffffffffffffffffffffffffffffffffff1673ffffffffffffffffffffffffffffffffffffffff1681526020019081526020015f2054905092915050565b60055481565b5f33905090565b61116a8383836001611492565b505050565b5f61117a84846110ce565b90507fffffffffffffffffffffffffffffffffffffffffffffffffffffffffffffffff8110156111fc57818110156111ed578281836040517ffb8f41b20000000000000000000000000000000000000000000000000000000081526004016111e493929190612219565b60405180910390fd5b6111fb84848484035f611492565b5b50505050565b5f73ffffffffffffffffffffffffffffffffffffffff168373ffffffffffffffffffffffffffffffffffffffff1603611272575f6040517f96c6fd1e000000000000000000000000000000000000000000000000000000008152600401611269919061224e565b60405180910390fd5b5f73ffffffffffffffffffffffffffffffffffffffff168273ffffffffffffffffffffffffffffffffffffffff16036112e2575f6040517fec442f050000000000000000000000000000000000000000000000000000000081526004016112d9919061224e565b60405180910390fd5b6112ed838383611661565b505050565b5f73ffffffffffffffffffffffffffffffffffffffff168273ffffffffffffffffffffffffffffffffffffffff1603611362575f6040517f96c6fd1e000000000000000000000000000000000000000000000000000000008152600401611359919061224e565b60405180910390fd5b61136d825f83611661565b5050565b81600681905550806007819055505050565b5f60038211156113e8578190505f60016002846113a09190611f23565b6113aa919061217e565b90505b818110156113e25780915060028182856113c79190611f23565b6113d1919061217e565b6113db9190611f23565b90506113ad565b506113f5565b5f82146113f457600190505b5b919050565b5f81831115611409578161140b565b825b905092915050565b5f73ffffffffffffffffffffffffffffffffffffffff168273ffffffffffffffffffffffffffffffffffffffff1603611483575f6040517fec442f0500000000000000000000000000000000000000000000000000000000815260040161147a919061224e565b60405180910390fd5b61148e5f8383611661565b5050565b5f73ffffffffffffffffffffffffffffffffffffffff168473ffffffffffffffffffffffffffffffffffffffff1603611502575f6040517fe602df050000000000000000000000000000000000000000000000000000000081526004016114f9919061224e565b60405180910390fd5b5f73ffffffffffffffffffffffffffffffffffffffff168373ffffffffffffffffffffffffffffffffffffffff1603611572575f6040517f94280d62000000000000000000000000000000000000000000000000000000008152600401611569919061224e565b60405180910390fd5b8160015f8673ffffffffffffffffffffffffffffffffffffffff1673ffffffffffffffffffffffffffffffffffffffff1681526020019081526020015f205f8573ffffffffffffffffffffffffffffffffffffffff1673ffffffffffffffffffffffffffffffffffffffff1681526020019081526020015f2081905550801561165b578273ffffffffffffffffffffffffffffffffffffffff168473ffffffffffffffffffffffffffffffffffffffff167f8c5be1e5ebec7d5bd14f71427d1e84f3dd0314c0f7b2291e5b200ac8c7c3b925846040516116529190611a8f565b60405180910390a35b50505050565b5f73ffffffffffffffffffffffffffffffffffffffff168373ffffffffffffffffffffffffffffffffffffffff16036116b1578060025f8282546116a5919061217e565b9250508190555061177f565b5f805f8573ffffffffffffffffffffffffffffffffffffffff1673ffffffffffffffffffffffffffffffffffffffff1681526020019081526020015f205490508181101561173a578381836040517fe450d38c00000000000000000000000000000000000000000000000000000000815260040161173193929190612219565b60405180910390fd5b8181035f808673ffffffffffffffffffffffffffffffffffffffff1673ffffffffffffffffffffffffffffffffffffffff1681526020019081526020015f2081905550505b5f73ffffffffffffffffffffffffffffffffffffffff168273ffffffffffffffffffffffffffffffffffffffff16036117c6578060025f8282540392505081905550611810565b805f808473ffffffffffffffffffffffffffffffffffffffff1673ffffffffffffffffffffffffffffffffffffffff1681526020019081526020015f205f82825401925050819055505b8173ffffffffffffffffffffffffffffffffffffffff168373ffffffffffffffffffffffffffffffffffffffff167fddf252ad1be2c89b69c2b068fc378daa952ba7f163c4a11628f55a4df523b3ef8360405161186d9190611a8f565b60405180910390a3505050565b5f81519050919050565b5f82825260208201905092915050565b8281835e5f83830152505050565b5f601f19601f8301169050919050565b5f6118bc8261187a565b6118c68185611884565b93506118d6818560208601611894565b6118df816118a2565b840191505092915050565b5f6020820190508181035f83015261190281846118b2565b905092915050565b5f80fd5b5f73ffffffffffffffffffffffffffffffffffffffff82169050919050565b5f6119378261190e565b9050919050565b6119478161192d565b8114611951575f80fd5b50565b5f813590506119628161193e565b92915050565b5f819050919050565b61197a81611968565b8114611984575f80fd5b50565b5f8135905061199581611971565b92915050565b5f80604083850312156119b1576119b061190a565b5b5f6119be85828601611954565b92505060206119cf85828601611987565b9150509250929050565b5f8115159050919050565b6119ed816119d9565b82525050565b5f602082019050611a065f8301846119e4565b92915050565b5f819050919050565b5f611a2f611a2a611a258461190e565b611a0c565b61190e565b9050919050565b5f611a4082611a15565b9050919050565b5f611a5182611a36565b9050919050565b611a6181611a47565b82525050565b5f602082019050611a7a5f830184611a58565b92915050565b611a8981611968565b82525050565b5f602082019050611aa25f830184611a80565b92915050565b5f805f60608486031215611abf57611abe61190a565b5b5f611acc86828701611954565b9350506020611add86828701611954565b9250506040611aee86828701611987565b9150509250925092565b5f60ff82169050919050565b611b0d81611af8565b82525050565b5f602082019050611b265f830184611b04565b92915050565b5f60208284031215611b4157611b4061190a565b5b5f611b4e84828501611954565b91505092915050565b5f611b6182611a36565b9050919050565b611b7181611b57565b82525050565b5f602082019050611b8a5f830184611b68565b92915050565b5f60208284031215611ba557611ba461190a565b5b5f611bb284828501611987565b91505092915050565b5f604082019050611bce5f830185611a80565b611bdb6020830184611a80565b9392505050565b5f8060408385031215611bf857611bf761190a565b5b5f611c0585828601611987565b9250506020611c1685828601611987565b9150509250929050565b5f8060408385031215611c3657611c3561190a565b5b5f611c4385828601611954565b9250506020611c5485828601611954565b9150509250929050565b7f4e487b71000000000000000000000000000000000000000000000000000000005f52602260045260245ffd5b5f6002820490506001821680611ca257607f821691505b602082108103611cb557611cb4611c5e565b5b50919050565b5f69ffffffffffffffffffff82169050919050565b611cd981611cbb565b8114611ce3575f80fd5b50565b5f81519050611cf481611cd0565b92915050565b5f819050919050565b611d0c81611cfa565b8114611d16575f80fd5b50565b5f81519050611d2781611d03565b92915050565b5f81519050611d3b81611971565b92915050565b5f805f805f60a08688031215611d5a57611d5961190a565b5b5f611d6788828901611ce6565b9550506020611d7888828901611d19565b9450506040611d8988828901611d2d565b9350506060611d9a88828901611d2d565b9250506080611dab88828901611ce6565b9150509295509295909350565b7f496e76616c6964207072696365000000000000000000000000000000000000005f82015250565b5f611dec600d83611884565b9150611df782611db8565b602082019050919050565b5f6020820190508181035f830152611e1981611de0565b9050919050565b7f4e487b71000000000000000000000000000000000000000000000000000000005f52601260045260245ffd5b7f4e487b71000000000000000000000000000000000000000000000000000000005f52601160045260245ffd5b5f611e8482611cfa565b9150611e8f83611cfa565b925082611e9f57611e9e611e20565b5b60015f0383147f800000000000000000000000000000000000000000000000000000000000000083141615611ed757611ed6611e4d565b5b828205905092915050565b5f611eec82611968565b9150611ef783611968565b9250828202611f0581611968565b91508282048414831517611f1c57611f1b611e4d565b5b5092915050565b5f611f2d82611968565b9150611f3883611968565b925082611f4857611f47611e20565b5b828204905092915050565b7f5a45524f20414d4f554e540000000000000000000000000000000000000000005f82015250565b5f611f87600b83611884565b9150611f9282611f53565b602082019050919050565b5f6020820190508181035f830152611fb481611f7b565b9050919050565b5f611fc582611968565b9150611fd083611968565b9250828203905081811115611fe857611fe7611e4d565b5b92915050565b611ff78161192d565b82525050565b5f6040820190506120105f830185611fee565b61201d6020830184611a80565b9392505050565b61202d816119d9565b8114612037575f80fd5b50565b5f8151905061204881612024565b92915050565b5f602082840312156120635761206261190a565b5b5f6120708482850161203a565b91505092915050565b7f564e5354206d757374206d6174636820425443207072696365000000000000005f82015250565b5f6120ad601983611884565b91506120b882612079565b602082019050919050565b5f6020820190508181035f8301526120da816120a1565b9050919050565b5f6060820190506120f45f830186611fee565b6121016020830185611fee565b61210e6040830184611a80565b949350505050565b7f5a45524f5f5348415245530000000000000000000000000000000000000000005f82015250565b5f61214a600b83611884565b915061215582612116565b602082019050919050565b5f6020820190508181035f8301526121778161213e565b9050919050565b5f61218882611968565b915061219383611968565b92508282019050808211156121ab576121aa611e4d565b5b92915050565b7f5a45524f204144445245535300000000000000000000000000000000000000005f82015250565b5f6121e5600c83611884565b91506121f0826121b1565b602082019050919050565b5f6020820190508181035f830152612212816121d9565b9050919050565b5f60608201905061222c5f830186611fee565b6122396020830185611a80565b6122466040830184611a80565b949350505050565b5f6020820190506122615f830184611fee565b9291505056fea264697066735822122001ba2baeb0ac6f3c71d1f741cf1a475e8bbe155b7359e076be4b164fb7b784e664736f6c634300081a0033",
					"opcodes": "PUSH1 0xE0 PUSH1 0x40 MSTORE PUSH1 0x3 PUSH1 0x5 SSTORE CALLVALUE DUP1 ISZERO PUSH2 0x14 JUMPI PUSH0 DUP1 REVERT JUMPDEST POP PUSH1 0x40 MLOAD PUSH2 0x2881 CODESIZE SUB DUP1 PUSH2 0x2881 DUP4 CODECOPY DUP2 DUP2 ADD PUSH1 0x40 MSTORE DUP2 ADD SWAP1 PUSH2 0x36 SWAP2 SWAP1 PUSH2 0x206 JUMP JUMPDEST PUSH1 0x40 MLOAD DUP1 PUSH1 0x40 ADD PUSH1 0x40 MSTORE DUP1 PUSH1 0x3 DUP2 MSTORE PUSH1 0x20 ADD PUSH32 0x5649530000000000000000000000000000000000000000000000000000000000 DUP2 MSTORE POP PUSH1 0x40 MLOAD DUP1 PUSH1 0x40 ADD PUSH1 0x40 MSTORE DUP1 PUSH1 0x8 DUP2 MSTORE PUSH1 0x20 ADD PUSH32 0x5669657453776170000000000000000000000000000000000000000000000000 DUP2 MSTORE POP DUP2 PUSH1 0x3 SWAP1 DUP2 PUSH2 0xB1 SWAP2 SWAP1 PUSH2 0x490 JUMP JUMPDEST POP DUP1 PUSH1 0x4 SWAP1 DUP2 PUSH2 0xC1 SWAP2 SWAP1 PUSH2 0x490 JUMP JUMPDEST POP POP POP DUP3 PUSH20 0xFFFFFFFFFFFFFFFFFFFFFFFFFFFFFFFFFFFFFFFF AND PUSH1 0x80 DUP2 PUSH20 0xFFFFFFFFFFFFFFFFFFFFFFFFFFFFFFFFFFFFFFFF AND DUP2 MSTORE POP POP DUP2 PUSH20 0xFFFFFFFFFFFFFFFFFFFFFFFFFFFFFFFFFFFFFFFF AND PUSH1 0xA0 DUP2 PUSH20 0xFFFFFFFFFFFFFFFFFFFFFFFFFFFFFFFFFFFFFFFF AND DUP2 MSTORE POP POP DUP1 PUSH20 0xFFFFFFFFFFFFFFFFFFFFFFFFFFFFFFFFFFFFFFFF AND PUSH1 0xC0 DUP2 PUSH20 0xFFFFFFFFFFFFFFFFFFFFFFFFFFFFFFFFFFFFFFFF AND DUP2 MSTORE POP POP CALLER PUSH1 0x8 PUSH0 PUSH2 0x100 EXP DUP2 SLOAD DUP2 PUSH20 0xFFFFFFFFFFFFFFFFFFFFFFFFFFFFFFFFFFFFFFFF MUL NOT AND SWAP1 DUP4 PUSH20 0xFFFFFFFFFFFFFFFFFFFFFFFFFFFFFFFFFFFFFFFF AND MUL OR SWAP1 SSTORE POP POP POP POP PUSH2 0x55F JUMP JUMPDEST PUSH0 DUP1 REVERT JUMPDEST PUSH0 PUSH20 0xFFFFFFFFFFFFFFFFFFFFFFFFFFFFFFFFFFFFFFFF DUP3 AND SWAP1 POP SWAP2 SWAP1 POP JUMP JUMPDEST PUSH0 PUSH2 0x1D5 DUP3 PUSH2 0x1AC JUMP JUMPDEST SWAP1 POP SWAP2 SWAP1 POP JUMP JUMPDEST PUSH2 0x1E5 DUP2 PUSH2 0x1CB JUMP JUMPDEST DUP2 EQ PUSH2 0x1EF JUMPI PUSH0 DUP1 REVERT JUMPDEST POP JUMP JUMPDEST PUSH0 DUP2 MLOAD SWAP1 POP PUSH2 0x200 DUP2 PUSH2 0x1DC JUMP JUMPDEST SWAP3 SWAP2 POP POP JUMP JUMPDEST PUSH0 DUP1 PUSH0 PUSH1 0x60 DUP5 DUP7 SUB SLT ISZERO PUSH2 0x21D JUMPI PUSH2 0x21C PUSH2 0x1A8 JUMP JUMPDEST JUMPDEST PUSH0 PUSH2 0x22A DUP7 DUP3 DUP8 ADD PUSH2 0x1F2 JUMP JUMPDEST SWAP4 POP POP PUSH1 0x20 PUSH2 0x23B DUP7 DUP3 DUP8 ADD PUSH2 0x1F2 JUMP JUMPDEST SWAP3 POP POP PUSH1 0x40 PUSH2 0x24C DUP7 DUP3 DUP8 ADD PUSH2 0x1F2 JUMP JUMPDEST SWAP2 POP POP SWAP3 POP SWAP3 POP SWAP3 JUMP JUMPDEST PUSH0 DUP2 MLOAD SWAP1 POP SWAP2 SWAP1 POP JUMP JUMPDEST PUSH32 0x4E487B7100000000000000000000000000000000000000000000000000000000 PUSH0 MSTORE PUSH1 0x41 PUSH1 0x4 MSTORE PUSH1 0x24 PUSH0 REVERT JUMPDEST PUSH32 0x4E487B7100000000000000000000000000000000000000000000000000000000 PUSH0 MSTORE PUSH1 0x22 PUSH1 0x4 MSTORE PUSH1 0x24 PUSH0 REVERT JUMPDEST PUSH0 PUSH1 0x2 DUP3 DIV SWAP1 POP PUSH1 0x1 DUP3 AND DUP1 PUSH2 0x2D1 JUMPI PUSH1 0x7F DUP3 AND SWAP2 POP JUMPDEST PUSH1 0x20 DUP3 LT DUP2 SUB PUSH2 0x2E4 JUMPI PUSH2 0x2E3 PUSH2 0x28D JUMP JUMPDEST JUMPDEST POP SWAP2 SWAP1 POP JUMP JUMPDEST PUSH0 DUP2 SWAP1 POP DUP2 PUSH0 MSTORE PUSH1 0x20 PUSH0 KECCAK256 SWAP1 POP SWAP2 SWAP1 POP JUMP JUMPDEST PUSH0 PUSH1 0x20 PUSH1 0x1F DUP4 ADD DIV SWAP1 POP SWAP2 SWAP1 POP JUMP JUMPDEST PUSH0 DUP3 DUP3 SHL SWAP1 POP SWAP3 SWAP2 POP POP JUMP JUMPDEST PUSH0 PUSH1 0x8 DUP4 MUL PUSH2 0x346 PUSH32 0xFFFFFFFFFFFFFFFFFFFFFFFFFFFFFFFFFFFFFFFFFFFFFFFFFFFFFFFFFFFFFFFF DUP3 PUSH2 0x30B JUMP JUMPDEST PUSH2 0x350 DUP7 DUP4 PUSH2 0x30B JUMP JUMPDEST SWAP6 POP DUP1 NOT DUP5 AND SWAP4 POP DUP1 DUP7 AND DUP5 OR SWAP3 POP POP POP SWAP4 SWAP3 POP POP POP JUMP JUMPDEST PUSH0 DUP2 SWAP1 POP SWAP2 SWAP1 POP JUMP JUMPDEST PUSH0 DUP2 SWAP1 POP SWAP2 SWAP1 POP JUMP JUMPDEST PUSH0 PUSH2 0x394 PUSH2 0x38F PUSH2 0x38A DUP5 PUSH2 0x368 JUMP JUMPDEST PUSH2 0x371 JUMP JUMPDEST PUSH2 0x368 JUMP JUMPDEST SWAP1 POP SWAP2 SWAP1 POP JUMP JUMPDEST PUSH0 DUP2 SWAP1 POP SWAP2 SWAP1 POP JUMP JUMPDEST PUSH2 0x3AD DUP4 PUSH2 0x37A JUMP JUMPDEST PUSH2 0x3C1 PUSH2 0x3B9 DUP3 PUSH2 0x39B JUMP JUMPDEST DUP5 DUP5 SLOAD PUSH2 0x317 JUMP JUMPDEST DUP3 SSTORE POP POP POP POP JUMP JUMPDEST PUSH0 SWAP1 JUMP JUMPDEST PUSH2 0x3D5 PUSH2 0x3C9 JUMP JUMPDEST PUSH2 0x3E0 DUP2 DUP5 DUP5 PUSH2 0x3A4 JUMP JUMPDEST POP POP POP JUMP JUMPDEST JUMPDEST DUP2 DUP2 LT ISZERO PUSH2 0x403 JUMPI PUSH2 0x3F8 PUSH0 DUP3 PUSH2 0x3CD JUMP JUMPDEST PUSH1 0x1 DUP2 ADD SWAP1 POP PUSH2 0x3E6 JUMP JUMPDEST POP POP JUMP JUMPDEST PUSH1 0x1F DUP3 GT ISZERO PUSH2 0x448 JUMPI PUSH2 0x419 DUP2 PUSH2 0x2EA JUMP JUMPDEST PUSH2 0x422 DUP5 PUSH2 0x2FC JUMP JUMPDEST DUP2 ADD PUSH1 0x20 DUP6 LT ISZERO PUSH2 0x431 JUMPI DUP2 SWAP1 POP JUMPDEST PUSH2 0x445 PUSH2 0x43D DUP6 PUSH2 0x2FC JUMP JUMPDEST DUP4 ADD DUP3 PUSH2 0x3E5 JUMP JUMPDEST POP POP JUMPDEST POP POP POP JUMP JUMPDEST PUSH0 DUP3 DUP3 SHR SWAP1 POP SWAP3 SWAP2 POP POP JUMP JUMPDEST PUSH0 PUSH2 0x468 PUSH0 NOT DUP5 PUSH1 0x8 MUL PUSH2 0x44D JUMP JUMPDEST NOT DUP1 DUP4 AND SWAP2 POP POP SWAP3 SWAP2 POP POP JUMP JUMPDEST PUSH0 PUSH2 0x480 DUP4 DUP4 PUSH2 0x459 JUMP JUMPDEST SWAP2 POP DUP3 PUSH1 0x2 MUL DUP3 OR SWAP1 POP SWAP3 SWAP2 POP POP JUMP JUMPDEST PUSH2 0x499 DUP3 PUSH2 0x256 JUMP JUMPDEST PUSH8 0xFFFFFFFFFFFFFFFF DUP2 GT ISZERO PUSH2 0x4B2 JUMPI PUSH2 0x4B1 PUSH2 0x260 JUMP JUMPDEST JUMPDEST PUSH2 0x4BC DUP3 SLOAD PUSH2 0x2BA JUMP JUMPDEST PUSH2 0x4C7 DUP3 DUP3 DUP6 PUSH2 0x407 JUMP JUMPDEST PUSH0 PUSH1 0x20 SWAP1 POP PUSH1 0x1F DUP4 GT PUSH1 0x1 DUP2 EQ PUSH2 0x4F8 JUMPI PUSH0 DUP5 ISZERO PUSH2 0x4E6 JUMPI DUP3 DUP8 ADD MLOAD SWAP1 POP JUMPDEST PUSH2 0x4F0 DUP6 DUP3 PUSH2 0x475 JUMP JUMPDEST DUP7 SSTORE POP PUSH2 0x557 JUMP JUMPDEST PUSH1 0x1F NOT DUP5 AND PUSH2 0x506 DUP7 PUSH2 0x2EA JUMP JUMPDEST PUSH0 JUMPDEST DUP3 DUP2 LT ISZERO PUSH2 0x52D JUMPI DUP5 DUP10 ADD MLOAD DUP3 SSTORE PUSH1 0x1 DUP3 ADD SWAP2 POP PUSH1 0x20 DUP6 ADD SWAP5 POP PUSH1 0x20 DUP2 ADD SWAP1 POP PUSH2 0x508 JUMP JUMPDEST DUP7 DUP4 LT ISZERO PUSH2 0x54A JUMPI DUP5 DUP10 ADD MLOAD PUSH2 0x546 PUSH1 0x1F DUP10 AND DUP3 PUSH2 0x459 JUMP JUMPDEST DUP4 SSTORE POP JUMPDEST PUSH1 0x1 PUSH1 0x2 DUP9 MUL ADD DUP9 SSTORE POP POP POP JUMPDEST POP POP POP POP POP POP JUMP JUMPDEST PUSH1 0x80 MLOAD PUSH1 0xA0 MLOAD PUSH1 0xC0 MLOAD PUSH2 0x229D PUSH2 0x5E4 PUSH0 CODECOPY PUSH0 DUP2 DUP2 PUSH2 0x4D1 ADD MSTORE PUSH2 0x643 ADD MSTORE PUSH0 DUP2 DUP2 PUSH2 0x867 ADD MSTORE DUP2 DUP2 PUSH2 0xA03 ADD MSTORE DUP2 DUP2 PUSH2 0xCC8 ADD MSTORE DUP2 DUP2 PUSH2 0xD77 ADD MSTORE DUP2 DUP2 PUSH2 0xDE5 ADD MSTORE PUSH2 0x10AC ADD MSTORE PUSH0 DUP2 DUP2 PUSH2 0x4A2 ADD MSTORE DUP2 DUP2 PUSH2 0x7CB ADD MSTORE DUP2 DUP2 PUSH2 0x965 ADD MSTORE DUP2 DUP2 PUSH2 0xC73 ADD MSTORE DUP2 DUP2 PUSH2 0xD24 ADD MSTORE DUP2 DUP2 PUSH2 0xD98 ADD MSTORE DUP2 DUP2 PUSH2 0xDC4 ADD MSTORE PUSH2 0x1008 ADD MSTORE PUSH2 0x229D PUSH0 RETURN INVALID PUSH1 0x80 PUSH1 0x40 MSTORE CALLVALUE DUP1 ISZERO PUSH2 0xF JUMPI PUSH0 DUP1 REVERT JUMPDEST POP PUSH1 0x4 CALLDATASIZE LT PUSH2 0x11F JUMPI PUSH0 CALLDATALOAD PUSH1 0xE0 SHR DUP1 PUSH4 0x70A08231 GT PUSH2 0xAB JUMPI DUP1 PUSH4 0xA9059CBB GT PUSH2 0x6F JUMPI DUP1 PUSH4 0xA9059CBB EQ PUSH2 0x322 JUMPI DUP1 PUSH4 0xD004F0F7 EQ PUSH2 0x352 JUMPI DUP1 PUSH4 0xD21220A7 EQ PUSH2 0x382 JUMPI DUP1 PUSH4 0xDD62ED3E EQ PUSH2 0x3A0 JUMPI DUP1 PUSH4 0xDDCA3F43 EQ PUSH2 0x3D0 JUMPI PUSH2 0x11F JUMP JUMPDEST DUP1 PUSH4 0x70A08231 EQ PUSH2 0x255 JUMPI DUP1 PUSH4 0x741BEF1A EQ PUSH2 0x285 JUMPI DUP1 PUSH4 0x95D89B41 EQ PUSH2 0x2A3 JUMPI DUP1 PUSH4 0x9C8F9F23 EQ PUSH2 0x2C1 JUMPI DUP1 PUSH4 0x9CD441DA EQ PUSH2 0x2F2 JUMPI PUSH2 0x11F JUMP JUMPDEST DUP1 PUSH4 0x1B712739 GT PUSH2 0xF2 JUMPI DUP1 PUSH4 0x1B712739 EQ PUSH2 0x1AD JUMPI DUP1 PUSH4 0x23B872DD EQ PUSH2 0x1CB JUMPI DUP1 PUSH4 0x313CE567 EQ PUSH2 0x1FB JUMPI DUP1 PUSH4 0x443CB4BC EQ PUSH2 0x219 JUMPI DUP1 PUSH4 0x5A76F25E EQ PUSH2 0x237 JUMPI PUSH2 0x11F JUMP JUMPDEST DUP1 PUSH4 0x6FDDE03 EQ PUSH2 0x123 JUMPI DUP1 PUSH4 0x95EA7B3 EQ PUSH2 0x141 JUMPI DUP1 PUSH4 0xDFE1681 EQ PUSH2 0x171 JUMPI DUP1 PUSH4 0x18160DDD EQ PUSH2 0x18F JUMPI JUMPDEST PUSH0 DUP1 REVERT JUMPDEST PUSH2 0x12B PUSH2 0x3EE JUMP JUMPDEST PUSH1 0x40 MLOAD PUSH2 0x138 SWAP2 SWAP1 PUSH2 0x18EA JUMP JUMPDEST PUSH1 0x40 MLOAD DUP1 SWAP2 SUB SWAP1 RETURN JUMPDEST PUSH2 0x15B PUSH1 0x4 DUP1 CALLDATASIZE SUB DUP2 ADD SWAP1 PUSH2 0x156 SWAP2 SWAP1 PUSH2 0x199B JUMP JUMPDEST PUSH2 0x47E JUMP JUMPDEST PUSH1 0x40 MLOAD PUSH2 0x168 SWAP2 SWAP1 PUSH2 0x19F3 JUMP JUMPDEST PUSH1 0x40 MLOAD DUP1 SWAP2 SUB SWAP1 RETURN JUMPDEST PUSH2 0x179 PUSH2 0x4A0 JUMP JUMPDEST PUSH1 0x40 MLOAD PUSH2 0x186 SWAP2 SWAP1 PUSH2 0x1A67 JUMP JUMPDEST PUSH1 0x40 MLOAD DUP1 SWAP2 SUB SWAP1 RETURN JUMPDEST PUSH2 0x197 PUSH2 0x4C4 JUMP JUMPDEST PUSH1 0x40 MLOAD PUSH2 0x1A4 SWAP2 SWAP1 PUSH2 0x1A8F JUMP JUMPDEST PUSH1 0x40 MLOAD DUP1 SWAP2 SUB SWAP1 RETURN JUMPDEST PUSH2 0x1B5 PUSH2 0x4CD JUMP JUMPDEST PUSH1 0x40 MLOAD PUSH2 0x1C2 SWAP2 SWAP1 PUSH2 0x1A8F JUMP JUMPDEST PUSH1 0x40 MLOAD DUP1 SWAP2 SUB SWAP1 RETURN JUMPDEST PUSH2 0x1E5 PUSH1 0x4 DUP1 CALLDATASIZE SUB DUP2 ADD SWAP1 PUSH2 0x1E0 SWAP2 SWAP1 PUSH2 0x1AA8 JUMP JUMPDEST PUSH2 0x5BA JUMP JUMPDEST PUSH1 0x40 MLOAD PUSH2 0x1F2 SWAP2 SWAP1 PUSH2 0x19F3 JUMP JUMPDEST PUSH1 0x40 MLOAD DUP1 SWAP2 SUB SWAP1 RETURN JUMPDEST PUSH2 0x203 PUSH2 0x5E8 JUMP JUMPDEST PUSH1 0x40 MLOAD PUSH2 0x210 SWAP2 SWAP1 PUSH2 0x1B13 JUMP JUMPDEST PUSH1 0x40 MLOAD DUP1 SWAP2 SUB SWAP1 RETURN JUMPDEST PUSH2 0x221 PUSH2 0x5F0 JUMP JUMPDEST PUSH1 0x40 MLOAD PUSH2 0x22E SWAP2 SWAP1 PUSH2 0x1A8F JUMP JUMPDEST PUSH1 0x40 MLOAD DUP1 SWAP2 SUB SWAP1 RETURN JUMPDEST PUSH2 0x23F PUSH2 0x5F6 JUMP JUMPDEST PUSH1 0x40 MLOAD PUSH2 0x24C SWAP2 SWAP1 PUSH2 0x1A8F JUMP JUMPDEST PUSH1 0x40 MLOAD DUP1 SWAP2 SUB SWAP1 RETURN JUMPDEST PUSH2 0x26F PUSH1 0x4 DUP1 CALLDATASIZE SUB DUP2 ADD SWAP1 PUSH2 0x26A SWAP2 SWAP1 PUSH2 0x1B2C JUMP JUMPDEST PUSH2 0x5FC JUMP JUMPDEST PUSH1 0x40 MLOAD PUSH2 0x27C SWAP2 SWAP1 PUSH2 0x1A8F JUMP JUMPDEST PUSH1 0x40 MLOAD DUP1 SWAP2 SUB SWAP1 RETURN JUMPDEST PUSH2 0x28D PUSH2 0x641 JUMP JUMPDEST PUSH1 0x40 MLOAD PUSH2 0x29A SWAP2 SWAP1 PUSH2 0x1B77 JUMP JUMPDEST PUSH1 0x40 MLOAD DUP1 SWAP2 SUB SWAP1 RETURN JUMPDEST PUSH2 0x2AB PUSH2 0x665 JUMP JUMPDEST PUSH1 0x40 MLOAD PUSH2 0x2B8 SWAP2 SWAP1 PUSH2 0x18EA JUMP JUMPDEST PUSH1 0x40 MLOAD DUP1 SWAP2 SUB SWAP1 RETURN JUMPDEST PUSH2 0x2DB PUSH1 0x4 DUP1 CALLDATASIZE SUB DUP2 ADD SWAP1 PUSH2 0x2D6 SWAP2 SWAP1 PUSH2 0x1B90 JUMP JUMPDEST PUSH2 0x6F5 JUMP JUMPDEST PUSH1 0x40 MLOAD PUSH2 0x2E9 SWAP3 SWAP2 SWAP1 PUSH2 0x1BBB JUMP JUMPDEST PUSH1 0x40 MLOAD DUP1 SWAP2 SUB SWAP1 RETURN JUMPDEST PUSH2 0x30C PUSH1 0x4 DUP1 CALLDATASIZE SUB DUP2 ADD SWAP1 PUSH2 0x307 SWAP2 SWAP1 PUSH2 0x1BE2 JUMP JUMPDEST PUSH2 0x906 JUMP JUMPDEST PUSH1 0x40 MLOAD PUSH2 0x319 SWAP2 SWAP1 PUSH2 0x1A8F JUMP JUMPDEST PUSH1 0x40 MLOAD DUP1 SWAP2 SUB SWAP1 RETURN JUMPDEST PUSH2 0x33C PUSH1 0x4 DUP1 CALLDATASIZE SUB DUP2 ADD SWAP1 PUSH2 0x337 SWAP2 SWAP1 PUSH2 0x199B JUMP JUMPDEST PUSH2 0xB9E JUMP JUMPDEST PUSH1 0x40 MLOAD PUSH2 0x349 SWAP2 SWAP1 PUSH2 0x19F3 JUMP JUMPDEST PUSH1 0x40 MLOAD DUP1 SWAP2 SUB SWAP1 RETURN JUMPDEST PUSH2 0x36C PUSH1 0x4 DUP1 CALLDATASIZE SUB DUP2 ADD SWAP1 PUSH2 0x367 SWAP2 SWAP1 PUSH2 0x199B JUMP JUMPDEST PUSH2 0xBC0 JUMP JUMPDEST PUSH1 0x40 MLOAD PUSH2 0x379 SWAP2 SWAP1 PUSH2 0x1A8F JUMP JUMPDEST PUSH1 0x40 MLOAD DUP1 SWAP2 SUB SWAP1 RETURN JUMPDEST PUSH2 0x38A PUSH2 0x10AA JUMP JUMPDEST PUSH1 0x40 MLOAD PUSH2 0x397 SWAP2 SWAP1 PUSH2 0x1A67 JUMP JUMPDEST PUSH1 0x40 MLOAD DUP1 SWAP2 SUB SWAP1 RETURN JUMPDEST PUSH2 0x3BA PUSH1 0x4 DUP1 CALLDATASIZE SUB DUP2 ADD SWAP1 PUSH2 0x3B5 SWAP2 SWAP1 PUSH2 0x1C20 JUMP JUMPDEST PUSH2 0x10CE JUMP JUMPDEST PUSH1 0x40 MLOAD PUSH2 0x3C7 SWAP2 SWAP1 PUSH2 0x1A8F JUMP JUMPDEST PUSH1 0x40 MLOAD DUP1 SWAP2 SUB SWAP1 RETURN JUMPDEST PUSH2 0x3D8 PUSH2 0x1150 JUMP JUMPDEST PUSH1 0x40 MLOAD PUSH2 0x3E5 SWAP2 SWAP1 PUSH2 0x1A8F JUMP JUMPDEST PUSH1 0x40 MLOAD DUP1 SWAP2 SUB SWAP1 RETURN JUMPDEST PUSH1 0x60 PUSH1 0x3 DUP1 SLOAD PUSH2 0x3FD SWAP1 PUSH2 0x1C8B JUMP JUMPDEST DUP1 PUSH1 0x1F ADD PUSH1 0x20 DUP1 SWAP2 DIV MUL PUSH1 0x20 ADD PUSH1 0x40 MLOAD SWAP1 DUP2 ADD PUSH1 0x40 MSTORE DUP1 SWAP3 SWAP2 SWAP1 DUP2 DUP2 MSTORE PUSH1 0x20 ADD DUP3 DUP1 SLOAD PUSH2 0x429 SWAP1 PUSH2 0x1C8B JUMP JUMPDEST DUP1 ISZERO PUSH2 0x474 JUMPI DUP1 PUSH1 0x1F LT PUSH2 0x44B JUMPI PUSH2 0x100 DUP1 DUP4 SLOAD DIV MUL DUP4 MSTORE SWAP2 PUSH1 0x20 ADD SWAP2 PUSH2 0x474 JUMP JUMPDEST DUP3 ADD SWAP2 SWAP1 PUSH0 MSTORE PUSH1 0x20 PUSH0 KECCAK256 SWAP1 JUMPDEST DUP2 SLOAD DUP2 MSTORE SWAP1 PUSH1 0x1 ADD SWAP1 PUSH1 0x20 ADD DUP1 DUP4 GT PUSH2 0x457 JUMPI DUP3 SWAP1 SUB PUSH1 0x1F AND DUP3 ADD SWAP2 JUMPDEST POP POP POP POP POP SWAP1 POP SWAP1 JUMP JUMPDEST PUSH0 DUP1 PUSH2 0x488 PUSH2 0x1156 JUMP JUMPDEST SWAP1 POP PUSH2 0x495 DUP2 DUP6 DUP6 PUSH2 0x115D JUMP JUMPDEST PUSH1 0x1 SWAP2 POP POP SWAP3 SWAP2 POP POP JUMP JUMPDEST PUSH32 0x0 DUP2 JUMP JUMPDEST PUSH0 PUSH1 0x2 SLOAD SWAP1 POP SWAP1 JUMP JUMPDEST PUSH0 DUP1 PUSH32 0x0 PUSH20 0xFFFFFFFFFFFFFFFFFFFFFFFFFFFFFFFFFFFFFFFF AND PUSH4 0xFEAF968C PUSH1 0x40 MLOAD DUP2 PUSH4 0xFFFFFFFF AND PUSH1 0xE0 SHL DUP2 MSTORE PUSH1 0x4 ADD PUSH1 0xA0 PUSH1 0x40 MLOAD DUP1 DUP4 SUB DUP2 DUP7 GAS STATICCALL ISZERO DUP1 ISZERO PUSH2 0x538 JUMPI RETURNDATASIZE PUSH0 DUP1 RETURNDATACOPY RETURNDATASIZE PUSH0 REVERT JUMPDEST POP POP POP POP PUSH1 0x40 MLOAD RETURNDATASIZE PUSH1 0x1F NOT PUSH1 0x1F DUP3 ADD AND DUP3 ADD DUP1 PUSH1 0x40 MSTORE POP DUP2 ADD SWAP1 PUSH2 0x55C SWAP2 SWAP1 PUSH2 0x1D41 JUMP JUMPDEST POP POP POP SWAP2 POP POP PUSH0 DUP2 SGT PUSH2 0x5A4 JUMPI PUSH1 0x40 MLOAD PUSH32 0x8C379A000000000000000000000000000000000000000000000000000000000 DUP2 MSTORE PUSH1 0x4 ADD PUSH2 0x59B SWAP1 PUSH2 0x1E02 JUMP JUMPDEST PUSH1 0x40 MLOAD DUP1 SWAP2 SUB SWAP1 REVERT JUMPDEST PUSH4 0x5F5E100 DUP2 PUSH2 0x5B4 SWAP2 SWAP1 PUSH2 0x1E7A JUMP JUMPDEST SWAP2 POP POP SWAP1 JUMP JUMPDEST PUSH0 DUP1 PUSH2 0x5C4 PUSH2 0x1156 JUMP JUMPDEST SWAP1 POP PUSH2 0x5D1 DUP6 DUP3 DUP6 PUSH2 0x116F JUMP JUMPDEST PUSH2 0x5DC DUP6 DUP6 DUP6 PUSH2 0x1202 JUMP JUMPDEST PUSH1 0x1 SWAP2 POP POP SWAP4 SWAP3 POP POP POP JUMP JUMPDEST PUSH0 PUSH1 0x12 SWAP1 POP SWAP1 JUMP JUMPDEST PUSH1 0x6 SLOAD DUP2 JUMP JUMPDEST PUSH1 0x7 SLOAD DUP2 JUMP JUMPDEST PUSH0 DUP1 PUSH0 DUP4 PUSH20 0xFFFFFFFFFFFFFFFFFFFFFFFFFFFFFFFFFFFFFFFF AND PUSH20 0xFFFFFFFFFFFFFFFFFFFFFFFFFFFFFFFFFFFFFFFF AND DUP2 MSTORE PUSH1 0x20 ADD SWAP1 DUP2 MSTORE PUSH1 0x20 ADD PUSH0 KECCAK256 SLOAD SWAP1 POP SWAP2 SWAP1 POP JUMP JUMPDEST PUSH32 0x0 DUP2 JUMP JUMPDEST PUSH1 0x60 PUSH1 0x4 DUP1 SLOAD PUSH2 0x674 SWAP1 PUSH2 0x1C8B JUMP JUMPDEST DUP1 PUSH1 0x1F ADD PUSH1 0x20 DUP1 SWAP2 DIV MUL PUSH1 0x20 ADD PUSH1 0x40 MLOAD SWAP1 DUP2 ADD PUSH1 0x40 MSTORE DUP1 SWAP3 SWAP2 SWAP1 DUP2 DUP2 MSTORE PUSH1 0x20 ADD DUP3 DUP1 SLOAD PUSH2 0x6A0 SWAP1 PUSH2 0x1C8B JUMP JUMPDEST DUP1 ISZERO PUSH2 0x6EB JUMPI DUP1 PUSH1 0x1F LT PUSH2 0x6C2 JUMPI PUSH2 0x100 DUP1 DUP4 SLOAD DIV MUL DUP4 MSTORE SWAP2 PUSH1 0x20 ADD SWAP2 PUSH2 0x6EB JUMP JUMPDEST DUP3 ADD SWAP2 SWAP1 PUSH0 MSTORE PUSH1 0x20 PUSH0 KECCAK256 SWAP1 JUMPDEST DUP2 SLOAD DUP2 MSTORE SWAP1 PUSH1 0x1 ADD SWAP1 PUSH1 0x20 ADD DUP1 DUP4 GT PUSH2 0x6CE JUMPI DUP3 SWAP1 SUB PUSH1 0x1F AND DUP3 ADD SWAP2 JUMPDEST POP POP POP POP POP SWAP1 POP SWAP1 JUMP JUMPDEST PUSH0 DUP1 PUSH2 0x6FF PUSH2 0x4C4 JUMP JUMPDEST PUSH1 0x6 SLOAD DUP5 PUSH2 0x70D SWAP2 SWAP1 PUSH2 0x1EE2 JUMP JUMPDEST PUSH2 0x717 SWAP2 SWAP1 PUSH2 0x1F23 JUMP JUMPDEST SWAP2 POP PUSH2 0x721 PUSH2 0x4C4 JUMP JUMPDEST PUSH1 0x7 SLOAD DUP5 PUSH2 0x72F SWAP2 SWAP1 PUSH2 0x1EE2 JUMP JUMPDEST PUSH2 0x739 SWAP2 SWAP1 PUSH2 0x1F23 JUMP JUMPDEST SWAP1 POP PUSH0 DUP3 GT DUP1 ISZERO PUSH2 0x749 JUMPI POP PUSH0 DUP2 GT JUMPDEST PUSH2 0x788 JUMPI PUSH1 0x40 MLOAD PUSH32 0x8C379A000000000000000000000000000000000000000000000000000000000 DUP2 MSTORE PUSH1 0x4 ADD PUSH2 0x77F SWAP1 PUSH2 0x1F9D JUMP JUMPDEST PUSH1 0x40 MLOAD DUP1 SWAP2 SUB SWAP1 REVERT JUMPDEST PUSH2 0x7A5 CALLER PUSH8 0xDE0B6B3A7640000 DUP6 PUSH2 0x7A0 SWAP2 SWAP1 PUSH2 0x1EE2 JUMP JUMPDEST PUSH2 0x12F2 JUMP JUMPDEST PUSH2 0x7C9 DUP3 PUSH1 0x6 SLOAD PUSH2 0x7B6 SWAP2 SWAP1 PUSH2 0x1FBB JUMP JUMPDEST DUP3 PUSH1 0x7 SLOAD PUSH2 0x7C4 SWAP2 SWAP1 PUSH2 0x1FBB JUMP JUMPDEST PUSH2 0x1371 JUMP JUMPDEST PUSH32 0x0 PUSH20 0xFFFFFFFFFFFFFFFFFFFFFFFFFFFFFFFFFFFFFFFF AND PUSH4 0xA9059CBB CALLER DUP5 PUSH1 0x40 MLOAD DUP4 PUSH4 0xFFFFFFFF AND PUSH1 0xE0 SHL DUP2 MSTORE PUSH1 0x4 ADD PUSH2 0x824 SWAP3 SWAP2 SWAP1 PUSH2 0x1FFD JUMP JUMPDEST PUSH1 0x20 PUSH1 0x40 MLOAD DUP1 DUP4 SUB DUP2 PUSH0 DUP8 GAS CALL ISZERO DUP1 ISZERO PUSH2 0x840 JUMPI RETURNDATASIZE PUSH0 DUP1 RETURNDATACOPY RETURNDATASIZE PUSH0 REVERT JUMPDEST POP POP POP POP PUSH1 0x40 MLOAD RETURNDATASIZE PUSH1 0x1F NOT PUSH1 0x1F DUP3 ADD AND DUP3 ADD DUP1 PUSH1 0x40 MSTORE POP DUP2 ADD SWAP1 PUSH2 0x864 SWAP2 SWAP1 PUSH2 0x204E JUMP JUMPDEST POP PUSH32 0x0 PUSH20 0xFFFFFFFFFFFFFFFFFFFFFFFFFFFFFFFFFFFFFFFF AND PUSH4 0xA9059CBB CALLER DUP4 PUSH1 0x40 MLOAD DUP4 PUSH4 0xFFFFFFFF AND PUSH1 0xE0 SHL DUP2 MSTORE PUSH1 0x4 ADD PUSH2 0x8C0 SWAP3 SWAP2 SWAP1 PUSH2 0x1FFD JUMP JUMPDEST PUSH1 0x20 PUSH1 0x40 MLOAD DUP1 DUP4 SUB DUP2 PUSH0 DUP8 GAS CALL ISZERO DUP1 ISZERO PUSH2 0x8DC JUMPI RETURNDATASIZE PUSH0 DUP1 RETURNDATACOPY RETURNDATASIZE PUSH0 REVERT JUMPDEST POP POP POP POP PUSH1 0x40 MLOAD RETURNDATASIZE PUSH1 0x1F NOT PUSH1 0x1F DUP3 ADD AND DUP3 ADD DUP1 PUSH1 0x40 MSTORE POP DUP2 ADD SWAP1 PUSH2 0x900 SWAP2 SWAP1 PUSH2 0x204E JUMP JUMPDEST POP SWAP2 POP SWAP2 JUMP JUMPDEST PUSH0 DUP1 PUSH2 0x910 PUSH2 0x4CD JUMP JUMPDEST SWAP1 POP PUSH0 DUP2 DUP5 PUSH2 0x91F SWAP2 SWAP1 PUSH2 0x1EE2 JUMP JUMPDEST SWAP1 POP DUP1 DUP6 EQ PUSH2 0x963 JUMPI PUSH1 0x40 MLOAD PUSH32 0x8C379A000000000000000000000000000000000000000000000000000000000 DUP2 MSTORE PUSH1 0x4 ADD PUSH2 0x95A SWAP1 PUSH2 0x20C3 JUMP JUMPDEST PUSH1 0x40 MLOAD DUP1 SWAP2 SUB SWAP1 REVERT JUMPDEST PUSH32 0x0 PUSH20 0xFFFFFFFFFFFFFFFFFFFFFFFFFFFFFFFFFFFFFFFF AND PUSH4 0x23B872DD CALLER ADDRESS DUP9 PUSH1 0x40 MLOAD DUP5 PUSH4 0xFFFFFFFF AND PUSH1 0xE0 SHL DUP2 MSTORE PUSH1 0x4 ADD PUSH2 0x9C0 SWAP4 SWAP3 SWAP2 SWAP1 PUSH2 0x20E1 JUMP JUMPDEST PUSH1 0x20 PUSH1 0x40 MLOAD DUP1 DUP4 SUB DUP2 PUSH0 DUP8 GAS CALL ISZERO DUP1 ISZERO PUSH2 0x9DC JUMPI RETURNDATASIZE PUSH0 DUP1 RETURNDATACOPY RETURNDATASIZE PUSH0 REVERT JUMPDEST POP POP POP POP PUSH1 0x40 MLOAD RETURNDATASIZE PUSH1 0x1F NOT PUSH1 0x1F DUP3 ADD AND DUP3 ADD DUP1 PUSH1 0x40 MSTORE POP DUP2 ADD SWAP1 PUSH2 0xA00 SWAP2 SWAP1 PUSH2 0x204E JUMP JUMPDEST POP PUSH32 0x0 PUSH20 0xFFFFFFFFFFFFFFFFFFFFFFFFFFFFFFFFFFFFFFFF AND PUSH4 0x23B872DD CALLER ADDRESS DUP8 PUSH1 0x40 MLOAD DUP5 PUSH4 0xFFFFFFFF AND PUSH1 0xE0 SHL DUP2 MSTORE PUSH1 0x4 ADD PUSH2 0xA5E SWAP4 SWAP3 SWAP2 SWAP1 PUSH2 0x20E1 JUMP JUMPDEST PUSH1 0x20 PUSH1 0x40 MLOAD DUP1 DUP4 SUB DUP2 PUSH0 DUP8 GAS CALL ISZERO DUP1 ISZERO PUSH2 0xA7A JUMPI RETURNDATASIZE PUSH0 DUP1 RETURNDATACOPY RETURNDATASIZE PUSH0 REVERT JUMPDEST POP POP POP POP PUSH1 0x40 MLOAD RETURNDATASIZE PUSH1 0x1F NOT PUSH1 0x1F DUP3 ADD AND DUP3 ADD DUP1 PUSH1 0x40 MSTORE POP DUP2 ADD SWAP1 PUSH2 0xA9E SWAP2 SWAP1 PUSH2 0x204E JUMP JUMPDEST POP PUSH0 PUSH2 0xAA8 PUSH2 0x4C4 JUMP JUMPDEST SUB PUSH2 0xAC8 JUMPI PUSH2 0xAC1 DUP5 DUP7 PUSH2 0xABC SWAP2 SWAP1 PUSH2 0x1EE2 JUMP JUMPDEST PUSH2 0x1383 JUMP JUMPDEST SWAP3 POP PUSH2 0xB13 JUMP JUMPDEST PUSH2 0xB10 PUSH1 0x6 SLOAD PUSH2 0xAD6 PUSH2 0x4C4 JUMP JUMPDEST DUP8 PUSH2 0xAE1 SWAP2 SWAP1 PUSH2 0x1EE2 JUMP JUMPDEST PUSH2 0xAEB SWAP2 SWAP1 PUSH2 0x1F23 JUMP JUMPDEST PUSH1 0x7 SLOAD PUSH2 0xAF6 PUSH2 0x4C4 JUMP JUMPDEST DUP8 PUSH2 0xB01 SWAP2 SWAP1 PUSH2 0x1EE2 JUMP JUMPDEST PUSH2 0xB0B SWAP2 SWAP1 PUSH2 0x1F23 JUMP JUMPDEST PUSH2 0x13FA JUMP JUMPDEST SWAP3 POP JUMPDEST PUSH0 DUP4 GT PUSH2 0xB55 JUMPI PUSH1 0x40 MLOAD PUSH32 0x8C379A000000000000000000000000000000000000000000000000000000000 DUP2 MSTORE PUSH1 0x4 ADD PUSH2 0xB4C SWAP1 PUSH2 0x2160 JUMP JUMPDEST PUSH1 0x40 MLOAD DUP1 SWAP2 SUB SWAP1 REVERT JUMPDEST PUSH2 0xB72 CALLER PUSH8 0xDE0B6B3A7640000 DUP6 PUSH2 0xB6D SWAP2 SWAP1 PUSH2 0x1EE2 JUMP JUMPDEST PUSH2 0x1413 JUMP JUMPDEST PUSH2 0xB96 DUP6 PUSH1 0x6 SLOAD PUSH2 0xB83 SWAP2 SWAP1 PUSH2 0x217E JUMP JUMPDEST DUP6 PUSH1 0x7 SLOAD PUSH2 0xB91 SWAP2 SWAP1 PUSH2 0x217E JUMP JUMPDEST PUSH2 0x1371 JUMP JUMPDEST POP POP SWAP3 SWAP2 POP POP JUMP JUMPDEST PUSH0 DUP1 PUSH2 0xBA8 PUSH2 0x1156 JUMP JUMPDEST SWAP1 POP PUSH2 0xBB5 DUP2 DUP6 DUP6 PUSH2 0x1202 JUMP JUMPDEST PUSH1 0x1 SWAP2 POP POP SWAP3 SWAP2 POP POP JUMP JUMPDEST PUSH0 DUP1 PUSH20 0xFFFFFFFFFFFFFFFFFFFFFFFFFFFFFFFFFFFFFFFF AND DUP4 PUSH20 0xFFFFFFFFFFFFFFFFFFFFFFFFFFFFFFFFFFFFFFFF AND SUB PUSH2 0xC2F JUMPI PUSH1 0x40 MLOAD PUSH32 0x8C379A000000000000000000000000000000000000000000000000000000000 DUP2 MSTORE PUSH1 0x4 ADD PUSH2 0xC26 SWAP1 PUSH2 0x21FB JUMP JUMPDEST PUSH1 0x40 MLOAD DUP1 SWAP2 SUB SWAP1 REVERT JUMPDEST PUSH0 DUP3 GT PUSH2 0xC71 JUMPI PUSH1 0x40 MLOAD PUSH32 0x8C379A000000000000000000000000000000000000000000000000000000000 DUP2 MSTORE PUSH1 0x4 ADD PUSH2 0xC68 SWAP1 PUSH2 0x1F9D JUMP JUMPDEST PUSH1 0x40 MLOAD DUP1 SWAP2 SUB SWAP1 REVERT JUMPDEST PUSH32 0x0 PUSH20 0xFFFFFFFFFFFFFFFFFFFFFFFFFFFFFFFFFFFFFFFF AND DUP4 PUSH20 0xFFFFFFFFFFFFFFFFFFFFFFFFFFFFFFFFFFFFFFFF AND EQ DUP1 PUSH2 0xD16 JUMPI POP PUSH32 0x0 PUSH20 0xFFFFFFFFFFFFFFFFFFFFFFFFFFFFFFFFFFFFFFFF AND DUP4 PUSH20 0xFFFFFFFFFFFFFFFFFFFFFFFFFFFFFFFFFFFFFFFF AND EQ JUMPDEST PUSH2 0xD1E JUMPI PUSH0 DUP1 REVERT JUMPDEST PUSH0 DUP1 PUSH0 DUP1 PUSH32 0x0 PUSH20 0xFFFFFFFFFFFFFFFFFFFFFFFFFFFFFFFFFFFFFFFF AND DUP8 PUSH20 0xFFFFFFFFFFFFFFFFFFFFFFFFFFFFFFFFFFFFFFFF AND EQ PUSH2 0xDC2 JUMPI PUSH32 0x0 PUSH32 0x0 PUSH1 0x7 SLOAD PUSH1 0x6 SLOAD PUSH2 0xE0B JUMP JUMPDEST PUSH32 0x0 PUSH32 0x0 PUSH1 0x6 SLOAD PUSH1 0x7 SLOAD JUMPDEST SWAP4 POP SWAP4 POP SWAP4 POP SWAP4 POP DUP4 PUSH20 0xFFFFFFFFFFFFFFFFFFFFFFFFFFFFFFFFFFFFFFFF AND PUSH4 0x23B872DD CALLER ADDRESS DUP10 PUSH1 0x40 MLOAD DUP5 PUSH4 0xFFFFFFFF AND PUSH1 0xE0 SHL DUP2 MSTORE PUSH1 0x4 ADD PUSH2 0xE50 SWAP4 SWAP3 SWAP2 SWAP1 PUSH2 0x20E1 JUMP JUMPDEST PUSH1 0x20 PUSH1 0x40 MLOAD DUP1 DUP4 SUB DUP2 PUSH0 DUP8 GAS CALL ISZERO DUP1 ISZERO PUSH2 0xE6C JUMPI RETURNDATASIZE PUSH0 DUP1 RETURNDATACOPY RETURNDATASIZE PUSH0 REVERT JUMPDEST POP POP POP POP PUSH1 0x40 MLOAD RETURNDATASIZE PUSH1 0x1F NOT PUSH1 0x1F DUP3 ADD AND DUP3 ADD DUP1 PUSH1 0x40 MSTORE POP DUP2 ADD SWAP1 PUSH2 0xE90 SWAP2 SWAP1 PUSH2 0x204E JUMP JUMPDEST POP PUSH0 PUSH2 0x3E8 PUSH1 0x5 SLOAD PUSH2 0x3E8 PUSH2 0xEA5 SWAP2 SWAP1 PUSH2 0x1FBB JUMP JUMPDEST DUP9 PUSH2 0xEB0 SWAP2 SWAP1 PUSH2 0x1EE2 JUMP JUMPDEST PUSH2 0xEBA SWAP2 SWAP1 PUSH2 0x1F23 JUMP JUMPDEST SWAP1 POP DUP1 DUP3 PUSH2 0xEC8 SWAP2 SWAP1 PUSH2 0x217E JUMP JUMPDEST DUP2 DUP5 PUSH2 0xED4 SWAP2 SWAP1 PUSH2 0x1EE2 JUMP JUMPDEST PUSH2 0xEDE SWAP2 SWAP1 PUSH2 0x1F23 JUMP JUMPDEST SWAP6 POP DUP5 PUSH20 0xFFFFFFFFFFFFFFFFFFFFFFFFFFFFFFFFFFFFFFFF AND PUSH4 0xA9059CBB PUSH1 0x8 PUSH0 SWAP1 SLOAD SWAP1 PUSH2 0x100 EXP SWAP1 DIV PUSH20 0xFFFFFFFFFFFFFFFFFFFFFFFFFFFFFFFFFFFFFFFF AND DUP4 DUP11 PUSH2 0xF2A SWAP2 SWAP1 PUSH2 0x1FBB JUMP JUMPDEST PUSH1 0x40 MLOAD DUP4 PUSH4 0xFFFFFFFF AND PUSH1 0xE0 SHL DUP2 MSTORE PUSH1 0x4 ADD PUSH2 0xF47 SWAP3 SWAP2 SWAP1 PUSH2 0x1FFD JUMP JUMPDEST PUSH1 0x20 PUSH1 0x40 MLOAD DUP1 DUP4 SUB DUP2 PUSH0 DUP8 GAS CALL ISZERO DUP1 ISZERO PUSH2 0xF63 JUMPI RETURNDATASIZE PUSH0 DUP1 RETURNDATACOPY RETURNDATASIZE PUSH0 REVERT JUMPDEST POP POP POP POP PUSH1 0x40 MLOAD RETURNDATASIZE PUSH1 0x1F NOT PUSH1 0x1F DUP3 ADD AND DUP3 ADD DUP1 PUSH1 0x40 MSTORE POP DUP2 ADD SWAP1 PUSH2 0xF87 SWAP2 SWAP1 PUSH2 0x204E JUMP JUMPDEST POP DUP4 PUSH20 0xFFFFFFFFFFFFFFFFFFFFFFFFFFFFFFFFFFFFFFFF AND PUSH4 0xA9059CBB CALLER DUP9 PUSH1 0x40 MLOAD DUP4 PUSH4 0xFFFFFFFF AND PUSH1 0xE0 SHL DUP2 MSTORE PUSH1 0x4 ADD PUSH2 0xFC3 SWAP3 SWAP2 SWAP1 PUSH2 0x1FFD JUMP JUMPDEST PUSH1 0x20 PUSH1 0x40 MLOAD DUP1 DUP4 SUB DUP2 PUSH0 DUP8 GAS CALL ISZERO DUP1 ISZERO PUSH2 0xFDF JUMPI RETURNDATASIZE PUSH0 DUP1 RETURNDATACOPY RETURNDATASIZE PUSH0 REVERT JUMPDEST POP POP POP POP PUSH1 0x40 MLOAD RETURNDATASIZE PUSH1 0x1F NOT PUSH1 0x1F DUP3 ADD AND DUP3 ADD DUP1 PUSH1 0x40 MSTORE POP DUP2 ADD SWAP1 PUSH2 0x1003 SWAP2 SWAP1 PUSH2 0x204E JUMP JUMPDEST POP PUSH0 DUP1 PUSH32 0x0 PUSH20 0xFFFFFFFFFFFFFFFFFFFFFFFFFFFFFFFFFFFFFFFF AND DUP11 PUSH20 0xFFFFFFFFFFFFFFFFFFFFFFFFFFFFFFFFFFFFFFFF AND EQ PUSH2 0x1076 JUMPI DUP8 DUP5 PUSH2 0x1065 SWAP2 SWAP1 PUSH2 0x1FBB JUMP JUMPDEST DUP4 DUP7 PUSH2 0x1071 SWAP2 SWAP1 PUSH2 0x217E JUMP JUMPDEST PUSH2 0x108F JUMP JUMPDEST DUP9 DUP6 PUSH2 0x1082 SWAP2 SWAP1 PUSH2 0x217E JUMP JUMPDEST DUP9 DUP6 PUSH2 0x108E SWAP2 SWAP1 PUSH2 0x1FBB JUMP JUMPDEST JUMPDEST SWAP2 POP SWAP2 POP PUSH2 0x109D DUP3 DUP3 PUSH2 0x1371 JUMP JUMPDEST POP POP POP POP POP POP POP SWAP3 SWAP2 POP POP JUMP JUMPDEST PUSH32 0x0 DUP2 JUMP JUMPDEST PUSH0 PUSH1 0x1 PUSH0 DUP5 PUSH20 0xFFFFFFFFFFFFFFFFFFFFFFFFFFFFFFFFFFFFFFFF AND PUSH20 0xFFFFFFFFFFFFFFFFFFFFFFFFFFFFFFFFFFFFFFFF AND DUP2 MSTORE PUSH1 0x20 ADD SWAP1 DUP2 MSTORE PUSH1 0x20 ADD PUSH0 KECCAK256 PUSH0 DUP4 PUSH20 0xFFFFFFFFFFFFFFFFFFFFFFFFFFFFFFFFFFFFFFFF AND PUSH20 0xFFFFFFFFFFFFFFFFFFFFFFFFFFFFFFFFFFFFFFFF AND DUP2 MSTORE PUSH1 0x20 ADD SWAP1 DUP2 MSTORE PUSH1 0x20 ADD PUSH0 KECCAK256 SLOAD SWAP1 POP SWAP3 SWAP2 POP POP JUMP JUMPDEST PUSH1 0x5 SLOAD DUP2 JUMP JUMPDEST PUSH0 CALLER SWAP1 POP SWAP1 JUMP JUMPDEST PUSH2 0x116A DUP4 DUP4 DUP4 PUSH1 0x1 PUSH2 0x1492 JUMP JUMPDEST POP POP POP JUMP JUMPDEST PUSH0 PUSH2 0x117A DUP5 DUP5 PUSH2 0x10CE JUMP JUMPDEST SWAP1 POP PUSH32 0xFFFFFFFFFFFFFFFFFFFFFFFFFFFFFFFFFFFFFFFFFFFFFFFFFFFFFFFFFFFFFFFF DUP2 LT ISZERO PUSH2 0x11FC JUMPI DUP2 DUP2 LT ISZERO PUSH2 0x11ED JUMPI DUP3 DUP2 DUP4 PUSH1 0x40 MLOAD PUSH32 0xFB8F41B200000000000000000000000000000000000000000000000000000000 DUP2 MSTORE PUSH1 0x4 ADD PUSH2 0x11E4 SWAP4 SWAP3 SWAP2 SWAP1 PUSH2 0x2219 JUMP JUMPDEST PUSH1 0x40 MLOAD DUP1 SWAP2 SUB SWAP1 REVERT JUMPDEST PUSH2 0x11FB DUP5 DUP5 DUP5 DUP5 SUB PUSH0 PUSH2 0x1492 JUMP JUMPDEST JUMPDEST POP POP POP POP JUMP JUMPDEST PUSH0 PUSH20 0xFFFFFFFFFFFFFFFFFFFFFFFFFFFFFFFFFFFFFFFF AND DUP4 PUSH20 0xFFFFFFFFFFFFFFFFFFFFFFFFFFFFFFFFFFFFFFFF AND SUB PUSH2 0x1272 JUMPI PUSH0 PUSH1 0x40 MLOAD PUSH32 0x96C6FD1E00000000000000000000000000000000000000000000000000000000 DUP2 MSTORE PUSH1 0x4 ADD PUSH2 0x1269 SWAP2 SWAP1 PUSH2 0x224E JUMP JUMPDEST PUSH1 0x40 MLOAD DUP1 SWAP2 SUB SWAP1 REVERT JUMPDEST PUSH0 PUSH20 0xFFFFFFFFFFFFFFFFFFFFFFFFFFFFFFFFFFFFFFFF AND DUP3 PUSH20 0xFFFFFFFFFFFFFFFFFFFFFFFFFFFFFFFFFFFFFFFF AND SUB PUSH2 0x12E2 JUMPI PUSH0 PUSH1 0x40 MLOAD PUSH32 0xEC442F0500000000000000000000000000000000000000000000000000000000 DUP2 MSTORE PUSH1 0x4 ADD PUSH2 0x12D9 SWAP2 SWAP1 PUSH2 0x224E JUMP JUMPDEST PUSH1 0x40 MLOAD DUP1 SWAP2 SUB SWAP1 REVERT JUMPDEST PUSH2 0x12ED DUP4 DUP4 DUP4 PUSH2 0x1661 JUMP JUMPDEST POP POP POP JUMP JUMPDEST PUSH0 PUSH20 0xFFFFFFFFFFFFFFFFFFFFFFFFFFFFFFFFFFFFFFFF AND DUP3 PUSH20 0xFFFFFFFFFFFFFFFFFFFFFFFFFFFFFFFFFFFFFFFF AND SUB PUSH2 0x1362 JUMPI PUSH0 PUSH1 0x40 MLOAD PUSH32 0x96C6FD1E00000000000000000000000000000000000000000000000000000000 DUP2 MSTORE PUSH1 0x4 ADD PUSH2 0x1359 SWAP2 SWAP1 PUSH2 0x224E JUMP JUMPDEST PUSH1 0x40 MLOAD DUP1 SWAP2 SUB SWAP1 REVERT JUMPDEST PUSH2 0x136D DUP3 PUSH0 DUP4 PUSH2 0x1661 JUMP JUMPDEST POP POP JUMP JUMPDEST DUP2 PUSH1 0x6 DUP2 SWAP1 SSTORE POP DUP1 PUSH1 0x7 DUP2 SWAP1 SSTORE POP POP POP JUMP JUMPDEST PUSH0 PUSH1 0x3 DUP3 GT ISZERO PUSH2 0x13E8 JUMPI DUP2 SWAP1 POP PUSH0 PUSH1 0x1 PUSH1 0x2 DUP5 PUSH2 0x13A0 SWAP2 SWAP1 PUSH2 0x1F23 JUMP JUMPDEST PUSH2 0x13AA SWAP2 SWAP1 PUSH2 0x217E JUMP JUMPDEST SWAP1 POP JUMPDEST DUP2 DUP2 LT ISZERO PUSH2 0x13E2 JUMPI DUP1 SWAP2 POP PUSH1 0x2 DUP2 DUP3 DUP6 PUSH2 0x13C7 SWAP2 SWAP1 PUSH2 0x1F23 JUMP JUMPDEST PUSH2 0x13D1 SWAP2 SWAP1 PUSH2 0x217E JUMP JUMPDEST PUSH2 0x13DB SWAP2 SWAP1 PUSH2 0x1F23 JUMP JUMPDEST SWAP1 POP PUSH2 0x13AD JUMP JUMPDEST POP PUSH2 0x13F5 JUMP JUMPDEST PUSH0 DUP3 EQ PUSH2 0x13F4 JUMPI PUSH1 0x1 SWAP1 POP JUMPDEST JUMPDEST SWAP2 SWAP1 POP JUMP JUMPDEST PUSH0 DUP2 DUP4 GT ISZERO PUSH2 0x1409 JUMPI DUP2 PUSH2 0x140B JUMP JUMPDEST DUP3 JUMPDEST SWAP1 POP SWAP3 SWAP2 POP POP JUMP JUMPDEST PUSH0 PUSH20 0xFFFFFFFFFFFFFFFFFFFFFFFFFFFFFFFFFFFFFFFF AND DUP3 PUSH20 0xFFFFFFFFFFFFFFFFFFFFFFFFFFFFFFFFFFFFFFFF AND SUB PUSH2 0x1483 JUMPI PUSH0 PUSH1 0x40 MLOAD PUSH32 0xEC442F0500000000000000000000000000000000000000000000000000000000 DUP2 MSTORE PUSH1 0x4 ADD PUSH2 0x147A SWAP2 SWAP1 PUSH2 0x224E JUMP JUMPDEST PUSH1 0x40 MLOAD DUP1 SWAP2 SUB SWAP1 REVERT JUMPDEST PUSH2 0x148E PUSH0 DUP4 DUP4 PUSH2 0x1661 JUMP JUMPDEST POP POP JUMP JUMPDEST PUSH0 PUSH20 0xFFFFFFFFFFFFFFFFFFFFFFFFFFFFFFFFFFFFFFFF AND DUP5 PUSH20 0xFFFFFFFFFFFFFFFFFFFFFFFFFFFFFFFFFFFFFFFF AND SUB PUSH2 0x1502 JUMPI PUSH0 PUSH1 0x40 MLOAD PUSH32 0xE602DF0500000000000000000000000000000000000000000000000000000000 DUP2 MSTORE PUSH1 0x4 ADD PUSH2 0x14F9 SWAP2 SWAP1 PUSH2 0x224E JUMP JUMPDEST PUSH1 0x40 MLOAD DUP1 SWAP2 SUB SWAP1 REVERT JUMPDEST PUSH0 PUSH20 0xFFFFFFFFFFFFFFFFFFFFFFFFFFFFFFFFFFFFFFFF AND DUP4 PUSH20 0xFFFFFFFFFFFFFFFFFFFFFFFFFFFFFFFFFFFFFFFF AND SUB PUSH2 0x1572 JUMPI PUSH0 PUSH1 0x40 MLOAD PUSH32 0x94280D6200000000000000000000000000000000000000000000000000000000 DUP2 MSTORE PUSH1 0x4 ADD PUSH2 0x1569 SWAP2 SWAP1 PUSH2 0x224E JUMP JUMPDEST PUSH1 0x40 MLOAD DUP1 SWAP2 SUB SWAP1 REVERT JUMPDEST DUP2 PUSH1 0x1 PUSH0 DUP7 PUSH20 0xFFFFFFFFFFFFFFFFFFFFFFFFFFFFFFFFFFFFFFFF AND PUSH20 0xFFFFFFFFFFFFFFFFFFFFFFFFFFFFFFFFFFFFFFFF AND DUP2 MSTORE PUSH1 0x20 ADD SWAP1 DUP2 MSTORE PUSH1 0x20 ADD PUSH0 KECCAK256 PUSH0 DUP6 PUSH20 0xFFFFFFFFFFFFFFFFFFFFFFFFFFFFFFFFFFFFFFFF AND PUSH20 0xFFFFFFFFFFFFFFFFFFFFFFFFFFFFFFFFFFFFFFFF AND DUP2 MSTORE PUSH1 0x20 ADD SWAP1 DUP2 MSTORE PUSH1 0x20 ADD PUSH0 KECCAK256 DUP2 SWAP1 SSTORE POP DUP1 ISZERO PUSH2 0x165B JUMPI DUP3 PUSH20 0xFFFFFFFFFFFFFFFFFFFFFFFFFFFFFFFFFFFFFFFF AND DUP5 PUSH20 0xFFFFFFFFFFFFFFFFFFFFFFFFFFFFFFFFFFFFFFFF AND PUSH32 0x8C5BE1E5EBEC7D5BD14F71427D1E84F3DD0314C0F7B2291E5B200AC8C7C3B925 DUP5 PUSH1 0x40 MLOAD PUSH2 0x1652 SWAP2 SWAP1 PUSH2 0x1A8F JUMP JUMPDEST PUSH1 0x40 MLOAD DUP1 SWAP2 SUB SWAP1 LOG3 JUMPDEST POP POP POP POP JUMP JUMPDEST PUSH0 PUSH20 0xFFFFFFFFFFFFFFFFFFFFFFFFFFFFFFFFFFFFFFFF AND DUP4 PUSH20 0xFFFFFFFFFFFFFFFFFFFFFFFFFFFFFFFFFFFFFFFF AND SUB PUSH2 0x16B1 JUMPI DUP1 PUSH1 0x2 PUSH0 DUP3 DUP3 SLOAD PUSH2 0x16A5 SWAP2 SWAP1 PUSH2 0x217E JUMP JUMPDEST SWAP3 POP POP DUP2 SWAP1 SSTORE POP PUSH2 0x177F JUMP JUMPDEST PUSH0 DUP1 PUSH0 DUP6 PUSH20 0xFFFFFFFFFFFFFFFFFFFFFFFFFFFFFFFFFFFFFFFF AND PUSH20 0xFFFFFFFFFFFFFFFFFFFFFFFFFFFFFFFFFFFFFFFF AND DUP2 MSTORE PUSH1 0x20 ADD SWAP1 DUP2 MSTORE PUSH1 0x20 ADD PUSH0 KECCAK256 SLOAD SWAP1 POP DUP2 DUP2 LT ISZERO PUSH2 0x173A JUMPI DUP4 DUP2 DUP4 PUSH1 0x40 MLOAD PUSH32 0xE450D38C00000000000000000000000000000000000000000000000000000000 DUP2 MSTORE PUSH1 0x4 ADD PUSH2 0x1731 SWAP4 SWAP3 SWAP2 SWAP1 PUSH2 0x2219 JUMP JUMPDEST PUSH1 0x40 MLOAD DUP1 SWAP2 SUB SWAP1 REVERT JUMPDEST DUP2 DUP2 SUB PUSH0 DUP1 DUP7 PUSH20 0xFFFFFFFFFFFFFFFFFFFFFFFFFFFFFFFFFFFFFFFF AND PUSH20 0xFFFFFFFFFFFFFFFFFFFFFFFFFFFFFFFFFFFFFFFF AND DUP2 MSTORE PUSH1 0x20 ADD SWAP1 DUP2 MSTORE PUSH1 0x20 ADD PUSH0 KECCAK256 DUP2 SWAP1 SSTORE POP POP JUMPDEST PUSH0 PUSH20 0xFFFFFFFFFFFFFFFFFFFFFFFFFFFFFFFFFFFFFFFF AND DUP3 PUSH20 0xFFFFFFFFFFFFFFFFFFFFFFFFFFFFFFFFFFFFFFFF AND SUB PUSH2 0x17C6 JUMPI DUP1 PUSH1 0x2 PUSH0 DUP3 DUP3 SLOAD SUB SWAP3 POP POP DUP2 SWAP1 SSTORE POP PUSH2 0x1810 JUMP JUMPDEST DUP1 PUSH0 DUP1 DUP5 PUSH20 0xFFFFFFFFFFFFFFFFFFFFFFFFFFFFFFFFFFFFFFFF AND PUSH20 0xFFFFFFFFFFFFFFFFFFFFFFFFFFFFFFFFFFFFFFFF AND DUP2 MSTORE PUSH1 0x20 ADD SWAP1 DUP2 MSTORE PUSH1 0x20 ADD PUSH0 KECCAK256 PUSH0 DUP3 DUP3 SLOAD ADD SWAP3 POP POP DUP2 SWAP1 SSTORE POP JUMPDEST DUP2 PUSH20 0xFFFFFFFFFFFFFFFFFFFFFFFFFFFFFFFFFFFFFFFF AND DUP4 PUSH20 0xFFFFFFFFFFFFFFFFFFFFFFFFFFFFFFFFFFFFFFFF AND PUSH32 0xDDF252AD1BE2C89B69C2B068FC378DAA952BA7F163C4A11628F55A4DF523B3EF DUP4 PUSH1 0x40 MLOAD PUSH2 0x186D SWAP2 SWAP1 PUSH2 0x1A8F JUMP JUMPDEST PUSH1 0x40 MLOAD DUP1 SWAP2 SUB SWAP1 LOG3 POP POP POP JUMP JUMPDEST PUSH0 DUP2 MLOAD SWAP1 POP SWAP2 SWAP1 POP JUMP JUMPDEST PUSH0 DUP3 DUP3 MSTORE PUSH1 0x20 DUP3 ADD SWAP1 POP SWAP3 SWAP2 POP POP JUMP JUMPDEST DUP3 DUP2 DUP4 MCOPY PUSH0 DUP4 DUP4 ADD MSTORE POP POP POP JUMP JUMPDEST PUSH0 PUSH1 0x1F NOT PUSH1 0x1F DUP4 ADD AND SWAP1 POP SWAP2 SWAP1 POP JUMP JUMPDEST PUSH0 PUSH2 0x18BC DUP3 PUSH2 0x187A JUMP JUMPDEST PUSH2 0x18C6 DUP2 DUP6 PUSH2 0x1884 JUMP JUMPDEST SWAP4 POP PUSH2 0x18D6 DUP2 DUP6 PUSH1 0x20 DUP7 ADD PUSH2 0x1894 JUMP JUMPDEST PUSH2 0x18DF DUP2 PUSH2 0x18A2 JUMP JUMPDEST DUP5 ADD SWAP2 POP POP SWAP3 SWAP2 POP POP JUMP JUMPDEST PUSH0 PUSH1 0x20 DUP3 ADD SWAP1 POP DUP2 DUP2 SUB PUSH0 DUP4 ADD MSTORE PUSH2 0x1902 DUP2 DUP5 PUSH2 0x18B2 JUMP JUMPDEST SWAP1 POP SWAP3 SWAP2 POP POP JUMP JUMPDEST PUSH0 DUP1 REVERT JUMPDEST PUSH0 PUSH20 0xFFFFFFFFFFFFFFFFFFFFFFFFFFFFFFFFFFFFFFFF DUP3 AND SWAP1 POP SWAP2 SWAP1 POP JUMP JUMPDEST PUSH0 PUSH2 0x1937 DUP3 PUSH2 0x190E JUMP JUMPDEST SWAP1 POP SWAP2 SWAP1 POP JUMP JUMPDEST PUSH2 0x1947 DUP2 PUSH2 0x192D JUMP JUMPDEST DUP2 EQ PUSH2 0x1951 JUMPI PUSH0 DUP1 REVERT JUMPDEST POP JUMP JUMPDEST PUSH0 DUP2 CALLDATALOAD SWAP1 POP PUSH2 0x1962 DUP2 PUSH2 0x193E JUMP JUMPDEST SWAP3 SWAP2 POP POP JUMP JUMPDEST PUSH0 DUP2 SWAP1 POP SWAP2 SWAP1 POP JUMP JUMPDEST PUSH2 0x197A DUP2 PUSH2 0x1968 JUMP JUMPDEST DUP2 EQ PUSH2 0x1984 JUMPI PUSH0 DUP1 REVERT JUMPDEST POP JUMP JUMPDEST PUSH0 DUP2 CALLDATALOAD SWAP1 POP PUSH2 0x1995 DUP2 PUSH2 0x1971 JUMP JUMPDEST SWAP3 SWAP2 POP POP JUMP JUMPDEST PUSH0 DUP1 PUSH1 0x40 DUP4 DUP6 SUB SLT ISZERO PUSH2 0x19B1 JUMPI PUSH2 0x19B0 PUSH2 0x190A JUMP JUMPDEST JUMPDEST PUSH0 PUSH2 0x19BE DUP6 DUP3 DUP7 ADD PUSH2 0x1954 JUMP JUMPDEST SWAP3 POP POP PUSH1 0x20 PUSH2 0x19CF DUP6 DUP3 DUP7 ADD PUSH2 0x1987 JUMP JUMPDEST SWAP2 POP POP SWAP3 POP SWAP3 SWAP1 POP JUMP JUMPDEST PUSH0 DUP2 ISZERO ISZERO SWAP1 POP SWAP2 SWAP1 POP JUMP JUMPDEST PUSH2 0x19ED DUP2 PUSH2 0x19D9 JUMP JUMPDEST DUP3 MSTORE POP POP JUMP JUMPDEST PUSH0 PUSH1 0x20 DUP3 ADD SWAP1 POP PUSH2 0x1A06 PUSH0 DUP4 ADD DUP5 PUSH2 0x19E4 JUMP JUMPDEST SWAP3 SWAP2 POP POP JUMP JUMPDEST PUSH0 DUP2 SWAP1 POP SWAP2 SWAP1 POP JUMP JUMPDEST PUSH0 PUSH2 0x1A2F PUSH2 0x1A2A PUSH2 0x1A25 DUP5 PUSH2 0x190E JUMP JUMPDEST PUSH2 0x1A0C JUMP JUMPDEST PUSH2 0x190E JUMP JUMPDEST SWAP1 POP SWAP2 SWAP1 POP JUMP JUMPDEST PUSH0 PUSH2 0x1A40 DUP3 PUSH2 0x1A15 JUMP JUMPDEST SWAP1 POP SWAP2 SWAP1 POP JUMP JUMPDEST PUSH0 PUSH2 0x1A51 DUP3 PUSH2 0x1A36 JUMP JUMPDEST SWAP1 POP SWAP2 SWAP1 POP JUMP JUMPDEST PUSH2 0x1A61 DUP2 PUSH2 0x1A47 JUMP JUMPDEST DUP3 MSTORE POP POP JUMP JUMPDEST PUSH0 PUSH1 0x20 DUP3 ADD SWAP1 POP PUSH2 0x1A7A PUSH0 DUP4 ADD DUP5 PUSH2 0x1A58 JUMP JUMPDEST SWAP3 SWAP2 POP POP JUMP JUMPDEST PUSH2 0x1A89 DUP2 PUSH2 0x1968 JUMP JUMPDEST DUP3 MSTORE POP POP JUMP JUMPDEST PUSH0 PUSH1 0x20 DUP3 ADD SWAP1 POP PUSH2 0x1AA2 PUSH0 DUP4 ADD DUP5 PUSH2 0x1A80 JUMP JUMPDEST SWAP3 SWAP2 POP POP JUMP JUMPDEST PUSH0 DUP1 PUSH0 PUSH1 0x60 DUP5 DUP7 SUB SLT ISZERO PUSH2 0x1ABF JUMPI PUSH2 0x1ABE PUSH2 0x190A JUMP JUMPDEST JUMPDEST PUSH0 PUSH2 0x1ACC DUP7 DUP3 DUP8 ADD PUSH2 0x1954 JUMP JUMPDEST SWAP4 POP POP PUSH1 0x20 PUSH2 0x1ADD DUP7 DUP3 DUP8 ADD PUSH2 0x1954 JUMP JUMPDEST SWAP3 POP POP PUSH1 0x40 PUSH2 0x1AEE DUP7 DUP3 DUP8 ADD PUSH2 0x1987 JUMP JUMPDEST SWAP2 POP POP SWAP3 POP SWAP3 POP SWAP3 JUMP JUMPDEST PUSH0 PUSH1 0xFF DUP3 AND SWAP1 POP SWAP2 SWAP1 POP JUMP JUMPDEST PUSH2 0x1B0D DUP2 PUSH2 0x1AF8 JUMP JUMPDEST DUP3 MSTORE POP POP JUMP JUMPDEST PUSH0 PUSH1 0x20 DUP3 ADD SWAP1 POP PUSH2 0x1B26 PUSH0 DUP4 ADD DUP5 PUSH2 0x1B04 JUMP JUMPDEST SWAP3 SWAP2 POP POP JUMP JUMPDEST PUSH0 PUSH1 0x20 DUP3 DUP5 SUB SLT ISZERO PUSH2 0x1B41 JUMPI PUSH2 0x1B40 PUSH2 0x190A JUMP JUMPDEST JUMPDEST PUSH0 PUSH2 0x1B4E DUP5 DUP3 DUP6 ADD PUSH2 0x1954 JUMP JUMPDEST SWAP2 POP POP SWAP3 SWAP2 POP POP JUMP JUMPDEST PUSH0 PUSH2 0x1B61 DUP3 PUSH2 0x1A36 JUMP JUMPDEST SWAP1 POP SWAP2 SWAP1 POP JUMP JUMPDEST PUSH2 0x1B71 DUP2 PUSH2 0x1B57 JUMP JUMPDEST DUP3 MSTORE POP POP JUMP JUMPDEST PUSH0 PUSH1 0x20 DUP3 ADD SWAP1 POP PUSH2 0x1B8A PUSH0 DUP4 ADD DUP5 PUSH2 0x1B68 JUMP JUMPDEST SWAP3 SWAP2 POP POP JUMP JUMPDEST PUSH0 PUSH1 0x20 DUP3 DUP5 SUB SLT ISZERO PUSH2 0x1BA5 JUMPI PUSH2 0x1BA4 PUSH2 0x190A JUMP JUMPDEST JUMPDEST PUSH0 PUSH2 0x1BB2 DUP5 DUP3 DUP6 ADD PUSH2 0x1987 JUMP JUMPDEST SWAP2 POP POP SWAP3 SWAP2 POP POP JUMP JUMPDEST PUSH0 PUSH1 0x40 DUP3 ADD SWAP1 POP PUSH2 0x1BCE PUSH0 DUP4 ADD DUP6 PUSH2 0x1A80 JUMP JUMPDEST PUSH2 0x1BDB PUSH1 0x20 DUP4 ADD DUP5 PUSH2 0x1A80 JUMP JUMPDEST SWAP4 SWAP3 POP POP POP JUMP JUMPDEST PUSH0 DUP1 PUSH1 0x40 DUP4 DUP6 SUB SLT ISZERO PUSH2 0x1BF8 JUMPI PUSH2 0x1BF7 PUSH2 0x190A JUMP JUMPDEST JUMPDEST PUSH0 PUSH2 0x1C05 DUP6 DUP3 DUP7 ADD PUSH2 0x1987 JUMP JUMPDEST SWAP3 POP POP PUSH1 0x20 PUSH2 0x1C16 DUP6 DUP3 DUP7 ADD PUSH2 0x1987 JUMP JUMPDEST SWAP2 POP POP SWAP3 POP SWAP3 SWAP1 POP JUMP JUMPDEST PUSH0 DUP1 PUSH1 0x40 DUP4 DUP6 SUB SLT ISZERO PUSH2 0x1C36 JUMPI PUSH2 0x1C35 PUSH2 0x190A JUMP JUMPDEST JUMPDEST PUSH0 PUSH2 0x1C43 DUP6 DUP3 DUP7 ADD PUSH2 0x1954 JUMP JUMPDEST SWAP3 POP POP PUSH1 0x20 PUSH2 0x1C54 DUP6 DUP3 DUP7 ADD PUSH2 0x1954 JUMP JUMPDEST SWAP2 POP POP SWAP3 POP SWAP3 SWAP1 POP JUMP JUMPDEST PUSH32 0x4E487B7100000000000000000000000000000000000000000000000000000000 PUSH0 MSTORE PUSH1 0x22 PUSH1 0x4 MSTORE PUSH1 0x24 PUSH0 REVERT JUMPDEST PUSH0 PUSH1 0x2 DUP3 DIV SWAP1 POP PUSH1 0x1 DUP3 AND DUP1 PUSH2 0x1CA2 JUMPI PUSH1 0x7F DUP3 AND SWAP2 POP JUMPDEST PUSH1 0x20 DUP3 LT DUP2 SUB PUSH2 0x1CB5 JUMPI PUSH2 0x1CB4 PUSH2 0x1C5E JUMP JUMPDEST JUMPDEST POP SWAP2 SWAP1 POP JUMP JUMPDEST PUSH0 PUSH10 0xFFFFFFFFFFFFFFFFFFFF DUP3 AND SWAP1 POP SWAP2 SWAP1 POP JUMP JUMPDEST PUSH2 0x1CD9 DUP2 PUSH2 0x1CBB JUMP JUMPDEST DUP2 EQ PUSH2 0x1CE3 JUMPI PUSH0 DUP1 REVERT JUMPDEST POP JUMP JUMPDEST PUSH0 DUP2 MLOAD SWAP1 POP PUSH2 0x1CF4 DUP2 PUSH2 0x1CD0 JUMP JUMPDEST SWAP3 SWAP2 POP POP JUMP JUMPDEST PUSH0 DUP2 SWAP1 POP SWAP2 SWAP1 POP JUMP JUMPDEST PUSH2 0x1D0C DUP2 PUSH2 0x1CFA JUMP JUMPDEST DUP2 EQ PUSH2 0x1D16 JUMPI PUSH0 DUP1 REVERT JUMPDEST POP JUMP JUMPDEST PUSH0 DUP2 MLOAD SWAP1 POP PUSH2 0x1D27 DUP2 PUSH2 0x1D03 JUMP JUMPDEST SWAP3 SWAP2 POP POP JUMP JUMPDEST PUSH0 DUP2 MLOAD SWAP1 POP PUSH2 0x1D3B DUP2 PUSH2 0x1971 JUMP JUMPDEST SWAP3 SWAP2 POP POP JUMP JUMPDEST PUSH0 DUP1 PUSH0 DUP1 PUSH0 PUSH1 0xA0 DUP7 DUP9 SUB SLT ISZERO PUSH2 0x1D5A JUMPI PUSH2 0x1D59 PUSH2 0x190A JUMP JUMPDEST JUMPDEST PUSH0 PUSH2 0x1D67 DUP9 DUP3 DUP10 ADD PUSH2 0x1CE6 JUMP JUMPDEST SWAP6 POP POP PUSH1 0x20 PUSH2 0x1D78 DUP9 DUP3 DUP10 ADD PUSH2 0x1D19 JUMP JUMPDEST SWAP5 POP POP PUSH1 0x40 PUSH2 0x1D89 DUP9 DUP3 DUP10 ADD PUSH2 0x1D2D JUMP JUMPDEST SWAP4 POP POP PUSH1 0x60 PUSH2 0x1D9A DUP9 DUP3 DUP10 ADD PUSH2 0x1D2D JUMP JUMPDEST SWAP3 POP POP PUSH1 0x80 PUSH2 0x1DAB DUP9 DUP3 DUP10 ADD PUSH2 0x1CE6 JUMP JUMPDEST SWAP2 POP POP SWAP3 SWAP6 POP SWAP3 SWAP6 SWAP1 SWAP4 POP JUMP JUMPDEST PUSH32 0x496E76616C696420707269636500000000000000000000000000000000000000 PUSH0 DUP3 ADD MSTORE POP JUMP JUMPDEST PUSH0 PUSH2 0x1DEC PUSH1 0xD DUP4 PUSH2 0x1884 JUMP JUMPDEST SWAP2 POP PUSH2 0x1DF7 DUP3 PUSH2 0x1DB8 JUMP JUMPDEST PUSH1 0x20 DUP3 ADD SWAP1 POP SWAP2 SWAP1 POP JUMP JUMPDEST PUSH0 PUSH1 0x20 DUP3 ADD SWAP1 POP DUP2 DUP2 SUB PUSH0 DUP4 ADD MSTORE PUSH2 0x1E19 DUP2 PUSH2 0x1DE0 JUMP JUMPDEST SWAP1 POP SWAP2 SWAP1 POP JUMP JUMPDEST PUSH32 0x4E487B7100000000000000000000000000000000000000000000000000000000 PUSH0 MSTORE PUSH1 0x12 PUSH1 0x4 MSTORE PUSH1 0x24 PUSH0 REVERT JUMPDEST PUSH32 0x4E487B7100000000000000000000000000000000000000000000000000000000 PUSH0 MSTORE PUSH1 0x11 PUSH1 0x4 MSTORE PUSH1 0x24 PUSH0 REVERT JUMPDEST PUSH0 PUSH2 0x1E84 DUP3 PUSH2 0x1CFA JUMP JUMPDEST SWAP2 POP PUSH2 0x1E8F DUP4 PUSH2 0x1CFA JUMP JUMPDEST SWAP3 POP DUP3 PUSH2 0x1E9F JUMPI PUSH2 0x1E9E PUSH2 0x1E20 JUMP JUMPDEST JUMPDEST PUSH1 0x1 PUSH0 SUB DUP4 EQ PUSH32 0x8000000000000000000000000000000000000000000000000000000000000000 DUP4 EQ AND ISZERO PUSH2 0x1ED7 JUMPI PUSH2 0x1ED6 PUSH2 0x1E4D JUMP JUMPDEST JUMPDEST DUP3 DUP3 SDIV SWAP1 POP SWAP3 SWAP2 POP POP JUMP JUMPDEST PUSH0 PUSH2 0x1EEC DUP3 PUSH2 0x1968 JUMP JUMPDEST SWAP2 POP PUSH2 0x1EF7 DUP4 PUSH2 0x1968 JUMP JUMPDEST SWAP3 POP DUP3 DUP3 MUL PUSH2 0x1F05 DUP2 PUSH2 0x1968 JUMP JUMPDEST SWAP2 POP DUP3 DUP3 DIV DUP5 EQ DUP4 ISZERO OR PUSH2 0x1F1C JUMPI PUSH2 0x1F1B PUSH2 0x1E4D JUMP JUMPDEST JUMPDEST POP SWAP3 SWAP2 POP POP JUMP JUMPDEST PUSH0 PUSH2 0x1F2D DUP3 PUSH2 0x1968 JUMP JUMPDEST SWAP2 POP PUSH2 0x1F38 DUP4 PUSH2 0x1968 JUMP JUMPDEST SWAP3 POP DUP3 PUSH2 0x1F48 JUMPI PUSH2 0x1F47 PUSH2 0x1E20 JUMP JUMPDEST JUMPDEST DUP3 DUP3 DIV SWAP1 POP SWAP3 SWAP2 POP POP JUMP JUMPDEST PUSH32 0x5A45524F20414D4F554E54000000000000000000000000000000000000000000 PUSH0 DUP3 ADD MSTORE POP JUMP JUMPDEST PUSH0 PUSH2 0x1F87 PUSH1 0xB DUP4 PUSH2 0x1884 JUMP JUMPDEST SWAP2 POP PUSH2 0x1F92 DUP3 PUSH2 0x1F53 JUMP JUMPDEST PUSH1 0x20 DUP3 ADD SWAP1 POP SWAP2 SWAP1 POP JUMP JUMPDEST PUSH0 PUSH1 0x20 DUP3 ADD SWAP1 POP DUP2 DUP2 SUB PUSH0 DUP4 ADD MSTORE PUSH2 0x1FB4 DUP2 PUSH2 0x1F7B JUMP JUMPDEST SWAP1 POP SWAP2 SWAP1 POP JUMP JUMPDEST PUSH0 PUSH2 0x1FC5 DUP3 PUSH2 0x1968 JUMP JUMPDEST SWAP2 POP PUSH2 0x1FD0 DUP4 PUSH2 0x1968 JUMP JUMPDEST SWAP3 POP DUP3 DUP3 SUB SWAP1 POP DUP2 DUP2 GT ISZERO PUSH2 0x1FE8 JUMPI PUSH2 0x1FE7 PUSH2 0x1E4D JUMP JUMPDEST JUMPDEST SWAP3 SWAP2 POP POP JUMP JUMPDEST PUSH2 0x1FF7 DUP2 PUSH2 0x192D JUMP JUMPDEST DUP3 MSTORE POP POP JUMP JUMPDEST PUSH0 PUSH1 0x40 DUP3 ADD SWAP1 POP PUSH2 0x2010 PUSH0 DUP4 ADD DUP6 PUSH2 0x1FEE JUMP JUMPDEST PUSH2 0x201D PUSH1 0x20 DUP4 ADD DUP5 PUSH2 0x1A80 JUMP JUMPDEST SWAP4 SWAP3 POP POP POP JUMP JUMPDEST PUSH2 0x202D DUP2 PUSH2 0x19D9 JUMP JUMPDEST DUP2 EQ PUSH2 0x2037 JUMPI PUSH0 DUP1 REVERT JUMPDEST POP JUMP JUMPDEST PUSH0 DUP2 MLOAD SWAP1 POP PUSH2 0x2048 DUP2 PUSH2 0x2024 JUMP JUMPDEST SWAP3 SWAP2 POP POP JUMP JUMPDEST PUSH0 PUSH1 0x20 DUP3 DUP5 SUB SLT ISZERO PUSH2 0x2063 JUMPI PUSH2 0x2062 PUSH2 0x190A JUMP JUMPDEST JUMPDEST PUSH0 PUSH2 0x2070 DUP5 DUP3 DUP6 ADD PUSH2 0x203A JUMP JUMPDEST SWAP2 POP POP SWAP3 SWAP2 POP POP JUMP JUMPDEST PUSH32 0x564E5354206D757374206D617463682042544320707269636500000000000000 PUSH0 DUP3 ADD MSTORE POP JUMP JUMPDEST PUSH0 PUSH2 0x20AD PUSH1 0x19 DUP4 PUSH2 0x1884 JUMP JUMPDEST SWAP2 POP PUSH2 0x20B8 DUP3 PUSH2 0x2079 JUMP JUMPDEST PUSH1 0x20 DUP3 ADD SWAP1 POP SWAP2 SWAP1 POP JUMP JUMPDEST PUSH0 PUSH1 0x20 DUP3 ADD SWAP1 POP DUP2 DUP2 SUB PUSH0 DUP4 ADD MSTORE PUSH2 0x20DA DUP2 PUSH2 0x20A1 JUMP JUMPDEST SWAP1 POP SWAP2 SWAP1 POP JUMP JUMPDEST PUSH0 PUSH1 0x60 DUP3 ADD SWAP1 POP PUSH2 0x20F4 PUSH0 DUP4 ADD DUP7 PUSH2 0x1FEE JUMP JUMPDEST PUSH2 0x2101 PUSH1 0x20 DUP4 ADD DUP6 PUSH2 0x1FEE JUMP JUMPDEST PUSH2 0x210E PUSH1 0x40 DUP4 ADD DUP5 PUSH2 0x1A80 JUMP JUMPDEST SWAP5 SWAP4 POP POP POP POP JUMP JUMPDEST PUSH32 0x5A45524F5F534841524553000000000000000000000000000000000000000000 PUSH0 DUP3 ADD MSTORE POP JUMP JUMPDEST PUSH0 PUSH2 0x214A PUSH1 0xB DUP4 PUSH2 0x1884 JUMP JUMPDEST SWAP2 POP PUSH2 0x2155 DUP3 PUSH2 0x2116 JUMP JUMPDEST PUSH1 0x20 DUP3 ADD SWAP1 POP SWAP2 SWAP1 POP JUMP JUMPDEST PUSH0 PUSH1 0x20 DUP3 ADD SWAP1 POP DUP2 DUP2 SUB PUSH0 DUP4 ADD MSTORE PUSH2 0x2177 DUP2 PUSH2 0x213E JUMP JUMPDEST SWAP1 POP SWAP2 SWAP1 POP JUMP JUMPDEST PUSH0 PUSH2 0x2188 DUP3 PUSH2 0x1968 JUMP JUMPDEST SWAP2 POP PUSH2 0x2193 DUP4 PUSH2 0x1968 JUMP JUMPDEST SWAP3 POP DUP3 DUP3 ADD SWAP1 POP DUP1 DUP3 GT ISZERO PUSH2 0x21AB JUMPI PUSH2 0x21AA PUSH2 0x1E4D JUMP JUMPDEST JUMPDEST SWAP3 SWAP2 POP POP JUMP JUMPDEST PUSH32 0x5A45524F20414444524553530000000000000000000000000000000000000000 PUSH0 DUP3 ADD MSTORE POP JUMP JUMPDEST PUSH0 PUSH2 0x21E5 PUSH1 0xC DUP4 PUSH2 0x1884 JUMP JUMPDEST SWAP2 POP PUSH2 0x21F0 DUP3 PUSH2 0x21B1 JUMP JUMPDEST PUSH1 0x20 DUP3 ADD SWAP1 POP SWAP2 SWAP1 POP JUMP JUMPDEST PUSH0 PUSH1 0x20 DUP3 ADD SWAP1 POP DUP2 DUP2 SUB PUSH0 DUP4 ADD MSTORE PUSH2 0x2212 DUP2 PUSH2 0x21D9 JUMP JUMPDEST SWAP1 POP SWAP2 SWAP1 POP JUMP JUMPDEST PUSH0 PUSH1 0x60 DUP3 ADD SWAP1 POP PUSH2 0x222C PUSH0 DUP4 ADD DUP7 PUSH2 0x1FEE JUMP JUMPDEST PUSH2 0x2239 PUSH1 0x20 DUP4 ADD DUP6 PUSH2 0x1A80 JUMP JUMPDEST PUSH2 0x2246 PUSH1 0x40 DUP4 ADD DUP5 PUSH2 0x1A80 JUMP JUMPDEST SWAP5 SWAP4 POP POP POP POP JUMP JUMPDEST PUSH0 PUSH1 0x20 DUP3 ADD SWAP1 POP PUSH2 0x2261 PUSH0 DUP4 ADD DUP5 PUSH2 0x1FEE JUMP JUMPDEST SWAP3 SWAP2 POP POP JUMP INVALID LOG2 PUSH5 0x6970667358 0x22 SLT KECCAK256 ADD 0xBA 0x2B 0xAE 0xB0 0xAC PUSH16 0x3C71D1F741CF1A475E8BBE155B7359E0 PUSH23 0xBE4B164FB7B784E664736F6C634300081A003300000000 "
				},
				"gasEstimates": {
					"creation": {
						"codeDepositCost": "1772200",
						"executionCost": "infinite",
						"totalCost": "infinite"
					},
					"external": {
						"addLiquidity(uint256,uint256)": "infinite",
						"allowance(address,address)": "infinite",
						"approve(address,uint256)": "infinite",
						"balanceOf(address)": "2852",
						"decimals()": "405",
						"fee()": "2535",
						"getLatestBTCPrice()": "infinite",
						"name()": "infinite",
						"priceFeed()": "infinite",
						"removeLiquidity(uint256)": "infinite",
						"reserve0()": "2514",
						"reserve1()": "2536",
						"swap(address,uint256)": "infinite",
						"symbol()": "infinite",
						"token0()": "infinite",
						"token1()": "infinite",
						"totalSupply()": "2522",
						"transfer(address,uint256)": "infinite",
						"transferFrom(address,address,uint256)": "infinite"
					},
					"internal": {
						"_min(uint256,uint256)": "66",
						"_sqrt(uint256)": "infinite",
						"_update(uint256,uint256)": "44241"
					}
				},
				"methodIdentifiers": {
					"addLiquidity(uint256,uint256)": "9cd441da",
					"allowance(address,address)": "dd62ed3e",
					"approve(address,uint256)": "095ea7b3",
					"balanceOf(address)": "70a08231",
					"decimals()": "313ce567",
					"fee()": "ddca3f43",
					"getLatestBTCPrice()": "1b712739",
					"name()": "06fdde03",
					"priceFeed()": "741bef1a",
					"removeLiquidity(uint256)": "9c8f9f23",
					"reserve0()": "443cb4bc",
					"reserve1()": "5a76f25e",
					"swap(address,uint256)": "d004f0f7",
					"symbol()": "95d89b41",
					"token0()": "0dfe1681",
					"token1()": "d21220a7",
					"totalSupply()": "18160ddd",
					"transfer(address,uint256)": "a9059cbb",
					"transferFrom(address,address,uint256)": "23b872dd"
				}
			},
			"storageLayout": {
				"storage": [
					{
						"astId": 205,
						"contract": "contracts/ConstantK.sol:CPAMM",
						"label": "_balances",
						"offset": 0,
						"slot": "0",
						"type": "t_mapping(t_address,t_uint256)"
					},
					{
						"astId": 211,
						"contract": "contracts/ConstantK.sol:CPAMM",
						"label": "_allowances",
						"offset": 0,
						"slot": "1",
						"type": "t_mapping(t_address,t_mapping(t_address,t_uint256))"
					},
					{
						"astId": 213,
						"contract": "contracts/ConstantK.sol:CPAMM",
						"label": "_totalSupply",
						"offset": 0,
						"slot": "2",
						"type": "t_uint256"
					},
					{
						"astId": 215,
						"contract": "contracts/ConstantK.sol:CPAMM",
						"label": "_name",
						"offset": 0,
						"slot": "3",
						"type": "t_string_storage"
					},
					{
						"astId": 217,
						"contract": "contracts/ConstantK.sol:CPAMM",
						"label": "_symbol",
						"offset": 0,
						"slot": "4",
						"type": "t_string_storage"
					},
					{
						"astId": 850,
						"contract": "contracts/ConstantK.sol:CPAMM",
						"label": "fee",
						"offset": 0,
						"slot": "5",
						"type": "t_uint256"
					},
					{
						"astId": 852,
						"contract": "contracts/ConstantK.sol:CPAMM",
						"label": "reserve0",
						"offset": 0,
						"slot": "6",
						"type": "t_uint256"
					},
					{
						"astId": 854,
						"contract": "contracts/ConstantK.sol:CPAMM",
						"label": "reserve1",
						"offset": 0,
						"slot": "7",
						"type": "t_uint256"
					},
					{
						"astId": 856,
						"contract": "contracts/ConstantK.sol:CPAMM",
						"label": "owner",
						"offset": 0,
						"slot": "8",
						"type": "t_address"
					}
				],
				"types": {
					"t_address": {
						"encoding": "inplace",
						"label": "address",
						"numberOfBytes": "20"
					},
					"t_mapping(t_address,t_mapping(t_address,t_uint256))": {
						"encoding": "mapping",
						"key": "t_address",
						"label": "mapping(address => mapping(address => uint256))",
						"numberOfBytes": "32",
						"value": "t_mapping(t_address,t_uint256)"
					},
					"t_mapping(t_address,t_uint256)": {
						"encoding": "mapping",
						"key": "t_address",
						"label": "mapping(address => uint256)",
						"numberOfBytes": "32",
						"value": "t_uint256"
					},
					"t_string_storage": {
						"encoding": "bytes",
						"label": "string",
						"numberOfBytes": "32"
					},
					"t_uint256": {
						"encoding": "inplace",
						"label": "uint256",
						"numberOfBytes": "32"
					}
				}
			},
			"userdoc": {
				"kind": "user",
				"methods": {},
				"version": 1
			}
		}
	}
}