{
	"contracts/CPAMM.sol": {
		"CPAMM": {
			"abi": [
				{
					"inputs": [
						{
							"internalType": "address",
							"name": "_token0",
							"type": "address"
						},
						{
							"internalType": "address",
							"name": "_token1",
							"type": "address"
						}
					],
					"stateMutability": "nonpayable",
					"type": "constructor"
				},
				{
					"inputs": [
						{
							"internalType": "uint256",
							"name": "_amount0",
							"type": "uint256"
						},
						{
							"internalType": "uint256",
							"name": "_amount1",
							"type": "uint256"
						}
					],
					"name": "addLiquidity",
					"outputs": [
						{
							"internalType": "uint256",
							"name": "shares",
							"type": "uint256"
						}
					],
					"stateMutability": "nonpayable",
					"type": "function"
				},
				{
					"inputs": [
						{
							"internalType": "address",
							"name": "",
							"type": "address"
						}
					],
					"name": "balanceOf",
					"outputs": [
						{
							"internalType": "uint256",
							"name": "",
							"type": "uint256"
						}
					],
					"stateMutability": "view",
					"type": "function"
				},
				{
					"inputs": [],
					"name": "fee",
					"outputs": [
						{
							"internalType": "uint256",
							"name": "",
							"type": "uint256"
						}
					],
					"stateMutability": "view",
					"type": "function"
				},
				{
					"inputs": [
						{
							"internalType": "uint256",
							"name": "_shares",
							"type": "uint256"
						}
					],
					"name": "removeLiquidity",
					"outputs": [
						{
							"internalType": "uint256",
							"name": "amount0",
							"type": "uint256"
						},
						{
							"internalType": "uint256",
							"name": "amount1",
							"type": "uint256"
						}
					],
					"stateMutability": "nonpayable",
					"type": "function"
				},
				{
					"inputs": [],
					"name": "reserve0",
					"outputs": [
						{
							"internalType": "uint256",
							"name": "",
							"type": "uint256"
						}
					],
					"stateMutability": "view",
					"type": "function"
				},
				{
					"inputs": [],
					"name": "reserve1",
					"outputs": [
						{
							"internalType": "uint256",
							"name": "",
							"type": "uint256"
						}
					],
					"stateMutability": "view",
					"type": "function"
				},
				{
					"inputs": [
						{
							"internalType": "address",
							"name": "_tokenIn",
							"type": "address"
						},
						{
							"internalType": "uint256",
							"name": "_amountIn",
							"type": "uint256"
						}
					],
					"name": "swap",
					"outputs": [
						{
							"internalType": "uint256",
							"name": "amountOut",
							"type": "uint256"
						}
					],
					"stateMutability": "nonpayable",
					"type": "function"
				},
				{
					"inputs": [],
					"name": "token0",
					"outputs": [
						{
							"internalType": "contract IERC20",
							"name": "",
							"type": "address"
						}
					],
					"stateMutability": "view",
					"type": "function"
				},
				{
					"inputs": [],
					"name": "token1",
					"outputs": [
						{
							"internalType": "contract IERC20",
							"name": "",
							"type": "address"
						}
					],
					"stateMutability": "view",
					"type": "function"
				},
				{
					"inputs": [],
					"name": "totalSupply",
					"outputs": [
						{
							"internalType": "uint256",
							"name": "",
							"type": "uint256"
						}
					],
					"stateMutability": "view",
					"type": "function"
				}
			],
			"devdoc": {
				"kind": "dev",
				"methods": {},
				"version": 1
			},
			"evm": {
				"assembly": "    /* \"contracts/CPAMM.sol\":120:3454  contract CPAMM {... */\n  mstore(0x40, 0xc0)\n    /* \"contracts/CPAMM.sol\":237:238  3 */\n  0x03\n    /* \"contracts/CPAMM.sol\":216:238  uint256 public fee = 3 */\n  0x00\n  sstore\n    /* \"contracts/CPAMM.sol\":402:526  constructor(address _token0, address _token1) {... */\n  callvalue\n  dup1\n  iszero\n  tag_1\n  jumpi\n  0x00\n  dup1\n  revert\ntag_1:\n  pop\n  mload(0x40)\n  sub(codesize, bytecodeSize)\n  dup1\n  bytecodeSize\n  dup4\n  codecopy\n  dup2\n  dup2\n  add\n  0x40\n  mstore\n  dup2\n  add\n  swap1\n  tag_2\n  swap2\n  swap1\n  tag_3\n  jump\t// in\ntag_2:\n    /* \"contracts/CPAMM.sol\":475:482  _token0 */\n  dup2\n    /* \"contracts/CPAMM.sol\":459:483  token0 = IERC20(_token0) */\n  0xffffffffffffffffffffffffffffffffffffffff\n  and\n  0x80\n  dup2\n  0xffffffffffffffffffffffffffffffffffffffff\n  and\n  dup2\n  mstore\n  pop\n  pop\n    /* \"contracts/CPAMM.sol\":510:517  _token1 */\n  dup1\n    /* \"contracts/CPAMM.sol\":494:518  token1 = IERC20(_token1) */\n  0xffffffffffffffffffffffffffffffffffffffff\n  and\n  0xa0\n  dup2\n  0xffffffffffffffffffffffffffffffffffffffff\n  and\n  dup2\n  mstore\n  pop\n  pop\n    /* \"contracts/CPAMM.sol\":402:526  constructor(address _token0, address _token1) {... */\n  pop\n  pop\n    /* \"contracts/CPAMM.sol\":120:3454  contract CPAMM {... */\n  jump(tag_6)\n    /* \"#utility.yul\":88:205   */\ntag_8:\n    /* \"#utility.yul\":197:198   */\n  0x00\n    /* \"#utility.yul\":194:195   */\n  dup1\n    /* \"#utility.yul\":187:199   */\n  revert\n    /* \"#utility.yul\":334:460   */\ntag_10:\n    /* \"#utility.yul\":371:378   */\n  0x00\n    /* \"#utility.yul\":411:453   */\n  0xffffffffffffffffffffffffffffffffffffffff\n    /* \"#utility.yul\":404:409   */\n  dup3\n    /* \"#utility.yul\":400:454   */\n  and\n    /* \"#utility.yul\":389:454   */\n  swap1\n  pop\n    /* \"#utility.yul\":334:460   */\n  swap2\n  swap1\n  pop\n  jump\t// out\n    /* \"#utility.yul\":466:562   */\ntag_11:\n    /* \"#utility.yul\":503:510   */\n  0x00\n    /* \"#utility.yul\":532:556   */\n  tag_20\n    /* \"#utility.yul\":550:555   */\n  dup3\n    /* \"#utility.yul\":532:556   */\n  tag_10\n  jump\t// in\ntag_20:\n    /* \"#utility.yul\":521:556   */\n  swap1\n  pop\n    /* \"#utility.yul\":466:562   */\n  swap2\n  swap1\n  pop\n  jump\t// out\n    /* \"#utility.yul\":568:690   */\ntag_12:\n    /* \"#utility.yul\":641:665   */\n  tag_22\n    /* \"#utility.yul\":659:664   */\n  dup2\n    /* \"#utility.yul\":641:665   */\n  tag_11\n  jump\t// in\ntag_22:\n    /* \"#utility.yul\":634:639   */\n  dup2\n    /* \"#utility.yul\":631:666   */\n  eq\n    /* \"#utility.yul\":621:684   */\n  tag_23\n  jumpi\n    /* \"#utility.yul\":680:681   */\n  0x00\n    /* \"#utility.yul\":677:678   */\n  dup1\n    /* \"#utility.yul\":670:682   */\n  revert\n    /* \"#utility.yul\":621:684   */\ntag_23:\n    /* \"#utility.yul\":568:690   */\n  pop\n  jump\t// out\n    /* \"#utility.yul\":696:839   */\ntag_13:\n    /* \"#utility.yul\":753:758   */\n  0x00\n    /* \"#utility.yul\":784:790   */\n  dup2\n    /* \"#utility.yul\":778:791   */\n  mload\n    /* \"#utility.yul\":769:791   */\n  swap1\n  pop\n    /* \"#utility.yul\":800:833   */\n  tag_25\n    /* \"#utility.yul\":827:832   */\n  dup2\n    /* \"#utility.yul\":800:833   */\n  tag_12\n  jump\t// in\ntag_25:\n    /* \"#utility.yul\":696:839   */\n  swap3\n  swap2\n  pop\n  pop\n  jump\t// out\n    /* \"#utility.yul\":845:1352   */\ntag_3:\n    /* \"#utility.yul\":924:930   */\n  0x00\n    /* \"#utility.yul\":932:938   */\n  dup1\n    /* \"#utility.yul\":981:983   */\n  0x40\n    /* \"#utility.yul\":969:978   */\n  dup4\n    /* \"#utility.yul\":960:967   */\n  dup6\n    /* \"#utility.yul\":956:979   */\n  sub\n    /* \"#utility.yul\":952:984   */\n  slt\n    /* \"#utility.yul\":949:1068   */\n  iszero\n  tag_27\n  jumpi\n    /* \"#utility.yul\":987:1066   */\n  tag_28\n  tag_8\n  jump\t// in\ntag_28:\n    /* \"#utility.yul\":949:1068   */\ntag_27:\n    /* \"#utility.yul\":1107:1108   */\n  0x00\n    /* \"#utility.yul\":1132:1196   */\n  tag_29\n    /* \"#utility.yul\":1188:1195   */\n  dup6\n    /* \"#utility.yul\":1179:1185   */\n  dup3\n    /* \"#utility.yul\":1168:1177   */\n  dup7\n    /* \"#utility.yul\":1164:1186   */\n  add\n    /* \"#utility.yul\":1132:1196   */\n  tag_13\n  jump\t// in\ntag_29:\n    /* \"#utility.yul\":1122:1196   */\n  swap3\n  pop\n    /* \"#utility.yul\":1078:1206   */\n  pop\n    /* \"#utility.yul\":1245:1247   */\n  0x20\n    /* \"#utility.yul\":1271:1335   */\n  tag_30\n    /* \"#utility.yul\":1327:1334   */\n  dup6\n    /* \"#utility.yul\":1318:1324   */\n  dup3\n    /* \"#utility.yul\":1307:1316   */\n  dup7\n    /* \"#utility.yul\":1303:1325   */\n  add\n    /* \"#utility.yul\":1271:1335   */\n  tag_13\n  jump\t// in\ntag_30:\n    /* \"#utility.yul\":1261:1335   */\n  swap2\n  pop\n    /* \"#utility.yul\":1216:1345   */\n  pop\n    /* \"#utility.yul\":845:1352   */\n  swap3\n  pop\n  swap3\n  swap1\n  pop\n  jump\t// out\n    /* \"contracts/CPAMM.sol\":120:3454  contract CPAMM {... */\ntag_6:\n  mload(0x80)\n  mload(0xa0)\n  codecopy(0x00, dataOffset(sub_0), dataSize(sub_0))\n  0x00\n  assignImmutable(\"0xcc193713febc75d3d9bd2f9ce113f403ff19633f15c8cdbcf79756ae23e77f9a\")\n  0x00\n  assignImmutable(\"0x043ab7193d962ca510e48770a5a13714f4684febe0e5affcfd1eb73cfed1f218\")\n  return(0x00, dataSize(sub_0))\nstop\n\nsub_0: assembly {\n        /* \"contracts/CPAMM.sol\":120:3454  contract CPAMM {... */\n      mstore(0x40, 0x80)\n      callvalue\n      dup1\n      iszero\n      tag_1\n      jumpi\n      0x00\n      dup1\n      revert\n    tag_1:\n      pop\n      jumpi(tag_2, lt(calldatasize, 0x04))\n      shr(0xe0, calldataload(0x00))\n      dup1\n      0x9c8f9f23\n      gt\n      tag_13\n      jumpi\n      dup1\n      0x9c8f9f23\n      eq\n      tag_8\n      jumpi\n      dup1\n      0x9cd441da\n      eq\n      tag_9\n      jumpi\n      dup1\n      0xd004f0f7\n      eq\n      tag_10\n      jumpi\n      dup1\n      0xd21220a7\n      eq\n      tag_11\n      jumpi\n      dup1\n      0xddca3f43\n      eq\n      tag_12\n      jumpi\n      jump(tag_2)\n    tag_13:\n      dup1\n      0x0dfe1681\n      eq\n      tag_3\n      jumpi\n      dup1\n      0x18160ddd\n      eq\n      tag_4\n      jumpi\n      dup1\n      0x443cb4bc\n      eq\n      tag_5\n      jumpi\n      dup1\n      0x5a76f25e\n      eq\n      tag_6\n      jumpi\n      dup1\n      0x70a08231\n      eq\n      tag_7\n      jumpi\n    tag_2:\n      0x00\n      dup1\n      revert\n        /* \"contracts/CPAMM.sol\":142:172  IERC20 public immutable token0 */\n    tag_3:\n      tag_14\n      tag_15\n      jump\t// in\n    tag_14:\n      mload(0x40)\n      tag_16\n      swap2\n      swap1\n      tag_17\n      jump\t// in\n    tag_16:\n      mload(0x40)\n      dup1\n      swap2\n      sub\n      swap1\n      return\n        /* \"contracts/CPAMM.sol\":316:342  uint256 public totalSupply */\n    tag_4:\n      tag_18\n      tag_19\n      jump\t// in\n    tag_18:\n      mload(0x40)\n      tag_20\n      swap2\n      swap1\n      tag_21\n      jump\t// in\n    tag_20:\n      mload(0x40)\n      dup1\n      swap2\n      sub\n      swap1\n      return\n        /* \"contracts/CPAMM.sol\":254:277  uint256 public reserve0 */\n    tag_5:\n      tag_22\n      tag_23\n      jump\t// in\n    tag_22:\n      mload(0x40)\n      tag_24\n      swap2\n      swap1\n      tag_21\n      jump\t// in\n    tag_24:\n      mload(0x40)\n      dup1\n      swap2\n      sub\n      swap1\n      return\n        /* \"contracts/CPAMM.sol\":284:307  uint256 public reserve1 */\n    tag_6:\n      tag_25\n      tag_26\n      jump\t// in\n    tag_25:\n      mload(0x40)\n      tag_27\n      swap2\n      swap1\n      tag_21\n      jump\t// in\n    tag_27:\n      mload(0x40)\n      dup1\n      swap2\n      sub\n      swap1\n      return\n        /* \"contracts/CPAMM.sol\":349:393  mapping(address => uint256) public balanceOf */\n    tag_7:\n      tag_28\n      0x04\n      dup1\n      calldatasize\n      sub\n      dup2\n      add\n      swap1\n      tag_29\n      swap2\n      swap1\n      tag_30\n      jump\t// in\n    tag_29:\n      tag_31\n      jump\t// in\n    tag_28:\n      mload(0x40)\n      tag_32\n      swap2\n      swap1\n      tag_21\n      jump\t// in\n    tag_32:\n      mload(0x40)\n      dup1\n      swap2\n      sub\n      swap1\n      return\n        /* \"contracts/CPAMM.sol\":3092:3449  function removeLiquidity(uint256 _shares) external returns (uint256 amount0, uint256 amount1) {... */\n    tag_8:\n      tag_33\n      0x04\n      dup1\n      calldatasize\n      sub\n      dup2\n      add\n      swap1\n      tag_34\n      swap2\n      swap1\n      tag_35\n      jump\t// in\n    tag_34:\n      tag_36\n      jump\t// in\n    tag_33:\n      mload(0x40)\n      tag_37\n      swap3\n      swap2\n      swap1\n      tag_38\n      jump\t// in\n    tag_37:\n      mload(0x40)\n      dup1\n      swap2\n      sub\n      swap1\n      return\n        /* \"contracts/CPAMM.sol\":2338:3084  function addLiquidity(uint256 _amount0, uint256 _amount1) external returns (uint256 shares) {... */\n    tag_9:\n      tag_39\n      0x04\n      dup1\n      calldatasize\n      sub\n      dup2\n      add\n      swap1\n      tag_40\n      swap2\n      swap1\n      tag_41\n      jump\t// in\n    tag_40:\n      tag_42\n      jump\t// in\n    tag_39:\n      mload(0x40)\n      tag_43\n      swap2\n      swap1\n      tag_21\n      jump\t// in\n    tag_43:\n      mload(0x40)\n      dup1\n      swap2\n      sub\n      swap1\n      return\n        /* \"contracts/CPAMM.sol\":1385:2330  function swap(address _tokenIn, uint256 _amountIn) external returns (uint256 amountOut) {... */\n    tag_10:\n      tag_44\n      0x04\n      dup1\n      calldatasize\n      sub\n      dup2\n      add\n      swap1\n      tag_45\n      swap2\n      swap1\n      tag_46\n      jump\t// in\n    tag_45:\n      tag_47\n      jump\t// in\n    tag_44:\n      mload(0x40)\n      tag_48\n      swap2\n      swap1\n      tag_21\n      jump\t// in\n    tag_48:\n      mload(0x40)\n      dup1\n      swap2\n      sub\n      swap1\n      return\n        /* \"contracts/CPAMM.sol\":179:209  IERC20 public immutable token1 */\n    tag_11:\n      tag_49\n      tag_50\n      jump\t// in\n    tag_49:\n      mload(0x40)\n      tag_51\n      swap2\n      swap1\n      tag_17\n      jump\t// in\n    tag_51:\n      mload(0x40)\n      dup1\n      swap2\n      sub\n      swap1\n      return\n        /* \"contracts/CPAMM.sol\":216:238  uint256 public fee = 3 */\n    tag_12:\n      tag_52\n      tag_53\n      jump\t// in\n    tag_52:\n      mload(0x40)\n      tag_54\n      swap2\n      swap1\n      tag_21\n      jump\t// in\n    tag_54:\n      mload(0x40)\n      dup1\n      swap2\n      sub\n      swap1\n      return\n        /* \"contracts/CPAMM.sol\":142:172  IERC20 public immutable token0 */\n    tag_15:\n      immutable(\"0x043ab7193d962ca510e48770a5a13714f4684febe0e5affcfd1eb73cfed1f218\")\n      dup2\n      jump\t// out\n        /* \"contracts/CPAMM.sol\":316:342  uint256 public totalSupply */\n    tag_19:\n      sload(0x03)\n      dup2\n      jump\t// out\n        /* \"contracts/CPAMM.sol\":254:277  uint256 public reserve0 */\n    tag_23:\n      sload(0x01)\n      dup2\n      jump\t// out\n        /* \"contracts/CPAMM.sol\":284:307  uint256 public reserve1 */\n    tag_26:\n      sload(0x02)\n      dup2\n      jump\t// out\n        /* \"contracts/CPAMM.sol\":349:393  mapping(address => uint256) public balanceOf */\n    tag_31:\n      mstore(0x20, 0x04)\n      dup1\n      0x00\n      mstore\n      keccak256(0x00, 0x40)\n      0x00\n      swap2\n      pop\n      swap1\n      pop\n      sload\n      dup2\n      jump\t// out\n        /* \"contracts/CPAMM.sol\":3092:3449  function removeLiquidity(uint256 _shares) external returns (uint256 amount0, uint256 amount1) {... */\n    tag_36:\n        /* \"contracts/CPAMM.sol\":3152:3167  uint256 amount0 */\n      0x00\n        /* \"contracts/CPAMM.sol\":3169:3184  uint256 amount1 */\n      dup1\n        /* \"contracts/CPAMM.sol\":3228:3239  totalSupply */\n      sload(0x03)\n        /* \"contracts/CPAMM.sol\":3217:3225  reserve0 */\n      sload(0x01)\n        /* \"contracts/CPAMM.sol\":3207:3214  _shares */\n      dup5\n        /* \"contracts/CPAMM.sol\":3207:3225  _shares * reserve0 */\n      tag_56\n      swap2\n      swap1\n      tag_57\n      jump\t// in\n    tag_56:\n        /* \"contracts/CPAMM.sol\":3207:3239  _shares * reserve0 / totalSupply */\n      tag_58\n      swap2\n      swap1\n      tag_59\n      jump\t// in\n    tag_58:\n        /* \"contracts/CPAMM.sol\":3197:3239  amount0 = _shares * reserve0 / totalSupply */\n      swap2\n      pop\n        /* \"contracts/CPAMM.sol\":3281:3292  totalSupply */\n      sload(0x03)\n        /* \"contracts/CPAMM.sol\":3270:3278  reserve1 */\n      sload(0x02)\n        /* \"contracts/CPAMM.sol\":3260:3267  _shares */\n      dup5\n        /* \"contracts/CPAMM.sol\":3260:3278  _shares * reserve1 */\n      tag_60\n      swap2\n      swap1\n      tag_57\n      jump\t// in\n    tag_60:\n        /* \"contracts/CPAMM.sol\":3260:3292  _shares * reserve1 / totalSupply */\n      tag_61\n      swap2\n      swap1\n      tag_59\n      jump\t// in\n    tag_61:\n        /* \"contracts/CPAMM.sol\":3250:3292  amount1 = _shares * reserve1 / totalSupply */\n      swap1\n      pop\n        /* \"contracts/CPAMM.sol\":3321:3322  0 */\n      0x00\n        /* \"contracts/CPAMM.sol\":3311:3318  amount0 */\n      dup3\n        /* \"contracts/CPAMM.sol\":3311:3322  amount0 > 0 */\n      gt\n        /* \"contracts/CPAMM.sol\":3311:3337  amount0 > 0 && amount1 > 0 */\n      dup1\n      iszero\n      tag_62\n      jumpi\n      pop\n        /* \"contracts/CPAMM.sol\":3336:3337  0 */\n      0x00\n        /* \"contracts/CPAMM.sol\":3326:3333  amount1 */\n      dup2\n        /* \"contracts/CPAMM.sol\":3326:3337  amount1 > 0 */\n      gt\n        /* \"contracts/CPAMM.sol\":3311:3337  amount0 > 0 && amount1 > 0 */\n    tag_62:\n        /* \"contracts/CPAMM.sol\":3303:3338  require(amount0 > 0 && amount1 > 0) */\n      tag_63\n      jumpi\n      0x00\n      dup1\n      revert\n    tag_63:\n        /* \"contracts/CPAMM.sol\":3349:3375  _burn(msg.sender, _shares) */\n      tag_64\n        /* \"contracts/CPAMM.sol\":3355:3365  msg.sender */\n      caller\n        /* \"contracts/CPAMM.sol\":3367:3374  _shares */\n      dup5\n        /* \"contracts/CPAMM.sol\":3349:3354  _burn */\n      tag_65\n        /* \"contracts/CPAMM.sol\":3349:3375  _burn(msg.sender, _shares) */\n      jump\t// in\n    tag_64:\n        /* \"contracts/CPAMM.sol\":3386:3437  _update((reserve0 - amount0), (reserve1 - amount1)) */\n      tag_66\n        /* \"contracts/CPAMM.sol\":3406:3413  amount0 */\n      dup3\n        /* \"contracts/CPAMM.sol\":3395:3403  reserve0 */\n      sload(0x01)\n        /* \"contracts/CPAMM.sol\":3395:3413  reserve0 - amount0 */\n      tag_67\n      swap2\n      swap1\n      tag_68\n      jump\t// in\n    tag_67:\n        /* \"contracts/CPAMM.sol\":3428:3435  amount1 */\n      dup3\n        /* \"contracts/CPAMM.sol\":3417:3425  reserve1 */\n      sload(0x02)\n        /* \"contracts/CPAMM.sol\":3417:3435  reserve1 - amount1 */\n      tag_69\n      swap2\n      swap1\n      tag_68\n      jump\t// in\n    tag_69:\n        /* \"contracts/CPAMM.sol\":3386:3393  _update */\n      tag_70\n        /* \"contracts/CPAMM.sol\":3386:3437  _update((reserve0 - amount0), (reserve1 - amount1)) */\n      jump\t// in\n    tag_66:\n        /* \"contracts/CPAMM.sol\":3092:3449  function removeLiquidity(uint256 _shares) external returns (uint256 amount0, uint256 amount1) {... */\n      swap2\n      pop\n      swap2\n      jump\t// out\n        /* \"contracts/CPAMM.sol\":2338:3084  function addLiquidity(uint256 _amount0, uint256 _amount1) external returns (uint256 shares) {... */\n    tag_42:\n        /* \"contracts/CPAMM.sol\":2414:2428  uint256 shares */\n      0x00\n        /* \"contracts/CPAMM.sol\":2456:2457  0 */\n      dup1\n        /* \"contracts/CPAMM.sol\":2445:2453  reserve0 */\n      sload(0x01)\n        /* \"contracts/CPAMM.sol\":2445:2457  reserve0 > 0 */\n      gt\n        /* \"contracts/CPAMM.sol\":2445:2473  reserve0 > 0 && reserve1 > 0 */\n      dup1\n      iszero\n      tag_72\n      jumpi\n      pop\n        /* \"contracts/CPAMM.sol\":2472:2473  0 */\n      0x00\n        /* \"contracts/CPAMM.sol\":2461:2469  reserve1 */\n      sload(0x02)\n        /* \"contracts/CPAMM.sol\":2461:2473  reserve1 > 0 */\n      gt\n        /* \"contracts/CPAMM.sol\":2445:2473  reserve0 > 0 && reserve1 > 0 */\n    tag_72:\n        /* \"contracts/CPAMM.sol\":2441:2555  if (reserve0 > 0 && reserve1 > 0 ) {... */\n      iszero\n      tag_73\n      jumpi\n        /* \"contracts/CPAMM.sol\":2533:2541  reserve0 */\n      sload(0x01)\n        /* \"contracts/CPAMM.sol\":2522:2530  _amount1 */\n      dup3\n        /* \"contracts/CPAMM.sol\":2522:2541  _amount1 * reserve0 */\n      tag_74\n      swap2\n      swap1\n      tag_57\n      jump\t// in\n    tag_74:\n        /* \"contracts/CPAMM.sol\":2510:2518  reserve1 */\n      sload(0x02)\n        /* \"contracts/CPAMM.sol\":2499:2507  _amount0 */\n      dup5\n        /* \"contracts/CPAMM.sol\":2499:2518  _amount0 * reserve1 */\n      tag_75\n      swap2\n      swap1\n      tag_57\n      jump\t// in\n    tag_75:\n        /* \"contracts/CPAMM.sol\":2499:2541  _amount0 * reserve1 == _amount1 * reserve0 */\n      eq\n        /* \"contracts/CPAMM.sol\":2491:2543  require(_amount0 * reserve1 == _amount1 * reserve0 ) */\n      tag_76\n      jumpi\n      0x00\n      dup1\n      revert\n    tag_76:\n        /* \"contracts/CPAMM.sol\":2441:2555  if (reserve0 > 0 && reserve1 > 0 ) {... */\n    tag_73:\n        /* \"contracts/CPAMM.sol\":2567:2573  token0 */\n      immutable(\"0x043ab7193d962ca510e48770a5a13714f4684febe0e5affcfd1eb73cfed1f218\")\n        /* \"contracts/CPAMM.sol\":2567:2586  token0.transferFrom */\n      0xffffffffffffffffffffffffffffffffffffffff\n      and\n      0x23b872dd\n        /* \"contracts/CPAMM.sol\":2587:2597  msg.sender */\n      caller\n        /* \"contracts/CPAMM.sol\":2607:2611  this */\n      address\n        /* \"contracts/CPAMM.sol\":2614:2622  _amount0 */\n      dup7\n        /* \"contracts/CPAMM.sol\":2567:2623  token0.transferFrom(msg.sender, address(this), _amount0) */\n      mload(0x40)\n      dup5\n      0xffffffff\n      and\n      0xe0\n      shl\n      dup2\n      mstore\n      0x04\n      add\n      tag_77\n      swap4\n      swap3\n      swap2\n      swap1\n      tag_78\n      jump\t// in\n    tag_77:\n      0x20\n      mload(0x40)\n      dup1\n      dup4\n      sub\n      dup2\n      0x00\n      dup8\n      gas\n      call\n      iszero\n      dup1\n      iszero\n      tag_80\n      jumpi\n      returndatasize\n      0x00\n      dup1\n      returndatacopy\n      revert(0x00, returndatasize)\n    tag_80:\n      pop\n      pop\n      pop\n      pop\n      mload(0x40)\n      returndatasize\n      not(0x1f)\n      0x1f\n      dup3\n      add\n      and\n      dup3\n      add\n      dup1\n      0x40\n      mstore\n      pop\n      dup2\n      add\n      swap1\n      tag_81\n      swap2\n      swap1\n      tag_82\n      jump\t// in\n    tag_81:\n      pop\n        /* \"contracts/CPAMM.sol\":2634:2640  token1 */\n      immutable(\"0xcc193713febc75d3d9bd2f9ce113f403ff19633f15c8cdbcf79756ae23e77f9a\")\n        /* \"contracts/CPAMM.sol\":2634:2653  token1.transferFrom */\n      0xffffffffffffffffffffffffffffffffffffffff\n      and\n      0x23b872dd\n        /* \"contracts/CPAMM.sol\":2654:2664  msg.sender */\n      caller\n        /* \"contracts/CPAMM.sol\":2674:2678  this */\n      address\n        /* \"contracts/CPAMM.sol\":2681:2689  _amount1 */\n      dup6\n        /* \"contracts/CPAMM.sol\":2634:2690  token1.transferFrom(msg.sender, address(this), _amount1) */\n      mload(0x40)\n      dup5\n      0xffffffff\n      and\n      0xe0\n      shl\n      dup2\n      mstore\n      0x04\n      add\n      tag_83\n      swap4\n      swap3\n      swap2\n      swap1\n      tag_78\n      jump\t// in\n    tag_83:\n      0x20\n      mload(0x40)\n      dup1\n      dup4\n      sub\n      dup2\n      0x00\n      dup8\n      gas\n      call\n      iszero\n      dup1\n      iszero\n      tag_85\n      jumpi\n      returndatasize\n      0x00\n      dup1\n      returndatacopy\n      revert(0x00, returndatasize)\n    tag_85:\n      pop\n      pop\n      pop\n      pop\n      mload(0x40)\n      returndatasize\n      not(0x1f)\n      0x1f\n      dup3\n      add\n      and\n      dup3\n      add\n      dup1\n      0x40\n      mstore\n      pop\n      dup2\n      add\n      swap1\n      tag_86\n      swap2\n      swap1\n      tag_82\n      jump\t// in\n    tag_86:\n      pop\n        /* \"contracts/CPAMM.sol\":2722:2723  0 */\n      0x00\n        /* \"contracts/CPAMM.sol\":2707:2718  totalSupply */\n      sload(0x03)\n        /* \"contracts/CPAMM.sol\":2707:2723  totalSupply == 0 */\n      sub\n        /* \"contracts/CPAMM.sol\":2703:2949  if (totalSupply == 0) {... */\n      tag_87\n      jumpi\n        /* \"contracts/CPAMM.sol\":2749:2775  _sqrt(_amount0 * _amount0) */\n      tag_88\n        /* \"contracts/CPAMM.sol\":2766:2774  _amount0 */\n      dup4\n        /* \"contracts/CPAMM.sol\":2755:2763  _amount0 */\n      dup5\n        /* \"contracts/CPAMM.sol\":2755:2774  _amount0 * _amount0 */\n      tag_89\n      swap2\n      swap1\n      tag_57\n      jump\t// in\n    tag_89:\n        /* \"contracts/CPAMM.sol\":2749:2754  _sqrt */\n      tag_90\n        /* \"contracts/CPAMM.sol\":2749:2775  _sqrt(_amount0 * _amount0) */\n      jump\t// in\n    tag_88:\n        /* \"contracts/CPAMM.sol\":2740:2775  shares = _sqrt(_amount0 * _amount0) */\n      swap1\n      pop\n        /* \"contracts/CPAMM.sol\":2703:2949  if (totalSupply == 0) {... */\n      jump(tag_91)\n    tag_87:\n        /* \"contracts/CPAMM.sol\":2817:2937  _min( ... */\n      tag_92\n        /* \"contracts/CPAMM.sol\":2863:2871  reserve0 */\n      sload(0x01)\n        /* \"contracts/CPAMM.sol\":2851:2862  totalSupply */\n      sload(0x03)\n        /* \"contracts/CPAMM.sol\":2842:2850  _amount0 */\n      dup6\n        /* \"contracts/CPAMM.sol\":2842:2862  _amount0*totalSupply */\n      tag_93\n      swap2\n      swap1\n      tag_57\n      jump\t// in\n    tag_93:\n        /* \"contracts/CPAMM.sol\":2842:2871  _amount0*totalSupply/reserve0 */\n      tag_94\n      swap2\n      swap1\n      tag_59\n      jump\t// in\n    tag_94:\n        /* \"contracts/CPAMM.sol\":2913:2921  reserve1 */\n      sload(0x02)\n        /* \"contracts/CPAMM.sol\":2901:2912  totalSupply */\n      sload(0x03)\n        /* \"contracts/CPAMM.sol\":2892:2900  _amount1 */\n      dup6\n        /* \"contracts/CPAMM.sol\":2892:2912  _amount1*totalSupply */\n      tag_95\n      swap2\n      swap1\n      tag_57\n      jump\t// in\n    tag_95:\n        /* \"contracts/CPAMM.sol\":2892:2921  _amount1*totalSupply/reserve1 */\n      tag_96\n      swap2\n      swap1\n      tag_59\n      jump\t// in\n    tag_96:\n        /* \"contracts/CPAMM.sol\":2817:2821  _min */\n      tag_97\n        /* \"contracts/CPAMM.sol\":2817:2937  _min( ... */\n      jump\t// in\n    tag_92:\n        /* \"contracts/CPAMM.sol\":2808:2937  shares = _min( ... */\n      swap1\n      pop\n        /* \"contracts/CPAMM.sol\":2703:2949  if (totalSupply == 0) {... */\n    tag_91:\n        /* \"contracts/CPAMM.sol\":2978:2979  0 */\n      0x00\n        /* \"contracts/CPAMM.sol\":2969:2975  shares */\n      dup2\n        /* \"contracts/CPAMM.sol\":2969:2979  shares > 0 */\n      gt\n        /* \"contracts/CPAMM.sol\":2961:2980  require(shares > 0) */\n      tag_98\n      jumpi\n      0x00\n      dup1\n      revert\n    tag_98:\n        /* \"contracts/CPAMM.sol\":2991:3016  _mint(msg.sender, shares) */\n      tag_99\n        /* \"contracts/CPAMM.sol\":2997:3007  msg.sender */\n      caller\n        /* \"contracts/CPAMM.sol\":3009:3015  shares */\n      dup3\n        /* \"contracts/CPAMM.sol\":2991:2996  _mint */\n      tag_100\n        /* \"contracts/CPAMM.sol\":2991:3016  _mint(msg.sender, shares) */\n      jump\t// in\n    tag_99:\n        /* \"contracts/CPAMM.sol\":3027:3076  _update(reserve0 + _amount0, reserve1 + _amount1) */\n      tag_101\n        /* \"contracts/CPAMM.sol\":3046:3054  _amount0 */\n      dup4\n        /* \"contracts/CPAMM.sol\":3035:3043  reserve0 */\n      sload(0x01)\n        /* \"contracts/CPAMM.sol\":3035:3054  reserve0 + _amount0 */\n      tag_102\n      swap2\n      swap1\n      tag_103\n      jump\t// in\n    tag_102:\n        /* \"contracts/CPAMM.sol\":3067:3075  _amount1 */\n      dup4\n        /* \"contracts/CPAMM.sol\":3056:3064  reserve1 */\n      sload(0x02)\n        /* \"contracts/CPAMM.sol\":3056:3075  reserve1 + _amount1 */\n      tag_104\n      swap2\n      swap1\n      tag_103\n      jump\t// in\n    tag_104:\n        /* \"contracts/CPAMM.sol\":3027:3034  _update */\n      tag_70\n        /* \"contracts/CPAMM.sol\":3027:3076  _update(reserve0 + _amount0, reserve1 + _amount1) */\n      jump\t// in\n    tag_101:\n        /* \"contracts/CPAMM.sol\":2338:3084  function addLiquidity(uint256 _amount0, uint256 _amount1) external returns (uint256 shares) {... */\n      swap3\n      swap2\n      pop\n      pop\n      jump\t// out\n        /* \"contracts/CPAMM.sol\":1385:2330  function swap(address _tokenIn, uint256 _amountIn) external returns (uint256 amountOut) {... */\n    tag_47:\n        /* \"contracts/CPAMM.sol\":1454:1471  uint256 amountOut */\n      0x00\n        /* \"contracts/CPAMM.sol\":1512:1513  0 */\n      dup1\n        /* \"contracts/CPAMM.sol\":1492:1514  _tokenIn != address(0) */\n      0xffffffffffffffffffffffffffffffffffffffff\n      and\n        /* \"contracts/CPAMM.sol\":1492:1500  _tokenIn */\n      dup4\n        /* \"contracts/CPAMM.sol\":1492:1514  _tokenIn != address(0) */\n      0xffffffffffffffffffffffffffffffffffffffff\n      and\n      sub\n        /* \"contracts/CPAMM.sol\":1484:1531  require(_tokenIn != address(0), \"ZERO ADDRESS\") */\n      tag_106\n      jumpi\n      mload(0x40)\n      0x08c379a000000000000000000000000000000000000000000000000000000000\n      dup2\n      mstore\n      0x04\n      add\n      tag_107\n      swap1\n      tag_108\n      jump\t// in\n    tag_107:\n      mload(0x40)\n      dup1\n      swap2\n      sub\n      swap1\n      revert\n    tag_106:\n        /* \"contracts/CPAMM.sol\":1562:1563  0 */\n      0x00\n        /* \"contracts/CPAMM.sol\":1550:1559  _amountIn */\n      dup3\n        /* \"contracts/CPAMM.sol\":1550:1563  _amountIn > 0 */\n      gt\n        /* \"contracts/CPAMM.sol\":1542:1578  require(_amountIn > 0,\"ZERO AMOUNT\") */\n      tag_109\n      jumpi\n      mload(0x40)\n      0x08c379a000000000000000000000000000000000000000000000000000000000\n      dup2\n      mstore\n      0x04\n      add\n      tag_110\n      swap1\n      tag_111\n      jump\t// in\n    tag_110:\n      mload(0x40)\n      dup1\n      swap2\n      sub\n      swap1\n      revert\n    tag_109:\n        /* \"contracts/CPAMM.sol\":1617:1623  token0 */\n      immutable(\"0x043ab7193d962ca510e48770a5a13714f4684febe0e5affcfd1eb73cfed1f218\")\n        /* \"contracts/CPAMM.sol\":1597:1624  _tokenIn == address(token0) */\n      0xffffffffffffffffffffffffffffffffffffffff\n      and\n        /* \"contracts/CPAMM.sol\":1597:1605  _tokenIn */\n      dup4\n        /* \"contracts/CPAMM.sol\":1597:1624  _tokenIn == address(token0) */\n      0xffffffffffffffffffffffffffffffffffffffff\n      and\n      eq\n        /* \"contracts/CPAMM.sol\":1597:1655  _tokenIn == address(token0) || _tokenIn == address(token1) */\n      dup1\n      tag_112\n      jumpi\n      pop\n        /* \"contracts/CPAMM.sol\":1648:1654  token1 */\n      immutable(\"0xcc193713febc75d3d9bd2f9ce113f403ff19633f15c8cdbcf79756ae23e77f9a\")\n        /* \"contracts/CPAMM.sol\":1628:1655  _tokenIn == address(token1) */\n      0xffffffffffffffffffffffffffffffffffffffff\n      and\n        /* \"contracts/CPAMM.sol\":1628:1636  _tokenIn */\n      dup4\n        /* \"contracts/CPAMM.sol\":1628:1655  _tokenIn == address(token1) */\n      0xffffffffffffffffffffffffffffffffffffffff\n      and\n      eq\n        /* \"contracts/CPAMM.sol\":1597:1655  _tokenIn == address(token0) || _tokenIn == address(token1) */\n    tag_112:\n        /* \"contracts/CPAMM.sol\":1589:1656  require(_tokenIn == address(token0) || _tokenIn == address(token1)) */\n      tag_113\n      jumpi\n      0x00\n      dup1\n      revert\n    tag_113:\n        /* \"contracts/CPAMM.sol\":1668:1682  IERC20 tokenIn */\n      0x00\n        /* \"contracts/CPAMM.sol\":1684:1699  IERC20 tokenOut */\n      dup1\n        /* \"contracts/CPAMM.sol\":1701:1718  uint256 reserveIn */\n      0x00\n        /* \"contracts/CPAMM.sol\":1720:1738  uint256 reserveOut */\n      dup1\n        /* \"contracts/CPAMM.sol\":1763:1769  token0 */\n      immutable(\"0x043ab7193d962ca510e48770a5a13714f4684febe0e5affcfd1eb73cfed1f218\")\n        /* \"contracts/CPAMM.sol\":1743:1770  _tokenIn == address(token0) */\n      0xffffffffffffffffffffffffffffffffffffffff\n      and\n        /* \"contracts/CPAMM.sol\":1743:1751  _tokenIn */\n      dup8\n        /* \"contracts/CPAMM.sol\":1743:1770  _tokenIn == address(token0) */\n      0xffffffffffffffffffffffffffffffffffffffff\n      and\n      eq\n        /* \"contracts/CPAMM.sol\":1742:1848  (_tokenIn == address(token0)) ? (token0, token1, reserve0, reserve1): (token1, token0, reserve1, reserve0) */\n      tag_114\n      jumpi\n        /* \"contracts/CPAMM.sol\":1813:1819  token1 */\n      immutable(\"0xcc193713febc75d3d9bd2f9ce113f403ff19633f15c8cdbcf79756ae23e77f9a\")\n        /* \"contracts/CPAMM.sol\":1821:1827  token0 */\n      immutable(\"0x043ab7193d962ca510e48770a5a13714f4684febe0e5affcfd1eb73cfed1f218\")\n        /* \"contracts/CPAMM.sol\":1829:1837  reserve1 */\n      sload(0x02)\n        /* \"contracts/CPAMM.sol\":1839:1847  reserve0 */\n      sload(0x01)\n        /* \"contracts/CPAMM.sol\":1742:1848  (_tokenIn == address(token0)) ? (token0, token1, reserve0, reserve1): (token1, token0, reserve1, reserve0) */\n      jump(tag_115)\n    tag_114:\n        /* \"contracts/CPAMM.sol\":1775:1781  token0 */\n      immutable(\"0x043ab7193d962ca510e48770a5a13714f4684febe0e5affcfd1eb73cfed1f218\")\n        /* \"contracts/CPAMM.sol\":1783:1789  token1 */\n      immutable(\"0xcc193713febc75d3d9bd2f9ce113f403ff19633f15c8cdbcf79756ae23e77f9a\")\n        /* \"contracts/CPAMM.sol\":1791:1799  reserve0 */\n      sload(0x01)\n        /* \"contracts/CPAMM.sol\":1801:1809  reserve1 */\n      sload(0x02)\n        /* \"contracts/CPAMM.sol\":1742:1848  (_tokenIn == address(token0)) ? (token0, token1, reserve0, reserve1): (token1, token0, reserve1, reserve0) */\n    tag_115:\n        /* \"contracts/CPAMM.sol\":1667:1848  (IERC20 tokenIn, IERC20 tokenOut, uint256 reserveIn, uint256 reserveOut) = (_tokenIn == address(token0)) ? (token0, token1, reserve0, reserve1): (token1, token0, reserve1, reserve0) */\n      swap4\n      pop\n      swap4\n      pop\n      swap4\n      pop\n      swap4\n      pop\n        /* \"contracts/CPAMM.sol\":1859:1866  tokenIn */\n      dup4\n        /* \"contracts/CPAMM.sol\":1859:1879  tokenIn.transferFrom */\n      0xffffffffffffffffffffffffffffffffffffffff\n      and\n      0x23b872dd\n        /* \"contracts/CPAMM.sol\":1880:1890  msg.sender */\n      caller\n        /* \"contracts/CPAMM.sol\":1900:1904  this */\n      address\n        /* \"contracts/CPAMM.sol\":1907:1916  _amountIn */\n      dup10\n        /* \"contracts/CPAMM.sol\":1859:1917  tokenIn.transferFrom(msg.sender, address(this), _amountIn) */\n      mload(0x40)\n      dup5\n      0xffffffff\n      and\n      0xe0\n      shl\n      dup2\n      mstore\n      0x04\n      add\n      tag_116\n      swap4\n      swap3\n      swap2\n      swap1\n      tag_78\n      jump\t// in\n    tag_116:\n      0x20\n      mload(0x40)\n      dup1\n      dup4\n      sub\n      dup2\n      0x00\n      dup8\n      gas\n      call\n      iszero\n      dup1\n      iszero\n      tag_118\n      jumpi\n      returndatasize\n      0x00\n      dup1\n      returndatacopy\n      revert(0x00, returndatasize)\n    tag_118:\n      pop\n      pop\n      pop\n      pop\n      mload(0x40)\n      returndatasize\n      not(0x1f)\n      0x1f\n      dup3\n      add\n      and\n      dup3\n      add\n      dup1\n      0x40\n      mstore\n      pop\n      dup2\n      add\n      swap1\n      tag_119\n      swap2\n      swap1\n      tag_82\n      jump\t// in\n    tag_119:\n      pop\n        /* \"contracts/CPAMM.sol\":1930:1946  uint256 amountIn */\n      0x00\n        /* \"contracts/CPAMM.sol\":1974:1978  1000 */\n      0x03e8\n        /* \"contracts/CPAMM.sol\":1968:1971  fee */\n      sload(0x00)\n        /* \"contracts/CPAMM.sol\":1961:1965  1000 */\n      0x03e8\n        /* \"contracts/CPAMM.sol\":1961:1971  1000 - fee */\n      tag_120\n      swap2\n      swap1\n      tag_68\n      jump\t// in\n    tag_120:\n        /* \"contracts/CPAMM.sol\":1950:1959  _amountIn */\n      dup9\n        /* \"contracts/CPAMM.sol\":1950:1972  _amountIn*(1000 - fee) */\n      tag_121\n      swap2\n      swap1\n      tag_57\n      jump\t// in\n    tag_121:\n        /* \"contracts/CPAMM.sol\":1949:1978  (_amountIn*(1000 - fee))/1000 */\n      tag_122\n      swap2\n      swap1\n      tag_59\n      jump\t// in\n    tag_122:\n        /* \"contracts/CPAMM.sol\":1930:1978  uint256 amountIn = (_amountIn*(1000 - fee))/1000 */\n      swap1\n      pop\n        /* \"contracts/CPAMM.sol\":2040:2048  amountIn */\n      dup1\n        /* \"contracts/CPAMM.sol\":2027:2037  reserveOut */\n      dup3\n        /* \"contracts/CPAMM.sol\":2027:2048  reserveOut + amountIn */\n      tag_123\n      swap2\n      swap1\n      tag_103\n      jump\t// in\n    tag_123:\n        /* \"contracts/CPAMM.sol\":2014:2022  amountIn */\n      dup2\n        /* \"contracts/CPAMM.sol\":2002:2011  reserveIn */\n      dup5\n        /* \"contracts/CPAMM.sol\":2002:2022  reserveIn * amountIn */\n      tag_124\n      swap2\n      swap1\n      tag_57\n      jump\t// in\n    tag_124:\n        /* \"contracts/CPAMM.sol\":2001:2049  (reserveIn * amountIn) / (reserveOut + amountIn) */\n      tag_125\n      swap2\n      swap1\n      tag_59\n      jump\t// in\n    tag_125:\n        /* \"contracts/CPAMM.sol\":1989:2049  amountOut = (reserveIn * amountIn) / (reserveOut + amountIn) */\n      swap6\n      pop\n        /* \"contracts/CPAMM.sol\":2060:2068  tokenOut */\n      dup4\n        /* \"contracts/CPAMM.sol\":2060:2077  tokenOut.transfer */\n      0xffffffffffffffffffffffffffffffffffffffff\n      and\n      0xa9059cbb\n        /* \"contracts/CPAMM.sol\":2078:2088  msg.sender */\n      caller\n        /* \"contracts/CPAMM.sol\":2090:2099  amountOut */\n      dup9\n        /* \"contracts/CPAMM.sol\":2060:2100  tokenOut.transfer(msg.sender, amountOut) */\n      mload(0x40)\n      dup4\n      0xffffffff\n      and\n      0xe0\n      shl\n      dup2\n      mstore\n      0x04\n      add\n      tag_126\n      swap3\n      swap2\n      swap1\n      tag_127\n      jump\t// in\n    tag_126:\n      0x20\n      mload(0x40)\n      dup1\n      dup4\n      sub\n      dup2\n      0x00\n      dup8\n      gas\n      call\n      iszero\n      dup1\n      iszero\n      tag_129\n      jumpi\n      returndatasize\n      0x00\n      dup1\n      returndatacopy\n      revert(0x00, returndatasize)\n    tag_129:\n      pop\n      pop\n      pop\n      pop\n      mload(0x40)\n      returndatasize\n      not(0x1f)\n      0x1f\n      dup3\n      add\n      and\n      dup3\n      add\n      dup1\n      0x40\n      mstore\n      pop\n      dup2\n      add\n      swap1\n      tag_130\n      swap2\n      swap1\n      tag_82\n      jump\t// in\n    tag_130:\n      pop\n        /* \"contracts/CPAMM.sol\":2114:2131  uint256 _reserve0 */\n      0x00\n        /* \"contracts/CPAMM.sol\":2133:2150  uint256 _reserve1 */\n      dup1\n        /* \"contracts/CPAMM.sol\":2175:2181  token0 */\n      immutable(\"0x043ab7193d962ca510e48770a5a13714f4684febe0e5affcfd1eb73cfed1f218\")\n        /* \"contracts/CPAMM.sol\":2155:2182  _tokenIn == address(token0) */\n      0xffffffffffffffffffffffffffffffffffffffff\n      and\n        /* \"contracts/CPAMM.sol\":2155:2163  _tokenIn */\n      dup11\n        /* \"contracts/CPAMM.sol\":2155:2182  _tokenIn == address(token0) */\n      0xffffffffffffffffffffffffffffffffffffffff\n      and\n      eq\n        /* \"contracts/CPAMM.sol\":2154:2282  (_tokenIn == address(token0)) ? (reserveIn + _amountIn, reserveOut - amountOut) : (reserveOut - amountOut, reserveIn + amountIn) */\n      tag_131\n      jumpi\n        /* \"contracts/CPAMM.sol\":2250:2259  amountOut */\n      dup8\n        /* \"contracts/CPAMM.sol\":2237:2247  reserveOut */\n      dup5\n        /* \"contracts/CPAMM.sol\":2237:2259  reserveOut - amountOut */\n      tag_132\n      swap2\n      swap1\n      tag_68\n      jump\t// in\n    tag_132:\n        /* \"contracts/CPAMM.sol\":2273:2281  amountIn */\n      dup4\n        /* \"contracts/CPAMM.sol\":2261:2270  reserveIn */\n      dup7\n        /* \"contracts/CPAMM.sol\":2261:2281  reserveIn + amountIn */\n      tag_133\n      swap2\n      swap1\n      tag_103\n      jump\t// in\n    tag_133:\n        /* \"contracts/CPAMM.sol\":2154:2282  (_tokenIn == address(token0)) ? (reserveIn + _amountIn, reserveOut - amountOut) : (reserveOut - amountOut, reserveIn + amountIn) */\n      jump(tag_134)\n    tag_131:\n        /* \"contracts/CPAMM.sol\":2199:2208  _amountIn */\n      dup9\n        /* \"contracts/CPAMM.sol\":2187:2196  reserveIn */\n      dup6\n        /* \"contracts/CPAMM.sol\":2187:2208  reserveIn + _amountIn */\n      tag_135\n      swap2\n      swap1\n      tag_103\n      jump\t// in\n    tag_135:\n        /* \"contracts/CPAMM.sol\":2223:2232  amountOut */\n      dup9\n        /* \"contracts/CPAMM.sol\":2210:2220  reserveOut */\n      dup6\n        /* \"contracts/CPAMM.sol\":2210:2232  reserveOut - amountOut */\n      tag_136\n      swap2\n      swap1\n      tag_68\n      jump\t// in\n    tag_136:\n        /* \"contracts/CPAMM.sol\":2154:2282  (_tokenIn == address(token0)) ? (reserveIn + _amountIn, reserveOut - amountOut) : (reserveOut - amountOut, reserveIn + amountIn) */\n    tag_134:\n        /* \"contracts/CPAMM.sol\":2113:2282  (uint256 _reserve0, uint256 _reserve1) = (_tokenIn == address(token0)) ? (reserveIn + _amountIn, reserveOut - amountOut) : (reserveOut - amountOut, reserveIn + amountIn) */\n      swap2\n      pop\n      swap2\n      pop\n        /* \"contracts/CPAMM.sol\":2293:2322  _update(_reserve0, _reserve1) */\n      tag_137\n        /* \"contracts/CPAMM.sol\":2301:2310  _reserve0 */\n      dup3\n        /* \"contracts/CPAMM.sol\":2312:2321  _reserve1 */\n      dup3\n        /* \"contracts/CPAMM.sol\":2293:2300  _update */\n      tag_70\n        /* \"contracts/CPAMM.sol\":2293:2322  _update(_reserve0, _reserve1) */\n      jump\t// in\n    tag_137:\n        /* \"contracts/CPAMM.sol\":1473:2330  {... */\n      pop\n      pop\n      pop\n      pop\n      pop\n      pop\n      pop\n        /* \"contracts/CPAMM.sol\":1385:2330  function swap(address _tokenIn, uint256 _amountIn) external returns (uint256 amountOut) {... */\n      swap3\n      swap2\n      pop\n      pop\n      jump\t// out\n        /* \"contracts/CPAMM.sol\":179:209  IERC20 public immutable token1 */\n    tag_50:\n      immutable(\"0xcc193713febc75d3d9bd2f9ce113f403ff19633f15c8cdbcf79756ae23e77f9a\")\n      dup2\n      jump\t// out\n        /* \"contracts/CPAMM.sol\":216:238  uint256 public fee = 3 */\n    tag_53:\n      sload(0x00)\n      dup2\n      jump\t// out\n        /* \"contracts/CPAMM.sol\":670:802  function _burn(address _from, uint256 amount) private  {... */\n    tag_65:\n        /* \"contracts/CPAMM.sol\":756:762  amount */\n      dup1\n        /* \"contracts/CPAMM.sol\":736:745  balanceOf */\n      0x04\n        /* \"contracts/CPAMM.sol\":736:752  balanceOf[_from] */\n      0x00\n        /* \"contracts/CPAMM.sol\":746:751  _from */\n      dup5\n        /* \"contracts/CPAMM.sol\":736:752  balanceOf[_from] */\n      0xffffffffffffffffffffffffffffffffffffffff\n      and\n      0xffffffffffffffffffffffffffffffffffffffff\n      and\n      dup2\n      mstore\n      0x20\n      add\n      swap1\n      dup2\n      mstore\n      0x20\n      add\n      0x00\n      keccak256\n      0x00\n        /* \"contracts/CPAMM.sol\":736:762  balanceOf[_from] -= amount */\n      dup3\n      dup3\n      sload\n      tag_139\n      swap2\n      swap1\n      tag_68\n      jump\t// in\n    tag_139:\n      swap3\n      pop\n      pop\n      dup2\n      swap1\n      sstore\n      pop\n        /* \"contracts/CPAMM.sol\":788:794  amount */\n      dup1\n        /* \"contracts/CPAMM.sol\":773:784  totalSupply */\n      0x03\n      0x00\n        /* \"contracts/CPAMM.sol\":773:794  totalSupply -= amount */\n      dup3\n      dup3\n      sload\n      tag_140\n      swap2\n      swap1\n      tag_68\n      jump\t// in\n    tag_140:\n      swap3\n      pop\n      pop\n      dup2\n      swap1\n      sstore\n      pop\n        /* \"contracts/CPAMM.sol\":670:802  function _burn(address _from, uint256 amount) private  {... */\n      pop\n      pop\n      jump\t// out\n        /* \"contracts/CPAMM.sol\":810:944  function _update(uint256 _reserve0, uint256 _reserve1) private  {... */\n    tag_70:\n        /* \"contracts/CPAMM.sol\":896:905  _reserve0 */\n      dup2\n        /* \"contracts/CPAMM.sol\":885:893  reserve0 */\n      0x01\n        /* \"contracts/CPAMM.sol\":885:905  reserve0 = _reserve0 */\n      dup2\n      swap1\n      sstore\n      pop\n        /* \"contracts/CPAMM.sol\":927:936  _reserve1 */\n      dup1\n        /* \"contracts/CPAMM.sol\":916:924  reserve1 */\n      0x02\n        /* \"contracts/CPAMM.sol\":916:936  reserve1 = _reserve1 */\n      dup2\n      swap1\n      sstore\n      pop\n        /* \"contracts/CPAMM.sol\":810:944  function _update(uint256 _reserve0, uint256 _reserve1) private  {... */\n      pop\n      pop\n      jump\t// out\n        /* \"contracts/CPAMM.sol\":952:1255  function _sqrt(uint y) private pure returns (uint z) {... */\n    tag_90:\n        /* \"contracts/CPAMM.sol\":997:1003  uint z */\n      0x00\n        /* \"contracts/CPAMM.sol\":1024:1025  3 */\n      0x03\n        /* \"contracts/CPAMM.sol\":1020:1021  y */\n      dup3\n        /* \"contracts/CPAMM.sol\":1020:1025  y > 3 */\n      gt\n        /* \"contracts/CPAMM.sol\":1016:1248  if (y > 3) {... */\n      iszero\n      tag_143\n      jumpi\n        /* \"contracts/CPAMM.sol\":1046:1047  y */\n      dup2\n        /* \"contracts/CPAMM.sol\":1042:1047  z = y */\n      swap1\n      pop\n        /* \"contracts/CPAMM.sol\":1062:1068  uint x */\n      0x00\n        /* \"contracts/CPAMM.sol\":1079:1080  1 */\n      0x01\n        /* \"contracts/CPAMM.sol\":1075:1076  2 */\n      0x02\n        /* \"contracts/CPAMM.sol\":1071:1072  y */\n      dup5\n        /* \"contracts/CPAMM.sol\":1071:1076  y / 2 */\n      tag_144\n      swap2\n      swap1\n      tag_59\n      jump\t// in\n    tag_144:\n        /* \"contracts/CPAMM.sol\":1071:1080  y / 2 + 1 */\n      tag_145\n      swap2\n      swap1\n      tag_103\n      jump\t// in\n    tag_145:\n        /* \"contracts/CPAMM.sol\":1062:1080  uint x = y / 2 + 1 */\n      swap1\n      pop\n        /* \"contracts/CPAMM.sol\":1095:1187  while (x < z) {... */\n    tag_146:\n        /* \"contracts/CPAMM.sol\":1106:1107  z */\n      dup2\n        /* \"contracts/CPAMM.sol\":1102:1103  x */\n      dup2\n        /* \"contracts/CPAMM.sol\":1102:1107  x < z */\n      lt\n        /* \"contracts/CPAMM.sol\":1095:1187  while (x < z) {... */\n      iszero\n      tag_147\n      jumpi\n        /* \"contracts/CPAMM.sol\":1132:1133  x */\n      dup1\n        /* \"contracts/CPAMM.sol\":1128:1133  z = x */\n      swap2\n      pop\n        /* \"contracts/CPAMM.sol\":1170:1171  2 */\n      0x02\n        /* \"contracts/CPAMM.sol\":1165:1166  x */\n      dup2\n        /* \"contracts/CPAMM.sol\":1161:1162  x */\n      dup3\n        /* \"contracts/CPAMM.sol\":1157:1158  y */\n      dup6\n        /* \"contracts/CPAMM.sol\":1157:1162  y / x */\n      tag_148\n      swap2\n      swap1\n      tag_59\n      jump\t// in\n    tag_148:\n        /* \"contracts/CPAMM.sol\":1157:1166  y / x + x */\n      tag_149\n      swap2\n      swap1\n      tag_103\n      jump\t// in\n    tag_149:\n        /* \"contracts/CPAMM.sol\":1156:1171  (y / x + x) / 2 */\n      tag_150\n      swap2\n      swap1\n      tag_59\n      jump\t// in\n    tag_150:\n        /* \"contracts/CPAMM.sol\":1152:1171  x = (y / x + x) / 2 */\n      swap1\n      pop\n        /* \"contracts/CPAMM.sol\":1095:1187  while (x < z) {... */\n      jump(tag_146)\n    tag_147:\n        /* \"contracts/CPAMM.sol\":1027:1198  {... */\n      pop\n        /* \"contracts/CPAMM.sol\":1016:1248  if (y > 3) {... */\n      jump(tag_151)\n    tag_143:\n        /* \"contracts/CPAMM.sol\":1213:1214  0 */\n      0x00\n        /* \"contracts/CPAMM.sol\":1208:1209  y */\n      dup3\n        /* \"contracts/CPAMM.sol\":1208:1214  y != 0 */\n      eq\n        /* \"contracts/CPAMM.sol\":1204:1248  if (y != 0) {... */\n      tag_152\n      jumpi\n        /* \"contracts/CPAMM.sol\":1235:1236  1 */\n      0x01\n        /* \"contracts/CPAMM.sol\":1231:1236  z = 1 */\n      swap1\n      pop\n        /* \"contracts/CPAMM.sol\":1204:1248  if (y != 0) {... */\n    tag_152:\n        /* \"contracts/CPAMM.sol\":1016:1248  if (y > 3) {... */\n    tag_151:\n        /* \"contracts/CPAMM.sol\":952:1255  function _sqrt(uint y) private pure returns (uint z) {... */\n      swap2\n      swap1\n      pop\n      jump\t// out\n        /* \"contracts/CPAMM.sol\":1263:1373  function _min(uint256 x, uint256 y) private pure returns (uint256 z)  {... */\n    tag_97:\n        /* \"contracts/CPAMM.sol\":1321:1330  uint256 z */\n      0x00\n        /* \"contracts/CPAMM.sol\":1356:1357  y */\n      dup2\n        /* \"contracts/CPAMM.sol\":1351:1352  x */\n      dup4\n        /* \"contracts/CPAMM.sol\":1351:1357  x <= y */\n      gt\n      iszero\n        /* \"contracts/CPAMM.sol\":1351:1365  x <= y ? x : y */\n      tag_154\n      jumpi\n        /* \"contracts/CPAMM.sol\":1364:1365  y */\n      dup2\n        /* \"contracts/CPAMM.sol\":1351:1365  x <= y ? x : y */\n      jump(tag_155)\n    tag_154:\n        /* \"contracts/CPAMM.sol\":1360:1361  x */\n      dup3\n        /* \"contracts/CPAMM.sol\":1351:1365  x <= y ? x : y */\n    tag_155:\n        /* \"contracts/CPAMM.sol\":1344:1365  return x <= y ? x : y */\n      swap1\n      pop\n        /* \"contracts/CPAMM.sol\":1263:1373  function _min(uint256 x, uint256 y) private pure returns (uint256 z)  {... */\n      swap3\n      swap2\n      pop\n      pop\n      jump\t// out\n        /* \"contracts/CPAMM.sol\":534:662  function _mint(address _to, uint256 amount) private  {... */\n    tag_100:\n        /* \"contracts/CPAMM.sol\":616:622  amount */\n      dup1\n        /* \"contracts/CPAMM.sol\":598:607  balanceOf */\n      0x04\n        /* \"contracts/CPAMM.sol\":598:612  balanceOf[_to] */\n      0x00\n        /* \"contracts/CPAMM.sol\":608:611  _to */\n      dup5\n        /* \"contracts/CPAMM.sol\":598:612  balanceOf[_to] */\n      0xffffffffffffffffffffffffffffffffffffffff\n      and\n      0xffffffffffffffffffffffffffffffffffffffff\n      and\n      dup2\n      mstore\n      0x20\n      add\n      swap1\n      dup2\n      mstore\n      0x20\n      add\n      0x00\n      keccak256\n      0x00\n        /* \"contracts/CPAMM.sol\":598:622  balanceOf[_to] += amount */\n      dup3\n      dup3\n      sload\n      tag_157\n      swap2\n      swap1\n      tag_103\n      jump\t// in\n    tag_157:\n      swap3\n      pop\n      pop\n      dup2\n      swap1\n      sstore\n      pop\n        /* \"contracts/CPAMM.sol\":648:654  amount */\n      dup1\n        /* \"contracts/CPAMM.sol\":633:644  totalSupply */\n      0x03\n      0x00\n        /* \"contracts/CPAMM.sol\":633:654  totalSupply += amount */\n      dup3\n      dup3\n      sload\n      tag_158\n      swap2\n      swap1\n      tag_103\n      jump\t// in\n    tag_158:\n      swap3\n      pop\n      pop\n      dup2\n      swap1\n      sstore\n      pop\n        /* \"contracts/CPAMM.sol\":534:662  function _mint(address _to, uint256 amount) private  {... */\n      pop\n      pop\n      jump\t// out\n        /* \"#utility.yul\":7:133   */\n    tag_159:\n        /* \"#utility.yul\":44:51   */\n      0x00\n        /* \"#utility.yul\":84:126   */\n      0xffffffffffffffffffffffffffffffffffffffff\n        /* \"#utility.yul\":77:82   */\n      dup3\n        /* \"#utility.yul\":73:127   */\n      and\n        /* \"#utility.yul\":62:127   */\n      swap1\n      pop\n        /* \"#utility.yul\":7:133   */\n      swap2\n      swap1\n      pop\n      jump\t// out\n        /* \"#utility.yul\":139:199   */\n    tag_160:\n        /* \"#utility.yul\":167:170   */\n      0x00\n        /* \"#utility.yul\":188:193   */\n      dup2\n        /* \"#utility.yul\":181:193   */\n      swap1\n      pop\n        /* \"#utility.yul\":139:199   */\n      swap2\n      swap1\n      pop\n      jump\t// out\n        /* \"#utility.yul\":205:347   */\n    tag_161:\n        /* \"#utility.yul\":255:264   */\n      0x00\n        /* \"#utility.yul\":288:341   */\n      tag_190\n        /* \"#utility.yul\":306:340   */\n      tag_191\n        /* \"#utility.yul\":315:339   */\n      tag_192\n        /* \"#utility.yul\":333:338   */\n      dup5\n        /* \"#utility.yul\":315:339   */\n      tag_159\n      jump\t// in\n    tag_192:\n        /* \"#utility.yul\":306:340   */\n      tag_160\n      jump\t// in\n    tag_191:\n        /* \"#utility.yul\":288:341   */\n      tag_159\n      jump\t// in\n    tag_190:\n        /* \"#utility.yul\":275:341   */\n      swap1\n      pop\n        /* \"#utility.yul\":205:347   */\n      swap2\n      swap1\n      pop\n      jump\t// out\n        /* \"#utility.yul\":353:479   */\n    tag_162:\n        /* \"#utility.yul\":403:412   */\n      0x00\n        /* \"#utility.yul\":436:473   */\n      tag_194\n        /* \"#utility.yul\":467:472   */\n      dup3\n        /* \"#utility.yul\":436:473   */\n      tag_161\n      jump\t// in\n    tag_194:\n        /* \"#utility.yul\":423:473   */\n      swap1\n      pop\n        /* \"#utility.yul\":353:479   */\n      swap2\n      swap1\n      pop\n      jump\t// out\n        /* \"#utility.yul\":485:624   */\n    tag_163:\n        /* \"#utility.yul\":548:557   */\n      0x00\n        /* \"#utility.yul\":581:618   */\n      tag_196\n        /* \"#utility.yul\":612:617   */\n      dup3\n        /* \"#utility.yul\":581:618   */\n      tag_162\n      jump\t// in\n    tag_196:\n        /* \"#utility.yul\":568:618   */\n      swap1\n      pop\n        /* \"#utility.yul\":485:624   */\n      swap2\n      swap1\n      pop\n      jump\t// out\n        /* \"#utility.yul\":630:787   */\n    tag_164:\n        /* \"#utility.yul\":730:780   */\n      tag_198\n        /* \"#utility.yul\":774:779   */\n      dup2\n        /* \"#utility.yul\":730:780   */\n      tag_163\n      jump\t// in\n    tag_198:\n        /* \"#utility.yul\":725:728   */\n      dup3\n        /* \"#utility.yul\":718:781   */\n      mstore\n        /* \"#utility.yul\":630:787   */\n      pop\n      pop\n      jump\t// out\n        /* \"#utility.yul\":793:1041   */\n    tag_17:\n        /* \"#utility.yul\":899:903   */\n      0x00\n        /* \"#utility.yul\":937:939   */\n      0x20\n        /* \"#utility.yul\":926:935   */\n      dup3\n        /* \"#utility.yul\":922:940   */\n      add\n        /* \"#utility.yul\":914:940   */\n      swap1\n      pop\n        /* \"#utility.yul\":950:1034   */\n      tag_200\n        /* \"#utility.yul\":1031:1032   */\n      0x00\n        /* \"#utility.yul\":1020:1029   */\n      dup4\n        /* \"#utility.yul\":1016:1033   */\n      add\n        /* \"#utility.yul\":1007:1013   */\n      dup5\n        /* \"#utility.yul\":950:1034   */\n      tag_164\n      jump\t// in\n    tag_200:\n        /* \"#utility.yul\":793:1041   */\n      swap3\n      swap2\n      pop\n      pop\n      jump\t// out\n        /* \"#utility.yul\":1047:1124   */\n    tag_165:\n        /* \"#utility.yul\":1084:1091   */\n      0x00\n        /* \"#utility.yul\":1113:1118   */\n      dup2\n        /* \"#utility.yul\":1102:1118   */\n      swap1\n      pop\n        /* \"#utility.yul\":1047:1124   */\n      swap2\n      swap1\n      pop\n      jump\t// out\n        /* \"#utility.yul\":1130:1248   */\n    tag_166:\n        /* \"#utility.yul\":1217:1241   */\n      tag_203\n        /* \"#utility.yul\":1235:1240   */\n      dup2\n        /* \"#utility.yul\":1217:1241   */\n      tag_165\n      jump\t// in\n    tag_203:\n        /* \"#utility.yul\":1212:1215   */\n      dup3\n        /* \"#utility.yul\":1205:1242   */\n      mstore\n        /* \"#utility.yul\":1130:1248   */\n      pop\n      pop\n      jump\t// out\n        /* \"#utility.yul\":1254:1476   */\n    tag_21:\n        /* \"#utility.yul\":1347:1351   */\n      0x00\n        /* \"#utility.yul\":1385:1387   */\n      0x20\n        /* \"#utility.yul\":1374:1383   */\n      dup3\n        /* \"#utility.yul\":1370:1388   */\n      add\n        /* \"#utility.yul\":1362:1388   */\n      swap1\n      pop\n        /* \"#utility.yul\":1398:1469   */\n      tag_205\n        /* \"#utility.yul\":1466:1467   */\n      0x00\n        /* \"#utility.yul\":1455:1464   */\n      dup4\n        /* \"#utility.yul\":1451:1468   */\n      add\n        /* \"#utility.yul\":1442:1448   */\n      dup5\n        /* \"#utility.yul\":1398:1469   */\n      tag_166\n      jump\t// in\n    tag_205:\n        /* \"#utility.yul\":1254:1476   */\n      swap3\n      swap2\n      pop\n      pop\n      jump\t// out\n        /* \"#utility.yul\":1563:1680   */\n    tag_168:\n        /* \"#utility.yul\":1672:1673   */\n      0x00\n        /* \"#utility.yul\":1669:1670   */\n      dup1\n        /* \"#utility.yul\":1662:1674   */\n      revert\n        /* \"#utility.yul\":1809:1905   */\n    tag_170:\n        /* \"#utility.yul\":1846:1853   */\n      0x00\n        /* \"#utility.yul\":1875:1899   */\n      tag_210\n        /* \"#utility.yul\":1893:1898   */\n      dup3\n        /* \"#utility.yul\":1875:1899   */\n      tag_159\n      jump\t// in\n    tag_210:\n        /* \"#utility.yul\":1864:1899   */\n      swap1\n      pop\n        /* \"#utility.yul\":1809:1905   */\n      swap2\n      swap1\n      pop\n      jump\t// out\n        /* \"#utility.yul\":1911:2033   */\n    tag_171:\n        /* \"#utility.yul\":1984:2008   */\n      tag_212\n        /* \"#utility.yul\":2002:2007   */\n      dup2\n        /* \"#utility.yul\":1984:2008   */\n      tag_170\n      jump\t// in\n    tag_212:\n        /* \"#utility.yul\":1977:1982   */\n      dup2\n        /* \"#utility.yul\":1974:2009   */\n      eq\n        /* \"#utility.yul\":1964:2027   */\n      tag_213\n      jumpi\n        /* \"#utility.yul\":2023:2024   */\n      0x00\n        /* \"#utility.yul\":2020:2021   */\n      dup1\n        /* \"#utility.yul\":2013:2025   */\n      revert\n        /* \"#utility.yul\":1964:2027   */\n    tag_213:\n        /* \"#utility.yul\":1911:2033   */\n      pop\n      jump\t// out\n        /* \"#utility.yul\":2039:2178   */\n    tag_172:\n        /* \"#utility.yul\":2085:2090   */\n      0x00\n        /* \"#utility.yul\":2123:2129   */\n      dup2\n        /* \"#utility.yul\":2110:2130   */\n      calldataload\n        /* \"#utility.yul\":2101:2130   */\n      swap1\n      pop\n        /* \"#utility.yul\":2139:2172   */\n      tag_215\n        /* \"#utility.yul\":2166:2171   */\n      dup2\n        /* \"#utility.yul\":2139:2172   */\n      tag_171\n      jump\t// in\n    tag_215:\n        /* \"#utility.yul\":2039:2178   */\n      swap3\n      swap2\n      pop\n      pop\n      jump\t// out\n        /* \"#utility.yul\":2184:2513   */\n    tag_30:\n        /* \"#utility.yul\":2243:2249   */\n      0x00\n        /* \"#utility.yul\":2292:2294   */\n      0x20\n        /* \"#utility.yul\":2280:2289   */\n      dup3\n        /* \"#utility.yul\":2271:2278   */\n      dup5\n        /* \"#utility.yul\":2267:2290   */\n      sub\n        /* \"#utility.yul\":2263:2295   */\n      slt\n        /* \"#utility.yul\":2260:2379   */\n      iszero\n      tag_217\n      jumpi\n        /* \"#utility.yul\":2298:2377   */\n      tag_218\n      tag_168\n      jump\t// in\n    tag_218:\n        /* \"#utility.yul\":2260:2379   */\n    tag_217:\n        /* \"#utility.yul\":2418:2419   */\n      0x00\n        /* \"#utility.yul\":2443:2496   */\n      tag_219\n        /* \"#utility.yul\":2488:2495   */\n      dup5\n        /* \"#utility.yul\":2479:2485   */\n      dup3\n        /* \"#utility.yul\":2468:2477   */\n      dup6\n        /* \"#utility.yul\":2464:2486   */\n      add\n        /* \"#utility.yul\":2443:2496   */\n      tag_172\n      jump\t// in\n    tag_219:\n        /* \"#utility.yul\":2433:2496   */\n      swap2\n      pop\n        /* \"#utility.yul\":2389:2506   */\n      pop\n        /* \"#utility.yul\":2184:2513   */\n      swap3\n      swap2\n      pop\n      pop\n      jump\t// out\n        /* \"#utility.yul\":2519:2641   */\n    tag_173:\n        /* \"#utility.yul\":2592:2616   */\n      tag_221\n        /* \"#utility.yul\":2610:2615   */\n      dup2\n        /* \"#utility.yul\":2592:2616   */\n      tag_165\n      jump\t// in\n    tag_221:\n        /* \"#utility.yul\":2585:2590   */\n      dup2\n        /* \"#utility.yul\":2582:2617   */\n      eq\n        /* \"#utility.yul\":2572:2635   */\n      tag_222\n      jumpi\n        /* \"#utility.yul\":2631:2632   */\n      0x00\n        /* \"#utility.yul\":2628:2629   */\n      dup1\n        /* \"#utility.yul\":2621:2633   */\n      revert\n        /* \"#utility.yul\":2572:2635   */\n    tag_222:\n        /* \"#utility.yul\":2519:2641   */\n      pop\n      jump\t// out\n        /* \"#utility.yul\":2647:2786   */\n    tag_174:\n        /* \"#utility.yul\":2693:2698   */\n      0x00\n        /* \"#utility.yul\":2731:2737   */\n      dup2\n        /* \"#utility.yul\":2718:2738   */\n      calldataload\n        /* \"#utility.yul\":2709:2738   */\n      swap1\n      pop\n        /* \"#utility.yul\":2747:2780   */\n      tag_224\n        /* \"#utility.yul\":2774:2779   */\n      dup2\n        /* \"#utility.yul\":2747:2780   */\n      tag_173\n      jump\t// in\n    tag_224:\n        /* \"#utility.yul\":2647:2786   */\n      swap3\n      swap2\n      pop\n      pop\n      jump\t// out\n        /* \"#utility.yul\":2792:3121   */\n    tag_35:\n        /* \"#utility.yul\":2851:2857   */\n      0x00\n        /* \"#utility.yul\":2900:2902   */\n      0x20\n        /* \"#utility.yul\":2888:2897   */\n      dup3\n        /* \"#utility.yul\":2879:2886   */\n      dup5\n        /* \"#utility.yul\":2875:2898   */\n      sub\n        /* \"#utility.yul\":2871:2903   */\n      slt\n        /* \"#utility.yul\":2868:2987   */\n      iszero\n      tag_226\n      jumpi\n        /* \"#utility.yul\":2906:2985   */\n      tag_227\n      tag_168\n      jump\t// in\n    tag_227:\n        /* \"#utility.yul\":2868:2987   */\n    tag_226:\n        /* \"#utility.yul\":3026:3027   */\n      0x00\n        /* \"#utility.yul\":3051:3104   */\n      tag_228\n        /* \"#utility.yul\":3096:3103   */\n      dup5\n        /* \"#utility.yul\":3087:3093   */\n      dup3\n        /* \"#utility.yul\":3076:3085   */\n      dup6\n        /* \"#utility.yul\":3072:3094   */\n      add\n        /* \"#utility.yul\":3051:3104   */\n      tag_174\n      jump\t// in\n    tag_228:\n        /* \"#utility.yul\":3041:3104   */\n      swap2\n      pop\n        /* \"#utility.yul\":2997:3114   */\n      pop\n        /* \"#utility.yul\":2792:3121   */\n      swap3\n      swap2\n      pop\n      pop\n      jump\t// out\n        /* \"#utility.yul\":3127:3459   */\n    tag_38:\n        /* \"#utility.yul\":3248:3252   */\n      0x00\n        /* \"#utility.yul\":3286:3288   */\n      0x40\n        /* \"#utility.yul\":3275:3284   */\n      dup3\n        /* \"#utility.yul\":3271:3289   */\n      add\n        /* \"#utility.yul\":3263:3289   */\n      swap1\n      pop\n        /* \"#utility.yul\":3299:3370   */\n      tag_230\n        /* \"#utility.yul\":3367:3368   */\n      0x00\n        /* \"#utility.yul\":3356:3365   */\n      dup4\n        /* \"#utility.yul\":3352:3369   */\n      add\n        /* \"#utility.yul\":3343:3349   */\n      dup6\n        /* \"#utility.yul\":3299:3370   */\n      tag_166\n      jump\t// in\n    tag_230:\n        /* \"#utility.yul\":3380:3452   */\n      tag_231\n        /* \"#utility.yul\":3448:3450   */\n      0x20\n        /* \"#utility.yul\":3437:3446   */\n      dup4\n        /* \"#utility.yul\":3433:3451   */\n      add\n        /* \"#utility.yul\":3424:3430   */\n      dup5\n        /* \"#utility.yul\":3380:3452   */\n      tag_166\n      jump\t// in\n    tag_231:\n        /* \"#utility.yul\":3127:3459   */\n      swap4\n      swap3\n      pop\n      pop\n      pop\n      jump\t// out\n        /* \"#utility.yul\":3465:3939   */\n    tag_41:\n        /* \"#utility.yul\":3533:3539   */\n      0x00\n        /* \"#utility.yul\":3541:3547   */\n      dup1\n        /* \"#utility.yul\":3590:3592   */\n      0x40\n        /* \"#utility.yul\":3578:3587   */\n      dup4\n        /* \"#utility.yul\":3569:3576   */\n      dup6\n        /* \"#utility.yul\":3565:3588   */\n      sub\n        /* \"#utility.yul\":3561:3593   */\n      slt\n        /* \"#utility.yul\":3558:3677   */\n      iszero\n      tag_233\n      jumpi\n        /* \"#utility.yul\":3596:3675   */\n      tag_234\n      tag_168\n      jump\t// in\n    tag_234:\n        /* \"#utility.yul\":3558:3677   */\n    tag_233:\n        /* \"#utility.yul\":3716:3717   */\n      0x00\n        /* \"#utility.yul\":3741:3794   */\n      tag_235\n        /* \"#utility.yul\":3786:3793   */\n      dup6\n        /* \"#utility.yul\":3777:3783   */\n      dup3\n        /* \"#utility.yul\":3766:3775   */\n      dup7\n        /* \"#utility.yul\":3762:3784   */\n      add\n        /* \"#utility.yul\":3741:3794   */\n      tag_174\n      jump\t// in\n    tag_235:\n        /* \"#utility.yul\":3731:3794   */\n      swap3\n      pop\n        /* \"#utility.yul\":3687:3804   */\n      pop\n        /* \"#utility.yul\":3843:3845   */\n      0x20\n        /* \"#utility.yul\":3869:3922   */\n      tag_236\n        /* \"#utility.yul\":3914:3921   */\n      dup6\n        /* \"#utility.yul\":3905:3911   */\n      dup3\n        /* \"#utility.yul\":3894:3903   */\n      dup7\n        /* \"#utility.yul\":3890:3912   */\n      add\n        /* \"#utility.yul\":3869:3922   */\n      tag_174\n      jump\t// in\n    tag_236:\n        /* \"#utility.yul\":3859:3922   */\n      swap2\n      pop\n        /* \"#utility.yul\":3814:3932   */\n      pop\n        /* \"#utility.yul\":3465:3939   */\n      swap3\n      pop\n      swap3\n      swap1\n      pop\n      jump\t// out\n        /* \"#utility.yul\":3945:4419   */\n    tag_46:\n        /* \"#utility.yul\":4013:4019   */\n      0x00\n        /* \"#utility.yul\":4021:4027   */\n      dup1\n        /* \"#utility.yul\":4070:4072   */\n      0x40\n        /* \"#utility.yul\":4058:4067   */\n      dup4\n        /* \"#utility.yul\":4049:4056   */\n      dup6\n        /* \"#utility.yul\":4045:4068   */\n      sub\n        /* \"#utility.yul\":4041:4073   */\n      slt\n        /* \"#utility.yul\":4038:4157   */\n      iszero\n      tag_238\n      jumpi\n        /* \"#utility.yul\":4076:4155   */\n      tag_239\n      tag_168\n      jump\t// in\n    tag_239:\n        /* \"#utility.yul\":4038:4157   */\n    tag_238:\n        /* \"#utility.yul\":4196:4197   */\n      0x00\n        /* \"#utility.yul\":4221:4274   */\n      tag_240\n        /* \"#utility.yul\":4266:4273   */\n      dup6\n        /* \"#utility.yul\":4257:4263   */\n      dup3\n        /* \"#utility.yul\":4246:4255   */\n      dup7\n        /* \"#utility.yul\":4242:4264   */\n      add\n        /* \"#utility.yul\":4221:4274   */\n      tag_172\n      jump\t// in\n    tag_240:\n        /* \"#utility.yul\":4211:4274   */\n      swap3\n      pop\n        /* \"#utility.yul\":4167:4284   */\n      pop\n        /* \"#utility.yul\":4323:4325   */\n      0x20\n        /* \"#utility.yul\":4349:4402   */\n      tag_241\n        /* \"#utility.yul\":4394:4401   */\n      dup6\n        /* \"#utility.yul\":4385:4391   */\n      dup3\n        /* \"#utility.yul\":4374:4383   */\n      dup7\n        /* \"#utility.yul\":4370:4392   */\n      add\n        /* \"#utility.yul\":4349:4402   */\n      tag_174\n      jump\t// in\n    tag_241:\n        /* \"#utility.yul\":4339:4402   */\n      swap2\n      pop\n        /* \"#utility.yul\":4294:4412   */\n      pop\n        /* \"#utility.yul\":3945:4419   */\n      swap3\n      pop\n      swap3\n      swap1\n      pop\n      jump\t// out\n        /* \"#utility.yul\":4425:4605   */\n    tag_175:\n        /* \"#utility.yul\":4473:4550   */\n      0x4e487b7100000000000000000000000000000000000000000000000000000000\n        /* \"#utility.yul\":4470:4471   */\n      0x00\n        /* \"#utility.yul\":4463:4551   */\n      mstore\n        /* \"#utility.yul\":4570:4574   */\n      0x11\n        /* \"#utility.yul\":4567:4568   */\n      0x04\n        /* \"#utility.yul\":4560:4575   */\n      mstore\n        /* \"#utility.yul\":4594:4598   */\n      0x24\n        /* \"#utility.yul\":4591:4592   */\n      0x00\n        /* \"#utility.yul\":4584:4599   */\n      revert\n        /* \"#utility.yul\":4611:5021   */\n    tag_57:\n        /* \"#utility.yul\":4651:4658   */\n      0x00\n        /* \"#utility.yul\":4674:4694   */\n      tag_244\n        /* \"#utility.yul\":4692:4693   */\n      dup3\n        /* \"#utility.yul\":4674:4694   */\n      tag_165\n      jump\t// in\n    tag_244:\n        /* \"#utility.yul\":4669:4694   */\n      swap2\n      pop\n        /* \"#utility.yul\":4708:4728   */\n      tag_245\n        /* \"#utility.yul\":4726:4727   */\n      dup4\n        /* \"#utility.yul\":4708:4728   */\n      tag_165\n      jump\t// in\n    tag_245:\n        /* \"#utility.yul\":4703:4728   */\n      swap3\n      pop\n        /* \"#utility.yul\":4763:4764   */\n      dup3\n        /* \"#utility.yul\":4760:4761   */\n      dup3\n        /* \"#utility.yul\":4756:4765   */\n      mul\n        /* \"#utility.yul\":4785:4815   */\n      tag_246\n        /* \"#utility.yul\":4803:4814   */\n      dup2\n        /* \"#utility.yul\":4785:4815   */\n      tag_165\n      jump\t// in\n    tag_246:\n        /* \"#utility.yul\":4774:4815   */\n      swap2\n      pop\n        /* \"#utility.yul\":4964:4965   */\n      dup3\n        /* \"#utility.yul\":4955:4962   */\n      dup3\n        /* \"#utility.yul\":4951:4966   */\n      div\n        /* \"#utility.yul\":4948:4949   */\n      dup5\n        /* \"#utility.yul\":4945:4967   */\n      eq\n        /* \"#utility.yul\":4925:4926   */\n      dup4\n        /* \"#utility.yul\":4918:4927   */\n      iszero\n        /* \"#utility.yul\":4898:4981   */\n      or\n        /* \"#utility.yul\":4875:5014   */\n      tag_247\n      jumpi\n        /* \"#utility.yul\":4994:5012   */\n      tag_248\n      tag_175\n      jump\t// in\n    tag_248:\n        /* \"#utility.yul\":4875:5014   */\n    tag_247:\n        /* \"#utility.yul\":4659:5021   */\n      pop\n        /* \"#utility.yul\":4611:5021   */\n      swap3\n      swap2\n      pop\n      pop\n      jump\t// out\n        /* \"#utility.yul\":5027:5207   */\n    tag_176:\n        /* \"#utility.yul\":5075:5152   */\n      0x4e487b7100000000000000000000000000000000000000000000000000000000\n        /* \"#utility.yul\":5072:5073   */\n      0x00\n        /* \"#utility.yul\":5065:5153   */\n      mstore\n        /* \"#utility.yul\":5172:5176   */\n      0x12\n        /* \"#utility.yul\":5169:5170   */\n      0x04\n        /* \"#utility.yul\":5162:5177   */\n      mstore\n        /* \"#utility.yul\":5196:5200   */\n      0x24\n        /* \"#utility.yul\":5193:5194   */\n      0x00\n        /* \"#utility.yul\":5186:5201   */\n      revert\n        /* \"#utility.yul\":5213:5398   */\n    tag_59:\n        /* \"#utility.yul\":5253:5254   */\n      0x00\n        /* \"#utility.yul\":5270:5290   */\n      tag_251\n        /* \"#utility.yul\":5288:5289   */\n      dup3\n        /* \"#utility.yul\":5270:5290   */\n      tag_165\n      jump\t// in\n    tag_251:\n        /* \"#utility.yul\":5265:5290   */\n      swap2\n      pop\n        /* \"#utility.yul\":5304:5324   */\n      tag_252\n        /* \"#utility.yul\":5322:5323   */\n      dup4\n        /* \"#utility.yul\":5304:5324   */\n      tag_165\n      jump\t// in\n    tag_252:\n        /* \"#utility.yul\":5299:5324   */\n      swap3\n      pop\n        /* \"#utility.yul\":5343:5344   */\n      dup3\n        /* \"#utility.yul\":5333:5368   */\n      tag_253\n      jumpi\n        /* \"#utility.yul\":5348:5366   */\n      tag_254\n      tag_176\n      jump\t// in\n    tag_254:\n        /* \"#utility.yul\":5333:5368   */\n    tag_253:\n        /* \"#utility.yul\":5390:5391   */\n      dup3\n        /* \"#utility.yul\":5387:5388   */\n      dup3\n        /* \"#utility.yul\":5383:5392   */\n      div\n        /* \"#utility.yul\":5378:5392   */\n      swap1\n      pop\n        /* \"#utility.yul\":5213:5398   */\n      swap3\n      swap2\n      pop\n      pop\n      jump\t// out\n        /* \"#utility.yul\":5404:5598   */\n    tag_68:\n        /* \"#utility.yul\":5444:5448   */\n      0x00\n        /* \"#utility.yul\":5464:5484   */\n      tag_256\n        /* \"#utility.yul\":5482:5483   */\n      dup3\n        /* \"#utility.yul\":5464:5484   */\n      tag_165\n      jump\t// in\n    tag_256:\n        /* \"#utility.yul\":5459:5484   */\n      swap2\n      pop\n        /* \"#utility.yul\":5498:5518   */\n      tag_257\n        /* \"#utility.yul\":5516:5517   */\n      dup4\n        /* \"#utility.yul\":5498:5518   */\n      tag_165\n      jump\t// in\n    tag_257:\n        /* \"#utility.yul\":5493:5518   */\n      swap3\n      pop\n        /* \"#utility.yul\":5542:5543   */\n      dup3\n        /* \"#utility.yul\":5539:5540   */\n      dup3\n        /* \"#utility.yul\":5535:5544   */\n      sub\n        /* \"#utility.yul\":5527:5544   */\n      swap1\n      pop\n        /* \"#utility.yul\":5566:5567   */\n      dup2\n        /* \"#utility.yul\":5560:5564   */\n      dup2\n        /* \"#utility.yul\":5557:5568   */\n      gt\n        /* \"#utility.yul\":5554:5591   */\n      iszero\n      tag_258\n      jumpi\n        /* \"#utility.yul\":5571:5589   */\n      tag_259\n      tag_175\n      jump\t// in\n    tag_259:\n        /* \"#utility.yul\":5554:5591   */\n    tag_258:\n        /* \"#utility.yul\":5404:5598   */\n      swap3\n      swap2\n      pop\n      pop\n      jump\t// out\n        /* \"#utility.yul\":5604:5722   */\n    tag_177:\n        /* \"#utility.yul\":5691:5715   */\n      tag_261\n        /* \"#utility.yul\":5709:5714   */\n      dup2\n        /* \"#utility.yul\":5691:5715   */\n      tag_170\n      jump\t// in\n    tag_261:\n        /* \"#utility.yul\":5686:5689   */\n      dup3\n        /* \"#utility.yul\":5679:5716   */\n      mstore\n        /* \"#utility.yul\":5604:5722   */\n      pop\n      pop\n      jump\t// out\n        /* \"#utility.yul\":5728:6170   */\n    tag_78:\n        /* \"#utility.yul\":5877:5881   */\n      0x00\n        /* \"#utility.yul\":5915:5917   */\n      0x60\n        /* \"#utility.yul\":5904:5913   */\n      dup3\n        /* \"#utility.yul\":5900:5918   */\n      add\n        /* \"#utility.yul\":5892:5918   */\n      swap1\n      pop\n        /* \"#utility.yul\":5928:5999   */\n      tag_263\n        /* \"#utility.yul\":5996:5997   */\n      0x00\n        /* \"#utility.yul\":5985:5994   */\n      dup4\n        /* \"#utility.yul\":5981:5998   */\n      add\n        /* \"#utility.yul\":5972:5978   */\n      dup7\n        /* \"#utility.yul\":5928:5999   */\n      tag_177\n      jump\t// in\n    tag_263:\n        /* \"#utility.yul\":6009:6081   */\n      tag_264\n        /* \"#utility.yul\":6077:6079   */\n      0x20\n        /* \"#utility.yul\":6066:6075   */\n      dup4\n        /* \"#utility.yul\":6062:6080   */\n      add\n        /* \"#utility.yul\":6053:6059   */\n      dup6\n        /* \"#utility.yul\":6009:6081   */\n      tag_177\n      jump\t// in\n    tag_264:\n        /* \"#utility.yul\":6091:6163   */\n      tag_265\n        /* \"#utility.yul\":6159:6161   */\n      0x40\n        /* \"#utility.yul\":6148:6157   */\n      dup4\n        /* \"#utility.yul\":6144:6162   */\n      add\n        /* \"#utility.yul\":6135:6141   */\n      dup5\n        /* \"#utility.yul\":6091:6163   */\n      tag_166\n      jump\t// in\n    tag_265:\n        /* \"#utility.yul\":5728:6170   */\n      swap5\n      swap4\n      pop\n      pop\n      pop\n      pop\n      jump\t// out\n        /* \"#utility.yul\":6176:6266   */\n    tag_178:\n        /* \"#utility.yul\":6210:6217   */\n      0x00\n        /* \"#utility.yul\":6253:6258   */\n      dup2\n        /* \"#utility.yul\":6246:6259   */\n      iszero\n        /* \"#utility.yul\":6239:6260   */\n      iszero\n        /* \"#utility.yul\":6228:6260   */\n      swap1\n      pop\n        /* \"#utility.yul\":6176:6266   */\n      swap2\n      swap1\n      pop\n      jump\t// out\n        /* \"#utility.yul\":6272:6388   */\n    tag_179:\n        /* \"#utility.yul\":6342:6363   */\n      tag_268\n        /* \"#utility.yul\":6357:6362   */\n      dup2\n        /* \"#utility.yul\":6342:6363   */\n      tag_178\n      jump\t// in\n    tag_268:\n        /* \"#utility.yul\":6335:6340   */\n      dup2\n        /* \"#utility.yul\":6332:6364   */\n      eq\n        /* \"#utility.yul\":6322:6382   */\n      tag_269\n      jumpi\n        /* \"#utility.yul\":6378:6379   */\n      0x00\n        /* \"#utility.yul\":6375:6376   */\n      dup1\n        /* \"#utility.yul\":6368:6380   */\n      revert\n        /* \"#utility.yul\":6322:6382   */\n    tag_269:\n        /* \"#utility.yul\":6272:6388   */\n      pop\n      jump\t// out\n        /* \"#utility.yul\":6394:6531   */\n    tag_180:\n        /* \"#utility.yul\":6448:6453   */\n      0x00\n        /* \"#utility.yul\":6479:6485   */\n      dup2\n        /* \"#utility.yul\":6473:6486   */\n      mload\n        /* \"#utility.yul\":6464:6486   */\n      swap1\n      pop\n        /* \"#utility.yul\":6495:6525   */\n      tag_271\n        /* \"#utility.yul\":6519:6524   */\n      dup2\n        /* \"#utility.yul\":6495:6525   */\n      tag_179\n      jump\t// in\n    tag_271:\n        /* \"#utility.yul\":6394:6531   */\n      swap3\n      swap2\n      pop\n      pop\n      jump\t// out\n        /* \"#utility.yul\":6537:6882   */\n    tag_82:\n        /* \"#utility.yul\":6604:6610   */\n      0x00\n        /* \"#utility.yul\":6653:6655   */\n      0x20\n        /* \"#utility.yul\":6641:6650   */\n      dup3\n        /* \"#utility.yul\":6632:6639   */\n      dup5\n        /* \"#utility.yul\":6628:6651   */\n      sub\n        /* \"#utility.yul\":6624:6656   */\n      slt\n        /* \"#utility.yul\":6621:6740   */\n      iszero\n      tag_273\n      jumpi\n        /* \"#utility.yul\":6659:6738   */\n      tag_274\n      tag_168\n      jump\t// in\n    tag_274:\n        /* \"#utility.yul\":6621:6740   */\n    tag_273:\n        /* \"#utility.yul\":6779:6780   */\n      0x00\n        /* \"#utility.yul\":6804:6865   */\n      tag_275\n        /* \"#utility.yul\":6857:6864   */\n      dup5\n        /* \"#utility.yul\":6848:6854   */\n      dup3\n        /* \"#utility.yul\":6837:6846   */\n      dup6\n        /* \"#utility.yul\":6833:6855   */\n      add\n        /* \"#utility.yul\":6804:6865   */\n      tag_180\n      jump\t// in\n    tag_275:\n        /* \"#utility.yul\":6794:6865   */\n      swap2\n      pop\n        /* \"#utility.yul\":6750:6875   */\n      pop\n        /* \"#utility.yul\":6537:6882   */\n      swap3\n      swap2\n      pop\n      pop\n      jump\t// out\n        /* \"#utility.yul\":6888:7079   */\n    tag_103:\n        /* \"#utility.yul\":6928:6931   */\n      0x00\n        /* \"#utility.yul\":6947:6967   */\n      tag_277\n        /* \"#utility.yul\":6965:6966   */\n      dup3\n        /* \"#utility.yul\":6947:6967   */\n      tag_165\n      jump\t// in\n    tag_277:\n        /* \"#utility.yul\":6942:6967   */\n      swap2\n      pop\n        /* \"#utility.yul\":6981:7001   */\n      tag_278\n        /* \"#utility.yul\":6999:7000   */\n      dup4\n        /* \"#utility.yul\":6981:7001   */\n      tag_165\n      jump\t// in\n    tag_278:\n        /* \"#utility.yul\":6976:7001   */\n      swap3\n      pop\n        /* \"#utility.yul\":7024:7025   */\n      dup3\n        /* \"#utility.yul\":7021:7022   */\n      dup3\n        /* \"#utility.yul\":7017:7026   */\n      add\n        /* \"#utility.yul\":7010:7026   */\n      swap1\n      pop\n        /* \"#utility.yul\":7045:7048   */\n      dup1\n        /* \"#utility.yul\":7042:7043   */\n      dup3\n        /* \"#utility.yul\":7039:7049   */\n      gt\n        /* \"#utility.yul\":7036:7072   */\n      iszero\n      tag_279\n      jumpi\n        /* \"#utility.yul\":7052:7070   */\n      tag_280\n      tag_175\n      jump\t// in\n    tag_280:\n        /* \"#utility.yul\":7036:7072   */\n    tag_279:\n        /* \"#utility.yul\":6888:7079   */\n      swap3\n      swap2\n      pop\n      pop\n      jump\t// out\n        /* \"#utility.yul\":7085:7254   */\n    tag_181:\n        /* \"#utility.yul\":7169:7180   */\n      0x00\n        /* \"#utility.yul\":7203:7209   */\n      dup3\n        /* \"#utility.yul\":7198:7201   */\n      dup3\n        /* \"#utility.yul\":7191:7210   */\n      mstore\n        /* \"#utility.yul\":7243:7247   */\n      0x20\n        /* \"#utility.yul\":7238:7241   */\n      dup3\n        /* \"#utility.yul\":7234:7248   */\n      add\n        /* \"#utility.yul\":7219:7248   */\n      swap1\n      pop\n        /* \"#utility.yul\":7085:7254   */\n      swap3\n      swap2\n      pop\n      pop\n      jump\t// out\n        /* \"#utility.yul\":7260:7422   */\n    tag_182:\n        /* \"#utility.yul\":7400:7414   */\n      0x5a45524f20414444524553530000000000000000000000000000000000000000\n        /* \"#utility.yul\":7396:7397   */\n      0x00\n        /* \"#utility.yul\":7388:7394   */\n      dup3\n        /* \"#utility.yul\":7384:7398   */\n      add\n        /* \"#utility.yul\":7377:7415   */\n      mstore\n        /* \"#utility.yul\":7260:7422   */\n      pop\n      jump\t// out\n        /* \"#utility.yul\":7428:7794   */\n    tag_183:\n        /* \"#utility.yul\":7570:7573   */\n      0x00\n        /* \"#utility.yul\":7591:7658   */\n      tag_284\n        /* \"#utility.yul\":7655:7657   */\n      0x0c\n        /* \"#utility.yul\":7650:7653   */\n      dup4\n        /* \"#utility.yul\":7591:7658   */\n      tag_181\n      jump\t// in\n    tag_284:\n        /* \"#utility.yul\":7584:7658   */\n      swap2\n      pop\n        /* \"#utility.yul\":7667:7760   */\n      tag_285\n        /* \"#utility.yul\":7756:7759   */\n      dup3\n        /* \"#utility.yul\":7667:7760   */\n      tag_182\n      jump\t// in\n    tag_285:\n        /* \"#utility.yul\":7785:7787   */\n      0x20\n        /* \"#utility.yul\":7780:7783   */\n      dup3\n        /* \"#utility.yul\":7776:7788   */\n      add\n        /* \"#utility.yul\":7769:7788   */\n      swap1\n      pop\n        /* \"#utility.yul\":7428:7794   */\n      swap2\n      swap1\n      pop\n      jump\t// out\n        /* \"#utility.yul\":7800:8219   */\n    tag_108:\n        /* \"#utility.yul\":7966:7970   */\n      0x00\n        /* \"#utility.yul\":8004:8006   */\n      0x20\n        /* \"#utility.yul\":7993:8002   */\n      dup3\n        /* \"#utility.yul\":7989:8007   */\n      add\n        /* \"#utility.yul\":7981:8007   */\n      swap1\n      pop\n        /* \"#utility.yul\":8053:8062   */\n      dup2\n        /* \"#utility.yul\":8047:8051   */\n      dup2\n        /* \"#utility.yul\":8043:8063   */\n      sub\n        /* \"#utility.yul\":8039:8040   */\n      0x00\n        /* \"#utility.yul\":8028:8037   */\n      dup4\n        /* \"#utility.yul\":8024:8041   */\n      add\n        /* \"#utility.yul\":8017:8064   */\n      mstore\n        /* \"#utility.yul\":8081:8212   */\n      tag_287\n        /* \"#utility.yul\":8207:8211   */\n      dup2\n        /* \"#utility.yul\":8081:8212   */\n      tag_183\n      jump\t// in\n    tag_287:\n        /* \"#utility.yul\":8073:8212   */\n      swap1\n      pop\n        /* \"#utility.yul\":7800:8219   */\n      swap2\n      swap1\n      pop\n      jump\t// out\n        /* \"#utility.yul\":8225:8386   */\n    tag_184:\n        /* \"#utility.yul\":8365:8378   */\n      0x5a45524f20414d4f554e54000000000000000000000000000000000000000000\n        /* \"#utility.yul\":8361:8362   */\n      0x00\n        /* \"#utility.yul\":8353:8359   */\n      dup3\n        /* \"#utility.yul\":8349:8363   */\n      add\n        /* \"#utility.yul\":8342:8379   */\n      mstore\n        /* \"#utility.yul\":8225:8386   */\n      pop\n      jump\t// out\n        /* \"#utility.yul\":8392:8758   */\n    tag_185:\n        /* \"#utility.yul\":8534:8537   */\n      0x00\n        /* \"#utility.yul\":8555:8622   */\n      tag_290\n        /* \"#utility.yul\":8619:8621   */\n      0x0b\n        /* \"#utility.yul\":8614:8617   */\n      dup4\n        /* \"#utility.yul\":8555:8622   */\n      tag_181\n      jump\t// in\n    tag_290:\n        /* \"#utility.yul\":8548:8622   */\n      swap2\n      pop\n        /* \"#utility.yul\":8631:8724   */\n      tag_291\n        /* \"#utility.yul\":8720:8723   */\n      dup3\n        /* \"#utility.yul\":8631:8724   */\n      tag_184\n      jump\t// in\n    tag_291:\n        /* \"#utility.yul\":8749:8751   */\n      0x20\n        /* \"#utility.yul\":8744:8747   */\n      dup3\n        /* \"#utility.yul\":8740:8752   */\n      add\n        /* \"#utility.yul\":8733:8752   */\n      swap1\n      pop\n        /* \"#utility.yul\":8392:8758   */\n      swap2\n      swap1\n      pop\n      jump\t// out\n        /* \"#utility.yul\":8764:9183   */\n    tag_111:\n        /* \"#utility.yul\":8930:8934   */\n      0x00\n        /* \"#utility.yul\":8968:8970   */\n      0x20\n        /* \"#utility.yul\":8957:8966   */\n      dup3\n        /* \"#utility.yul\":8953:8971   */\n      add\n        /* \"#utility.yul\":8945:8971   */\n      swap1\n      pop\n        /* \"#utility.yul\":9017:9026   */\n      dup2\n        /* \"#utility.yul\":9011:9015   */\n      dup2\n        /* \"#utility.yul\":9007:9027   */\n      sub\n        /* \"#utility.yul\":9003:9004   */\n      0x00\n        /* \"#utility.yul\":8992:9001   */\n      dup4\n        /* \"#utility.yul\":8988:9005   */\n      add\n        /* \"#utility.yul\":8981:9028   */\n      mstore\n        /* \"#utility.yul\":9045:9176   */\n      tag_293\n        /* \"#utility.yul\":9171:9175   */\n      dup2\n        /* \"#utility.yul\":9045:9176   */\n      tag_185\n      jump\t// in\n    tag_293:\n        /* \"#utility.yul\":9037:9176   */\n      swap1\n      pop\n        /* \"#utility.yul\":8764:9183   */\n      swap2\n      swap1\n      pop\n      jump\t// out\n        /* \"#utility.yul\":9189:9521   */\n    tag_127:\n        /* \"#utility.yul\":9310:9314   */\n      0x00\n        /* \"#utility.yul\":9348:9350   */\n      0x40\n        /* \"#utility.yul\":9337:9346   */\n      dup3\n        /* \"#utility.yul\":9333:9351   */\n      add\n        /* \"#utility.yul\":9325:9351   */\n      swap1\n      pop\n        /* \"#utility.yul\":9361:9432   */\n      tag_295\n        /* \"#utility.yul\":9429:9430   */\n      0x00\n        /* \"#utility.yul\":9418:9427   */\n      dup4\n        /* \"#utility.yul\":9414:9431   */\n      add\n        /* \"#utility.yul\":9405:9411   */\n      dup6\n        /* \"#utility.yul\":9361:9432   */\n      tag_177\n      jump\t// in\n    tag_295:\n        /* \"#utility.yul\":9442:9514   */\n      tag_296\n        /* \"#utility.yul\":9510:9512   */\n      0x20\n        /* \"#utility.yul\":9499:9508   */\n      dup4\n        /* \"#utility.yul\":9495:9513   */\n      add\n        /* \"#utility.yul\":9486:9492   */\n      dup5\n        /* \"#utility.yul\":9442:9514   */\n      tag_166\n      jump\t// in\n    tag_296:\n        /* \"#utility.yul\":9189:9521   */\n      swap4\n      swap3\n      pop\n      pop\n      pop\n      jump\t// out\n\n    auxdata: 0xa2646970667358221220d2671d73a0b45bdd1dbdf897d04fb60e042df7e6da8e493ee7d7b1bfd5f53c6164736f6c634300081a0033\n}\n",
				"bytecode": {
					"linkReferences": {},
					"object": "60c060405260035f55348015610013575f80fd5b506040516111cc3803806111cc83398181016040528101906100359190610102565b8173ffffffffffffffffffffffffffffffffffffffff1660808173ffffffffffffffffffffffffffffffffffffffff16815250508073ffffffffffffffffffffffffffffffffffffffff1660a08173ffffffffffffffffffffffffffffffffffffffff16815250505050610140565b5f80fd5b5f73ffffffffffffffffffffffffffffffffffffffff82169050919050565b5f6100d1826100a8565b9050919050565b6100e1816100c7565b81146100eb575f80fd5b50565b5f815190506100fc816100d8565b92915050565b5f8060408385031215610118576101176100a4565b5b5f610125858286016100ee565b9250506020610136858286016100ee565b9150509250929050565b60805160a0516110256101a75f395f81816103c30152818161060b015281816106ba01528181610728015261094601525f818161021701528181610325015281816105b601528181610667015281816106db0152818161070701526108a201526110255ff3fe608060405234801561000f575f80fd5b506004361061009c575f3560e01c80639c8f9f23116100645780639c8f9f23146101485780639cd441da14610179578063d004f0f7146101a9578063d21220a7146101d9578063ddca3f43146101f75761009c565b80630dfe1681146100a057806318160ddd146100be578063443cb4bc146100dc5780635a76f25e146100fa57806370a0823114610118575b5f80fd5b6100a8610215565b6040516100b59190610b67565b60405180910390f35b6100c6610239565b6040516100d39190610b98565b60405180910390f35b6100e461023f565b6040516100f19190610b98565b60405180910390f35b610102610245565b60405161010f9190610b98565b60405180910390f35b610132600480360381019061012d9190610bf0565b61024b565b60405161013f9190610b98565b60405180910390f35b610162600480360381019061015d9190610c45565b610260565b604051610170929190610c70565b60405180910390f35b610193600480360381019061018e9190610c97565b6102e5565b6040516101a09190610b98565b60405180910390f35b6101c360048036038101906101be9190610cd5565b610503565b6040516101d09190610b98565b60405180910390f35b6101e1610944565b6040516101ee9190610b67565b60405180910390f35b6101ff610968565b60405161020c9190610b98565b60405180910390f35b7f000000000000000000000000000000000000000000000000000000000000000081565b60035481565b60015481565b60025481565b6004602052805f5260405f205f915090505481565b5f80600354600154846102739190610d40565b61027d9190610dae565b9150600354600254846102909190610d40565b61029a9190610dae565b90505f821180156102aa57505f81115b6102b2575f80fd5b6102bc338461096d565b6102e0826001546102cd9190610dde565b826002546102db9190610dde565b6109dc565b915091565b5f806001541180156102f857505f600254115b15610323576001548261030b9190610d40565b600254846103199190610d40565b14610322575f80fd5b5b7f000000000000000000000000000000000000000000000000000000000000000073ffffffffffffffffffffffffffffffffffffffff166323b872dd3330866040518463ffffffff1660e01b815260040161038093929190610e20565b6020604051808303815f875af115801561039c573d5f803e3d5ffd5b505050506040513d601f19601f820116820180604052508101906103c09190610e8a565b507f000000000000000000000000000000000000000000000000000000000000000073ffffffffffffffffffffffffffffffffffffffff166323b872dd3330856040518463ffffffff1660e01b815260040161041e93929190610e20565b6020604051808303815f875af115801561043a573d5f803e3d5ffd5b505050506040513d601f19601f8201168201806040525081019061045e9190610e8a565b505f600354036104835761047c83846104779190610d40565b6109ee565b90506104c4565b6104c1600154600354856104979190610d40565b6104a19190610dae565b600254600354856104b29190610d40565b6104bc9190610dae565b610a65565b90505b5f81116104cf575f80fd5b6104d93382610a7e565b6104fd836001546104ea9190610eb5565b836002546104f89190610eb5565b6109dc565b92915050565b5f8073ffffffffffffffffffffffffffffffffffffffff168373ffffffffffffffffffffffffffffffffffffffff1603610572576040517f08c379a000000000000000000000000000000000000000000000000000000000815260040161056990610f42565b60405180910390fd5b5f82116105b4576040517f08c379a00000000000000000000000000000000000000000000000000000000081526004016105ab90610faa565b60405180910390fd5b7f000000000000000000000000000000000000000000000000000000000000000073ffffffffffffffffffffffffffffffffffffffff168373ffffffffffffffffffffffffffffffffffffffff16148061065957507f000000000000000000000000000000000000000000000000000000000000000073ffffffffffffffffffffffffffffffffffffffff168373ffffffffffffffffffffffffffffffffffffffff16145b610661575f80fd5b5f805f807f000000000000000000000000000000000000000000000000000000000000000073ffffffffffffffffffffffffffffffffffffffff168773ffffffffffffffffffffffffffffffffffffffff1614610705577f00000000000000000000000000000000000000000000000000000000000000007f000000000000000000000000000000000000000000000000000000000000000060025460015461074e565b7f00000000000000000000000000000000000000000000000000000000000000007f00000000000000000000000000000000000000000000000000000000000000006001546002545b93509350935093508373ffffffffffffffffffffffffffffffffffffffff166323b872dd3330896040518463ffffffff1660e01b815260040161079393929190610e20565b6020604051808303815f875af11580156107af573d5f803e3d5ffd5b505050506040513d601f19601f820116820180604052508101906107d39190610e8a565b505f6103e85f546103e86107e79190610dde565b886107f29190610d40565b6107fc9190610dae565b9050808261080a9190610eb5565b81846108169190610d40565b6108209190610dae565b95508373ffffffffffffffffffffffffffffffffffffffff1663a9059cbb33886040518363ffffffff1660e01b815260040161085d929190610fc8565b6020604051808303815f875af1158015610879573d5f803e3d5ffd5b505050506040513d601f19601f8201168201806040525081019061089d9190610e8a565b505f807f000000000000000000000000000000000000000000000000000000000000000073ffffffffffffffffffffffffffffffffffffffff168a73ffffffffffffffffffffffffffffffffffffffff16146109105787846108ff9190610dde565b838661090b9190610eb5565b610929565b888561091c9190610eb5565b88856109289190610dde565b5b9150915061093782826109dc565b5050505050505092915050565b7f000000000000000000000000000000000000000000000000000000000000000081565b5f5481565b8060045f8473ffffffffffffffffffffffffffffffffffffffff1673ffffffffffffffffffffffffffffffffffffffff1681526020019081526020015f205f8282546109b99190610dde565b925050819055508060035f8282546109d19190610dde565b925050819055505050565b81600181905550806002819055505050565b5f6003821115610a53578190505f6001600284610a0b9190610dae565b610a159190610eb5565b90505b81811015610a4d578091506002818285610a329190610dae565b610a3c9190610eb5565b610a469190610dae565b9050610a18565b50610a60565b5f8214610a5f57600190505b5b919050565b5f81831115610a745781610a76565b825b905092915050565b8060045f8473ffffffffffffffffffffffffffffffffffffffff1673ffffffffffffffffffffffffffffffffffffffff1681526020019081526020015f205f828254610aca9190610eb5565b925050819055508060035f828254610ae29190610eb5565b925050819055505050565b5f73ffffffffffffffffffffffffffffffffffffffff82169050919050565b5f819050919050565b5f610b2f610b2a610b2584610aed565b610b0c565b610aed565b9050919050565b5f610b4082610b15565b9050919050565b5f610b5182610b36565b9050919050565b610b6181610b47565b82525050565b5f602082019050610b7a5f830184610b58565b92915050565b5f819050919050565b610b9281610b80565b82525050565b5f602082019050610bab5f830184610b89565b92915050565b5f80fd5b5f610bbf82610aed565b9050919050565b610bcf81610bb5565b8114610bd9575f80fd5b50565b5f81359050610bea81610bc6565b92915050565b5f60208284031215610c0557610c04610bb1565b5b5f610c1284828501610bdc565b91505092915050565b610c2481610b80565b8114610c2e575f80fd5b50565b5f81359050610c3f81610c1b565b92915050565b5f60208284031215610c5a57610c59610bb1565b5b5f610c6784828501610c31565b91505092915050565b5f604082019050610c835f830185610b89565b610c906020830184610b89565b9392505050565b5f8060408385031215610cad57610cac610bb1565b5b5f610cba85828601610c31565b9250506020610ccb85828601610c31565b9150509250929050565b5f8060408385031215610ceb57610cea610bb1565b5b5f610cf885828601610bdc565b9250506020610d0985828601610c31565b9150509250929050565b7f4e487b71000000000000000000000000000000000000000000000000000000005f52601160045260245ffd5b5f610d4a82610b80565b9150610d5583610b80565b9250828202610d6381610b80565b91508282048414831517610d7a57610d79610d13565b5b5092915050565b7f4e487b71000000000000000000000000000000000000000000000000000000005f52601260045260245ffd5b5f610db882610b80565b9150610dc383610b80565b925082610dd357610dd2610d81565b5b828204905092915050565b5f610de882610b80565b9150610df383610b80565b9250828203905081811115610e0b57610e0a610d13565b5b92915050565b610e1a81610bb5565b82525050565b5f606082019050610e335f830186610e11565b610e406020830185610e11565b610e4d6040830184610b89565b949350505050565b5f8115159050919050565b610e6981610e55565b8114610e73575f80fd5b50565b5f81519050610e8481610e60565b92915050565b5f60208284031215610e9f57610e9e610bb1565b5b5f610eac84828501610e76565b91505092915050565b5f610ebf82610b80565b9150610eca83610b80565b9250828201905080821115610ee257610ee1610d13565b5b92915050565b5f82825260208201905092915050565b7f5a45524f204144445245535300000000000000000000000000000000000000005f82015250565b5f610f2c600c83610ee8565b9150610f3782610ef8565b602082019050919050565b5f6020820190508181035f830152610f5981610f20565b9050919050565b7f5a45524f20414d4f554e540000000000000000000000000000000000000000005f82015250565b5f610f94600b83610ee8565b9150610f9f82610f60565b602082019050919050565b5f6020820190508181035f830152610fc181610f88565b9050919050565b5f604082019050610fdb5f830185610e11565b610fe86020830184610b89565b939250505056fea2646970667358221220d2671d73a0b45bdd1dbdf897d04fb60e042df7e6da8e493ee7d7b1bfd5f53c6164736f6c634300081a0033",
					"opcodes": "PUSH1 0xC0 PUSH1 0x40 MSTORE PUSH1 0x3 PUSH0 SSTORE CALLVALUE DUP1 ISZERO PUSH2 0x13 JUMPI PUSH0 DUP1 REVERT JUMPDEST POP PUSH1 0x40 MLOAD PUSH2 0x11CC CODESIZE SUB DUP1 PUSH2 0x11CC DUP4 CODECOPY DUP2 DUP2 ADD PUSH1 0x40 MSTORE DUP2 ADD SWAP1 PUSH2 0x35 SWAP2 SWAP1 PUSH2 0x102 JUMP JUMPDEST DUP2 PUSH20 0xFFFFFFFFFFFFFFFFFFFFFFFFFFFFFFFFFFFFFFFF AND PUSH1 0x80 DUP2 PUSH20 0xFFFFFFFFFFFFFFFFFFFFFFFFFFFFFFFFFFFFFFFF AND DUP2 MSTORE POP POP DUP1 PUSH20 0xFFFFFFFFFFFFFFFFFFFFFFFFFFFFFFFFFFFFFFFF AND PUSH1 0xA0 DUP2 PUSH20 0xFFFFFFFFFFFFFFFFFFFFFFFFFFFFFFFFFFFFFFFF AND DUP2 MSTORE POP POP POP POP PUSH2 0x140 JUMP JUMPDEST PUSH0 DUP1 REVERT JUMPDEST PUSH0 PUSH20 0xFFFFFFFFFFFFFFFFFFFFFFFFFFFFFFFFFFFFFFFF DUP3 AND SWAP1 POP SWAP2 SWAP1 POP JUMP JUMPDEST PUSH0 PUSH2 0xD1 DUP3 PUSH2 0xA8 JUMP JUMPDEST SWAP1 POP SWAP2 SWAP1 POP JUMP JUMPDEST PUSH2 0xE1 DUP2 PUSH2 0xC7 JUMP JUMPDEST DUP2 EQ PUSH2 0xEB JUMPI PUSH0 DUP1 REVERT JUMPDEST POP JUMP JUMPDEST PUSH0 DUP2 MLOAD SWAP1 POP PUSH2 0xFC DUP2 PUSH2 0xD8 JUMP JUMPDEST SWAP3 SWAP2 POP POP JUMP JUMPDEST PUSH0 DUP1 PUSH1 0x40 DUP4 DUP6 SUB SLT ISZERO PUSH2 0x118 JUMPI PUSH2 0x117 PUSH2 0xA4 JUMP JUMPDEST JUMPDEST PUSH0 PUSH2 0x125 DUP6 DUP3 DUP7 ADD PUSH2 0xEE JUMP JUMPDEST SWAP3 POP POP PUSH1 0x20 PUSH2 0x136 DUP6 DUP3 DUP7 ADD PUSH2 0xEE JUMP JUMPDEST SWAP2 POP POP SWAP3 POP SWAP3 SWAP1 POP JUMP JUMPDEST PUSH1 0x80 MLOAD PUSH1 0xA0 MLOAD PUSH2 0x1025 PUSH2 0x1A7 PUSH0 CODECOPY PUSH0 DUP2 DUP2 PUSH2 0x3C3 ADD MSTORE DUP2 DUP2 PUSH2 0x60B ADD MSTORE DUP2 DUP2 PUSH2 0x6BA ADD MSTORE DUP2 DUP2 PUSH2 0x728 ADD MSTORE PUSH2 0x946 ADD MSTORE PUSH0 DUP2 DUP2 PUSH2 0x217 ADD MSTORE DUP2 DUP2 PUSH2 0x325 ADD MSTORE DUP2 DUP2 PUSH2 0x5B6 ADD MSTORE DUP2 DUP2 PUSH2 0x667 ADD MSTORE DUP2 DUP2 PUSH2 0x6DB ADD MSTORE DUP2 DUP2 PUSH2 0x707 ADD MSTORE PUSH2 0x8A2 ADD MSTORE PUSH2 0x1025 PUSH0 RETURN INVALID PUSH1 0x80 PUSH1 0x40 MSTORE CALLVALUE DUP1 ISZERO PUSH2 0xF JUMPI PUSH0 DUP1 REVERT JUMPDEST POP PUSH1 0x4 CALLDATASIZE LT PUSH2 0x9C JUMPI PUSH0 CALLDATALOAD PUSH1 0xE0 SHR DUP1 PUSH4 0x9C8F9F23 GT PUSH2 0x64 JUMPI DUP1 PUSH4 0x9C8F9F23 EQ PUSH2 0x148 JUMPI DUP1 PUSH4 0x9CD441DA EQ PUSH2 0x179 JUMPI DUP1 PUSH4 0xD004F0F7 EQ PUSH2 0x1A9 JUMPI DUP1 PUSH4 0xD21220A7 EQ PUSH2 0x1D9 JUMPI DUP1 PUSH4 0xDDCA3F43 EQ PUSH2 0x1F7 JUMPI PUSH2 0x9C JUMP JUMPDEST DUP1 PUSH4 0xDFE1681 EQ PUSH2 0xA0 JUMPI DUP1 PUSH4 0x18160DDD EQ PUSH2 0xBE JUMPI DUP1 PUSH4 0x443CB4BC EQ PUSH2 0xDC JUMPI DUP1 PUSH4 0x5A76F25E EQ PUSH2 0xFA JUMPI DUP1 PUSH4 0x70A08231 EQ PUSH2 0x118 JUMPI JUMPDEST PUSH0 DUP1 REVERT JUMPDEST PUSH2 0xA8 PUSH2 0x215 JUMP JUMPDEST PUSH1 0x40 MLOAD PUSH2 0xB5 SWAP2 SWAP1 PUSH2 0xB67 JUMP JUMPDEST PUSH1 0x40 MLOAD DUP1 SWAP2 SUB SWAP1 RETURN JUMPDEST PUSH2 0xC6 PUSH2 0x239 JUMP JUMPDEST PUSH1 0x40 MLOAD PUSH2 0xD3 SWAP2 SWAP1 PUSH2 0xB98 JUMP JUMPDEST PUSH1 0x40 MLOAD DUP1 SWAP2 SUB SWAP1 RETURN JUMPDEST PUSH2 0xE4 PUSH2 0x23F JUMP JUMPDEST PUSH1 0x40 MLOAD PUSH2 0xF1 SWAP2 SWAP1 PUSH2 0xB98 JUMP JUMPDEST PUSH1 0x40 MLOAD DUP1 SWAP2 SUB SWAP1 RETURN JUMPDEST PUSH2 0x102 PUSH2 0x245 JUMP JUMPDEST PUSH1 0x40 MLOAD PUSH2 0x10F SWAP2 SWAP1 PUSH2 0xB98 JUMP JUMPDEST PUSH1 0x40 MLOAD DUP1 SWAP2 SUB SWAP1 RETURN JUMPDEST PUSH2 0x132 PUSH1 0x4 DUP1 CALLDATASIZE SUB DUP2 ADD SWAP1 PUSH2 0x12D SWAP2 SWAP1 PUSH2 0xBF0 JUMP JUMPDEST PUSH2 0x24B JUMP JUMPDEST PUSH1 0x40 MLOAD PUSH2 0x13F SWAP2 SWAP1 PUSH2 0xB98 JUMP JUMPDEST PUSH1 0x40 MLOAD DUP1 SWAP2 SUB SWAP1 RETURN JUMPDEST PUSH2 0x162 PUSH1 0x4 DUP1 CALLDATASIZE SUB DUP2 ADD SWAP1 PUSH2 0x15D SWAP2 SWAP1 PUSH2 0xC45 JUMP JUMPDEST PUSH2 0x260 JUMP JUMPDEST PUSH1 0x40 MLOAD PUSH2 0x170 SWAP3 SWAP2 SWAP1 PUSH2 0xC70 JUMP JUMPDEST PUSH1 0x40 MLOAD DUP1 SWAP2 SUB SWAP1 RETURN JUMPDEST PUSH2 0x193 PUSH1 0x4 DUP1 CALLDATASIZE SUB DUP2 ADD SWAP1 PUSH2 0x18E SWAP2 SWAP1 PUSH2 0xC97 JUMP JUMPDEST PUSH2 0x2E5 JUMP JUMPDEST PUSH1 0x40 MLOAD PUSH2 0x1A0 SWAP2 SWAP1 PUSH2 0xB98 JUMP JUMPDEST PUSH1 0x40 MLOAD DUP1 SWAP2 SUB SWAP1 RETURN JUMPDEST PUSH2 0x1C3 PUSH1 0x4 DUP1 CALLDATASIZE SUB DUP2 ADD SWAP1 PUSH2 0x1BE SWAP2 SWAP1 PUSH2 0xCD5 JUMP JUMPDEST PUSH2 0x503 JUMP JUMPDEST PUSH1 0x40 MLOAD PUSH2 0x1D0 SWAP2 SWAP1 PUSH2 0xB98 JUMP JUMPDEST PUSH1 0x40 MLOAD DUP1 SWAP2 SUB SWAP1 RETURN JUMPDEST PUSH2 0x1E1 PUSH2 0x944 JUMP JUMPDEST PUSH1 0x40 MLOAD PUSH2 0x1EE SWAP2 SWAP1 PUSH2 0xB67 JUMP JUMPDEST PUSH1 0x40 MLOAD DUP1 SWAP2 SUB SWAP1 RETURN JUMPDEST PUSH2 0x1FF PUSH2 0x968 JUMP JUMPDEST PUSH1 0x40 MLOAD PUSH2 0x20C SWAP2 SWAP1 PUSH2 0xB98 JUMP JUMPDEST PUSH1 0x40 MLOAD DUP1 SWAP2 SUB SWAP1 RETURN JUMPDEST PUSH32 0x0 DUP2 JUMP JUMPDEST PUSH1 0x3 SLOAD DUP2 JUMP JUMPDEST PUSH1 0x1 SLOAD DUP2 JUMP JUMPDEST PUSH1 0x2 SLOAD DUP2 JUMP JUMPDEST PUSH1 0x4 PUSH1 0x20 MSTORE DUP1 PUSH0 MSTORE PUSH1 0x40 PUSH0 KECCAK256 PUSH0 SWAP2 POP SWAP1 POP SLOAD DUP2 JUMP JUMPDEST PUSH0 DUP1 PUSH1 0x3 SLOAD PUSH1 0x1 SLOAD DUP5 PUSH2 0x273 SWAP2 SWAP1 PUSH2 0xD40 JUMP JUMPDEST PUSH2 0x27D SWAP2 SWAP1 PUSH2 0xDAE JUMP JUMPDEST SWAP2 POP PUSH1 0x3 SLOAD PUSH1 0x2 SLOAD DUP5 PUSH2 0x290 SWAP2 SWAP1 PUSH2 0xD40 JUMP JUMPDEST PUSH2 0x29A SWAP2 SWAP1 PUSH2 0xDAE JUMP JUMPDEST SWAP1 POP PUSH0 DUP3 GT DUP1 ISZERO PUSH2 0x2AA JUMPI POP PUSH0 DUP2 GT JUMPDEST PUSH2 0x2B2 JUMPI PUSH0 DUP1 REVERT JUMPDEST PUSH2 0x2BC CALLER DUP5 PUSH2 0x96D JUMP JUMPDEST PUSH2 0x2E0 DUP3 PUSH1 0x1 SLOAD PUSH2 0x2CD SWAP2 SWAP1 PUSH2 0xDDE JUMP JUMPDEST DUP3 PUSH1 0x2 SLOAD PUSH2 0x2DB SWAP2 SWAP1 PUSH2 0xDDE JUMP JUMPDEST PUSH2 0x9DC JUMP JUMPDEST SWAP2 POP SWAP2 JUMP JUMPDEST PUSH0 DUP1 PUSH1 0x1 SLOAD GT DUP1 ISZERO PUSH2 0x2F8 JUMPI POP PUSH0 PUSH1 0x2 SLOAD GT JUMPDEST ISZERO PUSH2 0x323 JUMPI PUSH1 0x1 SLOAD DUP3 PUSH2 0x30B SWAP2 SWAP1 PUSH2 0xD40 JUMP JUMPDEST PUSH1 0x2 SLOAD DUP5 PUSH2 0x319 SWAP2 SWAP1 PUSH2 0xD40 JUMP JUMPDEST EQ PUSH2 0x322 JUMPI PUSH0 DUP1 REVERT JUMPDEST JUMPDEST PUSH32 0x0 PUSH20 0xFFFFFFFFFFFFFFFFFFFFFFFFFFFFFFFFFFFFFFFF AND PUSH4 0x23B872DD CALLER ADDRESS DUP7 PUSH1 0x40 MLOAD DUP5 PUSH4 0xFFFFFFFF AND PUSH1 0xE0 SHL DUP2 MSTORE PUSH1 0x4 ADD PUSH2 0x380 SWAP4 SWAP3 SWAP2 SWAP1 PUSH2 0xE20 JUMP JUMPDEST PUSH1 0x20 PUSH1 0x40 MLOAD DUP1 DUP4 SUB DUP2 PUSH0 DUP8 GAS CALL ISZERO DUP1 ISZERO PUSH2 0x39C JUMPI RETURNDATASIZE PUSH0 DUP1 RETURNDATACOPY RETURNDATASIZE PUSH0 REVERT JUMPDEST POP POP POP POP PUSH1 0x40 MLOAD RETURNDATASIZE PUSH1 0x1F NOT PUSH1 0x1F DUP3 ADD AND DUP3 ADD DUP1 PUSH1 0x40 MSTORE POP DUP2 ADD SWAP1 PUSH2 0x3C0 SWAP2 SWAP1 PUSH2 0xE8A JUMP JUMPDEST POP PUSH32 0x0 PUSH20 0xFFFFFFFFFFFFFFFFFFFFFFFFFFFFFFFFFFFFFFFF AND PUSH4 0x23B872DD CALLER ADDRESS DUP6 PUSH1 0x40 MLOAD DUP5 PUSH4 0xFFFFFFFF AND PUSH1 0xE0 SHL DUP2 MSTORE PUSH1 0x4 ADD PUSH2 0x41E SWAP4 SWAP3 SWAP2 SWAP1 PUSH2 0xE20 JUMP JUMPDEST PUSH1 0x20 PUSH1 0x40 MLOAD DUP1 DUP4 SUB DUP2 PUSH0 DUP8 GAS CALL ISZERO DUP1 ISZERO PUSH2 0x43A JUMPI RETURNDATASIZE PUSH0 DUP1 RETURNDATACOPY RETURNDATASIZE PUSH0 REVERT JUMPDEST POP POP POP POP PUSH1 0x40 MLOAD RETURNDATASIZE PUSH1 0x1F NOT PUSH1 0x1F DUP3 ADD AND DUP3 ADD DUP1 PUSH1 0x40 MSTORE POP DUP2 ADD SWAP1 PUSH2 0x45E SWAP2 SWAP1 PUSH2 0xE8A JUMP JUMPDEST POP PUSH0 PUSH1 0x3 SLOAD SUB PUSH2 0x483 JUMPI PUSH2 0x47C DUP4 DUP5 PUSH2 0x477 SWAP2 SWAP1 PUSH2 0xD40 JUMP JUMPDEST PUSH2 0x9EE JUMP JUMPDEST SWAP1 POP PUSH2 0x4C4 JUMP JUMPDEST PUSH2 0x4C1 PUSH1 0x1 SLOAD PUSH1 0x3 SLOAD DUP6 PUSH2 0x497 SWAP2 SWAP1 PUSH2 0xD40 JUMP JUMPDEST PUSH2 0x4A1 SWAP2 SWAP1 PUSH2 0xDAE JUMP JUMPDEST PUSH1 0x2 SLOAD PUSH1 0x3 SLOAD DUP6 PUSH2 0x4B2 SWAP2 SWAP1 PUSH2 0xD40 JUMP JUMPDEST PUSH2 0x4BC SWAP2 SWAP1 PUSH2 0xDAE JUMP JUMPDEST PUSH2 0xA65 JUMP JUMPDEST SWAP1 POP JUMPDEST PUSH0 DUP2 GT PUSH2 0x4CF JUMPI PUSH0 DUP1 REVERT JUMPDEST PUSH2 0x4D9 CALLER DUP3 PUSH2 0xA7E JUMP JUMPDEST PUSH2 0x4FD DUP4 PUSH1 0x1 SLOAD PUSH2 0x4EA SWAP2 SWAP1 PUSH2 0xEB5 JUMP JUMPDEST DUP4 PUSH1 0x2 SLOAD PUSH2 0x4F8 SWAP2 SWAP1 PUSH2 0xEB5 JUMP JUMPDEST PUSH2 0x9DC JUMP JUMPDEST SWAP3 SWAP2 POP POP JUMP JUMPDEST PUSH0 DUP1 PUSH20 0xFFFFFFFFFFFFFFFFFFFFFFFFFFFFFFFFFFFFFFFF AND DUP4 PUSH20 0xFFFFFFFFFFFFFFFFFFFFFFFFFFFFFFFFFFFFFFFF AND SUB PUSH2 0x572 JUMPI PUSH1 0x40 MLOAD PUSH32 0x8C379A000000000000000000000000000000000000000000000000000000000 DUP2 MSTORE PUSH1 0x4 ADD PUSH2 0x569 SWAP1 PUSH2 0xF42 JUMP JUMPDEST PUSH1 0x40 MLOAD DUP1 SWAP2 SUB SWAP1 REVERT JUMPDEST PUSH0 DUP3 GT PUSH2 0x5B4 JUMPI PUSH1 0x40 MLOAD PUSH32 0x8C379A000000000000000000000000000000000000000000000000000000000 DUP2 MSTORE PUSH1 0x4 ADD PUSH2 0x5AB SWAP1 PUSH2 0xFAA JUMP JUMPDEST PUSH1 0x40 MLOAD DUP1 SWAP2 SUB SWAP1 REVERT JUMPDEST PUSH32 0x0 PUSH20 0xFFFFFFFFFFFFFFFFFFFFFFFFFFFFFFFFFFFFFFFF AND DUP4 PUSH20 0xFFFFFFFFFFFFFFFFFFFFFFFFFFFFFFFFFFFFFFFF AND EQ DUP1 PUSH2 0x659 JUMPI POP PUSH32 0x0 PUSH20 0xFFFFFFFFFFFFFFFFFFFFFFFFFFFFFFFFFFFFFFFF AND DUP4 PUSH20 0xFFFFFFFFFFFFFFFFFFFFFFFFFFFFFFFFFFFFFFFF AND EQ JUMPDEST PUSH2 0x661 JUMPI PUSH0 DUP1 REVERT JUMPDEST PUSH0 DUP1 PUSH0 DUP1 PUSH32 0x0 PUSH20 0xFFFFFFFFFFFFFFFFFFFFFFFFFFFFFFFFFFFFFFFF AND DUP8 PUSH20 0xFFFFFFFFFFFFFFFFFFFFFFFFFFFFFFFFFFFFFFFF AND EQ PUSH2 0x705 JUMPI PUSH32 0x0 PUSH32 0x0 PUSH1 0x2 SLOAD PUSH1 0x1 SLOAD PUSH2 0x74E JUMP JUMPDEST PUSH32 0x0 PUSH32 0x0 PUSH1 0x1 SLOAD PUSH1 0x2 SLOAD JUMPDEST SWAP4 POP SWAP4 POP SWAP4 POP SWAP4 POP DUP4 PUSH20 0xFFFFFFFFFFFFFFFFFFFFFFFFFFFFFFFFFFFFFFFF AND PUSH4 0x23B872DD CALLER ADDRESS DUP10 PUSH1 0x40 MLOAD DUP5 PUSH4 0xFFFFFFFF AND PUSH1 0xE0 SHL DUP2 MSTORE PUSH1 0x4 ADD PUSH2 0x793 SWAP4 SWAP3 SWAP2 SWAP1 PUSH2 0xE20 JUMP JUMPDEST PUSH1 0x20 PUSH1 0x40 MLOAD DUP1 DUP4 SUB DUP2 PUSH0 DUP8 GAS CALL ISZERO DUP1 ISZERO PUSH2 0x7AF JUMPI RETURNDATASIZE PUSH0 DUP1 RETURNDATACOPY RETURNDATASIZE PUSH0 REVERT JUMPDEST POP POP POP POP PUSH1 0x40 MLOAD RETURNDATASIZE PUSH1 0x1F NOT PUSH1 0x1F DUP3 ADD AND DUP3 ADD DUP1 PUSH1 0x40 MSTORE POP DUP2 ADD SWAP1 PUSH2 0x7D3 SWAP2 SWAP1 PUSH2 0xE8A JUMP JUMPDEST POP PUSH0 PUSH2 0x3E8 PUSH0 SLOAD PUSH2 0x3E8 PUSH2 0x7E7 SWAP2 SWAP1 PUSH2 0xDDE JUMP JUMPDEST DUP9 PUSH2 0x7F2 SWAP2 SWAP1 PUSH2 0xD40 JUMP JUMPDEST PUSH2 0x7FC SWAP2 SWAP1 PUSH2 0xDAE JUMP JUMPDEST SWAP1 POP DUP1 DUP3 PUSH2 0x80A SWAP2 SWAP1 PUSH2 0xEB5 JUMP JUMPDEST DUP2 DUP5 PUSH2 0x816 SWAP2 SWAP1 PUSH2 0xD40 JUMP JUMPDEST PUSH2 0x820 SWAP2 SWAP1 PUSH2 0xDAE JUMP JUMPDEST SWAP6 POP DUP4 PUSH20 0xFFFFFFFFFFFFFFFFFFFFFFFFFFFFFFFFFFFFFFFF AND PUSH4 0xA9059CBB CALLER DUP9 PUSH1 0x40 MLOAD DUP4 PUSH4 0xFFFFFFFF AND PUSH1 0xE0 SHL DUP2 MSTORE PUSH1 0x4 ADD PUSH2 0x85D SWAP3 SWAP2 SWAP1 PUSH2 0xFC8 JUMP JUMPDEST PUSH1 0x20 PUSH1 0x40 MLOAD DUP1 DUP4 SUB DUP2 PUSH0 DUP8 GAS CALL ISZERO DUP1 ISZERO PUSH2 0x879 JUMPI RETURNDATASIZE PUSH0 DUP1 RETURNDATACOPY RETURNDATASIZE PUSH0 REVERT JUMPDEST POP POP POP POP PUSH1 0x40 MLOAD RETURNDATASIZE PUSH1 0x1F NOT PUSH1 0x1F DUP3 ADD AND DUP3 ADD DUP1 PUSH1 0x40 MSTORE POP DUP2 ADD SWAP1 PUSH2 0x89D SWAP2 SWAP1 PUSH2 0xE8A JUMP JUMPDEST POP PUSH0 DUP1 PUSH32 0x0 PUSH20 0xFFFFFFFFFFFFFFFFFFFFFFFFFFFFFFFFFFFFFFFF AND DUP11 PUSH20 0xFFFFFFFFFFFFFFFFFFFFFFFFFFFFFFFFFFFFFFFF AND EQ PUSH2 0x910 JUMPI DUP8 DUP5 PUSH2 0x8FF SWAP2 SWAP1 PUSH2 0xDDE JUMP JUMPDEST DUP4 DUP7 PUSH2 0x90B SWAP2 SWAP1 PUSH2 0xEB5 JUMP JUMPDEST PUSH2 0x929 JUMP JUMPDEST DUP9 DUP6 PUSH2 0x91C SWAP2 SWAP1 PUSH2 0xEB5 JUMP JUMPDEST DUP9 DUP6 PUSH2 0x928 SWAP2 SWAP1 PUSH2 0xDDE JUMP JUMPDEST JUMPDEST SWAP2 POP SWAP2 POP PUSH2 0x937 DUP3 DUP3 PUSH2 0x9DC JUMP JUMPDEST POP POP POP POP POP POP POP SWAP3 SWAP2 POP POP JUMP JUMPDEST PUSH32 0x0 DUP2 JUMP JUMPDEST PUSH0 SLOAD DUP2 JUMP JUMPDEST DUP1 PUSH1 0x4 PUSH0 DUP5 PUSH20 0xFFFFFFFFFFFFFFFFFFFFFFFFFFFFFFFFFFFFFFFF AND PUSH20 0xFFFFFFFFFFFFFFFFFFFFFFFFFFFFFFFFFFFFFFFF AND DUP2 MSTORE PUSH1 0x20 ADD SWAP1 DUP2 MSTORE PUSH1 0x20 ADD PUSH0 KECCAK256 PUSH0 DUP3 DUP3 SLOAD PUSH2 0x9B9 SWAP2 SWAP1 PUSH2 0xDDE JUMP JUMPDEST SWAP3 POP POP DUP2 SWAP1 SSTORE POP DUP1 PUSH1 0x3 PUSH0 DUP3 DUP3 SLOAD PUSH2 0x9D1 SWAP2 SWAP1 PUSH2 0xDDE JUMP JUMPDEST SWAP3 POP POP DUP2 SWAP1 SSTORE POP POP POP JUMP JUMPDEST DUP2 PUSH1 0x1 DUP2 SWAP1 SSTORE POP DUP1 PUSH1 0x2 DUP2 SWAP1 SSTORE POP POP POP JUMP JUMPDEST PUSH0 PUSH1 0x3 DUP3 GT ISZERO PUSH2 0xA53 JUMPI DUP2 SWAP1 POP PUSH0 PUSH1 0x1 PUSH1 0x2 DUP5 PUSH2 0xA0B SWAP2 SWAP1 PUSH2 0xDAE JUMP JUMPDEST PUSH2 0xA15 SWAP2 SWAP1 PUSH2 0xEB5 JUMP JUMPDEST SWAP1 POP JUMPDEST DUP2 DUP2 LT ISZERO PUSH2 0xA4D JUMPI DUP1 SWAP2 POP PUSH1 0x2 DUP2 DUP3 DUP6 PUSH2 0xA32 SWAP2 SWAP1 PUSH2 0xDAE JUMP JUMPDEST PUSH2 0xA3C SWAP2 SWAP1 PUSH2 0xEB5 JUMP JUMPDEST PUSH2 0xA46 SWAP2 SWAP1 PUSH2 0xDAE JUMP JUMPDEST SWAP1 POP PUSH2 0xA18 JUMP JUMPDEST POP PUSH2 0xA60 JUMP JUMPDEST PUSH0 DUP3 EQ PUSH2 0xA5F JUMPI PUSH1 0x1 SWAP1 POP JUMPDEST JUMPDEST SWAP2 SWAP1 POP JUMP JUMPDEST PUSH0 DUP2 DUP4 GT ISZERO PUSH2 0xA74 JUMPI DUP2 PUSH2 0xA76 JUMP JUMPDEST DUP3 JUMPDEST SWAP1 POP SWAP3 SWAP2 POP POP JUMP JUMPDEST DUP1 PUSH1 0x4 PUSH0 DUP5 PUSH20 0xFFFFFFFFFFFFFFFFFFFFFFFFFFFFFFFFFFFFFFFF AND PUSH20 0xFFFFFFFFFFFFFFFFFFFFFFFFFFFFFFFFFFFFFFFF AND DUP2 MSTORE PUSH1 0x20 ADD SWAP1 DUP2 MSTORE PUSH1 0x20 ADD PUSH0 KECCAK256 PUSH0 DUP3 DUP3 SLOAD PUSH2 0xACA SWAP2 SWAP1 PUSH2 0xEB5 JUMP JUMPDEST SWAP3 POP POP DUP2 SWAP1 SSTORE POP DUP1 PUSH1 0x3 PUSH0 DUP3 DUP3 SLOAD PUSH2 0xAE2 SWAP2 SWAP1 PUSH2 0xEB5 JUMP JUMPDEST SWAP3 POP POP DUP2 SWAP1 SSTORE POP POP POP JUMP JUMPDEST PUSH0 PUSH20 0xFFFFFFFFFFFFFFFFFFFFFFFFFFFFFFFFFFFFFFFF DUP3 AND SWAP1 POP SWAP2 SWAP1 POP JUMP JUMPDEST PUSH0 DUP2 SWAP1 POP SWAP2 SWAP1 POP JUMP JUMPDEST PUSH0 PUSH2 0xB2F PUSH2 0xB2A PUSH2 0xB25 DUP5 PUSH2 0xAED JUMP JUMPDEST PUSH2 0xB0C JUMP JUMPDEST PUSH2 0xAED JUMP JUMPDEST SWAP1 POP SWAP2 SWAP1 POP JUMP JUMPDEST PUSH0 PUSH2 0xB40 DUP3 PUSH2 0xB15 JUMP JUMPDEST SWAP1 POP SWAP2 SWAP1 POP JUMP JUMPDEST PUSH0 PUSH2 0xB51 DUP3 PUSH2 0xB36 JUMP JUMPDEST SWAP1 POP SWAP2 SWAP1 POP JUMP JUMPDEST PUSH2 0xB61 DUP2 PUSH2 0xB47 JUMP JUMPDEST DUP3 MSTORE POP POP JUMP JUMPDEST PUSH0 PUSH1 0x20 DUP3 ADD SWAP1 POP PUSH2 0xB7A PUSH0 DUP4 ADD DUP5 PUSH2 0xB58 JUMP JUMPDEST SWAP3 SWAP2 POP POP JUMP JUMPDEST PUSH0 DUP2 SWAP1 POP SWAP2 SWAP1 POP JUMP JUMPDEST PUSH2 0xB92 DUP2 PUSH2 0xB80 JUMP JUMPDEST DUP3 MSTORE POP POP JUMP JUMPDEST PUSH0 PUSH1 0x20 DUP3 ADD SWAP1 POP PUSH2 0xBAB PUSH0 DUP4 ADD DUP5 PUSH2 0xB89 JUMP JUMPDEST SWAP3 SWAP2 POP POP JUMP JUMPDEST PUSH0 DUP1 REVERT JUMPDEST PUSH0 PUSH2 0xBBF DUP3 PUSH2 0xAED JUMP JUMPDEST SWAP1 POP SWAP2 SWAP1 POP JUMP JUMPDEST PUSH2 0xBCF DUP2 PUSH2 0xBB5 JUMP JUMPDEST DUP2 EQ PUSH2 0xBD9 JUMPI PUSH0 DUP1 REVERT JUMPDEST POP JUMP JUMPDEST PUSH0 DUP2 CALLDATALOAD SWAP1 POP PUSH2 0xBEA DUP2 PUSH2 0xBC6 JUMP JUMPDEST SWAP3 SWAP2 POP POP JUMP JUMPDEST PUSH0 PUSH1 0x20 DUP3 DUP5 SUB SLT ISZERO PUSH2 0xC05 JUMPI PUSH2 0xC04 PUSH2 0xBB1 JUMP JUMPDEST JUMPDEST PUSH0 PUSH2 0xC12 DUP5 DUP3 DUP6 ADD PUSH2 0xBDC JUMP JUMPDEST SWAP2 POP POP SWAP3 SWAP2 POP POP JUMP JUMPDEST PUSH2 0xC24 DUP2 PUSH2 0xB80 JUMP JUMPDEST DUP2 EQ PUSH2 0xC2E JUMPI PUSH0 DUP1 REVERT JUMPDEST POP JUMP JUMPDEST PUSH0 DUP2 CALLDATALOAD SWAP1 POP PUSH2 0xC3F DUP2 PUSH2 0xC1B JUMP JUMPDEST SWAP3 SWAP2 POP POP JUMP JUMPDEST PUSH0 PUSH1 0x20 DUP3 DUP5 SUB SLT ISZERO PUSH2 0xC5A JUMPI PUSH2 0xC59 PUSH2 0xBB1 JUMP JUMPDEST JUMPDEST PUSH0 PUSH2 0xC67 DUP5 DUP3 DUP6 ADD PUSH2 0xC31 JUMP JUMPDEST SWAP2 POP POP SWAP3 SWAP2 POP POP JUMP JUMPDEST PUSH0 PUSH1 0x40 DUP3 ADD SWAP1 POP PUSH2 0xC83 PUSH0 DUP4 ADD DUP6 PUSH2 0xB89 JUMP JUMPDEST PUSH2 0xC90 PUSH1 0x20 DUP4 ADD DUP5 PUSH2 0xB89 JUMP JUMPDEST SWAP4 SWAP3 POP POP POP JUMP JUMPDEST PUSH0 DUP1 PUSH1 0x40 DUP4 DUP6 SUB SLT ISZERO PUSH2 0xCAD JUMPI PUSH2 0xCAC PUSH2 0xBB1 JUMP JUMPDEST JUMPDEST PUSH0 PUSH2 0xCBA DUP6 DUP3 DUP7 ADD PUSH2 0xC31 JUMP JUMPDEST SWAP3 POP POP PUSH1 0x20 PUSH2 0xCCB DUP6 DUP3 DUP7 ADD PUSH2 0xC31 JUMP JUMPDEST SWAP2 POP POP SWAP3 POP SWAP3 SWAP1 POP JUMP JUMPDEST PUSH0 DUP1 PUSH1 0x40 DUP4 DUP6 SUB SLT ISZERO PUSH2 0xCEB JUMPI PUSH2 0xCEA PUSH2 0xBB1 JUMP JUMPDEST JUMPDEST PUSH0 PUSH2 0xCF8 DUP6 DUP3 DUP7 ADD PUSH2 0xBDC JUMP JUMPDEST SWAP3 POP POP PUSH1 0x20 PUSH2 0xD09 DUP6 DUP3 DUP7 ADD PUSH2 0xC31 JUMP JUMPDEST SWAP2 POP POP SWAP3 POP SWAP3 SWAP1 POP JUMP JUMPDEST PUSH32 0x4E487B7100000000000000000000000000000000000000000000000000000000 PUSH0 MSTORE PUSH1 0x11 PUSH1 0x4 MSTORE PUSH1 0x24 PUSH0 REVERT JUMPDEST PUSH0 PUSH2 0xD4A DUP3 PUSH2 0xB80 JUMP JUMPDEST SWAP2 POP PUSH2 0xD55 DUP4 PUSH2 0xB80 JUMP JUMPDEST SWAP3 POP DUP3 DUP3 MUL PUSH2 0xD63 DUP2 PUSH2 0xB80 JUMP JUMPDEST SWAP2 POP DUP3 DUP3 DIV DUP5 EQ DUP4 ISZERO OR PUSH2 0xD7A JUMPI PUSH2 0xD79 PUSH2 0xD13 JUMP JUMPDEST JUMPDEST POP SWAP3 SWAP2 POP POP JUMP JUMPDEST PUSH32 0x4E487B7100000000000000000000000000000000000000000000000000000000 PUSH0 MSTORE PUSH1 0x12 PUSH1 0x4 MSTORE PUSH1 0x24 PUSH0 REVERT JUMPDEST PUSH0 PUSH2 0xDB8 DUP3 PUSH2 0xB80 JUMP JUMPDEST SWAP2 POP PUSH2 0xDC3 DUP4 PUSH2 0xB80 JUMP JUMPDEST SWAP3 POP DUP3 PUSH2 0xDD3 JUMPI PUSH2 0xDD2 PUSH2 0xD81 JUMP JUMPDEST JUMPDEST DUP3 DUP3 DIV SWAP1 POP SWAP3 SWAP2 POP POP JUMP JUMPDEST PUSH0 PUSH2 0xDE8 DUP3 PUSH2 0xB80 JUMP JUMPDEST SWAP2 POP PUSH2 0xDF3 DUP4 PUSH2 0xB80 JUMP JUMPDEST SWAP3 POP DUP3 DUP3 SUB SWAP1 POP DUP2 DUP2 GT ISZERO PUSH2 0xE0B JUMPI PUSH2 0xE0A PUSH2 0xD13 JUMP JUMPDEST JUMPDEST SWAP3 SWAP2 POP POP JUMP JUMPDEST PUSH2 0xE1A DUP2 PUSH2 0xBB5 JUMP JUMPDEST DUP3 MSTORE POP POP JUMP JUMPDEST PUSH0 PUSH1 0x60 DUP3 ADD SWAP1 POP PUSH2 0xE33 PUSH0 DUP4 ADD DUP7 PUSH2 0xE11 JUMP JUMPDEST PUSH2 0xE40 PUSH1 0x20 DUP4 ADD DUP6 PUSH2 0xE11 JUMP JUMPDEST PUSH2 0xE4D PUSH1 0x40 DUP4 ADD DUP5 PUSH2 0xB89 JUMP JUMPDEST SWAP5 SWAP4 POP POP POP POP JUMP JUMPDEST PUSH0 DUP2 ISZERO ISZERO SWAP1 POP SWAP2 SWAP1 POP JUMP JUMPDEST PUSH2 0xE69 DUP2 PUSH2 0xE55 JUMP JUMPDEST DUP2 EQ PUSH2 0xE73 JUMPI PUSH0 DUP1 REVERT JUMPDEST POP JUMP JUMPDEST PUSH0 DUP2 MLOAD SWAP1 POP PUSH2 0xE84 DUP2 PUSH2 0xE60 JUMP JUMPDEST SWAP3 SWAP2 POP POP JUMP JUMPDEST PUSH0 PUSH1 0x20 DUP3 DUP5 SUB SLT ISZERO PUSH2 0xE9F JUMPI PUSH2 0xE9E PUSH2 0xBB1 JUMP JUMPDEST JUMPDEST PUSH0 PUSH2 0xEAC DUP5 DUP3 DUP6 ADD PUSH2 0xE76 JUMP JUMPDEST SWAP2 POP POP SWAP3 SWAP2 POP POP JUMP JUMPDEST PUSH0 PUSH2 0xEBF DUP3 PUSH2 0xB80 JUMP JUMPDEST SWAP2 POP PUSH2 0xECA DUP4 PUSH2 0xB80 JUMP JUMPDEST SWAP3 POP DUP3 DUP3 ADD SWAP1 POP DUP1 DUP3 GT ISZERO PUSH2 0xEE2 JUMPI PUSH2 0xEE1 PUSH2 0xD13 JUMP JUMPDEST JUMPDEST SWAP3 SWAP2 POP POP JUMP JUMPDEST PUSH0 DUP3 DUP3 MSTORE PUSH1 0x20 DUP3 ADD SWAP1 POP SWAP3 SWAP2 POP POP JUMP JUMPDEST PUSH32 0x5A45524F20414444524553530000000000000000000000000000000000000000 PUSH0 DUP3 ADD MSTORE POP JUMP JUMPDEST PUSH0 PUSH2 0xF2C PUSH1 0xC DUP4 PUSH2 0xEE8 JUMP JUMPDEST SWAP2 POP PUSH2 0xF37 DUP3 PUSH2 0xEF8 JUMP JUMPDEST PUSH1 0x20 DUP3 ADD SWAP1 POP SWAP2 SWAP1 POP JUMP JUMPDEST PUSH0 PUSH1 0x20 DUP3 ADD SWAP1 POP DUP2 DUP2 SUB PUSH0 DUP4 ADD MSTORE PUSH2 0xF59 DUP2 PUSH2 0xF20 JUMP JUMPDEST SWAP1 POP SWAP2 SWAP1 POP JUMP JUMPDEST PUSH32 0x5A45524F20414D4F554E54000000000000000000000000000000000000000000 PUSH0 DUP3 ADD MSTORE POP JUMP JUMPDEST PUSH0 PUSH2 0xF94 PUSH1 0xB DUP4 PUSH2 0xEE8 JUMP JUMPDEST SWAP2 POP PUSH2 0xF9F DUP3 PUSH2 0xF60 JUMP JUMPDEST PUSH1 0x20 DUP3 ADD SWAP1 POP SWAP2 SWAP1 POP JUMP JUMPDEST PUSH0 PUSH1 0x20 DUP3 ADD SWAP1 POP DUP2 DUP2 SUB PUSH0 DUP4 ADD MSTORE PUSH2 0xFC1 DUP2 PUSH2 0xF88 JUMP JUMPDEST SWAP1 POP SWAP2 SWAP1 POP JUMP JUMPDEST PUSH0 PUSH1 0x40 DUP3 ADD SWAP1 POP PUSH2 0xFDB PUSH0 DUP4 ADD DUP6 PUSH2 0xE11 JUMP JUMPDEST PUSH2 0xFE8 PUSH1 0x20 DUP4 ADD DUP5 PUSH2 0xB89 JUMP JUMPDEST SWAP4 SWAP3 POP POP POP JUMP INVALID LOG2 PUSH5 0x6970667358 0x22 SLT KECCAK256 0xD2 PUSH8 0x1D73A0B45BDD1DBD 0xF8 SWAP8 0xD0 0x4F 0xB6 0xE DIV 0x2D 0xF7 0xE6 0xDA DUP15 BLOBHASH RETURNDATACOPY 0xE7 0xD7 0xB1 0xBF 0xD5 CREATE2 EXTCODECOPY PUSH2 0x6473 PUSH16 0x6C634300081A00330000000000000000 "
				},
				"gasEstimates": {
					"creation": {
						"codeDepositCost": "826600",
						"executionCost": "infinite",
						"totalCost": "infinite"
					},
					"external": {
						"addLiquidity(uint256,uint256)": "infinite",
						"balanceOf(address)": "2891",
						"fee()": "2512",
						"removeLiquidity(uint256)": "infinite",
						"reserve0()": "2470",
						"reserve1()": "2492",
						"swap(address,uint256)": "infinite",
						"token0()": "infinite",
						"token1()": "infinite",
						"totalSupply()": "2448"
					},
					"internal": {
						"_burn(address,uint256)": "infinite",
						"_min(uint256,uint256)": "66",
						"_mint(address,uint256)": "infinite",
						"_sqrt(uint256)": "infinite",
						"_update(uint256,uint256)": "44241"
					}
				},
				"methodIdentifiers": {
					"addLiquidity(uint256,uint256)": "9cd441da",
					"balanceOf(address)": "70a08231",
					"fee()": "ddca3f43",
					"removeLiquidity(uint256)": "9c8f9f23",
					"reserve0()": "443cb4bc",
					"reserve1()": "5a76f25e",
					"swap(address,uint256)": "d004f0f7",
					"token0()": "0dfe1681",
					"token1()": "d21220a7",
					"totalSupply()": "18160ddd"
				}
			},
			"storageLayout": {
				"storage": [
					{
						"astId": 89,
						"contract": "contracts/CPAMM.sol:CPAMM",
						"label": "fee",
						"offset": 0,
						"slot": "0",
						"type": "t_uint256"
					},
					{
						"astId": 91,
						"contract": "contracts/CPAMM.sol:CPAMM",
						"label": "reserve0",
						"offset": 0,
						"slot": "1",
						"type": "t_uint256"
					},
					{
						"astId": 93,
						"contract": "contracts/CPAMM.sol:CPAMM",
						"label": "reserve1",
						"offset": 0,
						"slot": "2",
						"type": "t_uint256"
					},
					{
						"astId": 95,
						"contract": "contracts/CPAMM.sol:CPAMM",
						"label": "totalSupply",
						"offset": 0,
						"slot": "3",
						"type": "t_uint256"
					},
					{
						"astId": 99,
						"contract": "contracts/CPAMM.sol:CPAMM",
						"label": "balanceOf",
						"offset": 0,
						"slot": "4",
						"type": "t_mapping(t_address,t_uint256)"
					}
				],
				"types": {
					"t_address": {
						"encoding": "inplace",
						"label": "address",
						"numberOfBytes": "20"
					},
					"t_mapping(t_address,t_uint256)": {
						"encoding": "mapping",
						"key": "t_address",
						"label": "mapping(address => uint256)",
						"numberOfBytes": "32",
						"value": "t_uint256"
					},
					"t_uint256": {
						"encoding": "inplace",
						"label": "uint256",
						"numberOfBytes": "32"
					}
				}
			},
			"userdoc": {
				"kind": "user",
				"methods": {},
				"version": 1
			}
		}
	}
}